{
  "_format": "hh-sol-artifact-1",
  "contractName": "TectonicCoreV3Storage",
  "sourceName": "contracts/tectonic/TectonicCoreStorage.sol",
  "abi": [
    {
      "constant": true,
      "inputs": [],
      "name": "_borrowGuardianPaused",
      "outputs": [
        {
          "internalType": "bool",
          "name": "",
          "type": "bool"
        }
      ],
      "payable": false,
      "stateMutability": "view",
      "type": "function"
    },
    {
      "constant": true,
      "inputs": [],
      "name": "_mintGuardianPaused",
      "outputs": [
        {
          "internalType": "bool",
          "name": "",
          "type": "bool"
        }
      ],
      "payable": false,
      "stateMutability": "view",
      "type": "function"
    },
    {
      "constant": true,
      "inputs": [
        {
          "internalType": "address",
          "name": "",
          "type": "address"
        },
        {
          "internalType": "uint256",
          "name": "",
          "type": "uint256"
        }
      ],
      "name": "accountAssets",
      "outputs": [
        {
          "internalType": "address",
          "name": "",
          "type": "address"
        }
      ],
      "payable": false,
      "stateMutability": "view",
      "type": "function"
    },
    {
      "constant": true,
      "inputs": [],
      "name": "admin",
      "outputs": [
        {
          "internalType": "address",
          "name": "",
          "type": "address"
        }
      ],
      "payable": false,
      "stateMutability": "view",
      "type": "function"
    },
    {
      "constant": true,
      "inputs": [
        {
          "internalType": "uint256",
          "name": "",
          "type": "uint256"
        }
      ],
      "name": "allMarkets",
      "outputs": [
        {
          "internalType": "contract TToken",
          "name": "",
          "type": "address"
        }
      ],
      "payable": false,
      "stateMutability": "view",
      "type": "function"
    },
    {
      "constant": true,
      "inputs": [
        {
          "internalType": "address",
          "name": "",
          "type": "address"
        }
      ],
      "name": "borrowGuardianPaused",
      "outputs": [
        {
          "internalType": "bool",
          "name": "",
          "type": "bool"
        }
      ],
      "payable": false,
      "stateMutability": "view",
      "type": "function"
    },
    {
      "constant": true,
      "inputs": [],
      "name": "closeFactorMantissa",
      "outputs": [
        {
          "internalType": "uint256",
          "name": "",
          "type": "uint256"
        }
      ],
      "payable": false,
      "stateMutability": "view",
      "type": "function"
    },
    {
      "constant": true,
      "inputs": [],
      "name": "liquidationIncentiveMantissa",
      "outputs": [
        {
          "internalType": "uint256",
          "name": "",
          "type": "uint256"
        }
      ],
      "payable": false,
      "stateMutability": "view",
      "type": "function"
    },
    {
      "constant": true,
      "inputs": [
        {
          "internalType": "address",
          "name": "",
          "type": "address"
        }
      ],
      "name": "markets",
      "outputs": [
        {
          "internalType": "bool",
          "name": "isListed",
          "type": "bool"
        },
        {
          "internalType": "uint256",
          "name": "collateralFactorMantissa",
          "type": "uint256"
        },
        {
          "internalType": "bool",
          "name": "isTonicized",
          "type": "bool"
        }
      ],
      "payable": false,
      "stateMutability": "view",
      "type": "function"
    },
    {
      "constant": true,
      "inputs": [],
      "name": "maxAssets",
      "outputs": [
        {
          "internalType": "uint256",
          "name": "",
          "type": "uint256"
        }
      ],
      "payable": false,
      "stateMutability": "view",
      "type": "function"
    },
    {
      "constant": true,
      "inputs": [
        {
          "internalType": "address",
          "name": "",
          "type": "address"
        }
      ],
      "name": "mintGuardianPaused",
      "outputs": [
        {
          "internalType": "bool",
          "name": "",
          "type": "bool"
        }
      ],
      "payable": false,
      "stateMutability": "view",
      "type": "function"
    },
    {
      "constant": true,
      "inputs": [],
      "name": "oracle",
      "outputs": [
        {
          "internalType": "contract PriceOracle",
          "name": "",
          "type": "address"
        }
      ],
      "payable": false,
      "stateMutability": "view",
      "type": "function"
    },
    {
      "constant": true,
      "inputs": [],
      "name": "pauseGuardian",
      "outputs": [
        {
          "internalType": "address",
          "name": "",
          "type": "address"
        }
      ],
      "payable": false,
      "stateMutability": "view",
      "type": "function"
    },
    {
      "constant": true,
      "inputs": [],
      "name": "pendingAdmin",
      "outputs": [
        {
          "internalType": "address",
          "name": "",
          "type": "address"
        }
      ],
      "payable": false,
      "stateMutability": "view",
      "type": "function"
    },
    {
      "constant": true,
      "inputs": [],
      "name": "pendingTectonicCoreImplementation",
      "outputs": [
        {
          "internalType": "address",
          "name": "",
          "type": "address"
        }
      ],
      "payable": false,
      "stateMutability": "view",
      "type": "function"
    },
    {
      "constant": true,
      "inputs": [],
      "name": "seizeGuardianPaused",
      "outputs": [
        {
          "internalType": "bool",
          "name": "",
          "type": "bool"
        }
      ],
      "payable": false,
      "stateMutability": "view",
      "type": "function"
    },
    {
      "constant": true,
      "inputs": [],
      "name": "tectonicCoreImplementation",
      "outputs": [
        {
          "internalType": "address",
          "name": "",
          "type": "address"
        }
      ],
      "payable": false,
      "stateMutability": "view",
      "type": "function"
    },
    {
      "constant": true,
      "inputs": [
        {
          "internalType": "address",
          "name": "",
          "type": "address"
        }
      ],
      "name": "tonicAccrued",
      "outputs": [
        {
          "internalType": "uint256",
          "name": "",
          "type": "uint256"
        }
      ],
      "payable": false,
      "stateMutability": "view",
      "type": "function"
    },
    {
      "constant": true,
      "inputs": [
        {
          "internalType": "address",
          "name": "",
          "type": "address"
        }
      ],
      "name": "tonicBorrowState",
      "outputs": [
        {
          "internalType": "uint224",
          "name": "index",
          "type": "uint224"
        },
        {
          "internalType": "uint32",
          "name": "block",
          "type": "uint32"
        }
      ],
      "payable": false,
      "stateMutability": "view",
      "type": "function"
    },
    {
      "constant": true,
      "inputs": [
        {
          "internalType": "address",
          "name": "",
          "type": "address"
        },
        {
          "internalType": "address",
          "name": "",
          "type": "address"
        }
      ],
      "name": "tonicBorrowerIndex",
      "outputs": [
        {
          "internalType": "uint256",
          "name": "",
          "type": "uint256"
        }
      ],
      "payable": false,
      "stateMutability": "view",
      "type": "function"
    },
    {
      "constant": true,
      "inputs": [],
      "name": "tonicRate",
      "outputs": [
        {
          "internalType": "uint256",
          "name": "",
          "type": "uint256"
        }
      ],
      "payable": false,
      "stateMutability": "view",
      "type": "function"
    },
    {
      "constant": true,
      "inputs": [
        {
          "internalType": "address",
          "name": "",
          "type": "address"
        }
      ],
      "name": "tonicSpeeds",
      "outputs": [
        {
          "internalType": "uint256",
          "name": "",
          "type": "uint256"
        }
      ],
      "payable": false,
      "stateMutability": "view",
      "type": "function"
    },
    {
      "constant": true,
      "inputs": [
        {
          "internalType": "address",
          "name": "",
          "type": "address"
        },
        {
          "internalType": "address",
          "name": "",
          "type": "address"
        }
      ],
      "name": "tonicSupplierIndex",
      "outputs": [
        {
          "internalType": "uint256",
          "name": "",
          "type": "uint256"
        }
      ],
      "payable": false,
      "stateMutability": "view",
      "type": "function"
    },
    {
      "constant": true,
      "inputs": [
        {
          "internalType": "address",
          "name": "",
          "type": "address"
        }
      ],
      "name": "tonicSupplyState",
      "outputs": [
        {
          "internalType": "uint224",
          "name": "index",
          "type": "uint224"
        },
        {
          "internalType": "uint32",
          "name": "block",
          "type": "uint32"
        }
      ],
      "payable": false,
      "stateMutability": "view",
      "type": "function"
    },
    {
      "constant": true,
      "inputs": [],
      "name": "transferGuardianPaused",
      "outputs": [
        {
          "internalType": "bool",
          "name": "",
          "type": "bool"
        }
      ],
      "payable": false,
      "stateMutability": "view",
      "type": "function"
    }
  ],
  "bytecode": "0x608060405234801561001057600080fd5b50610668806100206000396000f3fe608060405234801561001057600080fd5b50600436106101735760003560e01c80637404e92c116100de578063af3fbb5811610097578063dce1544911610071578063dce15449146103df578063e6653f3d1461040b578063e875544614610413578063f851a4401461041b57610173565b8063af3fbb581461035d578063be493f1e1461038b578063c7a6552a146103b157610173565b80637404e92c146102ed5780637dc0d1d0146102f557806387f76303146102fd5780638e8f294b1461030557806394b2294b1461034d578063ac0b0bb71461035557610173565b8063454aafe011610130578063454aafe0146102085780634ada90af1461025657806352d84d1e1461025e57806366dd2e321461027b5780636d154ea5146102a1578063731f0c2b146102c757610173565b80630b2efed614610178578063248fb15c1461019c57806324a3d622146101b657806326782247146101be5780633c94786f146101c65780633cb9ea6c146101e2575b600080fd5b610180610423565b604080516001600160a01b039092168252519081900360200190f35b6101a4610432565b60408051918252519081900360200190f35b610180610438565b610180610447565b6101ce610456565b604080519115158252519081900360200190f35b6101a4600480360360208110156101f857600080fd5b50356001600160a01b0316610466565b61022e6004803603602081101561021e57600080fd5b50356001600160a01b0316610478565b604080516001600160e01b03909316835263ffffffff90911660208301528051918290030190f35b6101a46104a2565b6101806004803603602081101561027457600080fd5b50356104a8565b6101a46004803603602081101561029157600080fd5b50356001600160a01b03166104cf565b6101ce600480360360208110156102b757600080fd5b50356001600160a01b03166104e1565b6101ce600480360360208110156102dd57600080fd5b50356001600160a01b03166104f6565b61018061050b565b61018061051a565b6101ce610529565b61032b6004803603602081101561031b57600080fd5b50356001600160a01b0316610539565b6040805193151584526020840192909252151582820152519081900360600190f35b6101a461055f565b6101ce610565565b6101a46004803603604081101561037357600080fd5b506001600160a01b0381358116916020013516610575565b61022e600480360360208110156103a157600080fd5b50356001600160a01b0316610592565b6101a4600480360360408110156103c757600080fd5b506001600160a01b03813581169160200135166105bc565b610180600480360360408110156103f557600080fd5b506001600160a01b0381351690602001356105d9565b6101ce61060e565b6101a461061e565b610180610624565b6003546001600160a01b031681565b600e5481565b600a546001600160a01b031681565b6001546001600160a01b031681565b600a54600160a01b900460ff1681565b600f6020526000908152604090205481565b6011602052600090815260409020546001600160e01b03811690600160e01b900463ffffffff1682565b60065481565b600d81815481106104b557fe5b6000918252602090912001546001600160a01b0316905081565b60146020526000908152604090205481565b600c6020526000908152604090205460ff1681565b600b6020526000908152604090205460ff1681565b6002546001600160a01b031681565b6004546001600160a01b031681565b600a54600160b01b900460ff1681565b60096020526000908152604090208054600182015460039092015460ff91821692911683565b60075481565b600a54600160b81b900460ff1681565b601360209081526000928352604080842090915290825290205481565b6010602052600090815260409020546001600160e01b03811690600160e01b900463ffffffff1682565b601260209081526000928352604080842090915290825290205481565b600860205281600052604060002081815481106105f257fe5b6000918252602090912001546001600160a01b03169150829050565b600a54600160a81b900460ff1681565b60055481565b6000546001600160a01b03168156fea265627a7a723158206433dc8f534312863c40b20a000bd97af4ca61b5b88711ddf9230685622965d364736f6c63430005100032",
  "linkReferences": {},
  "deployedLinkReferences": {}
}