{
  "_format": "hh-sol-artifact-1",
  "contractName": "SimplePriceOracle",
  "sourceName": "contracts/tectonic/SimplePriceOracle.sol",
  "abi": [
    {
      "anonymous": false,
      "inputs": [
        {
          "indexed": false,
          "internalType": "address",
          "name": "asset",
          "type": "address"
        },
        {
          "indexed": false,
          "internalType": "uint256",
          "name": "previousPriceMantissa",
          "type": "uint256"
        },
        {
          "indexed": false,
          "internalType": "uint256",
          "name": "requestedPriceMantissa",
          "type": "uint256"
        },
        {
          "indexed": false,
          "internalType": "uint256",
          "name": "newPriceMantissa",
          "type": "uint256"
        }
      ],
      "name": "PricePosted",
      "type": "event"
    },
    {
      "constant": true,
      "inputs": [
        {
          "internalType": "contract TToken",
          "name": "tToken",
          "type": "address"
        }
      ],
      "name": "getUnderlyingPrice",
      "outputs": [
        {
          "internalType": "uint256",
          "name": "",
          "type": "uint256"
        }
      ],
      "payable": false,
      "stateMutability": "view",
      "type": "function"
    },
    {
      "constant": true,
      "inputs": [],
      "name": "isPriceOracle",
      "outputs": [
        {
          "internalType": "bool",
          "name": "",
          "type": "bool"
        }
      ],
      "payable": false,
      "stateMutability": "view",
      "type": "function"
    },
    {
      "constant": true,
      "inputs": [
        {
          "internalType": "address",
          "name": "",
          "type": "address"
        }
      ],
      "name": "prices",
      "outputs": [
        {
          "internalType": "uint256",
          "name": "",
          "type": "uint256"
        }
      ],
      "payable": false,
      "stateMutability": "view",
      "type": "function"
    },
    {
      "constant": false,
      "inputs": [
        {
          "internalType": "contract TToken",
          "name": "tToken",
          "type": "address"
        },
        {
          "internalType": "uint256",
          "name": "underlyingPriceMantissa",
          "type": "uint256"
        }
      ],
      "name": "setUnderlyingPrice",
      "outputs": [],
      "payable": false,
      "stateMutability": "nonpayable",
      "type": "function"
    }
  ],
  "bytecode": "0x608060405234801561001057600080fd5b506101d8806100206000396000f3fe608060405234801561001057600080fd5b506004361061004c5760003560e01c8063127ffda01461005157806366331bba1461007f578063cfed246b1461009b578063fc57d4df146100d3575b600080fd5b61007d6004803603604081101561006757600080fd5b506001600160a01b0381351690602001356100f9565b005b610087610171565b604080519115158252519081900360200190f35b6100c1600480360360208110156100b157600080fd5b50356001600160a01b0316610176565b60408051918252519081900360200190f35b6100c1600480360360208110156100e957600080fd5b50356001600160a01b0316610188565b6001600160a01b038216600081815260208181526040918290205482519384529083015281810183905260608201839052517fdd71a1d19fcba687442a1d5c58578f1e409af71a79d10fd95a4d66efd8fa9ae79181900360800190a16001600160a01b03909116600090815260208190526040902055565b600181565b60006020819052908152604090205481565b6001600160a01b03166000908152602081905260409020549056fea265627a7a723158202be7c491ed30fd7af163ea1bf530990458379e0989478229bf7d3634aea4dc7564736f6c63430005100032",
  "linkReferences": {},
  "deployedLinkReferences": {}
}