{
  "_format": "hh-sol-artifact-1",
  "contractName": "TectonicCoreTest",
  "sourceName": "contracts/tectonic/TectonicCoreTest.sol",
  "abi": [
    {
      "constant": true,
      "inputs": [],
      "name": "ping",
      "outputs": [
        {
          "internalType": "uint256",
          "name": "",
          "type": "uint256"
        }
      ],
      "payable": false,
      "stateMutability": "pure",
      "type": "function"
    }
  ],
  "bytecode": "0x6080604052348015600f57600080fd5b50607f8061001e6000396000f3fe6080604052348015600f57600080fd5b506004361060285760003560e01c80635c36b18614602d575b600080fd5b60336045565b60408051918252519081900360200190f35b60019056fea265627a7a72315820b91cef4dab728a732854dd8e336edcb25833b13504fde41b9430e8af66c7404f64736f6c63430005100032",
  "linkReferences": {},
  "deployedLinkReferences": {}
}