{"contracts/tectonic/TectonicCoreTest.sol":{"TectonicCoreTest":{"abi":[{"constant":true,"inputs":[],"name":"ping","outputs":[{"internalType":"uint256","name":"","type":"uint256"}],"payable":false,"stateMutability":"pure","type":"function"}],"evm":{"bytecode":{"linkReferences":{},"object":"6080604052348015600f57600080fd5b50607f8061001e6000396000f3fe6080604052348015600f57600080fd5b506004361060285760003560e01c80635c36b18614602d575b600080fd5b60336045565b60408051918252519081900360200190f35b60019056fea265627a7a72315820b91cef4dab728a732854dd8e336edcb25833b13504fde41b9430e8af66c7404f64736f6c63430005100032","opcodes":"PUSH1 0x80 PUSH1 0x40 MSTORE CALLVALUE DUP1 ISZERO PUSH1 0xF JUMPI PUSH1 0x0 DUP1 REVERT JUMPDEST POP PUSH1 0x7F DUP1 PUSH2 0x1E PUSH1 0x0 CODECOPY PUSH1 0x0 RETURN INVALID PUSH1 0x80 PUSH1 0x40 MSTORE CALLVALUE DUP1 ISZERO PUSH1 0xF JUMPI PUSH1 0x0 DUP1 REVERT JUMPDEST POP PUSH1 0x4 CALLDATASIZE LT PUSH1 0x28 JUMPI PUSH1 0x0 CALLDATALOAD PUSH1 0xE0 SHR DUP1 PUSH4 0x5C36B186 EQ PUSH1 0x2D JUMPI JUMPDEST PUSH1 0x0 DUP1 REVERT JUMPDEST PUSH1 0x33 PUSH1 0x45 JUMP JUMPDEST PUSH1 0x40 DUP1 MLOAD SWAP2 DUP3 MSTORE MLOAD SWAP1 DUP2 SWAP1 SUB PUSH1 0x20 ADD SWAP1 RETURN JUMPDEST PUSH1 0x1 SWAP1 JUMP INVALID LOG2 PUSH6 0x627A7A723158 KECCAK256 0xB9 SHR 0xEF 0x4D 0xAB PUSH19 0x8A732854DD8E336EDCB25833B13504FDE41B94 ADDRESS 0xE8 0xAF PUSH7 0xC7404F64736F6C PUSH4 0x43000510 STOP ORIGIN "},"methodIdentifiers":{"ping()":"5c36b186"}}}}}