{"contracts/tectonic/TectonicCoreStorage.sol":{"TectonicCoreV4Storage":{"abi":[{"constant":true,"inputs":[],"name":"_borrowGuardianPaused","outputs":[{"internalType":"bool","name":"","type":"bool"}],"payable":false,"stateMutability":"view","type":"function"},{"constant":true,"inputs":[],"name":"_mintGuardianPaused","outputs":[{"internalType":"bool","name":"","type":"bool"}],"payable":false,"stateMutability":"view","type":"function"},{"constant":true,"inputs":[{"internalType":"address","name":"","type":"address"},{"internalType":"uint256","name":"","type":"uint256"}],"name":"accountAssets","outputs":[{"internalType":"address","name":"","type":"address"}],"payable":false,"stateMutability":"view","type":"function"},{"constant":true,"inputs":[],"name":"admin","outputs":[{"internalType":"address","name":"","type":"address"}],"payable":false,"stateMutability":"view","type":"function"},{"constant":true,"inputs":[{"internalType":"uint256","name":"","type":"uint256"}],"name":"allMarkets","outputs":[{"internalType":"contract TToken","name":"","type":"address"}],"payable":false,"stateMutability":"view","type":"function"},{"constant":true,"inputs":[],"name":"borrowCapGuardian","outputs":[{"internalType":"address","name":"","type":"address"}],"payable":false,"stateMutability":"view","type":"function"},{"constant":true,"inputs":[{"internalType":"address","name":"","type":"address"}],"name":"borrowCaps","outputs":[{"internalType":"uint256","name":"","type":"uint256"}],"payable":false,"stateMutability":"view","type":"function"},{"constant":true,"inputs":[{"internalType":"address","name":"","type":"address"}],"name":"borrowGuardianPaused","outputs":[{"internalType":"bool","name":"","type":"bool"}],"payable":false,"stateMutability":"view","type":"function"},{"constant":true,"inputs":[],"name":"closeFactorMantissa","outputs":[{"internalType":"uint256","name":"","type":"uint256"}],"payable":false,"stateMutability":"view","type":"function"},{"constant":true,"inputs":[],"name":"liquidationIncentiveMantissa","outputs":[{"internalType":"uint256","name":"","type":"uint256"}],"payable":false,"stateMutability":"view","type":"function"},{"constant":true,"inputs":[{"internalType":"address","name":"","type":"address"}],"name":"markets","outputs":[{"internalType":"bool","name":"isListed","type":"bool"},{"internalType":"uint256","name":"collateralFactorMantissa","type":"uint256"},{"internalType":"bool","name":"isTonicized","type":"bool"}],"payable":false,"stateMutability":"view","type":"function"},{"constant":true,"inputs":[],"name":"maxAssets","outputs":[{"internalType":"uint256","name":"","type":"uint256"}],"payable":false,"stateMutability":"view","type":"function"},{"constant":true,"inputs":[{"internalType":"address","name":"","type":"address"}],"name":"mintGuardianPaused","outputs":[{"internalType":"bool","name":"","type":"bool"}],"payable":false,"stateMutability":"view","type":"function"},{"constant":true,"inputs":[],"name":"oracle","outputs":[{"internalType":"contract PriceOracle","name":"","type":"address"}],"payable":false,"stateMutability":"view","type":"function"},{"constant":true,"inputs":[],"name":"pauseGuardian","outputs":[{"internalType":"address","name":"","type":"address"}],"payable":false,"stateMutability":"view","type":"function"},{"constant":true,"inputs":[],"name":"pendingAdmin","outputs":[{"internalType":"address","name":"","type":"address"}],"payable":false,"stateMutability":"view","type":"function"},{"constant":true,"inputs":[],"name":"pendingTectonicCoreImplementation","outputs":[{"internalType":"address","name":"","type":"address"}],"payable":false,"stateMutability":"view","type":"function"},{"constant":true,"inputs":[],"name":"seizeGuardianPaused","outputs":[{"internalType":"bool","name":"","type":"bool"}],"payable":false,"stateMutability":"view","type":"function"},{"constant":true,"inputs":[],"name":"tectonicCoreImplementation","outputs":[{"internalType":"address","name":"","type":"address"}],"payable":false,"stateMutability":"view","type":"function"},{"constant":true,"inputs":[{"internalType":"address","name":"","type":"address"}],"name":"tonicAccrued","outputs":[{"internalType":"uint256","name":"","type":"uint256"}],"payable":false,"stateMutability":"view","type":"function"},{"constant":true,"inputs":[{"internalType":"address","name":"","type":"address"}],"name":"tonicBorrowState","outputs":[{"internalType":"uint224","name":"index","type":"uint224"},{"internalType":"uint32","name":"block","type":"uint32"}],"payable":false,"stateMutability":"view","type":"function"},{"constant":true,"inputs":[{"internalType":"address","name":"","type":"address"},{"internalType":"address","name":"","type":"address"}],"name":"tonicBorrowerIndex","outputs":[{"internalType":"uint256","name":"","type":"uint256"}],"payable":false,"stateMutability":"view","type":"function"},{"constant":true,"inputs":[],"name":"tonicRate","outputs":[{"internalType":"uint256","name":"","type":"uint256"}],"payable":false,"stateMutability":"view","type":"function"},{"constant":true,"inputs":[{"internalType":"address","name":"","type":"address"}],"name":"tonicSpeeds","outputs":[{"internalType":"uint256","name":"","type":"uint256"}],"payable":false,"stateMutability":"view","type":"function"},{"constant":true,"inputs":[{"internalType":"address","name":"","type":"address"},{"internalType":"address","name":"","type":"address"}],"name":"tonicSupplierIndex","outputs":[{"internalType":"uint256","name":"","type":"uint256"}],"payable":false,"stateMutability":"view","type":"function"},{"constant":true,"inputs":[{"internalType":"address","name":"","type":"address"}],"name":"tonicSupplyState","outputs":[{"internalType":"uint224","name":"index","type":"uint224"},{"internalType":"uint32","name":"block","type":"uint32"}],"payable":false,"stateMutability":"view","type":"function"},{"constant":true,"inputs":[],"name":"transferGuardianPaused","outputs":[{"internalType":"bool","name":"","type":"bool"}],"payable":false,"stateMutability":"view","type":"function"}],"evm":{"bytecode":{"linkReferences":{},"object":"608060405234801561001057600080fd5b506106ed806100206000396000f3fe608060405234801561001057600080fd5b50600436106101a95760003560e01c8063731f0c2b116100f9578063af3fbb5811610097578063dce1544911610071578063dce1544914610443578063e6653f3d1461046f578063e875544614610477578063f851a4401461047f576101a9565b8063af3fbb58146103c1578063be493f1e146103ef578063c7a6552a14610415576101a9565b806387f76303116100d357806387f76303146103615780638e8f294b1461036957806394b2294b146103b1578063ac0b0bb7146103b9576101a9565b8063731f0c2b1461032b5780637404e92c146103515780637dc0d1d014610359576101a9565b80633cb9ea6c116101665780634ada90af116101405780634ada90af146102ba57806352d84d1e146102c257806366dd2e32146102df5780636d154ea514610305576101a9565b80633cb9ea6c14610220578063454aafe0146102465780634a58443214610294576101a9565b80630b2efed6146101ae57806321af4569146101d2578063248fb15c146101da57806324a3d622146101f457806326782247146101fc5780633c94786f14610204575b600080fd5b6101b6610487565b604080516001600160a01b039092168252519081900360200190f35b6101b6610496565b6101e26104a5565b60408051918252519081900360200190f35b6101b66104ab565b6101b66104ba565b61020c6104c9565b604080519115158252519081900360200190f35b6101e26004803603602081101561023657600080fd5b50356001600160a01b03166104d9565b61026c6004803603602081101561025c57600080fd5b50356001600160a01b03166104eb565b604080516001600160e01b03909316835263ffffffff90911660208301528051918290030190f35b6101e2600480360360208110156102aa57600080fd5b50356001600160a01b0316610515565b6101e2610527565b6101b6600480360360208110156102d857600080fd5b503561052d565b6101e2600480360360208110156102f557600080fd5b50356001600160a01b0316610554565b61020c6004803603602081101561031b57600080fd5b50356001600160a01b0316610566565b61020c6004803603602081101561034157600080fd5b50356001600160a01b031661057b565b6101b6610590565b6101b661059f565b61020c6105ae565b61038f6004803603602081101561037f57600080fd5b50356001600160a01b03166105be565b6040805193151584526020840192909252151582820152519081900360600190f35b6101e26105e4565b61020c6105ea565b6101e2600480360360408110156103d757600080fd5b506001600160a01b03813581169160200135166105fa565b61026c6004803603602081101561040557600080fd5b50356001600160a01b0316610617565b6101e26004803603604081101561042b57600080fd5b506001600160a01b0381358116916020013516610641565b6101b66004803603604081101561045957600080fd5b506001600160a01b03813516906020013561065e565b61020c610693565b6101e26106a3565b6101b66106a9565b6003546001600160a01b031681565b6015546001600160a01b031681565b600e5481565b600a546001600160a01b031681565b6001546001600160a01b031681565b600a54600160a01b900460ff1681565b600f6020526000908152604090205481565b6011602052600090815260409020546001600160e01b03811690600160e01b900463ffffffff1682565b60166020526000908152604090205481565b60065481565b600d818154811061053a57fe5b6000918252602090912001546001600160a01b0316905081565b60146020526000908152604090205481565b600c6020526000908152604090205460ff1681565b600b6020526000908152604090205460ff1681565b6002546001600160a01b031681565b6004546001600160a01b031681565b600a54600160b01b900460ff1681565b60096020526000908152604090208054600182015460039092015460ff91821692911683565b60075481565b600a54600160b81b900460ff1681565b601360209081526000928352604080842090915290825290205481565b6010602052600090815260409020546001600160e01b03811690600160e01b900463ffffffff1682565b601260209081526000928352604080842090915290825290205481565b6008602052816000526040600020818154811061067757fe5b6000918252602090912001546001600160a01b03169150829050565b600a54600160a81b900460ff1681565b60055481565b6000546001600160a01b03168156fea265627a7a723158202e9588f660e2bf1d3096e746e0ba0a75411bdea8d788da14a3dd8298c965029564736f6c63430005100032","opcodes":"PUSH1 0x80 PUSH1 0x40 MSTORE CALLVALUE DUP1 ISZERO PUSH2 0x10 JUMPI PUSH1 0x0 DUP1 REVERT JUMPDEST POP PUSH2 0x6ED DUP1 PUSH2 0x20 PUSH1 0x0 CODECOPY PUSH1 0x0 RETURN INVALID PUSH1 0x80 PUSH1 0x40 MSTORE CALLVALUE DUP1 ISZERO PUSH2 0x10 JUMPI PUSH1 0x0 DUP1 REVERT JUMPDEST POP PUSH1 0x4 CALLDATASIZE LT PUSH2 0x1A9 JUMPI PUSH1 0x0 CALLDATALOAD PUSH1 0xE0 SHR DUP1 PUSH4 0x731F0C2B GT PUSH2 0xF9 JUMPI DUP1 PUSH4 0xAF3FBB58 GT PUSH2 0x97 JUMPI DUP1 PUSH4 0xDCE15449 GT PUSH2 0x71 JUMPI DUP1 PUSH4 0xDCE15449 EQ PUSH2 0x443 JUMPI DUP1 PUSH4 0xE6653F3D EQ PUSH2 0x46F JUMPI DUP1 PUSH4 0xE8755446 EQ PUSH2 0x477 JUMPI DUP1 PUSH4 0xF851A440 EQ PUSH2 0x47F JUMPI PUSH2 0x1A9 JUMP JUMPDEST DUP1 PUSH4 0xAF3FBB58 EQ PUSH2 0x3C1 JUMPI DUP1 PUSH4 0xBE493F1E EQ PUSH2 0x3EF JUMPI DUP1 PUSH4 0xC7A6552A EQ PUSH2 0x415 JUMPI PUSH2 0x1A9 JUMP JUMPDEST DUP1 PUSH4 0x87F76303 GT PUSH2 0xD3 JUMPI DUP1 PUSH4 0x87F76303 EQ PUSH2 0x361 JUMPI DUP1 PUSH4 0x8E8F294B EQ PUSH2 0x369 JUMPI DUP1 PUSH4 0x94B2294B EQ PUSH2 0x3B1 JUMPI DUP1 PUSH4 0xAC0B0BB7 EQ PUSH2 0x3B9 JUMPI PUSH2 0x1A9 JUMP JUMPDEST DUP1 PUSH4 0x731F0C2B EQ PUSH2 0x32B JUMPI DUP1 PUSH4 0x7404E92C EQ PUSH2 0x351 JUMPI DUP1 PUSH4 0x7DC0D1D0 EQ PUSH2 0x359 JUMPI PUSH2 0x1A9 JUMP JUMPDEST DUP1 PUSH4 0x3CB9EA6C GT PUSH2 0x166 JUMPI DUP1 PUSH4 0x4ADA90AF GT PUSH2 0x140 JUMPI DUP1 PUSH4 0x4ADA90AF EQ PUSH2 0x2BA JUMPI DUP1 PUSH4 0x52D84D1E EQ PUSH2 0x2C2 JUMPI DUP1 PUSH4 0x66DD2E32 EQ PUSH2 0x2DF JUMPI DUP1 PUSH4 0x6D154EA5 EQ PUSH2 0x305 JUMPI PUSH2 0x1A9 JUMP JUMPDEST DUP1 PUSH4 0x3CB9EA6C EQ PUSH2 0x220 JUMPI DUP1 PUSH4 0x454AAFE0 EQ PUSH2 0x246 JUMPI DUP1 PUSH4 0x4A584432 EQ PUSH2 0x294 JUMPI PUSH2 0x1A9 JUMP JUMPDEST DUP1 PUSH4 0xB2EFED6 EQ PUSH2 0x1AE JUMPI DUP1 PUSH4 0x21AF4569 EQ PUSH2 0x1D2 JUMPI DUP1 PUSH4 0x248FB15C EQ PUSH2 0x1DA JUMPI DUP1 PUSH4 0x24A3D622 EQ PUSH2 0x1F4 JUMPI DUP1 PUSH4 0x26782247 EQ PUSH2 0x1FC JUMPI DUP1 PUSH4 0x3C94786F EQ PUSH2 0x204 JUMPI JUMPDEST PUSH1 0x0 DUP1 REVERT JUMPDEST PUSH2 0x1B6 PUSH2 0x487 JUMP JUMPDEST PUSH1 0x40 DUP1 MLOAD PUSH1 0x1 PUSH1 0x1 PUSH1 0xA0 SHL SUB SWAP1 SWAP3 AND DUP3 MSTORE MLOAD SWAP1 DUP2 SWAP1 SUB PUSH1 0x20 ADD SWAP1 RETURN JUMPDEST PUSH2 0x1B6 PUSH2 0x496 JUMP JUMPDEST PUSH2 0x1E2 PUSH2 0x4A5 JUMP JUMPDEST PUSH1 0x40 DUP1 MLOAD SWAP2 DUP3 MSTORE MLOAD SWAP1 DUP2 SWAP1 SUB PUSH1 0x20 ADD SWAP1 RETURN JUMPDEST PUSH2 0x1B6 PUSH2 0x4AB JUMP JUMPDEST PUSH2 0x1B6 PUSH2 0x4BA JUMP JUMPDEST PUSH2 0x20C PUSH2 0x4C9 JUMP JUMPDEST PUSH1 0x40 DUP1 MLOAD SWAP2 ISZERO ISZERO DUP3 MSTORE MLOAD SWAP1 DUP2 SWAP1 SUB PUSH1 0x20 ADD SWAP1 RETURN JUMPDEST PUSH2 0x1E2 PUSH1 0x4 DUP1 CALLDATASIZE SUB PUSH1 0x20 DUP2 LT ISZERO PUSH2 0x236 JUMPI PUSH1 0x0 DUP1 REVERT JUMPDEST POP CALLDATALOAD PUSH1 0x1 PUSH1 0x1 PUSH1 0xA0 SHL SUB AND PUSH2 0x4D9 JUMP JUMPDEST PUSH2 0x26C PUSH1 0x4 DUP1 CALLDATASIZE SUB PUSH1 0x20 DUP2 LT ISZERO PUSH2 0x25C JUMPI PUSH1 0x0 DUP1 REVERT JUMPDEST POP CALLDATALOAD PUSH1 0x1 PUSH1 0x1 PUSH1 0xA0 SHL SUB AND PUSH2 0x4EB JUMP JUMPDEST PUSH1 0x40 DUP1 MLOAD PUSH1 0x1 PUSH1 0x1 PUSH1 0xE0 SHL SUB SWAP1 SWAP4 AND DUP4 MSTORE PUSH4 0xFFFFFFFF SWAP1 SWAP2 AND PUSH1 0x20 DUP4 ADD MSTORE DUP1 MLOAD SWAP2 DUP3 SWAP1 SUB ADD SWAP1 RETURN JUMPDEST PUSH2 0x1E2 PUSH1 0x4 DUP1 CALLDATASIZE SUB PUSH1 0x20 DUP2 LT ISZERO PUSH2 0x2AA JUMPI PUSH1 0x0 DUP1 REVERT JUMPDEST POP CALLDATALOAD PUSH1 0x1 PUSH1 0x1 PUSH1 0xA0 SHL SUB AND PUSH2 0x515 JUMP JUMPDEST PUSH2 0x1E2 PUSH2 0x527 JUMP JUMPDEST PUSH2 0x1B6 PUSH1 0x4 DUP1 CALLDATASIZE SUB PUSH1 0x20 DUP2 LT ISZERO PUSH2 0x2D8 JUMPI PUSH1 0x0 DUP1 REVERT JUMPDEST POP CALLDATALOAD PUSH2 0x52D JUMP JUMPDEST PUSH2 0x1E2 PUSH1 0x4 DUP1 CALLDATASIZE SUB PUSH1 0x20 DUP2 LT ISZERO PUSH2 0x2F5 JUMPI PUSH1 0x0 DUP1 REVERT JUMPDEST POP CALLDATALOAD PUSH1 0x1 PUSH1 0x1 PUSH1 0xA0 SHL SUB AND PUSH2 0x554 JUMP JUMPDEST PUSH2 0x20C PUSH1 0x4 DUP1 CALLDATASIZE SUB PUSH1 0x20 DUP2 LT ISZERO PUSH2 0x31B JUMPI PUSH1 0x0 DUP1 REVERT JUMPDEST POP CALLDATALOAD PUSH1 0x1 PUSH1 0x1 PUSH1 0xA0 SHL SUB AND PUSH2 0x566 JUMP JUMPDEST PUSH2 0x20C PUSH1 0x4 DUP1 CALLDATASIZE SUB PUSH1 0x20 DUP2 LT ISZERO PUSH2 0x341 JUMPI PUSH1 0x0 DUP1 REVERT JUMPDEST POP CALLDATALOAD PUSH1 0x1 PUSH1 0x1 PUSH1 0xA0 SHL SUB AND PUSH2 0x57B JUMP JUMPDEST PUSH2 0x1B6 PUSH2 0x590 JUMP JUMPDEST PUSH2 0x1B6 PUSH2 0x59F JUMP JUMPDEST PUSH2 0x20C PUSH2 0x5AE JUMP JUMPDEST PUSH2 0x38F PUSH1 0x4 DUP1 CALLDATASIZE SUB PUSH1 0x20 DUP2 LT ISZERO PUSH2 0x37F JUMPI PUSH1 0x0 DUP1 REVERT JUMPDEST POP CALLDATALOAD PUSH1 0x1 PUSH1 0x1 PUSH1 0xA0 SHL SUB AND PUSH2 0x5BE JUMP JUMPDEST PUSH1 0x40 DUP1 MLOAD SWAP4 ISZERO ISZERO DUP5 MSTORE PUSH1 0x20 DUP5 ADD SWAP3 SWAP1 SWAP3 MSTORE ISZERO ISZERO DUP3 DUP3 ADD MSTORE MLOAD SWAP1 DUP2 SWAP1 SUB PUSH1 0x60 ADD SWAP1 RETURN JUMPDEST PUSH2 0x1E2 PUSH2 0x5E4 JUMP JUMPDEST PUSH2 0x20C PUSH2 0x5EA JUMP JUMPDEST PUSH2 0x1E2 PUSH1 0x4 DUP1 CALLDATASIZE SUB PUSH1 0x40 DUP2 LT ISZERO PUSH2 0x3D7 JUMPI PUSH1 0x0 DUP1 REVERT JUMPDEST POP PUSH1 0x1 PUSH1 0x1 PUSH1 0xA0 SHL SUB DUP2 CALLDATALOAD DUP2 AND SWAP2 PUSH1 0x20 ADD CALLDATALOAD AND PUSH2 0x5FA JUMP JUMPDEST PUSH2 0x26C PUSH1 0x4 DUP1 CALLDATASIZE SUB PUSH1 0x20 DUP2 LT ISZERO PUSH2 0x405 JUMPI PUSH1 0x0 DUP1 REVERT JUMPDEST POP CALLDATALOAD PUSH1 0x1 PUSH1 0x1 PUSH1 0xA0 SHL SUB AND PUSH2 0x617 JUMP JUMPDEST PUSH2 0x1E2 PUSH1 0x4 DUP1 CALLDATASIZE SUB PUSH1 0x40 DUP2 LT ISZERO PUSH2 0x42B JUMPI PUSH1 0x0 DUP1 REVERT JUMPDEST POP PUSH1 0x1 PUSH1 0x1 PUSH1 0xA0 SHL SUB DUP2 CALLDATALOAD DUP2 AND SWAP2 PUSH1 0x20 ADD CALLDATALOAD AND PUSH2 0x641 JUMP JUMPDEST PUSH2 0x1B6 PUSH1 0x4 DUP1 CALLDATASIZE SUB PUSH1 0x40 DUP2 LT ISZERO PUSH2 0x459 JUMPI PUSH1 0x0 DUP1 REVERT JUMPDEST POP PUSH1 0x1 PUSH1 0x1 PUSH1 0xA0 SHL SUB DUP2 CALLDATALOAD AND SWAP1 PUSH1 0x20 ADD CALLDATALOAD PUSH2 0x65E JUMP JUMPDEST PUSH2 0x20C PUSH2 0x693 JUMP JUMPDEST PUSH2 0x1E2 PUSH2 0x6A3 JUMP JUMPDEST PUSH2 0x1B6 PUSH2 0x6A9 JUMP JUMPDEST PUSH1 0x3 SLOAD PUSH1 0x1 PUSH1 0x1 PUSH1 0xA0 SHL SUB AND DUP2 JUMP JUMPDEST PUSH1 0x15 SLOAD PUSH1 0x1 PUSH1 0x1 PUSH1 0xA0 SHL SUB AND DUP2 JUMP JUMPDEST PUSH1 0xE SLOAD DUP2 JUMP JUMPDEST PUSH1 0xA SLOAD PUSH1 0x1 PUSH1 0x1 PUSH1 0xA0 SHL SUB AND DUP2 JUMP JUMPDEST PUSH1 0x1 SLOAD PUSH1 0x1 PUSH1 0x1 PUSH1 0xA0 SHL SUB AND DUP2 JUMP JUMPDEST PUSH1 0xA SLOAD PUSH1 0x1 PUSH1 0xA0 SHL SWAP1 DIV PUSH1 0xFF AND DUP2 JUMP JUMPDEST PUSH1 0xF PUSH1 0x20 MSTORE PUSH1 0x0 SWAP1 DUP2 MSTORE PUSH1 0x40 SWAP1 KECCAK256 SLOAD DUP2 JUMP JUMPDEST PUSH1 0x11 PUSH1 0x20 MSTORE PUSH1 0x0 SWAP1 DUP2 MSTORE PUSH1 0x40 SWAP1 KECCAK256 SLOAD PUSH1 0x1 PUSH1 0x1 PUSH1 0xE0 SHL SUB DUP2 AND SWAP1 PUSH1 0x1 PUSH1 0xE0 SHL SWAP1 DIV PUSH4 0xFFFFFFFF AND DUP3 JUMP JUMPDEST PUSH1 0x16 PUSH1 0x20 MSTORE PUSH1 0x0 SWAP1 DUP2 MSTORE PUSH1 0x40 SWAP1 KECCAK256 SLOAD DUP2 JUMP JUMPDEST PUSH1 0x6 SLOAD DUP2 JUMP JUMPDEST PUSH1 0xD DUP2 DUP2 SLOAD DUP2 LT PUSH2 0x53A JUMPI INVALID JUMPDEST PUSH1 0x0 SWAP2 DUP3 MSTORE PUSH1 0x20 SWAP1 SWAP2 KECCAK256 ADD SLOAD PUSH1 0x1 PUSH1 0x1 PUSH1 0xA0 SHL SUB AND SWAP1 POP DUP2 JUMP JUMPDEST PUSH1 0x14 PUSH1 0x20 MSTORE PUSH1 0x0 SWAP1 DUP2 MSTORE PUSH1 0x40 SWAP1 KECCAK256 SLOAD DUP2 JUMP JUMPDEST PUSH1 0xC PUSH1 0x20 MSTORE PUSH1 0x0 SWAP1 DUP2 MSTORE PUSH1 0x40 SWAP1 KECCAK256 SLOAD PUSH1 0xFF AND DUP2 JUMP JUMPDEST PUSH1 0xB PUSH1 0x20 MSTORE PUSH1 0x0 SWAP1 DUP2 MSTORE PUSH1 0x40 SWAP1 KECCAK256 SLOAD PUSH1 0xFF AND DUP2 JUMP JUMPDEST PUSH1 0x2 SLOAD PUSH1 0x1 PUSH1 0x1 PUSH1 0xA0 SHL SUB AND DUP2 JUMP JUMPDEST PUSH1 0x4 SLOAD PUSH1 0x1 PUSH1 0x1 PUSH1 0xA0 SHL SUB AND DUP2 JUMP JUMPDEST PUSH1 0xA SLOAD PUSH1 0x1 PUSH1 0xB0 SHL SWAP1 DIV PUSH1 0xFF AND DUP2 JUMP JUMPDEST PUSH1 0x9 PUSH1 0x20 MSTORE PUSH1 0x0 SWAP1 DUP2 MSTORE PUSH1 0x40 SWAP1 KECCAK256 DUP1 SLOAD PUSH1 0x1 DUP3 ADD SLOAD PUSH1 0x3 SWAP1 SWAP3 ADD SLOAD PUSH1 0xFF SWAP2 DUP3 AND SWAP3 SWAP2 AND DUP4 JUMP JUMPDEST PUSH1 0x7 SLOAD DUP2 JUMP JUMPDEST PUSH1 0xA SLOAD PUSH1 0x1 PUSH1 0xB8 SHL SWAP1 DIV PUSH1 0xFF AND DUP2 JUMP JUMPDEST PUSH1 0x13 PUSH1 0x20 SWAP1 DUP2 MSTORE PUSH1 0x0 SWAP3 DUP4 MSTORE PUSH1 0x40 DUP1 DUP5 KECCAK256 SWAP1 SWAP2 MSTORE SWAP1 DUP3 MSTORE SWAP1 KECCAK256 SLOAD DUP2 JUMP JUMPDEST PUSH1 0x10 PUSH1 0x20 MSTORE PUSH1 0x0 SWAP1 DUP2 MSTORE PUSH1 0x40 SWAP1 KECCAK256 SLOAD PUSH1 0x1 PUSH1 0x1 PUSH1 0xE0 SHL SUB DUP2 AND SWAP1 PUSH1 0x1 PUSH1 0xE0 SHL SWAP1 DIV PUSH4 0xFFFFFFFF AND DUP3 JUMP JUMPDEST PUSH1 0x12 PUSH1 0x20 SWAP1 DUP2 MSTORE PUSH1 0x0 SWAP3 DUP4 MSTORE PUSH1 0x40 DUP1 DUP5 KECCAK256 SWAP1 SWAP2 MSTORE SWAP1 DUP3 MSTORE SWAP1 KECCAK256 SLOAD DUP2 JUMP JUMPDEST PUSH1 0x8 PUSH1 0x20 MSTORE DUP2 PUSH1 0x0 MSTORE PUSH1 0x40 PUSH1 0x0 KECCAK256 DUP2 DUP2 SLOAD DUP2 LT PUSH2 0x677 JUMPI INVALID JUMPDEST PUSH1 0x0 SWAP2 DUP3 MSTORE PUSH1 0x20 SWAP1 SWAP2 KECCAK256 ADD SLOAD PUSH1 0x1 PUSH1 0x1 PUSH1 0xA0 SHL SUB AND SWAP2 POP DUP3 SWAP1 POP JUMP JUMPDEST PUSH1 0xA SLOAD PUSH1 0x1 PUSH1 0xA8 SHL SWAP1 DIV PUSH1 0xFF AND DUP2 JUMP JUMPDEST PUSH1 0x5 SLOAD DUP2 JUMP JUMPDEST PUSH1 0x0 SLOAD PUSH1 0x1 PUSH1 0x1 PUSH1 0xA0 SHL SUB AND DUP2 JUMP INVALID LOG2 PUSH6 0x627A7A723158 KECCAK256 0x2E SWAP6 DUP9 0xF6 PUSH1 0xE2 0xBF SAR ADDRESS SWAP7 0xE7 CHAINID 0xE0 0xBA EXP PUSH22 0x411BDEA8D788DA14A3DD8298C965029564736F6C6343 STOP SDIV LT STOP ORIGIN "},"methodIdentifiers":{"_borrowGuardianPaused()":"e6653f3d","_mintGuardianPaused()":"3c94786f","accountAssets(address,uint256)":"dce15449","admin()":"f851a440","allMarkets(uint256)":"52d84d1e","borrowCapGuardian()":"21af4569","borrowCaps(address)":"4a584432","borrowGuardianPaused(address)":"6d154ea5","closeFactorMantissa()":"e8755446","liquidationIncentiveMantissa()":"4ada90af","markets(address)":"8e8f294b","maxAssets()":"94b2294b","mintGuardianPaused(address)":"731f0c2b","oracle()":"7dc0d1d0","pauseGuardian()":"24a3d622","pendingAdmin()":"26782247","pendingTectonicCoreImplementation()":"0b2efed6","seizeGuardianPaused()":"ac0b0bb7","tectonicCoreImplementation()":"7404e92c","tonicAccrued(address)":"66dd2e32","tonicBorrowState(address)":"454aafe0","tonicBorrowerIndex(address,address)":"af3fbb58","tonicRate()":"248fb15c","tonicSpeeds(address)":"3cb9ea6c","tonicSupplierIndex(address,address)":"c7a6552a","tonicSupplyState(address)":"be493f1e","transferGuardianPaused()":"87f76303"}}}}}