{"contracts/tectonic/SimplePriceOracle.sol":{"SimplePriceOracle":{"abi":[{"anonymous":false,"inputs":[{"indexed":false,"internalType":"address","name":"asset","type":"address"},{"indexed":false,"internalType":"uint256","name":"previousPriceMantissa","type":"uint256"},{"indexed":false,"internalType":"uint256","name":"requestedPriceMantissa","type":"uint256"},{"indexed":false,"internalType":"uint256","name":"newPriceMantissa","type":"uint256"}],"name":"PricePosted","type":"event"},{"constant":true,"inputs":[{"internalType":"contract TToken","name":"tToken","type":"address"}],"name":"getUnderlyingPrice","outputs":[{"internalType":"uint256","name":"","type":"uint256"}],"payable":false,"stateMutability":"view","type":"function"},{"constant":true,"inputs":[],"name":"isPriceOracle","outputs":[{"internalType":"bool","name":"","type":"bool"}],"payable":false,"stateMutability":"view","type":"function"},{"constant":true,"inputs":[{"internalType":"address","name":"","type":"address"}],"name":"prices","outputs":[{"internalType":"uint256","name":"","type":"uint256"}],"payable":false,"stateMutability":"view","type":"function"},{"constant":false,"inputs":[{"internalType":"contract TToken","name":"tToken","type":"address"},{"internalType":"uint256","name":"underlyingPriceMantissa","type":"uint256"}],"name":"setUnderlyingPrice","outputs":[],"payable":false,"stateMutability":"nonpayable","type":"function"}],"evm":{"bytecode":{"linkReferences":{},"object":"608060405234801561001057600080fd5b506101d8806100206000396000f3fe608060405234801561001057600080fd5b506004361061004c5760003560e01c8063127ffda01461005157806366331bba1461007f578063cfed246b1461009b578063fc57d4df146100d3575b600080fd5b61007d6004803603604081101561006757600080fd5b506001600160a01b0381351690602001356100f9565b005b610087610171565b604080519115158252519081900360200190f35b6100c1600480360360208110156100b157600080fd5b50356001600160a01b0316610176565b60408051918252519081900360200190f35b6100c1600480360360208110156100e957600080fd5b50356001600160a01b0316610188565b6001600160a01b038216600081815260208181526040918290205482519384529083015281810183905260608201839052517fdd71a1d19fcba687442a1d5c58578f1e409af71a79d10fd95a4d66efd8fa9ae79181900360800190a16001600160a01b03909116600090815260208190526040902055565b600181565b60006020819052908152604090205481565b6001600160a01b03166000908152602081905260409020549056fea265627a7a723158202be7c491ed30fd7af163ea1bf530990458379e0989478229bf7d3634aea4dc7564736f6c63430005100032","opcodes":"PUSH1 0x80 PUSH1 0x40 MSTORE CALLVALUE DUP1 ISZERO PUSH2 0x10 JUMPI PUSH1 0x0 DUP1 REVERT JUMPDEST POP PUSH2 0x1D8 DUP1 PUSH2 0x20 PUSH1 0x0 CODECOPY PUSH1 0x0 RETURN INVALID PUSH1 0x80 PUSH1 0x40 MSTORE CALLVALUE DUP1 ISZERO PUSH2 0x10 JUMPI PUSH1 0x0 DUP1 REVERT JUMPDEST POP PUSH1 0x4 CALLDATASIZE LT PUSH2 0x4C JUMPI PUSH1 0x0 CALLDATALOAD PUSH1 0xE0 SHR DUP1 PUSH4 0x127FFDA0 EQ PUSH2 0x51 JUMPI DUP1 PUSH4 0x66331BBA EQ PUSH2 0x7F JUMPI DUP1 PUSH4 0xCFED246B EQ PUSH2 0x9B JUMPI DUP1 PUSH4 0xFC57D4DF EQ PUSH2 0xD3 JUMPI JUMPDEST PUSH1 0x0 DUP1 REVERT JUMPDEST PUSH2 0x7D PUSH1 0x4 DUP1 CALLDATASIZE SUB PUSH1 0x40 DUP2 LT ISZERO PUSH2 0x67 JUMPI PUSH1 0x0 DUP1 REVERT JUMPDEST POP PUSH1 0x1 PUSH1 0x1 PUSH1 0xA0 SHL SUB DUP2 CALLDATALOAD AND SWAP1 PUSH1 0x20 ADD CALLDATALOAD PUSH2 0xF9 JUMP JUMPDEST STOP JUMPDEST PUSH2 0x87 PUSH2 0x171 JUMP JUMPDEST PUSH1 0x40 DUP1 MLOAD SWAP2 ISZERO ISZERO DUP3 MSTORE MLOAD SWAP1 DUP2 SWAP1 SUB PUSH1 0x20 ADD SWAP1 RETURN JUMPDEST PUSH2 0xC1 PUSH1 0x4 DUP1 CALLDATASIZE SUB PUSH1 0x20 DUP2 LT ISZERO PUSH2 0xB1 JUMPI PUSH1 0x0 DUP1 REVERT JUMPDEST POP CALLDATALOAD PUSH1 0x1 PUSH1 0x1 PUSH1 0xA0 SHL SUB AND PUSH2 0x176 JUMP JUMPDEST PUSH1 0x40 DUP1 MLOAD SWAP2 DUP3 MSTORE MLOAD SWAP1 DUP2 SWAP1 SUB PUSH1 0x20 ADD SWAP1 RETURN JUMPDEST PUSH2 0xC1 PUSH1 0x4 DUP1 CALLDATASIZE SUB PUSH1 0x20 DUP2 LT ISZERO PUSH2 0xE9 JUMPI PUSH1 0x0 DUP1 REVERT JUMPDEST POP CALLDATALOAD PUSH1 0x1 PUSH1 0x1 PUSH1 0xA0 SHL SUB AND PUSH2 0x188 JUMP JUMPDEST PUSH1 0x1 PUSH1 0x1 PUSH1 0xA0 SHL SUB DUP3 AND PUSH1 0x0 DUP2 DUP2 MSTORE PUSH1 0x20 DUP2 DUP2 MSTORE PUSH1 0x40 SWAP2 DUP3 SWAP1 KECCAK256 SLOAD DUP3 MLOAD SWAP4 DUP5 MSTORE SWAP1 DUP4 ADD MSTORE DUP2 DUP2 ADD DUP4 SWAP1 MSTORE PUSH1 0x60 DUP3 ADD DUP4 SWAP1 MSTORE MLOAD PUSH32 0xDD71A1D19FCBA687442A1D5C58578F1E409AF71A79D10FD95A4D66EFD8FA9AE7 SWAP2 DUP2 SWAP1 SUB PUSH1 0x80 ADD SWAP1 LOG1 PUSH1 0x1 PUSH1 0x1 PUSH1 0xA0 SHL SUB SWAP1 SWAP2 AND PUSH1 0x0 SWAP1 DUP2 MSTORE PUSH1 0x20 DUP2 SWAP1 MSTORE PUSH1 0x40 SWAP1 KECCAK256 SSTORE JUMP JUMPDEST PUSH1 0x1 DUP2 JUMP JUMPDEST PUSH1 0x0 PUSH1 0x20 DUP2 SWAP1 MSTORE SWAP1 DUP2 MSTORE PUSH1 0x40 SWAP1 KECCAK256 SLOAD DUP2 JUMP JUMPDEST PUSH1 0x1 PUSH1 0x1 PUSH1 0xA0 SHL SUB AND PUSH1 0x0 SWAP1 DUP2 MSTORE PUSH1 0x20 DUP2 SWAP1 MSTORE PUSH1 0x40 SWAP1 KECCAK256 SLOAD SWAP1 JUMP INVALID LOG2 PUSH6 0x627A7A723158 KECCAK256 0x2B 0xE7 0xC4 SWAP2 0xED ADDRESS REVERT PUSH27 0xF163EA1BF530990458379E0989478229BF7D3634AEA4DC7564736F PUSH13 0x63430005100032000000000000 "},"methodIdentifiers":{"getUnderlyingPrice(address)":"fc57d4df","isPriceOracle()":"66331bba","prices(address)":"cfed246b","setUnderlyingPrice(address,uint256)":"127ffda0"}}}}}