{"contracts/tectonic/TErc20Delegator.sol":{"TErc20Delegator":{"abi":[{"inputs":[{"internalType":"address","name":"underlying_","type":"address"},{"internalType":"contract TectonicCoreInterface","name":"tcore_","type":"address"},{"internalType":"contract InterestRateModel","name":"interestRateModel_","type":"address"},{"internalType":"uint256","name":"initialExchangeRateMantissa_","type":"uint256"},{"internalType":"string","name":"name_","type":"string"},{"internalType":"string","name":"symbol_","type":"string"},{"internalType":"uint8","name":"decimals_","type":"uint8"},{"internalType":"address payable","name":"admin_","type":"address"},{"internalType":"address","name":"implementation_","type":"address"},{"internalType":"bytes","name":"becomeImplementationData","type":"bytes"}],"payable":false,"stateMutability":"nonpayable","type":"constructor"},{"anonymous":false,"inputs":[{"indexed":false,"internalType":"uint256","name":"cashPrior","type":"uint256"},{"indexed":false,"internalType":"uint256","name":"interestAccumulated","type":"uint256"},{"indexed":false,"internalType":"uint256","name":"borrowIndex","type":"uint256"},{"indexed":false,"internalType":"uint256","name":"totalBorrows","type":"uint256"}],"name":"AccrueInterest","type":"event"},{"anonymous":false,"inputs":[{"indexed":true,"internalType":"address","name":"owner","type":"address"},{"indexed":true,"internalType":"address","name":"spender","type":"address"},{"indexed":false,"internalType":"uint256","name":"amount","type":"uint256"}],"name":"Approval","type":"event"},{"anonymous":false,"inputs":[{"indexed":false,"internalType":"address","name":"borrower","type":"address"},{"indexed":false,"internalType":"uint256","name":"borrowAmount","type":"uint256"},{"indexed":false,"internalType":"uint256","name":"accountBorrows","type":"uint256"},{"indexed":false,"internalType":"uint256","name":"totalBorrows","type":"uint256"}],"name":"Borrow","type":"event"},{"anonymous":false,"inputs":[{"indexed":false,"internalType":"uint256","name":"error","type":"uint256"},{"indexed":false,"internalType":"uint256","name":"info","type":"uint256"},{"indexed":false,"internalType":"uint256","name":"detail","type":"uint256"}],"name":"Failure","type":"event"},{"anonymous":false,"inputs":[{"indexed":false,"internalType":"address","name":"liquidator","type":"address"},{"indexed":false,"internalType":"address","name":"borrower","type":"address"},{"indexed":false,"internalType":"uint256","name":"repayAmount","type":"uint256"},{"indexed":false,"internalType":"address","name":"tTokenCollateral","type":"address"},{"indexed":false,"internalType":"uint256","name":"seizeTokens","type":"uint256"}],"name":"LiquidateBorrow","type":"event"},{"anonymous":false,"inputs":[{"indexed":false,"internalType":"address","name":"minter","type":"address"},{"indexed":false,"internalType":"uint256","name":"mintAmount","type":"uint256"},{"indexed":false,"internalType":"uint256","name":"mintTokens","type":"uint256"}],"name":"Mint","type":"event"},{"anonymous":false,"inputs":[{"indexed":false,"internalType":"address","name":"oldAdmin","type":"address"},{"indexed":false,"internalType":"address","name":"newAdmin","type":"address"}],"name":"NewAdmin","type":"event"},{"anonymous":false,"inputs":[{"indexed":false,"internalType":"address","name":"oldImplementation","type":"address"},{"indexed":false,"internalType":"address","name":"newImplementation","type":"address"}],"name":"NewImplementation","type":"event"},{"anonymous":false,"inputs":[{"indexed":false,"internalType":"contract InterestRateModel","name":"oldInterestRateModel","type":"address"},{"indexed":false,"internalType":"contract InterestRateModel","name":"newInterestRateModel","type":"address"}],"name":"NewMarketInterestRateModel","type":"event"},{"anonymous":false,"inputs":[{"indexed":false,"internalType":"address","name":"oldPendingAdmin","type":"address"},{"indexed":false,"internalType":"address","name":"newPendingAdmin","type":"address"}],"name":"NewPendingAdmin","type":"event"},{"anonymous":false,"inputs":[{"indexed":false,"internalType":"uint256","name":"oldReserveFactorMantissa","type":"uint256"},{"indexed":false,"internalType":"uint256","name":"newReserveFactorMantissa","type":"uint256"}],"name":"NewReserveFactor","type":"event"},{"anonymous":false,"inputs":[{"indexed":false,"internalType":"contract TectonicCoreInterface","name":"oldTectonicCore","type":"address"},{"indexed":false,"internalType":"contract TectonicCoreInterface","name":"newTectonicCore","type":"address"}],"name":"NewTectonicCore","type":"event"},{"anonymous":false,"inputs":[{"indexed":false,"internalType":"address","name":"redeemer","type":"address"},{"indexed":false,"internalType":"uint256","name":"redeemAmount","type":"uint256"},{"indexed":false,"internalType":"uint256","name":"redeemTokens","type":"uint256"}],"name":"Redeem","type":"event"},{"anonymous":false,"inputs":[{"indexed":false,"internalType":"address","name":"payer","type":"address"},{"indexed":false,"internalType":"address","name":"borrower","type":"address"},{"indexed":false,"internalType":"uint256","name":"repayAmount","type":"uint256"},{"indexed":false,"internalType":"uint256","name":"accountBorrows","type":"uint256"},{"indexed":false,"internalType":"uint256","name":"totalBorrows","type":"uint256"}],"name":"RepayBorrow","type":"event"},{"anonymous":false,"inputs":[{"indexed":false,"internalType":"address","name":"benefactor","type":"address"},{"indexed":false,"internalType":"uint256","name":"addAmount","type":"uint256"},{"indexed":false,"internalType":"uint256","name":"newTotalReserves","type":"uint256"}],"name":"ReservesAdded","type":"event"},{"anonymous":false,"inputs":[{"indexed":false,"internalType":"address","name":"admin","type":"address"},{"indexed":false,"internalType":"uint256","name":"reduceAmount","type":"uint256"},{"indexed":false,"internalType":"uint256","name":"newTotalReserves","type":"uint256"}],"name":"ReservesReduced","type":"event"},{"anonymous":false,"inputs":[{"indexed":true,"internalType":"address","name":"from","type":"address"},{"indexed":true,"internalType":"address","name":"to","type":"address"},{"indexed":false,"internalType":"uint256","name":"amount","type":"uint256"}],"name":"Transfer","type":"event"},{"payable":true,"stateMutability":"payable","type":"fallback"},{"constant":false,"inputs":[],"name":"_acceptAdmin","outputs":[{"internalType":"uint256","name":"","type":"uint256"}],"payable":false,"stateMutability":"nonpayable","type":"function"},{"constant":false,"inputs":[{"internalType":"uint256","name":"addAmount","type":"uint256"}],"name":"_addReserves","outputs":[{"internalType":"uint256","name":"","type":"uint256"}],"payable":false,"stateMutability":"nonpayable","type":"function"},{"constant":false,"inputs":[{"internalType":"uint256","name":"reduceAmount","type":"uint256"}],"name":"_reduceReserves","outputs":[{"internalType":"uint256","name":"","type":"uint256"}],"payable":false,"stateMutability":"nonpayable","type":"function"},{"constant":false,"inputs":[{"internalType":"address","name":"implementation_","type":"address"},{"internalType":"bool","name":"allowResign","type":"bool"},{"internalType":"bytes","name":"becomeImplementationData","type":"bytes"}],"name":"_setImplementation","outputs":[],"payable":false,"stateMutability":"nonpayable","type":"function"},{"constant":false,"inputs":[{"internalType":"contract InterestRateModel","name":"newInterestRateModel","type":"address"}],"name":"_setInterestRateModel","outputs":[{"internalType":"uint256","name":"","type":"uint256"}],"payable":false,"stateMutability":"nonpayable","type":"function"},{"constant":false,"inputs":[{"internalType":"address payable","name":"newPendingAdmin","type":"address"}],"name":"_setPendingAdmin","outputs":[{"internalType":"uint256","name":"","type":"uint256"}],"payable":false,"stateMutability":"nonpayable","type":"function"},{"constant":false,"inputs":[{"internalType":"uint256","name":"newReserveFactorMantissa","type":"uint256"}],"name":"_setReserveFactor","outputs":[{"internalType":"uint256","name":"","type":"uint256"}],"payable":false,"stateMutability":"nonpayable","type":"function"},{"constant":false,"inputs":[{"internalType":"contract TectonicCoreInterface","name":"newTectonicCore","type":"address"}],"name":"_setTectonicCore","outputs":[{"internalType":"uint256","name":"","type":"uint256"}],"payable":false,"stateMutability":"nonpayable","type":"function"},{"constant":true,"inputs":[],"name":"accrualBlockNumber","outputs":[{"internalType":"uint256","name":"","type":"uint256"}],"payable":false,"stateMutability":"view","type":"function"},{"constant":false,"inputs":[],"name":"accrueInterest","outputs":[{"internalType":"uint256","name":"","type":"uint256"}],"payable":false,"stateMutability":"nonpayable","type":"function"},{"constant":true,"inputs":[],"name":"admin","outputs":[{"internalType":"address payable","name":"","type":"address"}],"payable":false,"stateMutability":"view","type":"function"},{"constant":true,"inputs":[{"internalType":"address","name":"owner","type":"address"},{"internalType":"address","name":"spender","type":"address"}],"name":"allowance","outputs":[{"internalType":"uint256","name":"","type":"uint256"}],"payable":false,"stateMutability":"view","type":"function"},{"constant":false,"inputs":[{"internalType":"address","name":"spender","type":"address"},{"internalType":"uint256","name":"amount","type":"uint256"}],"name":"approve","outputs":[{"internalType":"bool","name":"","type":"bool"}],"payable":false,"stateMutability":"nonpayable","type":"function"},{"constant":true,"inputs":[{"internalType":"address","name":"owner","type":"address"}],"name":"balanceOf","outputs":[{"internalType":"uint256","name":"","type":"uint256"}],"payable":false,"stateMutability":"view","type":"function"},{"constant":false,"inputs":[{"internalType":"address","name":"owner","type":"address"}],"name":"balanceOfUnderlying","outputs":[{"internalType":"uint256","name":"","type":"uint256"}],"payable":false,"stateMutability":"nonpayable","type":"function"},{"constant":false,"inputs":[{"internalType":"uint256","name":"borrowAmount","type":"uint256"}],"name":"borrow","outputs":[{"internalType":"uint256","name":"","type":"uint256"}],"payable":false,"stateMutability":"nonpayable","type":"function"},{"constant":false,"inputs":[{"internalType":"address","name":"account","type":"address"}],"name":"borrowBalanceCurrent","outputs":[{"internalType":"uint256","name":"","type":"uint256"}],"payable":false,"stateMutability":"nonpayable","type":"function"},{"constant":true,"inputs":[{"internalType":"address","name":"account","type":"address"}],"name":"borrowBalanceStored","outputs":[{"internalType":"uint256","name":"","type":"uint256"}],"payable":false,"stateMutability":"view","type":"function"},{"constant":true,"inputs":[],"name":"borrowIndex","outputs":[{"internalType":"uint256","name":"","type":"uint256"}],"payable":false,"stateMutability":"view","type":"function"},{"constant":true,"inputs":[],"name":"borrowRatePerBlock","outputs":[{"internalType":"uint256","name":"","type":"uint256"}],"payable":false,"stateMutability":"view","type":"function"},{"constant":true,"inputs":[],"name":"decimals","outputs":[{"internalType":"uint8","name":"","type":"uint8"}],"payable":false,"stateMutability":"view","type":"function"},{"constant":false,"inputs":[{"internalType":"bytes","name":"data","type":"bytes"}],"name":"delegateToImplementation","outputs":[{"internalType":"bytes","name":"","type":"bytes"}],"payable":false,"stateMutability":"nonpayable","type":"function"},{"constant":true,"inputs":[{"internalType":"bytes","name":"data","type":"bytes"}],"name":"delegateToViewImplementation","outputs":[{"internalType":"bytes","name":"","type":"bytes"}],"payable":false,"stateMutability":"view","type":"function"},{"constant":false,"inputs":[],"name":"exchangeRateCurrent","outputs":[{"internalType":"uint256","name":"","type":"uint256"}],"payable":false,"stateMutability":"nonpayable","type":"function"},{"constant":true,"inputs":[],"name":"exchangeRateStored","outputs":[{"internalType":"uint256","name":"","type":"uint256"}],"payable":false,"stateMutability":"view","type":"function"},{"constant":true,"inputs":[{"internalType":"address","name":"account","type":"address"}],"name":"getAccountSnapshot","outputs":[{"internalType":"uint256","name":"","type":"uint256"},{"internalType":"uint256","name":"","type":"uint256"},{"internalType":"uint256","name":"","type":"uint256"},{"internalType":"uint256","name":"","type":"uint256"}],"payable":false,"stateMutability":"view","type":"function"},{"constant":true,"inputs":[],"name":"getCash","outputs":[{"internalType":"uint256","name":"","type":"uint256"}],"payable":false,"stateMutability":"view","type":"function"},{"constant":true,"inputs":[],"name":"implementation","outputs":[{"internalType":"address","name":"","type":"address"}],"payable":false,"stateMutability":"view","type":"function"},{"constant":true,"inputs":[],"name":"interestRateModel","outputs":[{"internalType":"contract InterestRateModel","name":"","type":"address"}],"payable":false,"stateMutability":"view","type":"function"},{"constant":true,"inputs":[],"name":"isTToken","outputs":[{"internalType":"bool","name":"","type":"bool"}],"payable":false,"stateMutability":"view","type":"function"},{"constant":false,"inputs":[{"internalType":"address","name":"borrower","type":"address"},{"internalType":"uint256","name":"repayAmount","type":"uint256"},{"internalType":"contract TTokenInterface","name":"tTokenCollateral","type":"address"}],"name":"liquidateBorrow","outputs":[{"internalType":"uint256","name":"","type":"uint256"}],"payable":false,"stateMutability":"nonpayable","type":"function"},{"constant":false,"inputs":[{"internalType":"uint256","name":"mintAmount","type":"uint256"}],"name":"mint","outputs":[{"internalType":"uint256","name":"","type":"uint256"}],"payable":false,"stateMutability":"nonpayable","type":"function"},{"constant":true,"inputs":[],"name":"name","outputs":[{"internalType":"string","name":"","type":"string"}],"payable":false,"stateMutability":"view","type":"function"},{"constant":true,"inputs":[],"name":"pendingAdmin","outputs":[{"internalType":"address payable","name":"","type":"address"}],"payable":false,"stateMutability":"view","type":"function"},{"constant":true,"inputs":[],"name":"protocolSeizeShareMantissa","outputs":[{"internalType":"uint256","name":"","type":"uint256"}],"payable":false,"stateMutability":"view","type":"function"},{"constant":false,"inputs":[{"internalType":"uint256","name":"redeemTokens","type":"uint256"}],"name":"redeem","outputs":[{"internalType":"uint256","name":"","type":"uint256"}],"payable":false,"stateMutability":"nonpayable","type":"function"},{"constant":false,"inputs":[{"internalType":"uint256","name":"redeemAmount","type":"uint256"}],"name":"redeemUnderlying","outputs":[{"internalType":"uint256","name":"","type":"uint256"}],"payable":false,"stateMutability":"nonpayable","type":"function"},{"constant":false,"inputs":[{"internalType":"uint256","name":"repayAmount","type":"uint256"}],"name":"repayBorrow","outputs":[{"internalType":"uint256","name":"","type":"uint256"}],"payable":false,"stateMutability":"nonpayable","type":"function"},{"constant":false,"inputs":[{"internalType":"address","name":"borrower","type":"address"},{"internalType":"uint256","name":"repayAmount","type":"uint256"}],"name":"repayBorrowBehalf","outputs":[{"internalType":"uint256","name":"","type":"uint256"}],"payable":false,"stateMutability":"nonpayable","type":"function"},{"constant":true,"inputs":[],"name":"reserveFactorMantissa","outputs":[{"internalType":"uint256","name":"","type":"uint256"}],"payable":false,"stateMutability":"view","type":"function"},{"constant":false,"inputs":[{"internalType":"address","name":"liquidator","type":"address"},{"internalType":"address","name":"borrower","type":"address"},{"internalType":"uint256","name":"seizeTokens","type":"uint256"}],"name":"seize","outputs":[{"internalType":"uint256","name":"","type":"uint256"}],"payable":false,"stateMutability":"nonpayable","type":"function"},{"constant":true,"inputs":[],"name":"supplyRatePerBlock","outputs":[{"internalType":"uint256","name":"","type":"uint256"}],"payable":false,"stateMutability":"view","type":"function"},{"constant":false,"inputs":[{"internalType":"contract EIP20NonStandardInterface","name":"token","type":"address"}],"name":"sweepToken","outputs":[],"payable":false,"stateMutability":"nonpayable","type":"function"},{"constant":true,"inputs":[],"name":"symbol","outputs":[{"internalType":"string","name":"","type":"string"}],"payable":false,"stateMutability":"view","type":"function"},{"constant":true,"inputs":[],"name":"tectonicCore","outputs":[{"internalType":"contract TectonicCoreInterface","name":"","type":"address"}],"payable":false,"stateMutability":"view","type":"function"},{"constant":true,"inputs":[],"name":"totalBorrows","outputs":[{"internalType":"uint256","name":"","type":"uint256"}],"payable":false,"stateMutability":"view","type":"function"},{"constant":false,"inputs":[],"name":"totalBorrowsCurrent","outputs":[{"internalType":"uint256","name":"","type":"uint256"}],"payable":false,"stateMutability":"nonpayable","type":"function"},{"constant":true,"inputs":[],"name":"totalReserves","outputs":[{"internalType":"uint256","name":"","type":"uint256"}],"payable":false,"stateMutability":"view","type":"function"},{"constant":true,"inputs":[],"name":"totalSupply","outputs":[{"internalType":"uint256","name":"","type":"uint256"}],"payable":false,"stateMutability":"view","type":"function"},{"constant":false,"inputs":[{"internalType":"address","name":"dst","type":"address"},{"internalType":"uint256","name":"amount","type":"uint256"}],"name":"transfer","outputs":[{"internalType":"bool","name":"","type":"bool"}],"payable":false,"stateMutability":"nonpayable","type":"function"},{"constant":false,"inputs":[{"internalType":"address","name":"src","type":"address"},{"internalType":"address","name":"dst","type":"address"},{"internalType":"uint256","name":"amount","type":"uint256"}],"name":"transferFrom","outputs":[{"internalType":"bool","name":"","type":"bool"}],"payable":false,"stateMutability":"nonpayable","type":"function"},{"constant":true,"inputs":[],"name":"underlying","outputs":[{"internalType":"address","name":"","type":"address"}],"payable":false,"stateMutability":"view","type":"function"}],"evm":{"bytecode":{"linkReferences":{},"object":"60806040523480156200001157600080fd5b50604051620025f3380380620025f383398181016040526101408110156200003857600080fd5b81516020830151604080850151606086015160808701805193519597949692959194919392820192846401000000008211156200007457600080fd5b9083019060208201858111156200008a57600080fd5b8251640100000000811182820188101715620000a557600080fd5b82525081516020918201929091019080838360005b83811015620000d4578181015183820152602001620000ba565b50505050905090810190601f168015620001025780820380516001836020036101000a031916815260200191505b50604052602001805160405193929190846401000000008211156200012657600080fd5b9083019060208201858111156200013c57600080fd5b82516401000000008111828201881017156200015757600080fd5b82525081516020918201929091019080838360005b83811015620001865781810151838201526020016200016c565b50505050905090810190601f168015620001b45780820380516001836020036101000a031916815260200191505b50604081815260208301519083015160608401516080909401805192969195919284640100000000821115620001e957600080fd5b908301906020820185811115620001ff57600080fd5b82516401000000008111828201881017156200021a57600080fd5b82525081516020918201929091019080838360005b83811015620002495781810151838201526020016200022f565b50505050905090810190601f168015620002775780820380516001836020036101000a031916815260200191505b5060405250505033600360016101000a8154816001600160a01b0302191690836001600160a01b0316021790555062000424828b8b8b8b8b8b8b60405160240180886001600160a01b03166001600160a01b03168152602001876001600160a01b03166001600160a01b03168152602001866001600160a01b03166001600160a01b0316815260200185815260200180602001806020018460ff1660ff168152602001838103835286818151815260200191508051906020019080838360005b838110156200035157818101518382015260200162000337565b50505050905090810190601f1680156200037f5780820380516001836020036101000a031916815260200191505b50838103825285518152855160209182019187019080838360005b83811015620003b45781810151838201526020016200039a565b50505050905090810190601f168015620003e25780820380516001836020036101000a031916815260200191505b5060408051601f198184030181529190526020810180516001600160e01b03908116631a31d46560e01b17909152909a50620004721698505050505050505050565b506200043c826000836001600160e01b036200053916565b5050600380546001600160a01b0390921661010002610100600160a81b0319909216919091179055506200071a95505050505050565b606060006060846001600160a01b0316846040518082805190602001908083835b60208310620004b45780518252601f19909201916020918201910162000493565b6001836020036101000a038019825116818451168082178552505050505050905001915050600060405180830381855af49150503d806000811462000516576040519150601f19603f3d011682016040523d82523d6000602084013e6200051b565b606091505b5091509150600082141562000531573d60208201fd5b949350505050565b60035461010090046001600160a01b03163314620005895760405162461bcd60e51b8152600401808060200182810382526039815260200180620025ba6039913960400191505060405180910390fd5b8115620005cb576040805160048152602481019091526020810180516001600160e01b0390811663153ab50560e01b17909152620005c99190620006f016565b505b601280546001600160a01b038581166001600160a01b03198316179092556040516020602482018181528551604484015285519490931693620006a1938693909283926064909201919085019080838360005b83811015620006385781810151838201526020016200061e565b50505050905090810190601f168015620006665780820380516001836020036101000a031916815260200191505b5060408051601f198184030181529190526020810180516001600160e01b03908116630adccee560e31b17909152909350620006f016915050565b50601254604080516001600160a01b038085168252909216602083015280517fd604de94d45953f9138079ec1b82d533cb2160c906d1076d1f7ed54befbca97a9281900390910190a150505050565b60125460609062000714906001600160a01b0316836001600160e01b036200047216565b92915050565b611e90806200072a6000396000f3fe6080604052600436106102ff5760003560e01c8063852a12e311610190578063bd6d894d116100dc578063e9c714f211610095578063f5e3c4621161006f578063f5e3c46214610d1e578063f851a44014610d61578063f8f9da2814610d76578063fca7820b14610d8b576102ff565b8063e9c714f214610cc1578063f2b3abbd14610cd6578063f3fdb15a14610d09576102ff565b8063bd6d894d14610baf578063c16a61ec14610bc4578063c37f68e214610bd9578063c5ebeaec14610c32578063db006a7514610c5c578063dd62ed3e14610c86576102ff565b8063a6afed9511610149578063ae9d70b011610123578063ae9d70b014610af1578063b2a02ff114610b06578063b71d1a0c14610b49578063b79b3c8a14610b7c576102ff565b8063a6afed9514610a8e578063a9059cbb14610aa3578063aa5af0fd14610adc576102ff565b8063852a12e3146109c85780638f840ddd146109f257806395d89b4114610a0757806395dd919314610a1c578063a0097b5814610a4f578063a0712d6814610a64576102ff565b80633af9e6691161024f5780635c60da1b116102085780636c540baf116101e25780636c540baf146109565780636f307dc31461096b57806370a082311461098057806373acee98146109b3576102ff565b80635c60da1b14610902578063601a0bf1146109175780636752e70214610941576102ff565b80633af9e669146107025780633b1d21a2146107355780633e9410101461074a5780634487152f1461077457806347bd371814610825578063555bcc401461083a576102ff565b806318160ddd116102bc57806323b872dd1161029657806323b872dd1461062a5780632608f8181461066d57806326782247146106a6578063313ce567146106d7576102ff565b806318160ddd146105cb578063182df0f5146105e05780631be19560146105f5576102ff565b806306fdde03146103bf5780630933c1ed14610449578063095ea7b3146104fa5780630e75270214610547578063173b99041461058357806317bfdfbc14610598575b341561033c5760405162461bcd60e51b8152600401808060200182810382526037815260200180611dec6037913960400191505060405180910390fd5b6012546040516000916001600160a01b031690829036908083838082843760405192019450600093509091505080830381855af49150503d806000811461039f576040519150601f19603f3d011682016040523d82523d6000602084013e6103a4565b606091505b505090506040513d6000823e8180156103bb573d82f35b3d82fd5b3480156103cb57600080fd5b506103d4610db5565b6040805160208082528351818301528351919283929083019185019080838360005b8381101561040e5781810151838201526020016103f6565b50505050905090810190601f16801561043b5780820380516001836020036101000a031916815260200191505b509250505060405180910390f35b34801561045557600080fd5b506103d46004803603602081101561046c57600080fd5b810190602081018135600160201b81111561048657600080fd5b82018360208201111561049857600080fd5b803590602001918460018302840111600160201b831117156104b957600080fd5b91908080601f016020809104026020016040519081016040528093929190818152602001838380828437600092019190915250929550610e42945050505050565b34801561050657600080fd5b506105336004803603604081101561051d57600080fd5b506001600160a01b038135169060200135610e61565b604080519115158252519081900360200190f35b34801561055357600080fd5b506105716004803603602081101561056a57600080fd5b5035610ed8565b60408051918252519081900360200190f35b34801561058f57600080fd5b50610571610f3f565b3480156105a457600080fd5b50610571600480360360208110156105bb57600080fd5b50356001600160a01b0316610f45565b3480156105d757600080fd5b50610571610f97565b3480156105ec57600080fd5b50610571610f9d565b34801561060157600080fd5b506106286004803603602081101561061857600080fd5b50356001600160a01b0316610ff4565b005b34801561063657600080fd5b506105336004803603606081101561064d57600080fd5b506001600160a01b03813581169160208101359091169060400135611043565b34801561067957600080fd5b506105716004803603604081101561069057600080fd5b506001600160a01b0381351690602001356110c3565b3480156106b257600080fd5b506106bb611119565b604080516001600160a01b039092168252519081900360200190f35b3480156106e357600080fd5b506106ec611128565b6040805160ff9092168252519081900360200190f35b34801561070e57600080fd5b506105716004803603602081101561072557600080fd5b50356001600160a01b0316611131565b34801561074157600080fd5b50610571611183565b34801561075657600080fd5b506105716004803603602081101561076d57600080fd5b50356111bb565b34801561078057600080fd5b506103d46004803603602081101561079757600080fd5b810190602081018135600160201b8111156107b157600080fd5b8201836020820111156107c357600080fd5b803590602001918460018302840111600160201b831117156107e457600080fd5b91908080601f016020809104026020016040519081016040528093929190818152602001838380828437600092019190915250929550611202945050505050565b34801561083157600080fd5b50610571611421565b34801561084657600080fd5b506106286004803603606081101561085d57600080fd5b6001600160a01b03823516916020810135151591810190606081016040820135600160201b81111561088e57600080fd5b8201836020820111156108a057600080fd5b803590602001918460018302840111600160201b831117156108c157600080fd5b91908080601f016020809104026020016040519081016040528093929190818152602001838380828437600092019190915250929550611427945050505050565b34801561090e57600080fd5b506106bb6115ca565b34801561092357600080fd5b506105716004803603602081101561093a57600080fd5b50356115d9565b34801561094d57600080fd5b50610571611620565b34801561096257600080fd5b5061057161162b565b34801561097757600080fd5b506106bb611631565b34801561098c57600080fd5b50610571600480360360208110156109a357600080fd5b50356001600160a01b0316611640565b3480156109bf57600080fd5b50610571611692565b3480156109d457600080fd5b50610571600480360360208110156109eb57600080fd5b50356116ca565b3480156109fe57600080fd5b50610571611711565b348015610a1357600080fd5b506103d4611717565b348015610a2857600080fd5b5061057160048036036020811015610a3f57600080fd5b50356001600160a01b031661176f565b348015610a5b57600080fd5b506105336117c1565b348015610a7057600080fd5b5061057160048036036020811015610a8757600080fd5b50356117c6565b348015610a9a57600080fd5b5061057161180d565b348015610aaf57600080fd5b5061053360048036036040811015610ac657600080fd5b506001600160a01b038135169060200135611845565b348015610ae857600080fd5b5061057161189b565b348015610afd57600080fd5b506105716118a1565b348015610b1257600080fd5b5061057160048036036060811015610b2957600080fd5b506001600160a01b038135811691602081013590911690604001356118d9565b348015610b5557600080fd5b5061057160048036036020811015610b6c57600080fd5b50356001600160a01b0316611937565b348015610b8857600080fd5b5061057160048036036020811015610b9f57600080fd5b50356001600160a01b0316611989565b348015610bbb57600080fd5b506105716119db565b348015610bd057600080fd5b506106bb611a13565b348015610be557600080fd5b50610c0c60048036036020811015610bfc57600080fd5b50356001600160a01b0316611a22565b604080519485526020850193909352838301919091526060830152519081900360800190f35b348015610c3e57600080fd5b5061057160048036036020811015610c5557600080fd5b5035611ab4565b348015610c6857600080fd5b5061057160048036036020811015610c7f57600080fd5b5035611afb565b348015610c9257600080fd5b5061057160048036036040811015610ca957600080fd5b506001600160a01b0381358116916020013516611b42565b348015610ccd57600080fd5b50610571611b9c565b348015610ce257600080fd5b5061057160048036036020811015610cf957600080fd5b50356001600160a01b0316611bd4565b348015610d1557600080fd5b506106bb611c26565b348015610d2a57600080fd5b5061057160048036036060811015610d4157600080fd5b506001600160a01b03813581169160208101359160409091013516611c35565b348015610d6d57600080fd5b506106bb611c96565b348015610d8257600080fd5b50610571611caa565b348015610d9757600080fd5b5061057160048036036020811015610dae57600080fd5b5035611ce2565b60018054604080516020600284861615610100026000190190941693909304601f81018490048402820184019092528181529291830182828015610e3a5780601f10610e0f57610100808354040283529160200191610e3a565b820191906000526020600020905b815481529060010190602001808311610e1d57829003601f168201915b505050505081565b601254606090610e5b906001600160a01b031683611d29565b92915050565b604080516001600160a01b038416602482015260448082018490528251808303909101815260649091019091526020810180516001600160e01b031663095ea7b360e01b179052600090606090610eb790610e42565b9050808060200190516020811015610ece57600080fd5b5051949350505050565b6040805160248082018490528251808303909101815260449091019091526020810180516001600160e01b031663073a938160e11b179052600090606090610f1f90610e42565b9050808060200190516020811015610f3657600080fd5b50519392505050565b60085481565b604080516001600160a01b0383166024808301919091528251808303909101815260449091019091526020810180516001600160e01b03166305eff7ef60e21b179052600090606090610f1f90610e42565b600d5481565b6040805160048152602481019091526020810180516001600160e01b031663182df0f560e01b179052600090606090610fd590611202565b9050808060200190516020811015610fec57600080fd5b505191505090565b604080516001600160a01b0383166024808301919091528251808303909101815260449091019091526020810180516001600160e01b031662df0cab60e51b17905261103f90610e42565b5050565b604080516001600160a01b0380861660248301528416604482015260648082018490528251808303909101815260849091019091526020810180516001600160e01b03166323b872dd60e01b1790526000906060906110a190610e42565b90508080602001905160208110156110b857600080fd5b505195945050505050565b604080516001600160a01b038416602482015260448082018490528251808303909101815260649091019091526020810180516001600160e01b03166304c11f0360e31b179052600090606090610eb790610e42565b6004546001600160a01b031681565b60035460ff1681565b604080516001600160a01b0383166024808301919091528251808303909101815260449091019091526020810180516001600160e01b0316633af9e66960e01b179052600090606090610f1f90610e42565b6040805160048152602481019091526020810180516001600160e01b0316631d8e90d160e11b179052600090606090610fd590611202565b6040805160248082018490528251808303909101815260449091019091526020810180516001600160e01b03166303e9410160e41b179052600090606090610f1f90610e42565b606060006060306001600160a01b0316846040516024018080602001828103825283818151815260200191508051906020019080838360005b8381101561125357818101518382015260200161123b565b50505050905090810190601f1680156112805780820380516001836020036101000a031916815260200191505b5060408051601f198184030181529181526020820180516001600160e01b0316630933c1ed60e01b178152905182519295509350839250908083835b602083106112db5780518252601f1990920191602091820191016112bc565b6001836020036101000a038019825116818451168082178552505050505050905001915050600060405180830381855afa9150503d806000811461133b576040519150601f19603f3d011682016040523d82523d6000602084013e611340565b606091505b50915091506000821415611355573d60208201fd5b80806020019051602081101561136a57600080fd5b8101908080516040519392919084600160201b82111561138957600080fd5b90830190602082018581111561139e57600080fd5b8251600160201b8111828201881017156113b757600080fd5b82525081516020918201929091019080838360005b838110156113e45781810151838201526020016113cc565b50505050905090810190601f1680156114115780820380516001836020036101000a031916815260200191505b5060405250505092505050919050565b600b5481565b60035461010090046001600160a01b031633146114755760405162461bcd60e51b8152600401808060200182810382526039815260200180611e236039913960400191505060405180910390fd5b81156114af576040805160048152602481019091526020810180516001600160e01b031663153ab50560e01b1790526114ad90610e42565b505b601280546001600160a01b038581166001600160a01b0319831617909255604051602060248201818152855160448401528551949093169361157b938693909283926064909201919085019080838360005b83811015611519578181015183820152602001611501565b50505050905090810190601f1680156115465780820380516001836020036101000a031916815260200191505b5060408051601f198184030181529190526020810180516001600160e01b0316630adccee560e31b1790529250610e42915050565b50601254604080516001600160a01b038085168252909216602083015280517fd604de94d45953f9138079ec1b82d533cb2160c906d1076d1f7ed54befbca97a9281900390910190a150505050565b6012546001600160a01b031681565b6040805160248082018490528251808303909101815260449091019091526020810180516001600160e01b031663601a0bf160e01b179052600090606090610f1f90610e42565b666379da05b6000081565b60095481565b6011546001600160a01b031681565b604080516001600160a01b0383166024808301919091528251808303909101815260449091019091526020810180516001600160e01b03166370a0823160e01b179052600090606090610f1f90611202565b6040805160048152602481019091526020810180516001600160e01b0316630e759dd360e31b179052600090606090610fd590610e42565b6040805160248082018490528251808303909101815260449091019091526020810180516001600160e01b031663852a12e360e01b179052600090606090610f1f90610e42565b600c5481565b6002805460408051602060018416156101000260001901909316849004601f81018490048402820184019092528181529291830182828015610e3a5780601f10610e0f57610100808354040283529160200191610e3a565b604080516001600160a01b0383166024808301919091528251808303909101815260449091019091526020810180516001600160e01b03166395dd919360e01b179052600090606090610f1f90611202565b600181565b6040805160248082018490528251808303909101815260449091019091526020810180516001600160e01b031663140e25ad60e31b179052600090606090610f1f90610e42565b6040805160048152602481019091526020810180516001600160e01b031663a6afed9560e01b179052600090606090610fd590610e42565b604080516001600160a01b038416602482015260448082018490528251808303909101815260649091019091526020810180516001600160e01b031663a9059cbb60e01b179052600090606090610eb790610e42565b600a5481565b6040805160048152602481019091526020810180516001600160e01b0316630ae9d70b60e41b179052600090606090610fd590611202565b604080516001600160a01b0380861660248301528416604482015260648082018490528251808303909101815260849091019091526020810180516001600160e01b031663b2a02ff160e01b1790526000906060906110a190610e42565b604080516001600160a01b0383166024808301919091528251808303909101815260449091019091526020810180516001600160e01b0316632dc7468360e21b179052600090606090610f1f90610e42565b604080516001600160a01b0383166024808301919091528251808303909101815260449091019091526020810180516001600160e01b0316635bcd9e4560e11b179052600090606090610f1f90610e42565b6040805160048152602481019091526020810180516001600160e01b031663bd6d894d60e01b179052600090606090610fd590610e42565b6005546001600160a01b031681565b604080516001600160a01b0383166024808301919091528251808303909101815260449091019091526020810180516001600160e01b03166361bfb47160e11b179052600090819081908190606090611a7a90611202565b9050808060200190516080811015611a9157600080fd5b508051602082015160408301516060909301519199909850919650945092505050565b6040805160248082018490528251808303909101815260449091019091526020810180516001600160e01b031663317afabb60e21b179052600090606090610f1f90610e42565b6040805160248082018490528251808303909101815260449091019091526020810180516001600160e01b031663db006a7560e01b179052600090606090610f1f90610e42565b604080516001600160a01b03808516602483015283166044808301919091528251808303909101815260649091019091526020810180516001600160e01b0316636eb1769f60e11b179052600090606090610eb790611202565b6040805160048152602481019091526020810180516001600160e01b03166374e38a7960e11b179052600090606090610fd590610e42565b604080516001600160a01b0383166024808301919091528251808303909101815260449091019091526020810180516001600160e01b031663f2b3abbd60e01b179052600090606090610f1f90610e42565b6006546001600160a01b031681565b604080516001600160a01b0380861660248301526044820185905283166064808301919091528251808303909101815260849091019091526020810180516001600160e01b0316637af1e23160e11b1790526000906060906110a190610e42565b60035461010090046001600160a01b031681565b6040805160048152602481019091526020810180516001600160e01b0316631f1f3b4560e31b179052600090606090610fd590611202565b6040805160248082018490528251808303909101815260449091019091526020810180516001600160e01b031663fca7820b60e01b179052600090606090610f1f90610e42565b606060006060846001600160a01b0316846040518082805190602001908083835b60208310611d695780518252601f199092019160209182019101611d4a565b6001836020036101000a038019825116818451168082178552505050505050905001915050600060405180830381855af49150503d8060008114611dc9576040519150601f19603f3d011682016040523d82523d6000602084013e611dce565b606091505b50915091506000821415611de3573d60208201fd5b94935050505056fe54457263323044656c656761746f723a66616c6c6261636b3a2063616e6e6f742073656e642076616c756520746f2066616c6c6261636b54457263323044656c656761746f723a3a5f736574496d706c656d656e746174696f6e3a2043616c6c6572206d7573742062652061646d696ea265627a7a72315820d3dc839212e355a7ca92b49cb902a96896456fe4b2871b81b5e3ac172e52adbb64736f6c6343000510003254457263323044656c656761746f723a3a5f736574496d706c656d656e746174696f6e3a2043616c6c6572206d7573742062652061646d696e","opcodes":"PUSH1 0x80 PUSH1 0x40 MSTORE CALLVALUE DUP1 ISZERO PUSH3 0x11 JUMPI PUSH1 0x0 DUP1 REVERT JUMPDEST POP PUSH1 0x40 MLOAD PUSH3 0x25F3 CODESIZE SUB DUP1 PUSH3 0x25F3 DUP4 CODECOPY DUP2 DUP2 ADD PUSH1 0x40 MSTORE PUSH2 0x140 DUP2 LT ISZERO PUSH3 0x38 JUMPI PUSH1 0x0 DUP1 REVERT JUMPDEST DUP2 MLOAD PUSH1 0x20 DUP4 ADD MLOAD PUSH1 0x40 DUP1 DUP6 ADD MLOAD PUSH1 0x60 DUP7 ADD MLOAD PUSH1 0x80 DUP8 ADD DUP1 MLOAD SWAP4 MLOAD SWAP6 SWAP8 SWAP5 SWAP7 SWAP3 SWAP6 SWAP2 SWAP5 SWAP2 SWAP4 SWAP3 DUP3 ADD SWAP3 DUP5 PUSH5 0x100000000 DUP3 GT ISZERO PUSH3 0x74 JUMPI PUSH1 0x0 DUP1 REVERT JUMPDEST SWAP1 DUP4 ADD SWAP1 PUSH1 0x20 DUP3 ADD DUP6 DUP2 GT ISZERO PUSH3 0x8A JUMPI PUSH1 0x0 DUP1 REVERT JUMPDEST DUP3 MLOAD PUSH5 0x100000000 DUP2 GT DUP3 DUP3 ADD DUP9 LT OR ISZERO PUSH3 0xA5 JUMPI PUSH1 0x0 DUP1 REVERT JUMPDEST DUP3 MSTORE POP DUP2 MLOAD PUSH1 0x20 SWAP2 DUP3 ADD SWAP3 SWAP1 SWAP2 ADD SWAP1 DUP1 DUP4 DUP4 PUSH1 0x0 JUMPDEST DUP4 DUP2 LT ISZERO PUSH3 0xD4 JUMPI DUP2 DUP2 ADD MLOAD DUP4 DUP3 ADD MSTORE PUSH1 0x20 ADD PUSH3 0xBA JUMP JUMPDEST POP POP POP POP SWAP1 POP SWAP1 DUP2 ADD SWAP1 PUSH1 0x1F AND DUP1 ISZERO PUSH3 0x102 JUMPI DUP1 DUP3 SUB DUP1 MLOAD PUSH1 0x1 DUP4 PUSH1 0x20 SUB PUSH2 0x100 EXP SUB NOT AND DUP2 MSTORE PUSH1 0x20 ADD SWAP2 POP JUMPDEST POP PUSH1 0x40 MSTORE PUSH1 0x20 ADD DUP1 MLOAD PUSH1 0x40 MLOAD SWAP4 SWAP3 SWAP2 SWAP1 DUP5 PUSH5 0x100000000 DUP3 GT ISZERO PUSH3 0x126 JUMPI PUSH1 0x0 DUP1 REVERT JUMPDEST SWAP1 DUP4 ADD SWAP1 PUSH1 0x20 DUP3 ADD DUP6 DUP2 GT ISZERO PUSH3 0x13C JUMPI PUSH1 0x0 DUP1 REVERT JUMPDEST DUP3 MLOAD PUSH5 0x100000000 DUP2 GT DUP3 DUP3 ADD DUP9 LT OR ISZERO PUSH3 0x157 JUMPI PUSH1 0x0 DUP1 REVERT JUMPDEST DUP3 MSTORE POP DUP2 MLOAD PUSH1 0x20 SWAP2 DUP3 ADD SWAP3 SWAP1 SWAP2 ADD SWAP1 DUP1 DUP4 DUP4 PUSH1 0x0 JUMPDEST DUP4 DUP2 LT ISZERO PUSH3 0x186 JUMPI DUP2 DUP2 ADD MLOAD DUP4 DUP3 ADD MSTORE PUSH1 0x20 ADD PUSH3 0x16C JUMP JUMPDEST POP POP POP POP SWAP1 POP SWAP1 DUP2 ADD SWAP1 PUSH1 0x1F AND DUP1 ISZERO PUSH3 0x1B4 JUMPI DUP1 DUP3 SUB DUP1 MLOAD PUSH1 0x1 DUP4 PUSH1 0x20 SUB PUSH2 0x100 EXP SUB NOT AND DUP2 MSTORE PUSH1 0x20 ADD SWAP2 POP JUMPDEST POP PUSH1 0x40 DUP2 DUP2 MSTORE PUSH1 0x20 DUP4 ADD MLOAD SWAP1 DUP4 ADD MLOAD PUSH1 0x60 DUP5 ADD MLOAD PUSH1 0x80 SWAP1 SWAP5 ADD DUP1 MLOAD SWAP3 SWAP7 SWAP2 SWAP6 SWAP2 SWAP3 DUP5 PUSH5 0x100000000 DUP3 GT ISZERO PUSH3 0x1E9 JUMPI PUSH1 0x0 DUP1 REVERT JUMPDEST SWAP1 DUP4 ADD SWAP1 PUSH1 0x20 DUP3 ADD DUP6 DUP2 GT ISZERO PUSH3 0x1FF JUMPI PUSH1 0x0 DUP1 REVERT JUMPDEST DUP3 MLOAD PUSH5 0x100000000 DUP2 GT DUP3 DUP3 ADD DUP9 LT OR ISZERO PUSH3 0x21A JUMPI PUSH1 0x0 DUP1 REVERT JUMPDEST DUP3 MSTORE POP DUP2 MLOAD PUSH1 0x20 SWAP2 DUP3 ADD SWAP3 SWAP1 SWAP2 ADD SWAP1 DUP1 DUP4 DUP4 PUSH1 0x0 JUMPDEST DUP4 DUP2 LT ISZERO PUSH3 0x249 JUMPI DUP2 DUP2 ADD MLOAD DUP4 DUP3 ADD MSTORE PUSH1 0x20 ADD PUSH3 0x22F JUMP JUMPDEST POP POP POP POP SWAP1 POP SWAP1 DUP2 ADD SWAP1 PUSH1 0x1F AND DUP1 ISZERO PUSH3 0x277 JUMPI DUP1 DUP3 SUB DUP1 MLOAD PUSH1 0x1 DUP4 PUSH1 0x20 SUB PUSH2 0x100 EXP SUB NOT AND DUP2 MSTORE PUSH1 0x20 ADD SWAP2 POP JUMPDEST POP PUSH1 0x40 MSTORE POP POP POP CALLER PUSH1 0x3 PUSH1 0x1 PUSH2 0x100 EXP DUP2 SLOAD DUP2 PUSH1 0x1 PUSH1 0x1 PUSH1 0xA0 SHL SUB MUL NOT AND SWAP1 DUP4 PUSH1 0x1 PUSH1 0x1 PUSH1 0xA0 SHL SUB AND MUL OR SWAP1 SSTORE POP PUSH3 0x424 DUP3 DUP12 DUP12 DUP12 DUP12 DUP12 DUP12 DUP12 PUSH1 0x40 MLOAD PUSH1 0x24 ADD DUP1 DUP9 PUSH1 0x1 PUSH1 0x1 PUSH1 0xA0 SHL SUB AND PUSH1 0x1 PUSH1 0x1 PUSH1 0xA0 SHL SUB AND DUP2 MSTORE PUSH1 0x20 ADD DUP8 PUSH1 0x1 PUSH1 0x1 PUSH1 0xA0 SHL SUB AND PUSH1 0x1 PUSH1 0x1 PUSH1 0xA0 SHL SUB AND DUP2 MSTORE PUSH1 0x20 ADD DUP7 PUSH1 0x1 PUSH1 0x1 PUSH1 0xA0 SHL SUB AND PUSH1 0x1 PUSH1 0x1 PUSH1 0xA0 SHL SUB AND DUP2 MSTORE PUSH1 0x20 ADD DUP6 DUP2 MSTORE PUSH1 0x20 ADD DUP1 PUSH1 0x20 ADD DUP1 PUSH1 0x20 ADD DUP5 PUSH1 0xFF AND PUSH1 0xFF AND DUP2 MSTORE PUSH1 0x20 ADD DUP4 DUP2 SUB DUP4 MSTORE DUP7 DUP2 DUP2 MLOAD DUP2 MSTORE PUSH1 0x20 ADD SWAP2 POP DUP1 MLOAD SWAP1 PUSH1 0x20 ADD SWAP1 DUP1 DUP4 DUP4 PUSH1 0x0 JUMPDEST DUP4 DUP2 LT ISZERO PUSH3 0x351 JUMPI DUP2 DUP2 ADD MLOAD DUP4 DUP3 ADD MSTORE PUSH1 0x20 ADD PUSH3 0x337 JUMP JUMPDEST POP POP POP POP SWAP1 POP SWAP1 DUP2 ADD SWAP1 PUSH1 0x1F AND DUP1 ISZERO PUSH3 0x37F JUMPI DUP1 DUP3 SUB DUP1 MLOAD PUSH1 0x1 DUP4 PUSH1 0x20 SUB PUSH2 0x100 EXP SUB NOT AND DUP2 MSTORE PUSH1 0x20 ADD SWAP2 POP JUMPDEST POP DUP4 DUP2 SUB DUP3 MSTORE DUP6 MLOAD DUP2 MSTORE DUP6 MLOAD PUSH1 0x20 SWAP2 DUP3 ADD SWAP2 DUP8 ADD SWAP1 DUP1 DUP4 DUP4 PUSH1 0x0 JUMPDEST DUP4 DUP2 LT ISZERO PUSH3 0x3B4 JUMPI DUP2 DUP2 ADD MLOAD DUP4 DUP3 ADD MSTORE PUSH1 0x20 ADD PUSH3 0x39A JUMP JUMPDEST POP POP POP POP SWAP1 POP SWAP1 DUP2 ADD SWAP1 PUSH1 0x1F AND DUP1 ISZERO PUSH3 0x3E2 JUMPI DUP1 DUP3 SUB DUP1 MLOAD PUSH1 0x1 DUP4 PUSH1 0x20 SUB PUSH2 0x100 EXP SUB NOT AND DUP2 MSTORE PUSH1 0x20 ADD SWAP2 POP JUMPDEST POP PUSH1 0x40 DUP1 MLOAD PUSH1 0x1F NOT DUP2 DUP5 SUB ADD DUP2 MSTORE SWAP2 SWAP1 MSTORE PUSH1 0x20 DUP2 ADD DUP1 MLOAD PUSH1 0x1 PUSH1 0x1 PUSH1 0xE0 SHL SUB SWAP1 DUP2 AND PUSH4 0x1A31D465 PUSH1 0xE0 SHL OR SWAP1 SWAP2 MSTORE SWAP1 SWAP11 POP PUSH3 0x472 AND SWAP9 POP POP POP POP POP POP POP POP POP JUMP JUMPDEST POP PUSH3 0x43C DUP3 PUSH1 0x0 DUP4 PUSH1 0x1 PUSH1 0x1 PUSH1 0xE0 SHL SUB PUSH3 0x539 AND JUMP JUMPDEST POP POP PUSH1 0x3 DUP1 SLOAD PUSH1 0x1 PUSH1 0x1 PUSH1 0xA0 SHL SUB SWAP1 SWAP3 AND PUSH2 0x100 MUL PUSH2 0x100 PUSH1 0x1 PUSH1 0xA8 SHL SUB NOT SWAP1 SWAP3 AND SWAP2 SWAP1 SWAP2 OR SWAP1 SSTORE POP PUSH3 0x71A SWAP6 POP POP POP POP POP POP JUMP JUMPDEST PUSH1 0x60 PUSH1 0x0 PUSH1 0x60 DUP5 PUSH1 0x1 PUSH1 0x1 PUSH1 0xA0 SHL SUB AND DUP5 PUSH1 0x40 MLOAD DUP1 DUP3 DUP1 MLOAD SWAP1 PUSH1 0x20 ADD SWAP1 DUP1 DUP4 DUP4 JUMPDEST PUSH1 0x20 DUP4 LT PUSH3 0x4B4 JUMPI DUP1 MLOAD DUP3 MSTORE PUSH1 0x1F NOT SWAP1 SWAP3 ADD SWAP2 PUSH1 0x20 SWAP2 DUP3 ADD SWAP2 ADD PUSH3 0x493 JUMP JUMPDEST PUSH1 0x1 DUP4 PUSH1 0x20 SUB PUSH2 0x100 EXP SUB DUP1 NOT DUP3 MLOAD AND DUP2 DUP5 MLOAD AND DUP1 DUP3 OR DUP6 MSTORE POP POP POP POP POP POP SWAP1 POP ADD SWAP2 POP POP PUSH1 0x0 PUSH1 0x40 MLOAD DUP1 DUP4 SUB DUP2 DUP6 GAS DELEGATECALL SWAP2 POP POP RETURNDATASIZE DUP1 PUSH1 0x0 DUP2 EQ PUSH3 0x516 JUMPI PUSH1 0x40 MLOAD SWAP2 POP PUSH1 0x1F NOT PUSH1 0x3F RETURNDATASIZE ADD AND DUP3 ADD PUSH1 0x40 MSTORE RETURNDATASIZE DUP3 MSTORE RETURNDATASIZE PUSH1 0x0 PUSH1 0x20 DUP5 ADD RETURNDATACOPY PUSH3 0x51B JUMP JUMPDEST PUSH1 0x60 SWAP2 POP JUMPDEST POP SWAP2 POP SWAP2 POP PUSH1 0x0 DUP3 EQ ISZERO PUSH3 0x531 JUMPI RETURNDATASIZE PUSH1 0x20 DUP3 ADD REVERT JUMPDEST SWAP5 SWAP4 POP POP POP POP JUMP JUMPDEST PUSH1 0x3 SLOAD PUSH2 0x100 SWAP1 DIV PUSH1 0x1 PUSH1 0x1 PUSH1 0xA0 SHL SUB AND CALLER EQ PUSH3 0x589 JUMPI PUSH1 0x40 MLOAD PUSH3 0x461BCD PUSH1 0xE5 SHL DUP2 MSTORE PUSH1 0x4 ADD DUP1 DUP1 PUSH1 0x20 ADD DUP3 DUP2 SUB DUP3 MSTORE PUSH1 0x39 DUP2 MSTORE PUSH1 0x20 ADD DUP1 PUSH3 0x25BA PUSH1 0x39 SWAP2 CODECOPY PUSH1 0x40 ADD SWAP2 POP POP PUSH1 0x40 MLOAD DUP1 SWAP2 SUB SWAP1 REVERT JUMPDEST DUP2 ISZERO PUSH3 0x5CB JUMPI PUSH1 0x40 DUP1 MLOAD PUSH1 0x4 DUP2 MSTORE PUSH1 0x24 DUP2 ADD SWAP1 SWAP2 MSTORE PUSH1 0x20 DUP2 ADD DUP1 MLOAD PUSH1 0x1 PUSH1 0x1 PUSH1 0xE0 SHL SUB SWAP1 DUP2 AND PUSH4 0x153AB505 PUSH1 0xE0 SHL OR SWAP1 SWAP2 MSTORE PUSH3 0x5C9 SWAP2 SWAP1 PUSH3 0x6F0 AND JUMP JUMPDEST POP JUMPDEST PUSH1 0x12 DUP1 SLOAD PUSH1 0x1 PUSH1 0x1 PUSH1 0xA0 SHL SUB DUP6 DUP2 AND PUSH1 0x1 PUSH1 0x1 PUSH1 0xA0 SHL SUB NOT DUP4 AND OR SWAP1 SWAP3 SSTORE PUSH1 0x40 MLOAD PUSH1 0x20 PUSH1 0x24 DUP3 ADD DUP2 DUP2 MSTORE DUP6 MLOAD PUSH1 0x44 DUP5 ADD MSTORE DUP6 MLOAD SWAP5 SWAP1 SWAP4 AND SWAP4 PUSH3 0x6A1 SWAP4 DUP7 SWAP4 SWAP1 SWAP3 DUP4 SWAP3 PUSH1 0x64 SWAP1 SWAP3 ADD SWAP2 SWAP1 DUP6 ADD SWAP1 DUP1 DUP4 DUP4 PUSH1 0x0 JUMPDEST DUP4 DUP2 LT ISZERO PUSH3 0x638 JUMPI DUP2 DUP2 ADD MLOAD DUP4 DUP3 ADD MSTORE PUSH1 0x20 ADD PUSH3 0x61E JUMP JUMPDEST POP POP POP POP SWAP1 POP SWAP1 DUP2 ADD SWAP1 PUSH1 0x1F AND DUP1 ISZERO PUSH3 0x666 JUMPI DUP1 DUP3 SUB DUP1 MLOAD PUSH1 0x1 DUP4 PUSH1 0x20 SUB PUSH2 0x100 EXP SUB NOT AND DUP2 MSTORE PUSH1 0x20 ADD SWAP2 POP JUMPDEST POP PUSH1 0x40 DUP1 MLOAD PUSH1 0x1F NOT DUP2 DUP5 SUB ADD DUP2 MSTORE SWAP2 SWAP1 MSTORE PUSH1 0x20 DUP2 ADD DUP1 MLOAD PUSH1 0x1 PUSH1 0x1 PUSH1 0xE0 SHL SUB SWAP1 DUP2 AND PUSH4 0xADCCEE5 PUSH1 0xE3 SHL OR SWAP1 SWAP2 MSTORE SWAP1 SWAP4 POP PUSH3 0x6F0 AND SWAP2 POP POP JUMP JUMPDEST POP PUSH1 0x12 SLOAD PUSH1 0x40 DUP1 MLOAD PUSH1 0x1 PUSH1 0x1 PUSH1 0xA0 SHL SUB DUP1 DUP6 AND DUP3 MSTORE SWAP1 SWAP3 AND PUSH1 0x20 DUP4 ADD MSTORE DUP1 MLOAD PUSH32 0xD604DE94D45953F9138079EC1B82D533CB2160C906D1076D1F7ED54BEFBCA97A SWAP3 DUP2 SWAP1 SUB SWAP1 SWAP2 ADD SWAP1 LOG1 POP POP POP POP JUMP JUMPDEST PUSH1 0x12 SLOAD PUSH1 0x60 SWAP1 PUSH3 0x714 SWAP1 PUSH1 0x1 PUSH1 0x1 PUSH1 0xA0 SHL SUB AND DUP4 PUSH1 0x1 PUSH1 0x1 PUSH1 0xE0 SHL SUB PUSH3 0x472 AND JUMP JUMPDEST SWAP3 SWAP2 POP POP JUMP JUMPDEST PUSH2 0x1E90 DUP1 PUSH3 0x72A PUSH1 0x0 CODECOPY PUSH1 0x0 RETURN INVALID PUSH1 0x80 PUSH1 0x40 MSTORE PUSH1 0x4 CALLDATASIZE LT PUSH2 0x2FF JUMPI PUSH1 0x0 CALLDATALOAD PUSH1 0xE0 SHR DUP1 PUSH4 0x852A12E3 GT PUSH2 0x190 JUMPI DUP1 PUSH4 0xBD6D894D GT PUSH2 0xDC JUMPI DUP1 PUSH4 0xE9C714F2 GT PUSH2 0x95 JUMPI DUP1 PUSH4 0xF5E3C462 GT PUSH2 0x6F JUMPI DUP1 PUSH4 0xF5E3C462 EQ PUSH2 0xD1E JUMPI DUP1 PUSH4 0xF851A440 EQ PUSH2 0xD61 JUMPI DUP1 PUSH4 0xF8F9DA28 EQ PUSH2 0xD76 JUMPI DUP1 PUSH4 0xFCA7820B EQ PUSH2 0xD8B JUMPI PUSH2 0x2FF JUMP JUMPDEST DUP1 PUSH4 0xE9C714F2 EQ PUSH2 0xCC1 JUMPI DUP1 PUSH4 0xF2B3ABBD EQ PUSH2 0xCD6 JUMPI DUP1 PUSH4 0xF3FDB15A EQ PUSH2 0xD09 JUMPI PUSH2 0x2FF JUMP JUMPDEST DUP1 PUSH4 0xBD6D894D EQ PUSH2 0xBAF JUMPI DUP1 PUSH4 0xC16A61EC EQ PUSH2 0xBC4 JUMPI DUP1 PUSH4 0xC37F68E2 EQ PUSH2 0xBD9 JUMPI DUP1 PUSH4 0xC5EBEAEC EQ PUSH2 0xC32 JUMPI DUP1 PUSH4 0xDB006A75 EQ PUSH2 0xC5C JUMPI DUP1 PUSH4 0xDD62ED3E EQ PUSH2 0xC86 JUMPI PUSH2 0x2FF JUMP JUMPDEST DUP1 PUSH4 0xA6AFED95 GT PUSH2 0x149 JUMPI DUP1 PUSH4 0xAE9D70B0 GT PUSH2 0x123 JUMPI DUP1 PUSH4 0xAE9D70B0 EQ PUSH2 0xAF1 JUMPI DUP1 PUSH4 0xB2A02FF1 EQ PUSH2 0xB06 JUMPI DUP1 PUSH4 0xB71D1A0C EQ PUSH2 0xB49 JUMPI DUP1 PUSH4 0xB79B3C8A EQ PUSH2 0xB7C JUMPI PUSH2 0x2FF JUMP JUMPDEST DUP1 PUSH4 0xA6AFED95 EQ PUSH2 0xA8E JUMPI DUP1 PUSH4 0xA9059CBB EQ PUSH2 0xAA3 JUMPI DUP1 PUSH4 0xAA5AF0FD EQ PUSH2 0xADC JUMPI PUSH2 0x2FF JUMP JUMPDEST DUP1 PUSH4 0x852A12E3 EQ PUSH2 0x9C8 JUMPI DUP1 PUSH4 0x8F840DDD EQ PUSH2 0x9F2 JUMPI DUP1 PUSH4 0x95D89B41 EQ PUSH2 0xA07 JUMPI DUP1 PUSH4 0x95DD9193 EQ PUSH2 0xA1C JUMPI DUP1 PUSH4 0xA0097B58 EQ PUSH2 0xA4F JUMPI DUP1 PUSH4 0xA0712D68 EQ PUSH2 0xA64 JUMPI PUSH2 0x2FF JUMP JUMPDEST DUP1 PUSH4 0x3AF9E669 GT PUSH2 0x24F JUMPI DUP1 PUSH4 0x5C60DA1B GT PUSH2 0x208 JUMPI DUP1 PUSH4 0x6C540BAF GT PUSH2 0x1E2 JUMPI DUP1 PUSH4 0x6C540BAF EQ PUSH2 0x956 JUMPI DUP1 PUSH4 0x6F307DC3 EQ PUSH2 0x96B JUMPI DUP1 PUSH4 0x70A08231 EQ PUSH2 0x980 JUMPI DUP1 PUSH4 0x73ACEE98 EQ PUSH2 0x9B3 JUMPI PUSH2 0x2FF JUMP JUMPDEST DUP1 PUSH4 0x5C60DA1B EQ PUSH2 0x902 JUMPI DUP1 PUSH4 0x601A0BF1 EQ PUSH2 0x917 JUMPI DUP1 PUSH4 0x6752E702 EQ PUSH2 0x941 JUMPI PUSH2 0x2FF JUMP JUMPDEST DUP1 PUSH4 0x3AF9E669 EQ PUSH2 0x702 JUMPI DUP1 PUSH4 0x3B1D21A2 EQ PUSH2 0x735 JUMPI DUP1 PUSH4 0x3E941010 EQ PUSH2 0x74A JUMPI DUP1 PUSH4 0x4487152F EQ PUSH2 0x774 JUMPI DUP1 PUSH4 0x47BD3718 EQ PUSH2 0x825 JUMPI DUP1 PUSH4 0x555BCC40 EQ PUSH2 0x83A JUMPI PUSH2 0x2FF JUMP JUMPDEST DUP1 PUSH4 0x18160DDD GT PUSH2 0x2BC JUMPI DUP1 PUSH4 0x23B872DD GT PUSH2 0x296 JUMPI DUP1 PUSH4 0x23B872DD EQ PUSH2 0x62A JUMPI DUP1 PUSH4 0x2608F818 EQ PUSH2 0x66D JUMPI DUP1 PUSH4 0x26782247 EQ PUSH2 0x6A6 JUMPI DUP1 PUSH4 0x313CE567 EQ PUSH2 0x6D7 JUMPI PUSH2 0x2FF JUMP JUMPDEST DUP1 PUSH4 0x18160DDD EQ PUSH2 0x5CB JUMPI DUP1 PUSH4 0x182DF0F5 EQ PUSH2 0x5E0 JUMPI DUP1 PUSH4 0x1BE19560 EQ PUSH2 0x5F5 JUMPI PUSH2 0x2FF JUMP JUMPDEST DUP1 PUSH4 0x6FDDE03 EQ PUSH2 0x3BF JUMPI DUP1 PUSH4 0x933C1ED EQ PUSH2 0x449 JUMPI DUP1 PUSH4 0x95EA7B3 EQ PUSH2 0x4FA JUMPI DUP1 PUSH4 0xE752702 EQ PUSH2 0x547 JUMPI DUP1 PUSH4 0x173B9904 EQ PUSH2 0x583 JUMPI DUP1 PUSH4 0x17BFDFBC EQ PUSH2 0x598 JUMPI JUMPDEST CALLVALUE ISZERO PUSH2 0x33C JUMPI PUSH1 0x40 MLOAD PUSH3 0x461BCD PUSH1 0xE5 SHL DUP2 MSTORE PUSH1 0x4 ADD DUP1 DUP1 PUSH1 0x20 ADD DUP3 DUP2 SUB DUP3 MSTORE PUSH1 0x37 DUP2 MSTORE PUSH1 0x20 ADD DUP1 PUSH2 0x1DEC PUSH1 0x37 SWAP2 CODECOPY PUSH1 0x40 ADD SWAP2 POP POP PUSH1 0x40 MLOAD DUP1 SWAP2 SUB SWAP1 REVERT JUMPDEST PUSH1 0x12 SLOAD PUSH1 0x40 MLOAD PUSH1 0x0 SWAP2 PUSH1 0x1 PUSH1 0x1 PUSH1 0xA0 SHL SUB AND SWAP1 DUP3 SWAP1 CALLDATASIZE SWAP1 DUP1 DUP4 DUP4 DUP1 DUP3 DUP5 CALLDATACOPY PUSH1 0x40 MLOAD SWAP3 ADD SWAP5 POP PUSH1 0x0 SWAP4 POP SWAP1 SWAP2 POP POP DUP1 DUP4 SUB DUP2 DUP6 GAS DELEGATECALL SWAP2 POP POP RETURNDATASIZE DUP1 PUSH1 0x0 DUP2 EQ PUSH2 0x39F JUMPI PUSH1 0x40 MLOAD SWAP2 POP PUSH1 0x1F NOT PUSH1 0x3F RETURNDATASIZE ADD AND DUP3 ADD PUSH1 0x40 MSTORE RETURNDATASIZE DUP3 MSTORE RETURNDATASIZE PUSH1 0x0 PUSH1 0x20 DUP5 ADD RETURNDATACOPY PUSH2 0x3A4 JUMP JUMPDEST PUSH1 0x60 SWAP2 POP JUMPDEST POP POP SWAP1 POP PUSH1 0x40 MLOAD RETURNDATASIZE PUSH1 0x0 DUP3 RETURNDATACOPY DUP2 DUP1 ISZERO PUSH2 0x3BB JUMPI RETURNDATASIZE DUP3 RETURN JUMPDEST RETURNDATASIZE DUP3 REVERT JUMPDEST CALLVALUE DUP1 ISZERO PUSH2 0x3CB JUMPI PUSH1 0x0 DUP1 REVERT JUMPDEST POP PUSH2 0x3D4 PUSH2 0xDB5 JUMP JUMPDEST PUSH1 0x40 DUP1 MLOAD PUSH1 0x20 DUP1 DUP3 MSTORE DUP4 MLOAD DUP2 DUP4 ADD MSTORE DUP4 MLOAD SWAP2 SWAP3 DUP4 SWAP3 SWAP1 DUP4 ADD SWAP2 DUP6 ADD SWAP1 DUP1 DUP4 DUP4 PUSH1 0x0 JUMPDEST DUP4 DUP2 LT ISZERO PUSH2 0x40E JUMPI DUP2 DUP2 ADD MLOAD DUP4 DUP3 ADD MSTORE PUSH1 0x20 ADD PUSH2 0x3F6 JUMP JUMPDEST POP POP POP POP SWAP1 POP SWAP1 DUP2 ADD SWAP1 PUSH1 0x1F AND DUP1 ISZERO PUSH2 0x43B JUMPI DUP1 DUP3 SUB DUP1 MLOAD PUSH1 0x1 DUP4 PUSH1 0x20 SUB PUSH2 0x100 EXP SUB NOT AND DUP2 MSTORE PUSH1 0x20 ADD SWAP2 POP JUMPDEST POP SWAP3 POP POP POP PUSH1 0x40 MLOAD DUP1 SWAP2 SUB SWAP1 RETURN JUMPDEST CALLVALUE DUP1 ISZERO PUSH2 0x455 JUMPI PUSH1 0x0 DUP1 REVERT JUMPDEST POP PUSH2 0x3D4 PUSH1 0x4 DUP1 CALLDATASIZE SUB PUSH1 0x20 DUP2 LT ISZERO PUSH2 0x46C JUMPI PUSH1 0x0 DUP1 REVERT JUMPDEST DUP2 ADD SWAP1 PUSH1 0x20 DUP2 ADD DUP2 CALLDATALOAD PUSH1 0x1 PUSH1 0x20 SHL DUP2 GT ISZERO PUSH2 0x486 JUMPI PUSH1 0x0 DUP1 REVERT JUMPDEST DUP3 ADD DUP4 PUSH1 0x20 DUP3 ADD GT ISZERO PUSH2 0x498 JUMPI PUSH1 0x0 DUP1 REVERT JUMPDEST DUP1 CALLDATALOAD SWAP1 PUSH1 0x20 ADD SWAP2 DUP5 PUSH1 0x1 DUP4 MUL DUP5 ADD GT PUSH1 0x1 PUSH1 0x20 SHL DUP4 GT OR ISZERO PUSH2 0x4B9 JUMPI PUSH1 0x0 DUP1 REVERT JUMPDEST SWAP2 SWAP1 DUP1 DUP1 PUSH1 0x1F ADD PUSH1 0x20 DUP1 SWAP2 DIV MUL PUSH1 0x20 ADD PUSH1 0x40 MLOAD SWAP1 DUP2 ADD PUSH1 0x40 MSTORE DUP1 SWAP4 SWAP3 SWAP2 SWAP1 DUP2 DUP2 MSTORE PUSH1 0x20 ADD DUP4 DUP4 DUP1 DUP3 DUP5 CALLDATACOPY PUSH1 0x0 SWAP3 ADD SWAP2 SWAP1 SWAP2 MSTORE POP SWAP3 SWAP6 POP PUSH2 0xE42 SWAP5 POP POP POP POP POP JUMP JUMPDEST CALLVALUE DUP1 ISZERO PUSH2 0x506 JUMPI PUSH1 0x0 DUP1 REVERT JUMPDEST POP PUSH2 0x533 PUSH1 0x4 DUP1 CALLDATASIZE SUB PUSH1 0x40 DUP2 LT ISZERO PUSH2 0x51D JUMPI PUSH1 0x0 DUP1 REVERT JUMPDEST POP PUSH1 0x1 PUSH1 0x1 PUSH1 0xA0 SHL SUB DUP2 CALLDATALOAD AND SWAP1 PUSH1 0x20 ADD CALLDATALOAD PUSH2 0xE61 JUMP JUMPDEST PUSH1 0x40 DUP1 MLOAD SWAP2 ISZERO ISZERO DUP3 MSTORE MLOAD SWAP1 DUP2 SWAP1 SUB PUSH1 0x20 ADD SWAP1 RETURN JUMPDEST CALLVALUE DUP1 ISZERO PUSH2 0x553 JUMPI PUSH1 0x0 DUP1 REVERT JUMPDEST POP PUSH2 0x571 PUSH1 0x4 DUP1 CALLDATASIZE SUB PUSH1 0x20 DUP2 LT ISZERO PUSH2 0x56A JUMPI PUSH1 0x0 DUP1 REVERT JUMPDEST POP CALLDATALOAD PUSH2 0xED8 JUMP JUMPDEST PUSH1 0x40 DUP1 MLOAD SWAP2 DUP3 MSTORE MLOAD SWAP1 DUP2 SWAP1 SUB PUSH1 0x20 ADD SWAP1 RETURN JUMPDEST CALLVALUE DUP1 ISZERO PUSH2 0x58F JUMPI PUSH1 0x0 DUP1 REVERT JUMPDEST POP PUSH2 0x571 PUSH2 0xF3F JUMP JUMPDEST CALLVALUE DUP1 ISZERO PUSH2 0x5A4 JUMPI PUSH1 0x0 DUP1 REVERT JUMPDEST POP PUSH2 0x571 PUSH1 0x4 DUP1 CALLDATASIZE SUB PUSH1 0x20 DUP2 LT ISZERO PUSH2 0x5BB JUMPI PUSH1 0x0 DUP1 REVERT JUMPDEST POP CALLDATALOAD PUSH1 0x1 PUSH1 0x1 PUSH1 0xA0 SHL SUB AND PUSH2 0xF45 JUMP JUMPDEST CALLVALUE DUP1 ISZERO PUSH2 0x5D7 JUMPI PUSH1 0x0 DUP1 REVERT JUMPDEST POP PUSH2 0x571 PUSH2 0xF97 JUMP JUMPDEST CALLVALUE DUP1 ISZERO PUSH2 0x5EC JUMPI PUSH1 0x0 DUP1 REVERT JUMPDEST POP PUSH2 0x571 PUSH2 0xF9D JUMP JUMPDEST CALLVALUE DUP1 ISZERO PUSH2 0x601 JUMPI PUSH1 0x0 DUP1 REVERT JUMPDEST POP PUSH2 0x628 PUSH1 0x4 DUP1 CALLDATASIZE SUB PUSH1 0x20 DUP2 LT ISZERO PUSH2 0x618 JUMPI PUSH1 0x0 DUP1 REVERT JUMPDEST POP CALLDATALOAD PUSH1 0x1 PUSH1 0x1 PUSH1 0xA0 SHL SUB AND PUSH2 0xFF4 JUMP JUMPDEST STOP JUMPDEST CALLVALUE DUP1 ISZERO PUSH2 0x636 JUMPI PUSH1 0x0 DUP1 REVERT JUMPDEST POP PUSH2 0x533 PUSH1 0x4 DUP1 CALLDATASIZE SUB PUSH1 0x60 DUP2 LT ISZERO PUSH2 0x64D JUMPI PUSH1 0x0 DUP1 REVERT JUMPDEST POP PUSH1 0x1 PUSH1 0x1 PUSH1 0xA0 SHL SUB DUP2 CALLDATALOAD DUP2 AND SWAP2 PUSH1 0x20 DUP2 ADD CALLDATALOAD SWAP1 SWAP2 AND SWAP1 PUSH1 0x40 ADD CALLDATALOAD PUSH2 0x1043 JUMP JUMPDEST CALLVALUE DUP1 ISZERO PUSH2 0x679 JUMPI PUSH1 0x0 DUP1 REVERT JUMPDEST POP PUSH2 0x571 PUSH1 0x4 DUP1 CALLDATASIZE SUB PUSH1 0x40 DUP2 LT ISZERO PUSH2 0x690 JUMPI PUSH1 0x0 DUP1 REVERT JUMPDEST POP PUSH1 0x1 PUSH1 0x1 PUSH1 0xA0 SHL SUB DUP2 CALLDATALOAD AND SWAP1 PUSH1 0x20 ADD CALLDATALOAD PUSH2 0x10C3 JUMP JUMPDEST CALLVALUE DUP1 ISZERO PUSH2 0x6B2 JUMPI PUSH1 0x0 DUP1 REVERT JUMPDEST POP PUSH2 0x6BB PUSH2 0x1119 JUMP JUMPDEST PUSH1 0x40 DUP1 MLOAD PUSH1 0x1 PUSH1 0x1 PUSH1 0xA0 SHL SUB SWAP1 SWAP3 AND DUP3 MSTORE MLOAD SWAP1 DUP2 SWAP1 SUB PUSH1 0x20 ADD SWAP1 RETURN JUMPDEST CALLVALUE DUP1 ISZERO PUSH2 0x6E3 JUMPI PUSH1 0x0 DUP1 REVERT JUMPDEST POP PUSH2 0x6EC PUSH2 0x1128 JUMP JUMPDEST PUSH1 0x40 DUP1 MLOAD PUSH1 0xFF SWAP1 SWAP3 AND DUP3 MSTORE MLOAD SWAP1 DUP2 SWAP1 SUB PUSH1 0x20 ADD SWAP1 RETURN JUMPDEST CALLVALUE DUP1 ISZERO PUSH2 0x70E JUMPI PUSH1 0x0 DUP1 REVERT JUMPDEST POP PUSH2 0x571 PUSH1 0x4 DUP1 CALLDATASIZE SUB PUSH1 0x20 DUP2 LT ISZERO PUSH2 0x725 JUMPI PUSH1 0x0 DUP1 REVERT JUMPDEST POP CALLDATALOAD PUSH1 0x1 PUSH1 0x1 PUSH1 0xA0 SHL SUB AND PUSH2 0x1131 JUMP JUMPDEST CALLVALUE DUP1 ISZERO PUSH2 0x741 JUMPI PUSH1 0x0 DUP1 REVERT JUMPDEST POP PUSH2 0x571 PUSH2 0x1183 JUMP JUMPDEST CALLVALUE DUP1 ISZERO PUSH2 0x756 JUMPI PUSH1 0x0 DUP1 REVERT JUMPDEST POP PUSH2 0x571 PUSH1 0x4 DUP1 CALLDATASIZE SUB PUSH1 0x20 DUP2 LT ISZERO PUSH2 0x76D JUMPI PUSH1 0x0 DUP1 REVERT JUMPDEST POP CALLDATALOAD PUSH2 0x11BB JUMP JUMPDEST CALLVALUE DUP1 ISZERO PUSH2 0x780 JUMPI PUSH1 0x0 DUP1 REVERT JUMPDEST POP PUSH2 0x3D4 PUSH1 0x4 DUP1 CALLDATASIZE SUB PUSH1 0x20 DUP2 LT ISZERO PUSH2 0x797 JUMPI PUSH1 0x0 DUP1 REVERT JUMPDEST DUP2 ADD SWAP1 PUSH1 0x20 DUP2 ADD DUP2 CALLDATALOAD PUSH1 0x1 PUSH1 0x20 SHL DUP2 GT ISZERO PUSH2 0x7B1 JUMPI PUSH1 0x0 DUP1 REVERT JUMPDEST DUP3 ADD DUP4 PUSH1 0x20 DUP3 ADD GT ISZERO PUSH2 0x7C3 JUMPI PUSH1 0x0 DUP1 REVERT JUMPDEST DUP1 CALLDATALOAD SWAP1 PUSH1 0x20 ADD SWAP2 DUP5 PUSH1 0x1 DUP4 MUL DUP5 ADD GT PUSH1 0x1 PUSH1 0x20 SHL DUP4 GT OR ISZERO PUSH2 0x7E4 JUMPI PUSH1 0x0 DUP1 REVERT JUMPDEST SWAP2 SWAP1 DUP1 DUP1 PUSH1 0x1F ADD PUSH1 0x20 DUP1 SWAP2 DIV MUL PUSH1 0x20 ADD PUSH1 0x40 MLOAD SWAP1 DUP2 ADD PUSH1 0x40 MSTORE DUP1 SWAP4 SWAP3 SWAP2 SWAP1 DUP2 DUP2 MSTORE PUSH1 0x20 ADD DUP4 DUP4 DUP1 DUP3 DUP5 CALLDATACOPY PUSH1 0x0 SWAP3 ADD SWAP2 SWAP1 SWAP2 MSTORE POP SWAP3 SWAP6 POP PUSH2 0x1202 SWAP5 POP POP POP POP POP JUMP JUMPDEST CALLVALUE DUP1 ISZERO PUSH2 0x831 JUMPI PUSH1 0x0 DUP1 REVERT JUMPDEST POP PUSH2 0x571 PUSH2 0x1421 JUMP JUMPDEST CALLVALUE DUP1 ISZERO PUSH2 0x846 JUMPI PUSH1 0x0 DUP1 REVERT JUMPDEST POP PUSH2 0x628 PUSH1 0x4 DUP1 CALLDATASIZE SUB PUSH1 0x60 DUP2 LT ISZERO PUSH2 0x85D JUMPI PUSH1 0x0 DUP1 REVERT JUMPDEST PUSH1 0x1 PUSH1 0x1 PUSH1 0xA0 SHL SUB DUP3 CALLDATALOAD AND SWAP2 PUSH1 0x20 DUP2 ADD CALLDATALOAD ISZERO ISZERO SWAP2 DUP2 ADD SWAP1 PUSH1 0x60 DUP2 ADD PUSH1 0x40 DUP3 ADD CALLDATALOAD PUSH1 0x1 PUSH1 0x20 SHL DUP2 GT ISZERO PUSH2 0x88E JUMPI PUSH1 0x0 DUP1 REVERT JUMPDEST DUP3 ADD DUP4 PUSH1 0x20 DUP3 ADD GT ISZERO PUSH2 0x8A0 JUMPI PUSH1 0x0 DUP1 REVERT JUMPDEST DUP1 CALLDATALOAD SWAP1 PUSH1 0x20 ADD SWAP2 DUP5 PUSH1 0x1 DUP4 MUL DUP5 ADD GT PUSH1 0x1 PUSH1 0x20 SHL DUP4 GT OR ISZERO PUSH2 0x8C1 JUMPI PUSH1 0x0 DUP1 REVERT JUMPDEST SWAP2 SWAP1 DUP1 DUP1 PUSH1 0x1F ADD PUSH1 0x20 DUP1 SWAP2 DIV MUL PUSH1 0x20 ADD PUSH1 0x40 MLOAD SWAP1 DUP2 ADD PUSH1 0x40 MSTORE DUP1 SWAP4 SWAP3 SWAP2 SWAP1 DUP2 DUP2 MSTORE PUSH1 0x20 ADD DUP4 DUP4 DUP1 DUP3 DUP5 CALLDATACOPY PUSH1 0x0 SWAP3 ADD SWAP2 SWAP1 SWAP2 MSTORE POP SWAP3 SWAP6 POP PUSH2 0x1427 SWAP5 POP POP POP POP POP JUMP JUMPDEST CALLVALUE DUP1 ISZERO PUSH2 0x90E JUMPI PUSH1 0x0 DUP1 REVERT JUMPDEST POP PUSH2 0x6BB PUSH2 0x15CA JUMP JUMPDEST CALLVALUE DUP1 ISZERO PUSH2 0x923 JUMPI PUSH1 0x0 DUP1 REVERT JUMPDEST POP PUSH2 0x571 PUSH1 0x4 DUP1 CALLDATASIZE SUB PUSH1 0x20 DUP2 LT ISZERO PUSH2 0x93A JUMPI PUSH1 0x0 DUP1 REVERT JUMPDEST POP CALLDATALOAD PUSH2 0x15D9 JUMP JUMPDEST CALLVALUE DUP1 ISZERO PUSH2 0x94D JUMPI PUSH1 0x0 DUP1 REVERT JUMPDEST POP PUSH2 0x571 PUSH2 0x1620 JUMP JUMPDEST CALLVALUE DUP1 ISZERO PUSH2 0x962 JUMPI PUSH1 0x0 DUP1 REVERT JUMPDEST POP PUSH2 0x571 PUSH2 0x162B JUMP JUMPDEST CALLVALUE DUP1 ISZERO PUSH2 0x977 JUMPI PUSH1 0x0 DUP1 REVERT JUMPDEST POP PUSH2 0x6BB PUSH2 0x1631 JUMP JUMPDEST CALLVALUE DUP1 ISZERO PUSH2 0x98C JUMPI PUSH1 0x0 DUP1 REVERT JUMPDEST POP PUSH2 0x571 PUSH1 0x4 DUP1 CALLDATASIZE SUB PUSH1 0x20 DUP2 LT ISZERO PUSH2 0x9A3 JUMPI PUSH1 0x0 DUP1 REVERT JUMPDEST POP CALLDATALOAD PUSH1 0x1 PUSH1 0x1 PUSH1 0xA0 SHL SUB AND PUSH2 0x1640 JUMP JUMPDEST CALLVALUE DUP1 ISZERO PUSH2 0x9BF JUMPI PUSH1 0x0 DUP1 REVERT JUMPDEST POP PUSH2 0x571 PUSH2 0x1692 JUMP JUMPDEST CALLVALUE DUP1 ISZERO PUSH2 0x9D4 JUMPI PUSH1 0x0 DUP1 REVERT JUMPDEST POP PUSH2 0x571 PUSH1 0x4 DUP1 CALLDATASIZE SUB PUSH1 0x20 DUP2 LT ISZERO PUSH2 0x9EB JUMPI PUSH1 0x0 DUP1 REVERT JUMPDEST POP CALLDATALOAD PUSH2 0x16CA JUMP JUMPDEST CALLVALUE DUP1 ISZERO PUSH2 0x9FE JUMPI PUSH1 0x0 DUP1 REVERT JUMPDEST POP PUSH2 0x571 PUSH2 0x1711 JUMP JUMPDEST CALLVALUE DUP1 ISZERO PUSH2 0xA13 JUMPI PUSH1 0x0 DUP1 REVERT JUMPDEST POP PUSH2 0x3D4 PUSH2 0x1717 JUMP JUMPDEST CALLVALUE DUP1 ISZERO PUSH2 0xA28 JUMPI PUSH1 0x0 DUP1 REVERT JUMPDEST POP PUSH2 0x571 PUSH1 0x4 DUP1 CALLDATASIZE SUB PUSH1 0x20 DUP2 LT ISZERO PUSH2 0xA3F JUMPI PUSH1 0x0 DUP1 REVERT JUMPDEST POP CALLDATALOAD PUSH1 0x1 PUSH1 0x1 PUSH1 0xA0 SHL SUB AND PUSH2 0x176F JUMP JUMPDEST CALLVALUE DUP1 ISZERO PUSH2 0xA5B JUMPI PUSH1 0x0 DUP1 REVERT JUMPDEST POP PUSH2 0x533 PUSH2 0x17C1 JUMP JUMPDEST CALLVALUE DUP1 ISZERO PUSH2 0xA70 JUMPI PUSH1 0x0 DUP1 REVERT JUMPDEST POP PUSH2 0x571 PUSH1 0x4 DUP1 CALLDATASIZE SUB PUSH1 0x20 DUP2 LT ISZERO PUSH2 0xA87 JUMPI PUSH1 0x0 DUP1 REVERT JUMPDEST POP CALLDATALOAD PUSH2 0x17C6 JUMP JUMPDEST CALLVALUE DUP1 ISZERO PUSH2 0xA9A JUMPI PUSH1 0x0 DUP1 REVERT JUMPDEST POP PUSH2 0x571 PUSH2 0x180D JUMP JUMPDEST CALLVALUE DUP1 ISZERO PUSH2 0xAAF JUMPI PUSH1 0x0 DUP1 REVERT JUMPDEST POP PUSH2 0x533 PUSH1 0x4 DUP1 CALLDATASIZE SUB PUSH1 0x40 DUP2 LT ISZERO PUSH2 0xAC6 JUMPI PUSH1 0x0 DUP1 REVERT JUMPDEST POP PUSH1 0x1 PUSH1 0x1 PUSH1 0xA0 SHL SUB DUP2 CALLDATALOAD AND SWAP1 PUSH1 0x20 ADD CALLDATALOAD PUSH2 0x1845 JUMP JUMPDEST CALLVALUE DUP1 ISZERO PUSH2 0xAE8 JUMPI PUSH1 0x0 DUP1 REVERT JUMPDEST POP PUSH2 0x571 PUSH2 0x189B JUMP JUMPDEST CALLVALUE DUP1 ISZERO PUSH2 0xAFD JUMPI PUSH1 0x0 DUP1 REVERT JUMPDEST POP PUSH2 0x571 PUSH2 0x18A1 JUMP JUMPDEST CALLVALUE DUP1 ISZERO PUSH2 0xB12 JUMPI PUSH1 0x0 DUP1 REVERT JUMPDEST POP PUSH2 0x571 PUSH1 0x4 DUP1 CALLDATASIZE SUB PUSH1 0x60 DUP2 LT ISZERO PUSH2 0xB29 JUMPI PUSH1 0x0 DUP1 REVERT JUMPDEST POP PUSH1 0x1 PUSH1 0x1 PUSH1 0xA0 SHL SUB DUP2 CALLDATALOAD DUP2 AND SWAP2 PUSH1 0x20 DUP2 ADD CALLDATALOAD SWAP1 SWAP2 AND SWAP1 PUSH1 0x40 ADD CALLDATALOAD PUSH2 0x18D9 JUMP JUMPDEST CALLVALUE DUP1 ISZERO PUSH2 0xB55 JUMPI PUSH1 0x0 DUP1 REVERT JUMPDEST POP PUSH2 0x571 PUSH1 0x4 DUP1 CALLDATASIZE SUB PUSH1 0x20 DUP2 LT ISZERO PUSH2 0xB6C JUMPI PUSH1 0x0 DUP1 REVERT JUMPDEST POP CALLDATALOAD PUSH1 0x1 PUSH1 0x1 PUSH1 0xA0 SHL SUB AND PUSH2 0x1937 JUMP JUMPDEST CALLVALUE DUP1 ISZERO PUSH2 0xB88 JUMPI PUSH1 0x0 DUP1 REVERT JUMPDEST POP PUSH2 0x571 PUSH1 0x4 DUP1 CALLDATASIZE SUB PUSH1 0x20 DUP2 LT ISZERO PUSH2 0xB9F JUMPI PUSH1 0x0 DUP1 REVERT JUMPDEST POP CALLDATALOAD PUSH1 0x1 PUSH1 0x1 PUSH1 0xA0 SHL SUB AND PUSH2 0x1989 JUMP JUMPDEST CALLVALUE DUP1 ISZERO PUSH2 0xBBB JUMPI PUSH1 0x0 DUP1 REVERT JUMPDEST POP PUSH2 0x571 PUSH2 0x19DB JUMP JUMPDEST CALLVALUE DUP1 ISZERO PUSH2 0xBD0 JUMPI PUSH1 0x0 DUP1 REVERT JUMPDEST POP PUSH2 0x6BB PUSH2 0x1A13 JUMP JUMPDEST CALLVALUE DUP1 ISZERO PUSH2 0xBE5 JUMPI PUSH1 0x0 DUP1 REVERT JUMPDEST POP PUSH2 0xC0C PUSH1 0x4 DUP1 CALLDATASIZE SUB PUSH1 0x20 DUP2 LT ISZERO PUSH2 0xBFC JUMPI PUSH1 0x0 DUP1 REVERT JUMPDEST POP CALLDATALOAD PUSH1 0x1 PUSH1 0x1 PUSH1 0xA0 SHL SUB AND PUSH2 0x1A22 JUMP JUMPDEST PUSH1 0x40 DUP1 MLOAD SWAP5 DUP6 MSTORE PUSH1 0x20 DUP6 ADD SWAP4 SWAP1 SWAP4 MSTORE DUP4 DUP4 ADD SWAP2 SWAP1 SWAP2 MSTORE PUSH1 0x60 DUP4 ADD MSTORE MLOAD SWAP1 DUP2 SWAP1 SUB PUSH1 0x80 ADD SWAP1 RETURN JUMPDEST CALLVALUE DUP1 ISZERO PUSH2 0xC3E JUMPI PUSH1 0x0 DUP1 REVERT JUMPDEST POP PUSH2 0x571 PUSH1 0x4 DUP1 CALLDATASIZE SUB PUSH1 0x20 DUP2 LT ISZERO PUSH2 0xC55 JUMPI PUSH1 0x0 DUP1 REVERT JUMPDEST POP CALLDATALOAD PUSH2 0x1AB4 JUMP JUMPDEST CALLVALUE DUP1 ISZERO PUSH2 0xC68 JUMPI PUSH1 0x0 DUP1 REVERT JUMPDEST POP PUSH2 0x571 PUSH1 0x4 DUP1 CALLDATASIZE SUB PUSH1 0x20 DUP2 LT ISZERO PUSH2 0xC7F JUMPI PUSH1 0x0 DUP1 REVERT JUMPDEST POP CALLDATALOAD PUSH2 0x1AFB JUMP JUMPDEST CALLVALUE DUP1 ISZERO PUSH2 0xC92 JUMPI PUSH1 0x0 DUP1 REVERT JUMPDEST POP PUSH2 0x571 PUSH1 0x4 DUP1 CALLDATASIZE SUB PUSH1 0x40 DUP2 LT ISZERO PUSH2 0xCA9 JUMPI PUSH1 0x0 DUP1 REVERT JUMPDEST POP PUSH1 0x1 PUSH1 0x1 PUSH1 0xA0 SHL SUB DUP2 CALLDATALOAD DUP2 AND SWAP2 PUSH1 0x20 ADD CALLDATALOAD AND PUSH2 0x1B42 JUMP JUMPDEST CALLVALUE DUP1 ISZERO PUSH2 0xCCD JUMPI PUSH1 0x0 DUP1 REVERT JUMPDEST POP PUSH2 0x571 PUSH2 0x1B9C JUMP JUMPDEST CALLVALUE DUP1 ISZERO PUSH2 0xCE2 JUMPI PUSH1 0x0 DUP1 REVERT JUMPDEST POP PUSH2 0x571 PUSH1 0x4 DUP1 CALLDATASIZE SUB PUSH1 0x20 DUP2 LT ISZERO PUSH2 0xCF9 JUMPI PUSH1 0x0 DUP1 REVERT JUMPDEST POP CALLDATALOAD PUSH1 0x1 PUSH1 0x1 PUSH1 0xA0 SHL SUB AND PUSH2 0x1BD4 JUMP JUMPDEST CALLVALUE DUP1 ISZERO PUSH2 0xD15 JUMPI PUSH1 0x0 DUP1 REVERT JUMPDEST POP PUSH2 0x6BB PUSH2 0x1C26 JUMP JUMPDEST CALLVALUE DUP1 ISZERO PUSH2 0xD2A JUMPI PUSH1 0x0 DUP1 REVERT JUMPDEST POP PUSH2 0x571 PUSH1 0x4 DUP1 CALLDATASIZE SUB PUSH1 0x60 DUP2 LT ISZERO PUSH2 0xD41 JUMPI PUSH1 0x0 DUP1 REVERT JUMPDEST POP PUSH1 0x1 PUSH1 0x1 PUSH1 0xA0 SHL SUB DUP2 CALLDATALOAD DUP2 AND SWAP2 PUSH1 0x20 DUP2 ADD CALLDATALOAD SWAP2 PUSH1 0x40 SWAP1 SWAP2 ADD CALLDATALOAD AND PUSH2 0x1C35 JUMP JUMPDEST CALLVALUE DUP1 ISZERO PUSH2 0xD6D JUMPI PUSH1 0x0 DUP1 REVERT JUMPDEST POP PUSH2 0x6BB PUSH2 0x1C96 JUMP JUMPDEST CALLVALUE DUP1 ISZERO PUSH2 0xD82 JUMPI PUSH1 0x0 DUP1 REVERT JUMPDEST POP PUSH2 0x571 PUSH2 0x1CAA JUMP JUMPDEST CALLVALUE DUP1 ISZERO PUSH2 0xD97 JUMPI PUSH1 0x0 DUP1 REVERT JUMPDEST POP PUSH2 0x571 PUSH1 0x4 DUP1 CALLDATASIZE SUB PUSH1 0x20 DUP2 LT ISZERO PUSH2 0xDAE JUMPI PUSH1 0x0 DUP1 REVERT JUMPDEST POP CALLDATALOAD PUSH2 0x1CE2 JUMP JUMPDEST PUSH1 0x1 DUP1 SLOAD PUSH1 0x40 DUP1 MLOAD PUSH1 0x20 PUSH1 0x2 DUP5 DUP7 AND ISZERO PUSH2 0x100 MUL PUSH1 0x0 NOT ADD SWAP1 SWAP5 AND SWAP4 SWAP1 SWAP4 DIV PUSH1 0x1F DUP2 ADD DUP5 SWAP1 DIV DUP5 MUL DUP3 ADD DUP5 ADD SWAP1 SWAP3 MSTORE DUP2 DUP2 MSTORE SWAP3 SWAP2 DUP4 ADD DUP3 DUP3 DUP1 ISZERO PUSH2 0xE3A JUMPI DUP1 PUSH1 0x1F LT PUSH2 0xE0F JUMPI PUSH2 0x100 DUP1 DUP4 SLOAD DIV MUL DUP4 MSTORE SWAP2 PUSH1 0x20 ADD SWAP2 PUSH2 0xE3A JUMP JUMPDEST DUP3 ADD SWAP2 SWAP1 PUSH1 0x0 MSTORE PUSH1 0x20 PUSH1 0x0 KECCAK256 SWAP1 JUMPDEST DUP2 SLOAD DUP2 MSTORE SWAP1 PUSH1 0x1 ADD SWAP1 PUSH1 0x20 ADD DUP1 DUP4 GT PUSH2 0xE1D JUMPI DUP3 SWAP1 SUB PUSH1 0x1F AND DUP3 ADD SWAP2 JUMPDEST POP POP POP POP POP DUP2 JUMP JUMPDEST PUSH1 0x12 SLOAD PUSH1 0x60 SWAP1 PUSH2 0xE5B SWAP1 PUSH1 0x1 PUSH1 0x1 PUSH1 0xA0 SHL SUB AND DUP4 PUSH2 0x1D29 JUMP JUMPDEST SWAP3 SWAP2 POP POP JUMP JUMPDEST PUSH1 0x40 DUP1 MLOAD PUSH1 0x1 PUSH1 0x1 PUSH1 0xA0 SHL SUB DUP5 AND PUSH1 0x24 DUP3 ADD MSTORE PUSH1 0x44 DUP1 DUP3 ADD DUP5 SWAP1 MSTORE DUP3 MLOAD DUP1 DUP4 SUB SWAP1 SWAP2 ADD DUP2 MSTORE PUSH1 0x64 SWAP1 SWAP2 ADD SWAP1 SWAP2 MSTORE PUSH1 0x20 DUP2 ADD DUP1 MLOAD PUSH1 0x1 PUSH1 0x1 PUSH1 0xE0 SHL SUB AND PUSH4 0x95EA7B3 PUSH1 0xE0 SHL OR SWAP1 MSTORE PUSH1 0x0 SWAP1 PUSH1 0x60 SWAP1 PUSH2 0xEB7 SWAP1 PUSH2 0xE42 JUMP JUMPDEST SWAP1 POP DUP1 DUP1 PUSH1 0x20 ADD SWAP1 MLOAD PUSH1 0x20 DUP2 LT ISZERO PUSH2 0xECE JUMPI PUSH1 0x0 DUP1 REVERT JUMPDEST POP MLOAD SWAP5 SWAP4 POP POP POP POP JUMP JUMPDEST PUSH1 0x40 DUP1 MLOAD PUSH1 0x24 DUP1 DUP3 ADD DUP5 SWAP1 MSTORE DUP3 MLOAD DUP1 DUP4 SUB SWAP1 SWAP2 ADD DUP2 MSTORE PUSH1 0x44 SWAP1 SWAP2 ADD SWAP1 SWAP2 MSTORE PUSH1 0x20 DUP2 ADD DUP1 MLOAD PUSH1 0x1 PUSH1 0x1 PUSH1 0xE0 SHL SUB AND PUSH4 0x73A9381 PUSH1 0xE1 SHL OR SWAP1 MSTORE PUSH1 0x0 SWAP1 PUSH1 0x60 SWAP1 PUSH2 0xF1F SWAP1 PUSH2 0xE42 JUMP JUMPDEST SWAP1 POP DUP1 DUP1 PUSH1 0x20 ADD SWAP1 MLOAD PUSH1 0x20 DUP2 LT ISZERO PUSH2 0xF36 JUMPI PUSH1 0x0 DUP1 REVERT JUMPDEST POP MLOAD SWAP4 SWAP3 POP POP POP JUMP JUMPDEST PUSH1 0x8 SLOAD DUP2 JUMP JUMPDEST PUSH1 0x40 DUP1 MLOAD PUSH1 0x1 PUSH1 0x1 PUSH1 0xA0 SHL SUB DUP4 AND PUSH1 0x24 DUP1 DUP4 ADD SWAP2 SWAP1 SWAP2 MSTORE DUP3 MLOAD DUP1 DUP4 SUB SWAP1 SWAP2 ADD DUP2 MSTORE PUSH1 0x44 SWAP1 SWAP2 ADD SWAP1 SWAP2 MSTORE PUSH1 0x20 DUP2 ADD DUP1 MLOAD PUSH1 0x1 PUSH1 0x1 PUSH1 0xE0 SHL SUB AND PUSH4 0x5EFF7EF PUSH1 0xE2 SHL OR SWAP1 MSTORE PUSH1 0x0 SWAP1 PUSH1 0x60 SWAP1 PUSH2 0xF1F SWAP1 PUSH2 0xE42 JUMP JUMPDEST PUSH1 0xD SLOAD DUP2 JUMP JUMPDEST PUSH1 0x40 DUP1 MLOAD PUSH1 0x4 DUP2 MSTORE PUSH1 0x24 DUP2 ADD SWAP1 SWAP2 MSTORE PUSH1 0x20 DUP2 ADD DUP1 MLOAD PUSH1 0x1 PUSH1 0x1 PUSH1 0xE0 SHL SUB AND PUSH4 0x182DF0F5 PUSH1 0xE0 SHL OR SWAP1 MSTORE PUSH1 0x0 SWAP1 PUSH1 0x60 SWAP1 PUSH2 0xFD5 SWAP1 PUSH2 0x1202 JUMP JUMPDEST SWAP1 POP DUP1 DUP1 PUSH1 0x20 ADD SWAP1 MLOAD PUSH1 0x20 DUP2 LT ISZERO PUSH2 0xFEC JUMPI PUSH1 0x0 DUP1 REVERT JUMPDEST POP MLOAD SWAP2 POP POP SWAP1 JUMP JUMPDEST PUSH1 0x40 DUP1 MLOAD PUSH1 0x1 PUSH1 0x1 PUSH1 0xA0 SHL SUB DUP4 AND PUSH1 0x24 DUP1 DUP4 ADD SWAP2 SWAP1 SWAP2 MSTORE DUP3 MLOAD DUP1 DUP4 SUB SWAP1 SWAP2 ADD DUP2 MSTORE PUSH1 0x44 SWAP1 SWAP2 ADD SWAP1 SWAP2 MSTORE PUSH1 0x20 DUP2 ADD DUP1 MLOAD PUSH1 0x1 PUSH1 0x1 PUSH1 0xE0 SHL SUB AND PUSH3 0xDF0CAB PUSH1 0xE5 SHL OR SWAP1 MSTORE PUSH2 0x103F SWAP1 PUSH2 0xE42 JUMP JUMPDEST POP POP JUMP JUMPDEST PUSH1 0x40 DUP1 MLOAD PUSH1 0x1 PUSH1 0x1 PUSH1 0xA0 SHL SUB DUP1 DUP7 AND PUSH1 0x24 DUP4 ADD MSTORE DUP5 AND PUSH1 0x44 DUP3 ADD MSTORE PUSH1 0x64 DUP1 DUP3 ADD DUP5 SWAP1 MSTORE DUP3 MLOAD DUP1 DUP4 SUB SWAP1 SWAP2 ADD DUP2 MSTORE PUSH1 0x84 SWAP1 SWAP2 ADD SWAP1 SWAP2 MSTORE PUSH1 0x20 DUP2 ADD DUP1 MLOAD PUSH1 0x1 PUSH1 0x1 PUSH1 0xE0 SHL SUB AND PUSH4 0x23B872DD PUSH1 0xE0 SHL OR SWAP1 MSTORE PUSH1 0x0 SWAP1 PUSH1 0x60 SWAP1 PUSH2 0x10A1 SWAP1 PUSH2 0xE42 JUMP JUMPDEST SWAP1 POP DUP1 DUP1 PUSH1 0x20 ADD SWAP1 MLOAD PUSH1 0x20 DUP2 LT ISZERO PUSH2 0x10B8 JUMPI PUSH1 0x0 DUP1 REVERT JUMPDEST POP MLOAD SWAP6 SWAP5 POP POP POP POP POP JUMP JUMPDEST PUSH1 0x40 DUP1 MLOAD PUSH1 0x1 PUSH1 0x1 PUSH1 0xA0 SHL SUB DUP5 AND PUSH1 0x24 DUP3 ADD MSTORE PUSH1 0x44 DUP1 DUP3 ADD DUP5 SWAP1 MSTORE DUP3 MLOAD DUP1 DUP4 SUB SWAP1 SWAP2 ADD DUP2 MSTORE PUSH1 0x64 SWAP1 SWAP2 ADD SWAP1 SWAP2 MSTORE PUSH1 0x20 DUP2 ADD DUP1 MLOAD PUSH1 0x1 PUSH1 0x1 PUSH1 0xE0 SHL SUB AND PUSH4 0x4C11F03 PUSH1 0xE3 SHL OR SWAP1 MSTORE PUSH1 0x0 SWAP1 PUSH1 0x60 SWAP1 PUSH2 0xEB7 SWAP1 PUSH2 0xE42 JUMP JUMPDEST PUSH1 0x4 SLOAD PUSH1 0x1 PUSH1 0x1 PUSH1 0xA0 SHL SUB AND DUP2 JUMP JUMPDEST PUSH1 0x3 SLOAD PUSH1 0xFF AND DUP2 JUMP JUMPDEST PUSH1 0x40 DUP1 MLOAD PUSH1 0x1 PUSH1 0x1 PUSH1 0xA0 SHL SUB DUP4 AND PUSH1 0x24 DUP1 DUP4 ADD SWAP2 SWAP1 SWAP2 MSTORE DUP3 MLOAD DUP1 DUP4 SUB SWAP1 SWAP2 ADD DUP2 MSTORE PUSH1 0x44 SWAP1 SWAP2 ADD SWAP1 SWAP2 MSTORE PUSH1 0x20 DUP2 ADD DUP1 MLOAD PUSH1 0x1 PUSH1 0x1 PUSH1 0xE0 SHL SUB AND PUSH4 0x3AF9E669 PUSH1 0xE0 SHL OR SWAP1 MSTORE PUSH1 0x0 SWAP1 PUSH1 0x60 SWAP1 PUSH2 0xF1F SWAP1 PUSH2 0xE42 JUMP JUMPDEST PUSH1 0x40 DUP1 MLOAD PUSH1 0x4 DUP2 MSTORE PUSH1 0x24 DUP2 ADD SWAP1 SWAP2 MSTORE PUSH1 0x20 DUP2 ADD DUP1 MLOAD PUSH1 0x1 PUSH1 0x1 PUSH1 0xE0 SHL SUB AND PUSH4 0x1D8E90D1 PUSH1 0xE1 SHL OR SWAP1 MSTORE PUSH1 0x0 SWAP1 PUSH1 0x60 SWAP1 PUSH2 0xFD5 SWAP1 PUSH2 0x1202 JUMP JUMPDEST PUSH1 0x40 DUP1 MLOAD PUSH1 0x24 DUP1 DUP3 ADD DUP5 SWAP1 MSTORE DUP3 MLOAD DUP1 DUP4 SUB SWAP1 SWAP2 ADD DUP2 MSTORE PUSH1 0x44 SWAP1 SWAP2 ADD SWAP1 SWAP2 MSTORE PUSH1 0x20 DUP2 ADD DUP1 MLOAD PUSH1 0x1 PUSH1 0x1 PUSH1 0xE0 SHL SUB AND PUSH4 0x3E94101 PUSH1 0xE4 SHL OR SWAP1 MSTORE PUSH1 0x0 SWAP1 PUSH1 0x60 SWAP1 PUSH2 0xF1F SWAP1 PUSH2 0xE42 JUMP JUMPDEST PUSH1 0x60 PUSH1 0x0 PUSH1 0x60 ADDRESS PUSH1 0x1 PUSH1 0x1 PUSH1 0xA0 SHL SUB AND DUP5 PUSH1 0x40 MLOAD PUSH1 0x24 ADD DUP1 DUP1 PUSH1 0x20 ADD DUP3 DUP2 SUB DUP3 MSTORE DUP4 DUP2 DUP2 MLOAD DUP2 MSTORE PUSH1 0x20 ADD SWAP2 POP DUP1 MLOAD SWAP1 PUSH1 0x20 ADD SWAP1 DUP1 DUP4 DUP4 PUSH1 0x0 JUMPDEST DUP4 DUP2 LT ISZERO PUSH2 0x1253 JUMPI DUP2 DUP2 ADD MLOAD DUP4 DUP3 ADD MSTORE PUSH1 0x20 ADD PUSH2 0x123B JUMP JUMPDEST POP POP POP POP SWAP1 POP SWAP1 DUP2 ADD SWAP1 PUSH1 0x1F AND DUP1 ISZERO PUSH2 0x1280 JUMPI DUP1 DUP3 SUB DUP1 MLOAD PUSH1 0x1 DUP4 PUSH1 0x20 SUB PUSH2 0x100 EXP SUB NOT AND DUP2 MSTORE PUSH1 0x20 ADD SWAP2 POP JUMPDEST POP PUSH1 0x40 DUP1 MLOAD PUSH1 0x1F NOT DUP2 DUP5 SUB ADD DUP2 MSTORE SWAP2 DUP2 MSTORE PUSH1 0x20 DUP3 ADD DUP1 MLOAD PUSH1 0x1 PUSH1 0x1 PUSH1 0xE0 SHL SUB AND PUSH4 0x933C1ED PUSH1 0xE0 SHL OR DUP2 MSTORE SWAP1 MLOAD DUP3 MLOAD SWAP3 SWAP6 POP SWAP4 POP DUP4 SWAP3 POP SWAP1 DUP1 DUP4 DUP4 JUMPDEST PUSH1 0x20 DUP4 LT PUSH2 0x12DB JUMPI DUP1 MLOAD DUP3 MSTORE PUSH1 0x1F NOT SWAP1 SWAP3 ADD SWAP2 PUSH1 0x20 SWAP2 DUP3 ADD SWAP2 ADD PUSH2 0x12BC JUMP JUMPDEST PUSH1 0x1 DUP4 PUSH1 0x20 SUB PUSH2 0x100 EXP SUB DUP1 NOT DUP3 MLOAD AND DUP2 DUP5 MLOAD AND DUP1 DUP3 OR DUP6 MSTORE POP POP POP POP POP POP SWAP1 POP ADD SWAP2 POP POP PUSH1 0x0 PUSH1 0x40 MLOAD DUP1 DUP4 SUB DUP2 DUP6 GAS STATICCALL SWAP2 POP POP RETURNDATASIZE DUP1 PUSH1 0x0 DUP2 EQ PUSH2 0x133B JUMPI PUSH1 0x40 MLOAD SWAP2 POP PUSH1 0x1F NOT PUSH1 0x3F RETURNDATASIZE ADD AND DUP3 ADD PUSH1 0x40 MSTORE RETURNDATASIZE DUP3 MSTORE RETURNDATASIZE PUSH1 0x0 PUSH1 0x20 DUP5 ADD RETURNDATACOPY PUSH2 0x1340 JUMP JUMPDEST PUSH1 0x60 SWAP2 POP JUMPDEST POP SWAP2 POP SWAP2 POP PUSH1 0x0 DUP3 EQ ISZERO PUSH2 0x1355 JUMPI RETURNDATASIZE PUSH1 0x20 DUP3 ADD REVERT JUMPDEST DUP1 DUP1 PUSH1 0x20 ADD SWAP1 MLOAD PUSH1 0x20 DUP2 LT ISZERO PUSH2 0x136A JUMPI PUSH1 0x0 DUP1 REVERT JUMPDEST DUP2 ADD SWAP1 DUP1 DUP1 MLOAD PUSH1 0x40 MLOAD SWAP4 SWAP3 SWAP2 SWAP1 DUP5 PUSH1 0x1 PUSH1 0x20 SHL DUP3 GT ISZERO PUSH2 0x1389 JUMPI PUSH1 0x0 DUP1 REVERT JUMPDEST SWAP1 DUP4 ADD SWAP1 PUSH1 0x20 DUP3 ADD DUP6 DUP2 GT ISZERO PUSH2 0x139E JUMPI PUSH1 0x0 DUP1 REVERT JUMPDEST DUP3 MLOAD PUSH1 0x1 PUSH1 0x20 SHL DUP2 GT DUP3 DUP3 ADD DUP9 LT OR ISZERO PUSH2 0x13B7 JUMPI PUSH1 0x0 DUP1 REVERT JUMPDEST DUP3 MSTORE POP DUP2 MLOAD PUSH1 0x20 SWAP2 DUP3 ADD SWAP3 SWAP1 SWAP2 ADD SWAP1 DUP1 DUP4 DUP4 PUSH1 0x0 JUMPDEST DUP4 DUP2 LT ISZERO PUSH2 0x13E4 JUMPI DUP2 DUP2 ADD MLOAD DUP4 DUP3 ADD MSTORE PUSH1 0x20 ADD PUSH2 0x13CC JUMP JUMPDEST POP POP POP POP SWAP1 POP SWAP1 DUP2 ADD SWAP1 PUSH1 0x1F AND DUP1 ISZERO PUSH2 0x1411 JUMPI DUP1 DUP3 SUB DUP1 MLOAD PUSH1 0x1 DUP4 PUSH1 0x20 SUB PUSH2 0x100 EXP SUB NOT AND DUP2 MSTORE PUSH1 0x20 ADD SWAP2 POP JUMPDEST POP PUSH1 0x40 MSTORE POP POP POP SWAP3 POP POP POP SWAP2 SWAP1 POP JUMP JUMPDEST PUSH1 0xB SLOAD DUP2 JUMP JUMPDEST PUSH1 0x3 SLOAD PUSH2 0x100 SWAP1 DIV PUSH1 0x1 PUSH1 0x1 PUSH1 0xA0 SHL SUB AND CALLER EQ PUSH2 0x1475 JUMPI PUSH1 0x40 MLOAD PUSH3 0x461BCD PUSH1 0xE5 SHL DUP2 MSTORE PUSH1 0x4 ADD DUP1 DUP1 PUSH1 0x20 ADD DUP3 DUP2 SUB DUP3 MSTORE PUSH1 0x39 DUP2 MSTORE PUSH1 0x20 ADD DUP1 PUSH2 0x1E23 PUSH1 0x39 SWAP2 CODECOPY PUSH1 0x40 ADD SWAP2 POP POP PUSH1 0x40 MLOAD DUP1 SWAP2 SUB SWAP1 REVERT JUMPDEST DUP2 ISZERO PUSH2 0x14AF JUMPI PUSH1 0x40 DUP1 MLOAD PUSH1 0x4 DUP2 MSTORE PUSH1 0x24 DUP2 ADD SWAP1 SWAP2 MSTORE PUSH1 0x20 DUP2 ADD DUP1 MLOAD PUSH1 0x1 PUSH1 0x1 PUSH1 0xE0 SHL SUB AND PUSH4 0x153AB505 PUSH1 0xE0 SHL OR SWAP1 MSTORE PUSH2 0x14AD SWAP1 PUSH2 0xE42 JUMP JUMPDEST POP JUMPDEST PUSH1 0x12 DUP1 SLOAD PUSH1 0x1 PUSH1 0x1 PUSH1 0xA0 SHL SUB DUP6 DUP2 AND PUSH1 0x1 PUSH1 0x1 PUSH1 0xA0 SHL SUB NOT DUP4 AND OR SWAP1 SWAP3 SSTORE PUSH1 0x40 MLOAD PUSH1 0x20 PUSH1 0x24 DUP3 ADD DUP2 DUP2 MSTORE DUP6 MLOAD PUSH1 0x44 DUP5 ADD MSTORE DUP6 MLOAD SWAP5 SWAP1 SWAP4 AND SWAP4 PUSH2 0x157B SWAP4 DUP7 SWAP4 SWAP1 SWAP3 DUP4 SWAP3 PUSH1 0x64 SWAP1 SWAP3 ADD SWAP2 SWAP1 DUP6 ADD SWAP1 DUP1 DUP4 DUP4 PUSH1 0x0 JUMPDEST DUP4 DUP2 LT ISZERO PUSH2 0x1519 JUMPI DUP2 DUP2 ADD MLOAD DUP4 DUP3 ADD MSTORE PUSH1 0x20 ADD PUSH2 0x1501 JUMP JUMPDEST POP POP POP POP SWAP1 POP SWAP1 DUP2 ADD SWAP1 PUSH1 0x1F AND DUP1 ISZERO PUSH2 0x1546 JUMPI DUP1 DUP3 SUB DUP1 MLOAD PUSH1 0x1 DUP4 PUSH1 0x20 SUB PUSH2 0x100 EXP SUB NOT AND DUP2 MSTORE PUSH1 0x20 ADD SWAP2 POP JUMPDEST POP PUSH1 0x40 DUP1 MLOAD PUSH1 0x1F NOT DUP2 DUP5 SUB ADD DUP2 MSTORE SWAP2 SWAP1 MSTORE PUSH1 0x20 DUP2 ADD DUP1 MLOAD PUSH1 0x1 PUSH1 0x1 PUSH1 0xE0 SHL SUB AND PUSH4 0xADCCEE5 PUSH1 0xE3 SHL OR SWAP1 MSTORE SWAP3 POP PUSH2 0xE42 SWAP2 POP POP JUMP JUMPDEST POP PUSH1 0x12 SLOAD PUSH1 0x40 DUP1 MLOAD PUSH1 0x1 PUSH1 0x1 PUSH1 0xA0 SHL SUB DUP1 DUP6 AND DUP3 MSTORE SWAP1 SWAP3 AND PUSH1 0x20 DUP4 ADD MSTORE DUP1 MLOAD PUSH32 0xD604DE94D45953F9138079EC1B82D533CB2160C906D1076D1F7ED54BEFBCA97A SWAP3 DUP2 SWAP1 SUB SWAP1 SWAP2 ADD SWAP1 LOG1 POP POP POP POP JUMP JUMPDEST PUSH1 0x12 SLOAD PUSH1 0x1 PUSH1 0x1 PUSH1 0xA0 SHL SUB AND DUP2 JUMP JUMPDEST PUSH1 0x40 DUP1 MLOAD PUSH1 0x24 DUP1 DUP3 ADD DUP5 SWAP1 MSTORE DUP3 MLOAD DUP1 DUP4 SUB SWAP1 SWAP2 ADD DUP2 MSTORE PUSH1 0x44 SWAP1 SWAP2 ADD SWAP1 SWAP2 MSTORE PUSH1 0x20 DUP2 ADD DUP1 MLOAD PUSH1 0x1 PUSH1 0x1 PUSH1 0xE0 SHL SUB AND PUSH4 0x601A0BF1 PUSH1 0xE0 SHL OR SWAP1 MSTORE PUSH1 0x0 SWAP1 PUSH1 0x60 SWAP1 PUSH2 0xF1F SWAP1 PUSH2 0xE42 JUMP JUMPDEST PUSH7 0x6379DA05B60000 DUP2 JUMP JUMPDEST PUSH1 0x9 SLOAD DUP2 JUMP JUMPDEST PUSH1 0x11 SLOAD PUSH1 0x1 PUSH1 0x1 PUSH1 0xA0 SHL SUB AND DUP2 JUMP JUMPDEST PUSH1 0x40 DUP1 MLOAD PUSH1 0x1 PUSH1 0x1 PUSH1 0xA0 SHL SUB DUP4 AND PUSH1 0x24 DUP1 DUP4 ADD SWAP2 SWAP1 SWAP2 MSTORE DUP3 MLOAD DUP1 DUP4 SUB SWAP1 SWAP2 ADD DUP2 MSTORE PUSH1 0x44 SWAP1 SWAP2 ADD SWAP1 SWAP2 MSTORE PUSH1 0x20 DUP2 ADD DUP1 MLOAD PUSH1 0x1 PUSH1 0x1 PUSH1 0xE0 SHL SUB AND PUSH4 0x70A08231 PUSH1 0xE0 SHL OR SWAP1 MSTORE PUSH1 0x0 SWAP1 PUSH1 0x60 SWAP1 PUSH2 0xF1F SWAP1 PUSH2 0x1202 JUMP JUMPDEST PUSH1 0x40 DUP1 MLOAD PUSH1 0x4 DUP2 MSTORE PUSH1 0x24 DUP2 ADD SWAP1 SWAP2 MSTORE PUSH1 0x20 DUP2 ADD DUP1 MLOAD PUSH1 0x1 PUSH1 0x1 PUSH1 0xE0 SHL SUB AND PUSH4 0xE759DD3 PUSH1 0xE3 SHL OR SWAP1 MSTORE PUSH1 0x0 SWAP1 PUSH1 0x60 SWAP1 PUSH2 0xFD5 SWAP1 PUSH2 0xE42 JUMP JUMPDEST PUSH1 0x40 DUP1 MLOAD PUSH1 0x24 DUP1 DUP3 ADD DUP5 SWAP1 MSTORE DUP3 MLOAD DUP1 DUP4 SUB SWAP1 SWAP2 ADD DUP2 MSTORE PUSH1 0x44 SWAP1 SWAP2 ADD SWAP1 SWAP2 MSTORE PUSH1 0x20 DUP2 ADD DUP1 MLOAD PUSH1 0x1 PUSH1 0x1 PUSH1 0xE0 SHL SUB AND PUSH4 0x852A12E3 PUSH1 0xE0 SHL OR SWAP1 MSTORE PUSH1 0x0 SWAP1 PUSH1 0x60 SWAP1 PUSH2 0xF1F SWAP1 PUSH2 0xE42 JUMP JUMPDEST PUSH1 0xC SLOAD DUP2 JUMP JUMPDEST PUSH1 0x2 DUP1 SLOAD PUSH1 0x40 DUP1 MLOAD PUSH1 0x20 PUSH1 0x1 DUP5 AND ISZERO PUSH2 0x100 MUL PUSH1 0x0 NOT ADD SWAP1 SWAP4 AND DUP5 SWAP1 DIV PUSH1 0x1F DUP2 ADD DUP5 SWAP1 DIV DUP5 MUL DUP3 ADD DUP5 ADD SWAP1 SWAP3 MSTORE DUP2 DUP2 MSTORE SWAP3 SWAP2 DUP4 ADD DUP3 DUP3 DUP1 ISZERO PUSH2 0xE3A JUMPI DUP1 PUSH1 0x1F LT PUSH2 0xE0F JUMPI PUSH2 0x100 DUP1 DUP4 SLOAD DIV MUL DUP4 MSTORE SWAP2 PUSH1 0x20 ADD SWAP2 PUSH2 0xE3A JUMP JUMPDEST PUSH1 0x40 DUP1 MLOAD PUSH1 0x1 PUSH1 0x1 PUSH1 0xA0 SHL SUB DUP4 AND PUSH1 0x24 DUP1 DUP4 ADD SWAP2 SWAP1 SWAP2 MSTORE DUP3 MLOAD DUP1 DUP4 SUB SWAP1 SWAP2 ADD DUP2 MSTORE PUSH1 0x44 SWAP1 SWAP2 ADD SWAP1 SWAP2 MSTORE PUSH1 0x20 DUP2 ADD DUP1 MLOAD PUSH1 0x1 PUSH1 0x1 PUSH1 0xE0 SHL SUB AND PUSH4 0x95DD9193 PUSH1 0xE0 SHL OR SWAP1 MSTORE PUSH1 0x0 SWAP1 PUSH1 0x60 SWAP1 PUSH2 0xF1F SWAP1 PUSH2 0x1202 JUMP JUMPDEST PUSH1 0x1 DUP2 JUMP JUMPDEST PUSH1 0x40 DUP1 MLOAD PUSH1 0x24 DUP1 DUP3 ADD DUP5 SWAP1 MSTORE DUP3 MLOAD DUP1 DUP4 SUB SWAP1 SWAP2 ADD DUP2 MSTORE PUSH1 0x44 SWAP1 SWAP2 ADD SWAP1 SWAP2 MSTORE PUSH1 0x20 DUP2 ADD DUP1 MLOAD PUSH1 0x1 PUSH1 0x1 PUSH1 0xE0 SHL SUB AND PUSH4 0x140E25AD PUSH1 0xE3 SHL OR SWAP1 MSTORE PUSH1 0x0 SWAP1 PUSH1 0x60 SWAP1 PUSH2 0xF1F SWAP1 PUSH2 0xE42 JUMP JUMPDEST PUSH1 0x40 DUP1 MLOAD PUSH1 0x4 DUP2 MSTORE PUSH1 0x24 DUP2 ADD SWAP1 SWAP2 MSTORE PUSH1 0x20 DUP2 ADD DUP1 MLOAD PUSH1 0x1 PUSH1 0x1 PUSH1 0xE0 SHL SUB AND PUSH4 0xA6AFED95 PUSH1 0xE0 SHL OR SWAP1 MSTORE PUSH1 0x0 SWAP1 PUSH1 0x60 SWAP1 PUSH2 0xFD5 SWAP1 PUSH2 0xE42 JUMP JUMPDEST PUSH1 0x40 DUP1 MLOAD PUSH1 0x1 PUSH1 0x1 PUSH1 0xA0 SHL SUB DUP5 AND PUSH1 0x24 DUP3 ADD MSTORE PUSH1 0x44 DUP1 DUP3 ADD DUP5 SWAP1 MSTORE DUP3 MLOAD DUP1 DUP4 SUB SWAP1 SWAP2 ADD DUP2 MSTORE PUSH1 0x64 SWAP1 SWAP2 ADD SWAP1 SWAP2 MSTORE PUSH1 0x20 DUP2 ADD DUP1 MLOAD PUSH1 0x1 PUSH1 0x1 PUSH1 0xE0 SHL SUB AND PUSH4 0xA9059CBB PUSH1 0xE0 SHL OR SWAP1 MSTORE PUSH1 0x0 SWAP1 PUSH1 0x60 SWAP1 PUSH2 0xEB7 SWAP1 PUSH2 0xE42 JUMP JUMPDEST PUSH1 0xA SLOAD DUP2 JUMP JUMPDEST PUSH1 0x40 DUP1 MLOAD PUSH1 0x4 DUP2 MSTORE PUSH1 0x24 DUP2 ADD SWAP1 SWAP2 MSTORE PUSH1 0x20 DUP2 ADD DUP1 MLOAD PUSH1 0x1 PUSH1 0x1 PUSH1 0xE0 SHL SUB AND PUSH4 0xAE9D70B PUSH1 0xE4 SHL OR SWAP1 MSTORE PUSH1 0x0 SWAP1 PUSH1 0x60 SWAP1 PUSH2 0xFD5 SWAP1 PUSH2 0x1202 JUMP JUMPDEST PUSH1 0x40 DUP1 MLOAD PUSH1 0x1 PUSH1 0x1 PUSH1 0xA0 SHL SUB DUP1 DUP7 AND PUSH1 0x24 DUP4 ADD MSTORE DUP5 AND PUSH1 0x44 DUP3 ADD MSTORE PUSH1 0x64 DUP1 DUP3 ADD DUP5 SWAP1 MSTORE DUP3 MLOAD DUP1 DUP4 SUB SWAP1 SWAP2 ADD DUP2 MSTORE PUSH1 0x84 SWAP1 SWAP2 ADD SWAP1 SWAP2 MSTORE PUSH1 0x20 DUP2 ADD DUP1 MLOAD PUSH1 0x1 PUSH1 0x1 PUSH1 0xE0 SHL SUB AND PUSH4 0xB2A02FF1 PUSH1 0xE0 SHL OR SWAP1 MSTORE PUSH1 0x0 SWAP1 PUSH1 0x60 SWAP1 PUSH2 0x10A1 SWAP1 PUSH2 0xE42 JUMP JUMPDEST PUSH1 0x40 DUP1 MLOAD PUSH1 0x1 PUSH1 0x1 PUSH1 0xA0 SHL SUB DUP4 AND PUSH1 0x24 DUP1 DUP4 ADD SWAP2 SWAP1 SWAP2 MSTORE DUP3 MLOAD DUP1 DUP4 SUB SWAP1 SWAP2 ADD DUP2 MSTORE PUSH1 0x44 SWAP1 SWAP2 ADD SWAP1 SWAP2 MSTORE PUSH1 0x20 DUP2 ADD DUP1 MLOAD PUSH1 0x1 PUSH1 0x1 PUSH1 0xE0 SHL SUB AND PUSH4 0x2DC74683 PUSH1 0xE2 SHL OR SWAP1 MSTORE PUSH1 0x0 SWAP1 PUSH1 0x60 SWAP1 PUSH2 0xF1F SWAP1 PUSH2 0xE42 JUMP JUMPDEST PUSH1 0x40 DUP1 MLOAD PUSH1 0x1 PUSH1 0x1 PUSH1 0xA0 SHL SUB DUP4 AND PUSH1 0x24 DUP1 DUP4 ADD SWAP2 SWAP1 SWAP2 MSTORE DUP3 MLOAD DUP1 DUP4 SUB SWAP1 SWAP2 ADD DUP2 MSTORE PUSH1 0x44 SWAP1 SWAP2 ADD SWAP1 SWAP2 MSTORE PUSH1 0x20 DUP2 ADD DUP1 MLOAD PUSH1 0x1 PUSH1 0x1 PUSH1 0xE0 SHL SUB AND PUSH4 0x5BCD9E45 PUSH1 0xE1 SHL OR SWAP1 MSTORE PUSH1 0x0 SWAP1 PUSH1 0x60 SWAP1 PUSH2 0xF1F SWAP1 PUSH2 0xE42 JUMP JUMPDEST PUSH1 0x40 DUP1 MLOAD PUSH1 0x4 DUP2 MSTORE PUSH1 0x24 DUP2 ADD SWAP1 SWAP2 MSTORE PUSH1 0x20 DUP2 ADD DUP1 MLOAD PUSH1 0x1 PUSH1 0x1 PUSH1 0xE0 SHL SUB AND PUSH4 0xBD6D894D PUSH1 0xE0 SHL OR SWAP1 MSTORE PUSH1 0x0 SWAP1 PUSH1 0x60 SWAP1 PUSH2 0xFD5 SWAP1 PUSH2 0xE42 JUMP JUMPDEST PUSH1 0x5 SLOAD PUSH1 0x1 PUSH1 0x1 PUSH1 0xA0 SHL SUB AND DUP2 JUMP JUMPDEST PUSH1 0x40 DUP1 MLOAD PUSH1 0x1 PUSH1 0x1 PUSH1 0xA0 SHL SUB DUP4 AND PUSH1 0x24 DUP1 DUP4 ADD SWAP2 SWAP1 SWAP2 MSTORE DUP3 MLOAD DUP1 DUP4 SUB SWAP1 SWAP2 ADD DUP2 MSTORE PUSH1 0x44 SWAP1 SWAP2 ADD SWAP1 SWAP2 MSTORE PUSH1 0x20 DUP2 ADD DUP1 MLOAD PUSH1 0x1 PUSH1 0x1 PUSH1 0xE0 SHL SUB AND PUSH4 0x61BFB471 PUSH1 0xE1 SHL OR SWAP1 MSTORE PUSH1 0x0 SWAP1 DUP2 SWAP1 DUP2 SWAP1 DUP2 SWAP1 PUSH1 0x60 SWAP1 PUSH2 0x1A7A SWAP1 PUSH2 0x1202 JUMP JUMPDEST SWAP1 POP DUP1 DUP1 PUSH1 0x20 ADD SWAP1 MLOAD PUSH1 0x80 DUP2 LT ISZERO PUSH2 0x1A91 JUMPI PUSH1 0x0 DUP1 REVERT JUMPDEST POP DUP1 MLOAD PUSH1 0x20 DUP3 ADD MLOAD PUSH1 0x40 DUP4 ADD MLOAD PUSH1 0x60 SWAP1 SWAP4 ADD MLOAD SWAP2 SWAP10 SWAP1 SWAP9 POP SWAP2 SWAP7 POP SWAP5 POP SWAP3 POP POP POP JUMP JUMPDEST PUSH1 0x40 DUP1 MLOAD PUSH1 0x24 DUP1 DUP3 ADD DUP5 SWAP1 MSTORE DUP3 MLOAD DUP1 DUP4 SUB SWAP1 SWAP2 ADD DUP2 MSTORE PUSH1 0x44 SWAP1 SWAP2 ADD SWAP1 SWAP2 MSTORE PUSH1 0x20 DUP2 ADD DUP1 MLOAD PUSH1 0x1 PUSH1 0x1 PUSH1 0xE0 SHL SUB AND PUSH4 0x317AFABB PUSH1 0xE2 SHL OR SWAP1 MSTORE PUSH1 0x0 SWAP1 PUSH1 0x60 SWAP1 PUSH2 0xF1F SWAP1 PUSH2 0xE42 JUMP JUMPDEST PUSH1 0x40 DUP1 MLOAD PUSH1 0x24 DUP1 DUP3 ADD DUP5 SWAP1 MSTORE DUP3 MLOAD DUP1 DUP4 SUB SWAP1 SWAP2 ADD DUP2 MSTORE PUSH1 0x44 SWAP1 SWAP2 ADD SWAP1 SWAP2 MSTORE PUSH1 0x20 DUP2 ADD DUP1 MLOAD PUSH1 0x1 PUSH1 0x1 PUSH1 0xE0 SHL SUB AND PUSH4 0xDB006A75 PUSH1 0xE0 SHL OR SWAP1 MSTORE PUSH1 0x0 SWAP1 PUSH1 0x60 SWAP1 PUSH2 0xF1F SWAP1 PUSH2 0xE42 JUMP JUMPDEST PUSH1 0x40 DUP1 MLOAD PUSH1 0x1 PUSH1 0x1 PUSH1 0xA0 SHL SUB DUP1 DUP6 AND PUSH1 0x24 DUP4 ADD MSTORE DUP4 AND PUSH1 0x44 DUP1 DUP4 ADD SWAP2 SWAP1 SWAP2 MSTORE DUP3 MLOAD DUP1 DUP4 SUB SWAP1 SWAP2 ADD DUP2 MSTORE PUSH1 0x64 SWAP1 SWAP2 ADD SWAP1 SWAP2 MSTORE PUSH1 0x20 DUP2 ADD DUP1 MLOAD PUSH1 0x1 PUSH1 0x1 PUSH1 0xE0 SHL SUB AND PUSH4 0x6EB1769F PUSH1 0xE1 SHL OR SWAP1 MSTORE PUSH1 0x0 SWAP1 PUSH1 0x60 SWAP1 PUSH2 0xEB7 SWAP1 PUSH2 0x1202 JUMP JUMPDEST PUSH1 0x40 DUP1 MLOAD PUSH1 0x4 DUP2 MSTORE PUSH1 0x24 DUP2 ADD SWAP1 SWAP2 MSTORE PUSH1 0x20 DUP2 ADD DUP1 MLOAD PUSH1 0x1 PUSH1 0x1 PUSH1 0xE0 SHL SUB AND PUSH4 0x74E38A79 PUSH1 0xE1 SHL OR SWAP1 MSTORE PUSH1 0x0 SWAP1 PUSH1 0x60 SWAP1 PUSH2 0xFD5 SWAP1 PUSH2 0xE42 JUMP JUMPDEST PUSH1 0x40 DUP1 MLOAD PUSH1 0x1 PUSH1 0x1 PUSH1 0xA0 SHL SUB DUP4 AND PUSH1 0x24 DUP1 DUP4 ADD SWAP2 SWAP1 SWAP2 MSTORE DUP3 MLOAD DUP1 DUP4 SUB SWAP1 SWAP2 ADD DUP2 MSTORE PUSH1 0x44 SWAP1 SWAP2 ADD SWAP1 SWAP2 MSTORE PUSH1 0x20 DUP2 ADD DUP1 MLOAD PUSH1 0x1 PUSH1 0x1 PUSH1 0xE0 SHL SUB AND PUSH4 0xF2B3ABBD PUSH1 0xE0 SHL OR SWAP1 MSTORE PUSH1 0x0 SWAP1 PUSH1 0x60 SWAP1 PUSH2 0xF1F SWAP1 PUSH2 0xE42 JUMP JUMPDEST PUSH1 0x6 SLOAD PUSH1 0x1 PUSH1 0x1 PUSH1 0xA0 SHL SUB AND DUP2 JUMP JUMPDEST PUSH1 0x40 DUP1 MLOAD PUSH1 0x1 PUSH1 0x1 PUSH1 0xA0 SHL SUB DUP1 DUP7 AND PUSH1 0x24 DUP4 ADD MSTORE PUSH1 0x44 DUP3 ADD DUP6 SWAP1 MSTORE DUP4 AND PUSH1 0x64 DUP1 DUP4 ADD SWAP2 SWAP1 SWAP2 MSTORE DUP3 MLOAD DUP1 DUP4 SUB SWAP1 SWAP2 ADD DUP2 MSTORE PUSH1 0x84 SWAP1 SWAP2 ADD SWAP1 SWAP2 MSTORE PUSH1 0x20 DUP2 ADD DUP1 MLOAD PUSH1 0x1 PUSH1 0x1 PUSH1 0xE0 SHL SUB AND PUSH4 0x7AF1E231 PUSH1 0xE1 SHL OR SWAP1 MSTORE PUSH1 0x0 SWAP1 PUSH1 0x60 SWAP1 PUSH2 0x10A1 SWAP1 PUSH2 0xE42 JUMP JUMPDEST PUSH1 0x3 SLOAD PUSH2 0x100 SWAP1 DIV PUSH1 0x1 PUSH1 0x1 PUSH1 0xA0 SHL SUB AND DUP2 JUMP JUMPDEST PUSH1 0x40 DUP1 MLOAD PUSH1 0x4 DUP2 MSTORE PUSH1 0x24 DUP2 ADD SWAP1 SWAP2 MSTORE PUSH1 0x20 DUP2 ADD DUP1 MLOAD PUSH1 0x1 PUSH1 0x1 PUSH1 0xE0 SHL SUB AND PUSH4 0x1F1F3B45 PUSH1 0xE3 SHL OR SWAP1 MSTORE PUSH1 0x0 SWAP1 PUSH1 0x60 SWAP1 PUSH2 0xFD5 SWAP1 PUSH2 0x1202 JUMP JUMPDEST PUSH1 0x40 DUP1 MLOAD PUSH1 0x24 DUP1 DUP3 ADD DUP5 SWAP1 MSTORE DUP3 MLOAD DUP1 DUP4 SUB SWAP1 SWAP2 ADD DUP2 MSTORE PUSH1 0x44 SWAP1 SWAP2 ADD SWAP1 SWAP2 MSTORE PUSH1 0x20 DUP2 ADD DUP1 MLOAD PUSH1 0x1 PUSH1 0x1 PUSH1 0xE0 SHL SUB AND PUSH4 0xFCA7820B PUSH1 0xE0 SHL OR SWAP1 MSTORE PUSH1 0x0 SWAP1 PUSH1 0x60 SWAP1 PUSH2 0xF1F SWAP1 PUSH2 0xE42 JUMP JUMPDEST PUSH1 0x60 PUSH1 0x0 PUSH1 0x60 DUP5 PUSH1 0x1 PUSH1 0x1 PUSH1 0xA0 SHL SUB AND DUP5 PUSH1 0x40 MLOAD DUP1 DUP3 DUP1 MLOAD SWAP1 PUSH1 0x20 ADD SWAP1 DUP1 DUP4 DUP4 JUMPDEST PUSH1 0x20 DUP4 LT PUSH2 0x1D69 JUMPI DUP1 MLOAD DUP3 MSTORE PUSH1 0x1F NOT SWAP1 SWAP3 ADD SWAP2 PUSH1 0x20 SWAP2 DUP3 ADD SWAP2 ADD PUSH2 0x1D4A JUMP JUMPDEST PUSH1 0x1 DUP4 PUSH1 0x20 SUB PUSH2 0x100 EXP SUB DUP1 NOT DUP3 MLOAD AND DUP2 DUP5 MLOAD AND DUP1 DUP3 OR DUP6 MSTORE POP POP POP POP POP POP SWAP1 POP ADD SWAP2 POP POP PUSH1 0x0 PUSH1 0x40 MLOAD DUP1 DUP4 SUB DUP2 DUP6 GAS DELEGATECALL SWAP2 POP POP RETURNDATASIZE DUP1 PUSH1 0x0 DUP2 EQ PUSH2 0x1DC9 JUMPI PUSH1 0x40 MLOAD SWAP2 POP PUSH1 0x1F NOT PUSH1 0x3F RETURNDATASIZE ADD AND DUP3 ADD PUSH1 0x40 MSTORE RETURNDATASIZE DUP3 MSTORE RETURNDATASIZE PUSH1 0x0 PUSH1 0x20 DUP5 ADD RETURNDATACOPY PUSH2 0x1DCE JUMP JUMPDEST PUSH1 0x60 SWAP2 POP JUMPDEST POP SWAP2 POP SWAP2 POP PUSH1 0x0 DUP3 EQ ISZERO PUSH2 0x1DE3 JUMPI RETURNDATASIZE PUSH1 0x20 DUP3 ADD REVERT JUMPDEST SWAP5 SWAP4 POP POP POP POP JUMP INVALID SLOAD GASLIMIT PUSH19 0x63323044656C656761746F723A66616C6C6261 PUSH4 0x6B3A2063 PUSH2 0x6E6E PUSH16 0x742073656E642076616C756520746F20 PUSH7 0x616C6C6261636B SLOAD GASLIMIT PUSH19 0x63323044656C656761746F723A3A5F73657449 PUSH14 0x706C656D656E746174696F6E3A20 NUMBER PUSH2 0x6C6C PUSH6 0x72206D757374 KECCAK256 PUSH3 0x652061 PUSH5 0x6D696EA265 PUSH3 0x7A7A72 BALANCE PC KECCAK256 0xD3 0xDC DUP4 SWAP3 SLT 0xE3 SSTORE 0xA7 0xCA SWAP3 0xB4 SWAP13 0xB9 MUL 0xA9 PUSH9 0x96456FE4B2871B81B5 0xE3 0xAC OR 0x2E MSTORE 0xAD 0xBB PUSH5 0x736F6C6343 STOP SDIV LT STOP ORIGIN SLOAD GASLIMIT PUSH19 0x63323044656C656761746F723A3A5F73657449 PUSH14 0x706C656D656E746174696F6E3A20 NUMBER PUSH2 0x6C6C PUSH6 0x72206D757374 KECCAK256 PUSH3 0x652061 PUSH5 0x6D696E0000 "},"methodIdentifiers":{"_acceptAdmin()":"e9c714f2","_addReserves(uint256)":"3e941010","_reduceReserves(uint256)":"601a0bf1","_setImplementation(address,bool,bytes)":"555bcc40","_setInterestRateModel(address)":"f2b3abbd","_setPendingAdmin(address)":"b71d1a0c","_setReserveFactor(uint256)":"fca7820b","_setTectonicCore(address)":"b79b3c8a","accrualBlockNumber()":"6c540baf","accrueInterest()":"a6afed95","admin()":"f851a440","allowance(address,address)":"dd62ed3e","approve(address,uint256)":"095ea7b3","balanceOf(address)":"70a08231","balanceOfUnderlying(address)":"3af9e669","borrow(uint256)":"c5ebeaec","borrowBalanceCurrent(address)":"17bfdfbc","borrowBalanceStored(address)":"95dd9193","borrowIndex()":"aa5af0fd","borrowRatePerBlock()":"f8f9da28","decimals()":"313ce567","delegateToImplementation(bytes)":"0933c1ed","delegateToViewImplementation(bytes)":"4487152f","exchangeRateCurrent()":"bd6d894d","exchangeRateStored()":"182df0f5","getAccountSnapshot(address)":"c37f68e2","getCash()":"3b1d21a2","implementation()":"5c60da1b","interestRateModel()":"f3fdb15a","isTToken()":"a0097b58","liquidateBorrow(address,uint256,address)":"f5e3c462","mint(uint256)":"a0712d68","name()":"06fdde03","pendingAdmin()":"26782247","protocolSeizeShareMantissa()":"6752e702","redeem(uint256)":"db006a75","redeemUnderlying(uint256)":"852a12e3","repayBorrow(uint256)":"0e752702","repayBorrowBehalf(address,uint256)":"2608f818","reserveFactorMantissa()":"173b9904","seize(address,address,uint256)":"b2a02ff1","supplyRatePerBlock()":"ae9d70b0","sweepToken(address)":"1be19560","symbol()":"95d89b41","tectonicCore()":"c16a61ec","totalBorrows()":"47bd3718","totalBorrowsCurrent()":"73acee98","totalReserves()":"8f840ddd","totalSupply()":"18160ddd","transfer(address,uint256)":"a9059cbb","transferFrom(address,address,uint256)":"23b872dd","underlying()":"6f307dc3"}}}}}