{"contracts/tectonic/TectonicCoreStorage.sol":{"TectonicCoreV6Storage":{"abi":[{"constant":true,"inputs":[],"name":"_borrowGuardianPaused","outputs":[{"internalType":"bool","name":"","type":"bool"}],"payable":false,"stateMutability":"view","type":"function"},{"constant":true,"inputs":[],"name":"_mintGuardianPaused","outputs":[{"internalType":"bool","name":"","type":"bool"}],"payable":false,"stateMutability":"view","type":"function"},{"constant":true,"inputs":[{"internalType":"address","name":"","type":"address"},{"internalType":"uint256","name":"","type":"uint256"}],"name":"accountAssets","outputs":[{"internalType":"address","name":"","type":"address"}],"payable":false,"stateMutability":"view","type":"function"},{"constant":true,"inputs":[],"name":"admin","outputs":[{"internalType":"address","name":"","type":"address"}],"payable":false,"stateMutability":"view","type":"function"},{"constant":true,"inputs":[{"internalType":"uint256","name":"","type":"uint256"}],"name":"allMarkets","outputs":[{"internalType":"contract TToken","name":"","type":"address"}],"payable":false,"stateMutability":"view","type":"function"},{"constant":true,"inputs":[],"name":"borrowCapGuardian","outputs":[{"internalType":"address","name":"","type":"address"}],"payable":false,"stateMutability":"view","type":"function"},{"constant":true,"inputs":[{"internalType":"address","name":"","type":"address"}],"name":"borrowCaps","outputs":[{"internalType":"uint256","name":"","type":"uint256"}],"payable":false,"stateMutability":"view","type":"function"},{"constant":true,"inputs":[{"internalType":"address","name":"","type":"address"}],"name":"borrowGuardianPaused","outputs":[{"internalType":"bool","name":"","type":"bool"}],"payable":false,"stateMutability":"view","type":"function"},{"constant":true,"inputs":[],"name":"closeFactorMantissa","outputs":[{"internalType":"uint256","name":"","type":"uint256"}],"payable":false,"stateMutability":"view","type":"function"},{"constant":true,"inputs":[{"internalType":"address","name":"","type":"address"}],"name":"lastContributorBlock","outputs":[{"internalType":"uint256","name":"","type":"uint256"}],"payable":false,"stateMutability":"view","type":"function"},{"constant":true,"inputs":[],"name":"liquidationIncentiveMantissa","outputs":[{"internalType":"uint256","name":"","type":"uint256"}],"payable":false,"stateMutability":"view","type":"function"},{"constant":true,"inputs":[{"internalType":"address","name":"","type":"address"}],"name":"markets","outputs":[{"internalType":"bool","name":"isListed","type":"bool"},{"internalType":"uint256","name":"collateralFactorMantissa","type":"uint256"},{"internalType":"bool","name":"isTonicized","type":"bool"}],"payable":false,"stateMutability":"view","type":"function"},{"constant":true,"inputs":[],"name":"maxAssets","outputs":[{"internalType":"uint256","name":"","type":"uint256"}],"payable":false,"stateMutability":"view","type":"function"},{"constant":true,"inputs":[{"internalType":"address","name":"","type":"address"}],"name":"mintGuardianPaused","outputs":[{"internalType":"bool","name":"","type":"bool"}],"payable":false,"stateMutability":"view","type":"function"},{"constant":true,"inputs":[],"name":"oracle","outputs":[{"internalType":"contract PriceOracle","name":"","type":"address"}],"payable":false,"stateMutability":"view","type":"function"},{"constant":true,"inputs":[],"name":"pauseGuardian","outputs":[{"internalType":"address","name":"","type":"address"}],"payable":false,"stateMutability":"view","type":"function"},{"constant":true,"inputs":[],"name":"pendingAdmin","outputs":[{"internalType":"address","name":"","type":"address"}],"payable":false,"stateMutability":"view","type":"function"},{"constant":true,"inputs":[],"name":"pendingTectonicCoreImplementation","outputs":[{"internalType":"address","name":"","type":"address"}],"payable":false,"stateMutability":"view","type":"function"},{"constant":true,"inputs":[],"name":"seizeGuardianPaused","outputs":[{"internalType":"bool","name":"","type":"bool"}],"payable":false,"stateMutability":"view","type":"function"},{"constant":true,"inputs":[],"name":"tectonicCoreImplementation","outputs":[{"internalType":"address","name":"","type":"address"}],"payable":false,"stateMutability":"view","type":"function"},{"constant":true,"inputs":[{"internalType":"address","name":"","type":"address"}],"name":"tokenToPerUserTvlProtectLimit","outputs":[{"internalType":"uint256","name":"","type":"uint256"}],"payable":false,"stateMutability":"view","type":"function"},{"constant":true,"inputs":[{"internalType":"address","name":"","type":"address"}],"name":"tonicAccrued","outputs":[{"internalType":"uint256","name":"","type":"uint256"}],"payable":false,"stateMutability":"view","type":"function"},{"constant":true,"inputs":[{"internalType":"address","name":"","type":"address"}],"name":"tonicBorrowState","outputs":[{"internalType":"uint224","name":"index","type":"uint224"},{"internalType":"uint32","name":"block","type":"uint32"}],"payable":false,"stateMutability":"view","type":"function"},{"constant":true,"inputs":[{"internalType":"address","name":"","type":"address"},{"internalType":"address","name":"","type":"address"}],"name":"tonicBorrowerIndex","outputs":[{"internalType":"uint256","name":"","type":"uint256"}],"payable":false,"stateMutability":"view","type":"function"},{"constant":true,"inputs":[{"internalType":"address","name":"","type":"address"}],"name":"tonicContributorSpeeds","outputs":[{"internalType":"uint256","name":"","type":"uint256"}],"payable":false,"stateMutability":"view","type":"function"},{"constant":true,"inputs":[],"name":"tonicRate","outputs":[{"internalType":"uint256","name":"","type":"uint256"}],"payable":false,"stateMutability":"view","type":"function"},{"constant":true,"inputs":[{"internalType":"address","name":"","type":"address"}],"name":"tonicSpeeds","outputs":[{"internalType":"uint256","name":"","type":"uint256"}],"payable":false,"stateMutability":"view","type":"function"},{"constant":true,"inputs":[{"internalType":"address","name":"","type":"address"},{"internalType":"address","name":"","type":"address"}],"name":"tonicSupplierIndex","outputs":[{"internalType":"uint256","name":"","type":"uint256"}],"payable":false,"stateMutability":"view","type":"function"},{"constant":true,"inputs":[{"internalType":"address","name":"","type":"address"}],"name":"tonicSupplyState","outputs":[{"internalType":"uint224","name":"index","type":"uint224"},{"internalType":"uint32","name":"block","type":"uint32"}],"payable":false,"stateMutability":"view","type":"function"},{"constant":true,"inputs":[],"name":"transferGuardianPaused","outputs":[{"internalType":"bool","name":"","type":"bool"}],"payable":false,"stateMutability":"view","type":"function"},{"constant":true,"inputs":[{"internalType":"address","name":"","type":"address"},{"internalType":"address","name":"","type":"address"}],"name":"utilizedTvlAmount","outputs":[{"internalType":"uint256","name":"","type":"uint256"}],"payable":false,"stateMutability":"view","type":"function"},{"constant":true,"inputs":[],"name":"whitelistProtectEnabled","outputs":[{"internalType":"bool","name":"","type":"bool"}],"payable":false,"stateMutability":"view","type":"function"},{"constant":true,"inputs":[{"internalType":"address","name":"","type":"address"}],"name":"whitelistedAddresses","outputs":[{"internalType":"bool","name":"","type":"bool"}],"payable":false,"stateMutability":"view","type":"function"}],"evm":{"bytecode":{"linkReferences":{},"object":"608060405234801561001057600080fd5b50610885806100206000396000f3fe608060405234801561001057600080fd5b50600436106101fb5760003560e01c8063731f0c2b1161011a578063af3fbb58116100ad578063dce154491161007c578063dce154491461055b578063e6653f3d14610587578063e87554461461058f578063f851a44014610597578063fe3be9601461059f576101fb565b8063af3fbb58146104b3578063be493f1e146104e1578063bea6b8b814610507578063c7a6552a1461052d576101fb565b80638e8f294b116100e95780638e8f294b1461043557806394b2294b1461047d57806398fc0f7b14610485578063ac0b0bb7146104ab576101fb565b8063731f0c2b146103f75780637404e92c1461041d5780637dc0d1d01461042557806387f763031461042d576101fb565b80633cb9ea6c1161019257806352d84d1e1161016157806352d84d1e1461036057806366dd2e321461037d57806367d556fb146103a35780636d154ea5146103d1576101fb565b80633cb9ea6c146102be578063454aafe0146102e45780634a584432146103325780634ada90af14610358576101fb565b806324a3d622116101ce57806324a3d622146102805780632678224714610288578063363c05be146102905780633c94786f146102b6576101fb565b806306c933d8146102005780630b2efed61461023a57806321af45691461025e578063248fb15c14610266575b600080fd5b6102266004803603602081101561021657600080fd5b50356001600160a01b03166105a7565b604080519115158252519081900360200190f35b6102426105bc565b604080516001600160a01b039092168252519081900360200190f35b6102426105cb565b61026e6105da565b60408051918252519081900360200190f35b6102426105e0565b6102426105ef565b61026e600480360360208110156102a657600080fd5b50356001600160a01b03166105fe565b610226610610565b61026e600480360360208110156102d457600080fd5b50356001600160a01b0316610620565b61030a600480360360208110156102fa57600080fd5b50356001600160a01b0316610632565b604080516001600160e01b03909316835263ffffffff90911660208301528051918290030190f35b61026e6004803603602081101561034857600080fd5b50356001600160a01b031661065c565b61026e61066e565b6102426004803603602081101561037657600080fd5b5035610674565b61026e6004803603602081101561039357600080fd5b50356001600160a01b031661069b565b61026e600480360360408110156103b957600080fd5b506001600160a01b03813581169160200135166106ad565b610226600480360360208110156103e757600080fd5b50356001600160a01b03166106ca565b6102266004803603602081101561040d57600080fd5b50356001600160a01b03166106df565b6102426106f4565b610242610703565b610226610712565b61045b6004803603602081101561044b57600080fd5b50356001600160a01b0316610722565b6040805193151584526020840192909252151582820152519081900360600190f35b61026e610748565b61026e6004803603602081101561049b57600080fd5b50356001600160a01b031661074e565b610226610760565b61026e600480360360408110156104c957600080fd5b506001600160a01b0381358116916020013516610770565b61030a600480360360208110156104f757600080fd5b50356001600160a01b031661078d565b61026e6004803603602081101561051d57600080fd5b50356001600160a01b03166107b7565b61026e6004803603604081101561054357600080fd5b506001600160a01b03813581169160200135166107c9565b6102426004803603604081101561057157600080fd5b506001600160a01b0381351690602001356107e6565b61022661081b565b61026e61082b565b610242610831565b610226610840565b601a6020526000908152604090205460ff1681565b6003546001600160a01b031681565b6015546001600160a01b031681565b600e5481565b600a546001600160a01b031681565b6001546001600160a01b031681565b60176020526000908152604090205481565b600a54600160a01b900460ff1681565b600f6020526000908152604090205481565b6011602052600090815260409020546001600160e01b03811690600160e01b900463ffffffff1682565b60166020526000908152604090205481565b60065481565b600d818154811061068157fe5b6000918252602090912001546001600160a01b0316905081565b60146020526000908152604090205481565b601c60209081526000928352604080842090915290825290205481565b600c6020526000908152604090205460ff1681565b600b6020526000908152604090205460ff1681565b6002546001600160a01b031681565b6004546001600160a01b031681565b600a54600160b01b900460ff1681565b60096020526000908152604090208054600182015460039092015460ff91821692911683565b60075481565b601b6020526000908152604090205481565b600a54600160b81b900460ff1681565b601360209081526000928352604080842090915290825290205481565b6010602052600090815260409020546001600160e01b03811690600160e01b900463ffffffff1682565b60186020526000908152604090205481565b601260209081526000928352604080842090915290825290205481565b600860205281600052604060002081815481106107ff57fe5b6000918252602090912001546001600160a01b03169150829050565b600a54600160a81b900460ff1681565b60055481565b6000546001600160a01b031681565b601954600160a01b900460ff168156fea265627a7a723158207da00275b00026d9cd000dbce53a2d8e29b051561fb0a8b9940910b2943d309764736f6c63430005100032","opcodes":"PUSH1 0x80 PUSH1 0x40 MSTORE CALLVALUE DUP1 ISZERO PUSH2 0x10 JUMPI PUSH1 0x0 DUP1 REVERT JUMPDEST POP PUSH2 0x885 DUP1 PUSH2 0x20 PUSH1 0x0 CODECOPY PUSH1 0x0 RETURN INVALID PUSH1 0x80 PUSH1 0x40 MSTORE CALLVALUE DUP1 ISZERO PUSH2 0x10 JUMPI PUSH1 0x0 DUP1 REVERT JUMPDEST POP PUSH1 0x4 CALLDATASIZE LT PUSH2 0x1FB JUMPI PUSH1 0x0 CALLDATALOAD PUSH1 0xE0 SHR DUP1 PUSH4 0x731F0C2B GT PUSH2 0x11A JUMPI DUP1 PUSH4 0xAF3FBB58 GT PUSH2 0xAD JUMPI DUP1 PUSH4 0xDCE15449 GT PUSH2 0x7C JUMPI DUP1 PUSH4 0xDCE15449 EQ PUSH2 0x55B JUMPI DUP1 PUSH4 0xE6653F3D EQ PUSH2 0x587 JUMPI DUP1 PUSH4 0xE8755446 EQ PUSH2 0x58F JUMPI DUP1 PUSH4 0xF851A440 EQ PUSH2 0x597 JUMPI DUP1 PUSH4 0xFE3BE960 EQ PUSH2 0x59F JUMPI PUSH2 0x1FB JUMP JUMPDEST DUP1 PUSH4 0xAF3FBB58 EQ PUSH2 0x4B3 JUMPI DUP1 PUSH4 0xBE493F1E EQ PUSH2 0x4E1 JUMPI DUP1 PUSH4 0xBEA6B8B8 EQ PUSH2 0x507 JUMPI DUP1 PUSH4 0xC7A6552A EQ PUSH2 0x52D JUMPI PUSH2 0x1FB JUMP JUMPDEST DUP1 PUSH4 0x8E8F294B GT PUSH2 0xE9 JUMPI DUP1 PUSH4 0x8E8F294B EQ PUSH2 0x435 JUMPI DUP1 PUSH4 0x94B2294B EQ PUSH2 0x47D JUMPI DUP1 PUSH4 0x98FC0F7B EQ PUSH2 0x485 JUMPI DUP1 PUSH4 0xAC0B0BB7 EQ PUSH2 0x4AB JUMPI PUSH2 0x1FB JUMP JUMPDEST DUP1 PUSH4 0x731F0C2B EQ PUSH2 0x3F7 JUMPI DUP1 PUSH4 0x7404E92C EQ PUSH2 0x41D JUMPI DUP1 PUSH4 0x7DC0D1D0 EQ PUSH2 0x425 JUMPI DUP1 PUSH4 0x87F76303 EQ PUSH2 0x42D JUMPI PUSH2 0x1FB JUMP JUMPDEST DUP1 PUSH4 0x3CB9EA6C GT PUSH2 0x192 JUMPI DUP1 PUSH4 0x52D84D1E GT PUSH2 0x161 JUMPI DUP1 PUSH4 0x52D84D1E EQ PUSH2 0x360 JUMPI DUP1 PUSH4 0x66DD2E32 EQ PUSH2 0x37D JUMPI DUP1 PUSH4 0x67D556FB EQ PUSH2 0x3A3 JUMPI DUP1 PUSH4 0x6D154EA5 EQ PUSH2 0x3D1 JUMPI PUSH2 0x1FB JUMP JUMPDEST DUP1 PUSH4 0x3CB9EA6C EQ PUSH2 0x2BE JUMPI DUP1 PUSH4 0x454AAFE0 EQ PUSH2 0x2E4 JUMPI DUP1 PUSH4 0x4A584432 EQ PUSH2 0x332 JUMPI DUP1 PUSH4 0x4ADA90AF EQ PUSH2 0x358 JUMPI PUSH2 0x1FB JUMP JUMPDEST DUP1 PUSH4 0x24A3D622 GT PUSH2 0x1CE JUMPI DUP1 PUSH4 0x24A3D622 EQ PUSH2 0x280 JUMPI DUP1 PUSH4 0x26782247 EQ PUSH2 0x288 JUMPI DUP1 PUSH4 0x363C05BE EQ PUSH2 0x290 JUMPI DUP1 PUSH4 0x3C94786F EQ PUSH2 0x2B6 JUMPI PUSH2 0x1FB JUMP JUMPDEST DUP1 PUSH4 0x6C933D8 EQ PUSH2 0x200 JUMPI DUP1 PUSH4 0xB2EFED6 EQ PUSH2 0x23A JUMPI DUP1 PUSH4 0x21AF4569 EQ PUSH2 0x25E JUMPI DUP1 PUSH4 0x248FB15C EQ PUSH2 0x266 JUMPI JUMPDEST PUSH1 0x0 DUP1 REVERT JUMPDEST PUSH2 0x226 PUSH1 0x4 DUP1 CALLDATASIZE SUB PUSH1 0x20 DUP2 LT ISZERO PUSH2 0x216 JUMPI PUSH1 0x0 DUP1 REVERT JUMPDEST POP CALLDATALOAD PUSH1 0x1 PUSH1 0x1 PUSH1 0xA0 SHL SUB AND PUSH2 0x5A7 JUMP JUMPDEST PUSH1 0x40 DUP1 MLOAD SWAP2 ISZERO ISZERO DUP3 MSTORE MLOAD SWAP1 DUP2 SWAP1 SUB PUSH1 0x20 ADD SWAP1 RETURN JUMPDEST PUSH2 0x242 PUSH2 0x5BC JUMP JUMPDEST PUSH1 0x40 DUP1 MLOAD PUSH1 0x1 PUSH1 0x1 PUSH1 0xA0 SHL SUB SWAP1 SWAP3 AND DUP3 MSTORE MLOAD SWAP1 DUP2 SWAP1 SUB PUSH1 0x20 ADD SWAP1 RETURN JUMPDEST PUSH2 0x242 PUSH2 0x5CB JUMP JUMPDEST PUSH2 0x26E PUSH2 0x5DA JUMP JUMPDEST PUSH1 0x40 DUP1 MLOAD SWAP2 DUP3 MSTORE MLOAD SWAP1 DUP2 SWAP1 SUB PUSH1 0x20 ADD SWAP1 RETURN JUMPDEST PUSH2 0x242 PUSH2 0x5E0 JUMP JUMPDEST PUSH2 0x242 PUSH2 0x5EF JUMP JUMPDEST PUSH2 0x26E PUSH1 0x4 DUP1 CALLDATASIZE SUB PUSH1 0x20 DUP2 LT ISZERO PUSH2 0x2A6 JUMPI PUSH1 0x0 DUP1 REVERT JUMPDEST POP CALLDATALOAD PUSH1 0x1 PUSH1 0x1 PUSH1 0xA0 SHL SUB AND PUSH2 0x5FE JUMP JUMPDEST PUSH2 0x226 PUSH2 0x610 JUMP JUMPDEST PUSH2 0x26E PUSH1 0x4 DUP1 CALLDATASIZE SUB PUSH1 0x20 DUP2 LT ISZERO PUSH2 0x2D4 JUMPI PUSH1 0x0 DUP1 REVERT JUMPDEST POP CALLDATALOAD PUSH1 0x1 PUSH1 0x1 PUSH1 0xA0 SHL SUB AND PUSH2 0x620 JUMP JUMPDEST PUSH2 0x30A PUSH1 0x4 DUP1 CALLDATASIZE SUB PUSH1 0x20 DUP2 LT ISZERO PUSH2 0x2FA JUMPI PUSH1 0x0 DUP1 REVERT JUMPDEST POP CALLDATALOAD PUSH1 0x1 PUSH1 0x1 PUSH1 0xA0 SHL SUB AND PUSH2 0x632 JUMP JUMPDEST PUSH1 0x40 DUP1 MLOAD PUSH1 0x1 PUSH1 0x1 PUSH1 0xE0 SHL SUB SWAP1 SWAP4 AND DUP4 MSTORE PUSH4 0xFFFFFFFF SWAP1 SWAP2 AND PUSH1 0x20 DUP4 ADD MSTORE DUP1 MLOAD SWAP2 DUP3 SWAP1 SUB ADD SWAP1 RETURN JUMPDEST PUSH2 0x26E PUSH1 0x4 DUP1 CALLDATASIZE SUB PUSH1 0x20 DUP2 LT ISZERO PUSH2 0x348 JUMPI PUSH1 0x0 DUP1 REVERT JUMPDEST POP CALLDATALOAD PUSH1 0x1 PUSH1 0x1 PUSH1 0xA0 SHL SUB AND PUSH2 0x65C JUMP JUMPDEST PUSH2 0x26E PUSH2 0x66E JUMP JUMPDEST PUSH2 0x242 PUSH1 0x4 DUP1 CALLDATASIZE SUB PUSH1 0x20 DUP2 LT ISZERO PUSH2 0x376 JUMPI PUSH1 0x0 DUP1 REVERT JUMPDEST POP CALLDATALOAD PUSH2 0x674 JUMP JUMPDEST PUSH2 0x26E PUSH1 0x4 DUP1 CALLDATASIZE SUB PUSH1 0x20 DUP2 LT ISZERO PUSH2 0x393 JUMPI PUSH1 0x0 DUP1 REVERT JUMPDEST POP CALLDATALOAD PUSH1 0x1 PUSH1 0x1 PUSH1 0xA0 SHL SUB AND PUSH2 0x69B JUMP JUMPDEST PUSH2 0x26E PUSH1 0x4 DUP1 CALLDATASIZE SUB PUSH1 0x40 DUP2 LT ISZERO PUSH2 0x3B9 JUMPI PUSH1 0x0 DUP1 REVERT JUMPDEST POP PUSH1 0x1 PUSH1 0x1 PUSH1 0xA0 SHL SUB DUP2 CALLDATALOAD DUP2 AND SWAP2 PUSH1 0x20 ADD CALLDATALOAD AND PUSH2 0x6AD JUMP JUMPDEST PUSH2 0x226 PUSH1 0x4 DUP1 CALLDATASIZE SUB PUSH1 0x20 DUP2 LT ISZERO PUSH2 0x3E7 JUMPI PUSH1 0x0 DUP1 REVERT JUMPDEST POP CALLDATALOAD PUSH1 0x1 PUSH1 0x1 PUSH1 0xA0 SHL SUB AND PUSH2 0x6CA JUMP JUMPDEST PUSH2 0x226 PUSH1 0x4 DUP1 CALLDATASIZE SUB PUSH1 0x20 DUP2 LT ISZERO PUSH2 0x40D JUMPI PUSH1 0x0 DUP1 REVERT JUMPDEST POP CALLDATALOAD PUSH1 0x1 PUSH1 0x1 PUSH1 0xA0 SHL SUB AND PUSH2 0x6DF JUMP JUMPDEST PUSH2 0x242 PUSH2 0x6F4 JUMP JUMPDEST PUSH2 0x242 PUSH2 0x703 JUMP JUMPDEST PUSH2 0x226 PUSH2 0x712 JUMP JUMPDEST PUSH2 0x45B PUSH1 0x4 DUP1 CALLDATASIZE SUB PUSH1 0x20 DUP2 LT ISZERO PUSH2 0x44B JUMPI PUSH1 0x0 DUP1 REVERT JUMPDEST POP CALLDATALOAD PUSH1 0x1 PUSH1 0x1 PUSH1 0xA0 SHL SUB AND PUSH2 0x722 JUMP JUMPDEST PUSH1 0x40 DUP1 MLOAD SWAP4 ISZERO ISZERO DUP5 MSTORE PUSH1 0x20 DUP5 ADD SWAP3 SWAP1 SWAP3 MSTORE ISZERO ISZERO DUP3 DUP3 ADD MSTORE MLOAD SWAP1 DUP2 SWAP1 SUB PUSH1 0x60 ADD SWAP1 RETURN JUMPDEST PUSH2 0x26E PUSH2 0x748 JUMP JUMPDEST PUSH2 0x26E PUSH1 0x4 DUP1 CALLDATASIZE SUB PUSH1 0x20 DUP2 LT ISZERO PUSH2 0x49B JUMPI PUSH1 0x0 DUP1 REVERT JUMPDEST POP CALLDATALOAD PUSH1 0x1 PUSH1 0x1 PUSH1 0xA0 SHL SUB AND PUSH2 0x74E JUMP JUMPDEST PUSH2 0x226 PUSH2 0x760 JUMP JUMPDEST PUSH2 0x26E PUSH1 0x4 DUP1 CALLDATASIZE SUB PUSH1 0x40 DUP2 LT ISZERO PUSH2 0x4C9 JUMPI PUSH1 0x0 DUP1 REVERT JUMPDEST POP PUSH1 0x1 PUSH1 0x1 PUSH1 0xA0 SHL SUB DUP2 CALLDATALOAD DUP2 AND SWAP2 PUSH1 0x20 ADD CALLDATALOAD AND PUSH2 0x770 JUMP JUMPDEST PUSH2 0x30A PUSH1 0x4 DUP1 CALLDATASIZE SUB PUSH1 0x20 DUP2 LT ISZERO PUSH2 0x4F7 JUMPI PUSH1 0x0 DUP1 REVERT JUMPDEST POP CALLDATALOAD PUSH1 0x1 PUSH1 0x1 PUSH1 0xA0 SHL SUB AND PUSH2 0x78D JUMP JUMPDEST PUSH2 0x26E PUSH1 0x4 DUP1 CALLDATASIZE SUB PUSH1 0x20 DUP2 LT ISZERO PUSH2 0x51D JUMPI PUSH1 0x0 DUP1 REVERT JUMPDEST POP CALLDATALOAD PUSH1 0x1 PUSH1 0x1 PUSH1 0xA0 SHL SUB AND PUSH2 0x7B7 JUMP JUMPDEST PUSH2 0x26E PUSH1 0x4 DUP1 CALLDATASIZE SUB PUSH1 0x40 DUP2 LT ISZERO PUSH2 0x543 JUMPI PUSH1 0x0 DUP1 REVERT JUMPDEST POP PUSH1 0x1 PUSH1 0x1 PUSH1 0xA0 SHL SUB DUP2 CALLDATALOAD DUP2 AND SWAP2 PUSH1 0x20 ADD CALLDATALOAD AND PUSH2 0x7C9 JUMP JUMPDEST PUSH2 0x242 PUSH1 0x4 DUP1 CALLDATASIZE SUB PUSH1 0x40 DUP2 LT ISZERO PUSH2 0x571 JUMPI PUSH1 0x0 DUP1 REVERT JUMPDEST POP PUSH1 0x1 PUSH1 0x1 PUSH1 0xA0 SHL SUB DUP2 CALLDATALOAD AND SWAP1 PUSH1 0x20 ADD CALLDATALOAD PUSH2 0x7E6 JUMP JUMPDEST PUSH2 0x226 PUSH2 0x81B JUMP JUMPDEST PUSH2 0x26E PUSH2 0x82B JUMP JUMPDEST PUSH2 0x242 PUSH2 0x831 JUMP JUMPDEST PUSH2 0x226 PUSH2 0x840 JUMP JUMPDEST PUSH1 0x1A PUSH1 0x20 MSTORE PUSH1 0x0 SWAP1 DUP2 MSTORE PUSH1 0x40 SWAP1 KECCAK256 SLOAD PUSH1 0xFF AND DUP2 JUMP JUMPDEST PUSH1 0x3 SLOAD PUSH1 0x1 PUSH1 0x1 PUSH1 0xA0 SHL SUB AND DUP2 JUMP JUMPDEST PUSH1 0x15 SLOAD PUSH1 0x1 PUSH1 0x1 PUSH1 0xA0 SHL SUB AND DUP2 JUMP JUMPDEST PUSH1 0xE SLOAD DUP2 JUMP JUMPDEST PUSH1 0xA SLOAD PUSH1 0x1 PUSH1 0x1 PUSH1 0xA0 SHL SUB AND DUP2 JUMP JUMPDEST PUSH1 0x1 SLOAD PUSH1 0x1 PUSH1 0x1 PUSH1 0xA0 SHL SUB AND DUP2 JUMP JUMPDEST PUSH1 0x17 PUSH1 0x20 MSTORE PUSH1 0x0 SWAP1 DUP2 MSTORE PUSH1 0x40 SWAP1 KECCAK256 SLOAD DUP2 JUMP JUMPDEST PUSH1 0xA SLOAD PUSH1 0x1 PUSH1 0xA0 SHL SWAP1 DIV PUSH1 0xFF AND DUP2 JUMP JUMPDEST PUSH1 0xF PUSH1 0x20 MSTORE PUSH1 0x0 SWAP1 DUP2 MSTORE PUSH1 0x40 SWAP1 KECCAK256 SLOAD DUP2 JUMP JUMPDEST PUSH1 0x11 PUSH1 0x20 MSTORE PUSH1 0x0 SWAP1 DUP2 MSTORE PUSH1 0x40 SWAP1 KECCAK256 SLOAD PUSH1 0x1 PUSH1 0x1 PUSH1 0xE0 SHL SUB DUP2 AND SWAP1 PUSH1 0x1 PUSH1 0xE0 SHL SWAP1 DIV PUSH4 0xFFFFFFFF AND DUP3 JUMP JUMPDEST PUSH1 0x16 PUSH1 0x20 MSTORE PUSH1 0x0 SWAP1 DUP2 MSTORE PUSH1 0x40 SWAP1 KECCAK256 SLOAD DUP2 JUMP JUMPDEST PUSH1 0x6 SLOAD DUP2 JUMP JUMPDEST PUSH1 0xD DUP2 DUP2 SLOAD DUP2 LT PUSH2 0x681 JUMPI INVALID JUMPDEST PUSH1 0x0 SWAP2 DUP3 MSTORE PUSH1 0x20 SWAP1 SWAP2 KECCAK256 ADD SLOAD PUSH1 0x1 PUSH1 0x1 PUSH1 0xA0 SHL SUB AND SWAP1 POP DUP2 JUMP JUMPDEST PUSH1 0x14 PUSH1 0x20 MSTORE PUSH1 0x0 SWAP1 DUP2 MSTORE PUSH1 0x40 SWAP1 KECCAK256 SLOAD DUP2 JUMP JUMPDEST PUSH1 0x1C PUSH1 0x20 SWAP1 DUP2 MSTORE PUSH1 0x0 SWAP3 DUP4 MSTORE PUSH1 0x40 DUP1 DUP5 KECCAK256 SWAP1 SWAP2 MSTORE SWAP1 DUP3 MSTORE SWAP1 KECCAK256 SLOAD DUP2 JUMP JUMPDEST PUSH1 0xC PUSH1 0x20 MSTORE PUSH1 0x0 SWAP1 DUP2 MSTORE PUSH1 0x40 SWAP1 KECCAK256 SLOAD PUSH1 0xFF AND DUP2 JUMP JUMPDEST PUSH1 0xB PUSH1 0x20 MSTORE PUSH1 0x0 SWAP1 DUP2 MSTORE PUSH1 0x40 SWAP1 KECCAK256 SLOAD PUSH1 0xFF AND DUP2 JUMP JUMPDEST PUSH1 0x2 SLOAD PUSH1 0x1 PUSH1 0x1 PUSH1 0xA0 SHL SUB AND DUP2 JUMP JUMPDEST PUSH1 0x4 SLOAD PUSH1 0x1 PUSH1 0x1 PUSH1 0xA0 SHL SUB AND DUP2 JUMP JUMPDEST PUSH1 0xA SLOAD PUSH1 0x1 PUSH1 0xB0 SHL SWAP1 DIV PUSH1 0xFF AND DUP2 JUMP JUMPDEST PUSH1 0x9 PUSH1 0x20 MSTORE PUSH1 0x0 SWAP1 DUP2 MSTORE PUSH1 0x40 SWAP1 KECCAK256 DUP1 SLOAD PUSH1 0x1 DUP3 ADD SLOAD PUSH1 0x3 SWAP1 SWAP3 ADD SLOAD PUSH1 0xFF SWAP2 DUP3 AND SWAP3 SWAP2 AND DUP4 JUMP JUMPDEST PUSH1 0x7 SLOAD DUP2 JUMP JUMPDEST PUSH1 0x1B PUSH1 0x20 MSTORE PUSH1 0x0 SWAP1 DUP2 MSTORE PUSH1 0x40 SWAP1 KECCAK256 SLOAD DUP2 JUMP JUMPDEST PUSH1 0xA SLOAD PUSH1 0x1 PUSH1 0xB8 SHL SWAP1 DIV PUSH1 0xFF AND DUP2 JUMP JUMPDEST PUSH1 0x13 PUSH1 0x20 SWAP1 DUP2 MSTORE PUSH1 0x0 SWAP3 DUP4 MSTORE PUSH1 0x40 DUP1 DUP5 KECCAK256 SWAP1 SWAP2 MSTORE SWAP1 DUP3 MSTORE SWAP1 KECCAK256 SLOAD DUP2 JUMP JUMPDEST PUSH1 0x10 PUSH1 0x20 MSTORE PUSH1 0x0 SWAP1 DUP2 MSTORE PUSH1 0x40 SWAP1 KECCAK256 SLOAD PUSH1 0x1 PUSH1 0x1 PUSH1 0xE0 SHL SUB DUP2 AND SWAP1 PUSH1 0x1 PUSH1 0xE0 SHL SWAP1 DIV PUSH4 0xFFFFFFFF AND DUP3 JUMP JUMPDEST PUSH1 0x18 PUSH1 0x20 MSTORE PUSH1 0x0 SWAP1 DUP2 MSTORE PUSH1 0x40 SWAP1 KECCAK256 SLOAD DUP2 JUMP JUMPDEST PUSH1 0x12 PUSH1 0x20 SWAP1 DUP2 MSTORE PUSH1 0x0 SWAP3 DUP4 MSTORE PUSH1 0x40 DUP1 DUP5 KECCAK256 SWAP1 SWAP2 MSTORE SWAP1 DUP3 MSTORE SWAP1 KECCAK256 SLOAD DUP2 JUMP JUMPDEST PUSH1 0x8 PUSH1 0x20 MSTORE DUP2 PUSH1 0x0 MSTORE PUSH1 0x40 PUSH1 0x0 KECCAK256 DUP2 DUP2 SLOAD DUP2 LT PUSH2 0x7FF JUMPI INVALID JUMPDEST PUSH1 0x0 SWAP2 DUP3 MSTORE PUSH1 0x20 SWAP1 SWAP2 KECCAK256 ADD SLOAD PUSH1 0x1 PUSH1 0x1 PUSH1 0xA0 SHL SUB AND SWAP2 POP DUP3 SWAP1 POP JUMP JUMPDEST PUSH1 0xA SLOAD PUSH1 0x1 PUSH1 0xA8 SHL SWAP1 DIV PUSH1 0xFF AND DUP2 JUMP JUMPDEST PUSH1 0x5 SLOAD DUP2 JUMP JUMPDEST PUSH1 0x0 SLOAD PUSH1 0x1 PUSH1 0x1 PUSH1 0xA0 SHL SUB AND DUP2 JUMP JUMPDEST PUSH1 0x19 SLOAD PUSH1 0x1 PUSH1 0xA0 SHL SWAP1 DIV PUSH1 0xFF AND DUP2 JUMP INVALID LOG2 PUSH6 0x627A7A723158 KECCAK256 PUSH30 0xA00275B00026D9CD000DBCE53A2D8E29B051561FB0A8B9940910B2943D30 SWAP8 PUSH5 0x736F6C6343 STOP SDIV LT STOP ORIGIN "},"methodIdentifiers":{"_borrowGuardianPaused()":"e6653f3d","_mintGuardianPaused()":"3c94786f","accountAssets(address,uint256)":"dce15449","admin()":"f851a440","allMarkets(uint256)":"52d84d1e","borrowCapGuardian()":"21af4569","borrowCaps(address)":"4a584432","borrowGuardianPaused(address)":"6d154ea5","closeFactorMantissa()":"e8755446","lastContributorBlock(address)":"bea6b8b8","liquidationIncentiveMantissa()":"4ada90af","markets(address)":"8e8f294b","maxAssets()":"94b2294b","mintGuardianPaused(address)":"731f0c2b","oracle()":"7dc0d1d0","pauseGuardian()":"24a3d622","pendingAdmin()":"26782247","pendingTectonicCoreImplementation()":"0b2efed6","seizeGuardianPaused()":"ac0b0bb7","tectonicCoreImplementation()":"7404e92c","tokenToPerUserTvlProtectLimit(address)":"98fc0f7b","tonicAccrued(address)":"66dd2e32","tonicBorrowState(address)":"454aafe0","tonicBorrowerIndex(address,address)":"af3fbb58","tonicContributorSpeeds(address)":"363c05be","tonicRate()":"248fb15c","tonicSpeeds(address)":"3cb9ea6c","tonicSupplierIndex(address,address)":"c7a6552a","tonicSupplyState(address)":"be493f1e","transferGuardianPaused()":"87f76303","utilizedTvlAmount(address,address)":"67d556fb","whitelistProtectEnabled()":"fe3be960","whitelistedAddresses(address)":"06c933d8"}}}}}