{"contracts/tectonic/TErc20Delegate.sol":{"TErc20Delegate":{"abi":[{"inputs":[],"payable":false,"stateMutability":"nonpayable","type":"constructor"},{"anonymous":false,"inputs":[{"indexed":false,"internalType":"uint256","name":"cashPrior","type":"uint256"},{"indexed":false,"internalType":"uint256","name":"interestAccumulated","type":"uint256"},{"indexed":false,"internalType":"uint256","name":"borrowIndex","type":"uint256"},{"indexed":false,"internalType":"uint256","name":"totalBorrows","type":"uint256"}],"name":"AccrueInterest","type":"event"},{"anonymous":false,"inputs":[{"indexed":true,"internalType":"address","name":"owner","type":"address"},{"indexed":true,"internalType":"address","name":"spender","type":"address"},{"indexed":false,"internalType":"uint256","name":"amount","type":"uint256"}],"name":"Approval","type":"event"},{"anonymous":false,"inputs":[{"indexed":false,"internalType":"address","name":"borrower","type":"address"},{"indexed":false,"internalType":"uint256","name":"borrowAmount","type":"uint256"},{"indexed":false,"internalType":"uint256","name":"accountBorrows","type":"uint256"},{"indexed":false,"internalType":"uint256","name":"totalBorrows","type":"uint256"}],"name":"Borrow","type":"event"},{"anonymous":false,"inputs":[{"indexed":false,"internalType":"uint256","name":"error","type":"uint256"},{"indexed":false,"internalType":"uint256","name":"info","type":"uint256"},{"indexed":false,"internalType":"uint256","name":"detail","type":"uint256"}],"name":"Failure","type":"event"},{"anonymous":false,"inputs":[{"indexed":false,"internalType":"address","name":"liquidator","type":"address"},{"indexed":false,"internalType":"address","name":"borrower","type":"address"},{"indexed":false,"internalType":"uint256","name":"repayAmount","type":"uint256"},{"indexed":false,"internalType":"address","name":"tTokenCollateral","type":"address"},{"indexed":false,"internalType":"uint256","name":"seizeTokens","type":"uint256"}],"name":"LiquidateBorrow","type":"event"},{"anonymous":false,"inputs":[{"indexed":false,"internalType":"address","name":"minter","type":"address"},{"indexed":false,"internalType":"uint256","name":"mintAmount","type":"uint256"},{"indexed":false,"internalType":"uint256","name":"mintTokens","type":"uint256"}],"name":"Mint","type":"event"},{"anonymous":false,"inputs":[{"indexed":false,"internalType":"address","name":"oldAdmin","type":"address"},{"indexed":false,"internalType":"address","name":"newAdmin","type":"address"}],"name":"NewAdmin","type":"event"},{"anonymous":false,"inputs":[{"indexed":false,"internalType":"contract InterestRateModel","name":"oldInterestRateModel","type":"address"},{"indexed":false,"internalType":"contract InterestRateModel","name":"newInterestRateModel","type":"address"}],"name":"NewMarketInterestRateModel","type":"event"},{"anonymous":false,"inputs":[{"indexed":false,"internalType":"address","name":"oldPendingAdmin","type":"address"},{"indexed":false,"internalType":"address","name":"newPendingAdmin","type":"address"}],"name":"NewPendingAdmin","type":"event"},{"anonymous":false,"inputs":[{"indexed":false,"internalType":"uint256","name":"oldReserveFactorMantissa","type":"uint256"},{"indexed":false,"internalType":"uint256","name":"newReserveFactorMantissa","type":"uint256"}],"name":"NewReserveFactor","type":"event"},{"anonymous":false,"inputs":[{"indexed":false,"internalType":"contract TectonicCoreInterface","name":"oldTectonicCore","type":"address"},{"indexed":false,"internalType":"contract TectonicCoreInterface","name":"newTectonicCore","type":"address"}],"name":"NewTectonicCore","type":"event"},{"anonymous":false,"inputs":[{"indexed":false,"internalType":"address","name":"redeemer","type":"address"},{"indexed":false,"internalType":"uint256","name":"redeemAmount","type":"uint256"},{"indexed":false,"internalType":"uint256","name":"redeemTokens","type":"uint256"}],"name":"Redeem","type":"event"},{"anonymous":false,"inputs":[{"indexed":false,"internalType":"address","name":"payer","type":"address"},{"indexed":false,"internalType":"address","name":"borrower","type":"address"},{"indexed":false,"internalType":"uint256","name":"repayAmount","type":"uint256"},{"indexed":false,"internalType":"uint256","name":"accountBorrows","type":"uint256"},{"indexed":false,"internalType":"uint256","name":"totalBorrows","type":"uint256"}],"name":"RepayBorrow","type":"event"},{"anonymous":false,"inputs":[{"indexed":false,"internalType":"address","name":"benefactor","type":"address"},{"indexed":false,"internalType":"uint256","name":"addAmount","type":"uint256"},{"indexed":false,"internalType":"uint256","name":"newTotalReserves","type":"uint256"}],"name":"ReservesAdded","type":"event"},{"anonymous":false,"inputs":[{"indexed":false,"internalType":"address","name":"admin","type":"address"},{"indexed":false,"internalType":"uint256","name":"reduceAmount","type":"uint256"},{"indexed":false,"internalType":"uint256","name":"newTotalReserves","type":"uint256"}],"name":"ReservesReduced","type":"event"},{"anonymous":false,"inputs":[{"indexed":true,"internalType":"address","name":"from","type":"address"},{"indexed":true,"internalType":"address","name":"to","type":"address"},{"indexed":false,"internalType":"uint256","name":"amount","type":"uint256"}],"name":"Transfer","type":"event"},{"constant":false,"inputs":[],"name":"_acceptAdmin","outputs":[{"internalType":"uint256","name":"","type":"uint256"}],"payable":false,"stateMutability":"nonpayable","type":"function"},{"constant":false,"inputs":[{"internalType":"uint256","name":"addAmount","type":"uint256"}],"name":"_addReserves","outputs":[{"internalType":"uint256","name":"","type":"uint256"}],"payable":false,"stateMutability":"nonpayable","type":"function"},{"constant":false,"inputs":[{"internalType":"bytes","name":"data","type":"bytes"}],"name":"_becomeImplementation","outputs":[],"payable":false,"stateMutability":"nonpayable","type":"function"},{"constant":false,"inputs":[{"internalType":"uint256","name":"reduceAmount","type":"uint256"}],"name":"_reduceReserves","outputs":[{"internalType":"uint256","name":"","type":"uint256"}],"payable":false,"stateMutability":"nonpayable","type":"function"},{"constant":false,"inputs":[],"name":"_resignImplementation","outputs":[],"payable":false,"stateMutability":"nonpayable","type":"function"},{"constant":false,"inputs":[{"internalType":"contract InterestRateModel","name":"newInterestRateModel","type":"address"}],"name":"_setInterestRateModel","outputs":[{"internalType":"uint256","name":"","type":"uint256"}],"payable":false,"stateMutability":"nonpayable","type":"function"},{"constant":false,"inputs":[{"internalType":"address payable","name":"newPendingAdmin","type":"address"}],"name":"_setPendingAdmin","outputs":[{"internalType":"uint256","name":"","type":"uint256"}],"payable":false,"stateMutability":"nonpayable","type":"function"},{"constant":false,"inputs":[{"internalType":"uint256","name":"newReserveFactorMantissa","type":"uint256"}],"name":"_setReserveFactor","outputs":[{"internalType":"uint256","name":"","type":"uint256"}],"payable":false,"stateMutability":"nonpayable","type":"function"},{"constant":false,"inputs":[{"internalType":"contract TectonicCoreInterface","name":"newTectonicCore","type":"address"}],"name":"_setTectonicCore","outputs":[{"internalType":"uint256","name":"","type":"uint256"}],"payable":false,"stateMutability":"nonpayable","type":"function"},{"constant":true,"inputs":[],"name":"accrualBlockNumber","outputs":[{"internalType":"uint256","name":"","type":"uint256"}],"payable":false,"stateMutability":"view","type":"function"},{"constant":false,"inputs":[],"name":"accrueInterest","outputs":[{"internalType":"uint256","name":"","type":"uint256"}],"payable":false,"stateMutability":"nonpayable","type":"function"},{"constant":true,"inputs":[],"name":"admin","outputs":[{"internalType":"address payable","name":"","type":"address"}],"payable":false,"stateMutability":"view","type":"function"},{"constant":true,"inputs":[{"internalType":"address","name":"owner","type":"address"},{"internalType":"address","name":"spender","type":"address"}],"name":"allowance","outputs":[{"internalType":"uint256","name":"","type":"uint256"}],"payable":false,"stateMutability":"view","type":"function"},{"constant":false,"inputs":[{"internalType":"address","name":"spender","type":"address"},{"internalType":"uint256","name":"amount","type":"uint256"}],"name":"approve","outputs":[{"internalType":"bool","name":"","type":"bool"}],"payable":false,"stateMutability":"nonpayable","type":"function"},{"constant":true,"inputs":[{"internalType":"address","name":"owner","type":"address"}],"name":"balanceOf","outputs":[{"internalType":"uint256","name":"","type":"uint256"}],"payable":false,"stateMutability":"view","type":"function"},{"constant":false,"inputs":[{"internalType":"address","name":"owner","type":"address"}],"name":"balanceOfUnderlying","outputs":[{"internalType":"uint256","name":"","type":"uint256"}],"payable":false,"stateMutability":"nonpayable","type":"function"},{"constant":false,"inputs":[{"internalType":"uint256","name":"borrowAmount","type":"uint256"}],"name":"borrow","outputs":[{"internalType":"uint256","name":"","type":"uint256"}],"payable":false,"stateMutability":"nonpayable","type":"function"},{"constant":false,"inputs":[{"internalType":"address","name":"account","type":"address"}],"name":"borrowBalanceCurrent","outputs":[{"internalType":"uint256","name":"","type":"uint256"}],"payable":false,"stateMutability":"nonpayable","type":"function"},{"constant":true,"inputs":[{"internalType":"address","name":"account","type":"address"}],"name":"borrowBalanceStored","outputs":[{"internalType":"uint256","name":"","type":"uint256"}],"payable":false,"stateMutability":"view","type":"function"},{"constant":true,"inputs":[],"name":"borrowIndex","outputs":[{"internalType":"uint256","name":"","type":"uint256"}],"payable":false,"stateMutability":"view","type":"function"},{"constant":true,"inputs":[],"name":"borrowRatePerBlock","outputs":[{"internalType":"uint256","name":"","type":"uint256"}],"payable":false,"stateMutability":"view","type":"function"},{"constant":true,"inputs":[],"name":"decimals","outputs":[{"internalType":"uint8","name":"","type":"uint8"}],"payable":false,"stateMutability":"view","type":"function"},{"constant":false,"inputs":[],"name":"exchangeRateCurrent","outputs":[{"internalType":"uint256","name":"","type":"uint256"}],"payable":false,"stateMutability":"nonpayable","type":"function"},{"constant":true,"inputs":[],"name":"exchangeRateStored","outputs":[{"internalType":"uint256","name":"","type":"uint256"}],"payable":false,"stateMutability":"view","type":"function"},{"constant":true,"inputs":[{"internalType":"address","name":"account","type":"address"}],"name":"getAccountSnapshot","outputs":[{"internalType":"uint256","name":"","type":"uint256"},{"internalType":"uint256","name":"","type":"uint256"},{"internalType":"uint256","name":"","type":"uint256"},{"internalType":"uint256","name":"","type":"uint256"}],"payable":false,"stateMutability":"view","type":"function"},{"constant":true,"inputs":[],"name":"getCash","outputs":[{"internalType":"uint256","name":"","type":"uint256"}],"payable":false,"stateMutability":"view","type":"function"},{"constant":true,"inputs":[],"name":"implementation","outputs":[{"internalType":"address","name":"","type":"address"}],"payable":false,"stateMutability":"view","type":"function"},{"constant":false,"inputs":[{"internalType":"address","name":"underlying_","type":"address"},{"internalType":"contract TectonicCoreInterface","name":"tcore_","type":"address"},{"internalType":"contract InterestRateModel","name":"interestRateModel_","type":"address"},{"internalType":"uint256","name":"initialExchangeRateMantissa_","type":"uint256"},{"internalType":"string","name":"name_","type":"string"},{"internalType":"string","name":"symbol_","type":"string"},{"internalType":"uint8","name":"decimals_","type":"uint8"}],"name":"initialize","outputs":[],"payable":false,"stateMutability":"nonpayable","type":"function"},{"constant":false,"inputs":[{"internalType":"contract TectonicCoreInterface","name":"tcore_","type":"address"},{"internalType":"contract InterestRateModel","name":"interestRateModel_","type":"address"},{"internalType":"uint256","name":"initialExchangeRateMantissa_","type":"uint256"},{"internalType":"string","name":"name_","type":"string"},{"internalType":"string","name":"symbol_","type":"string"},{"internalType":"uint8","name":"decimals_","type":"uint8"}],"name":"initialize","outputs":[],"payable":false,"stateMutability":"nonpayable","type":"function"},{"constant":true,"inputs":[],"name":"interestRateModel","outputs":[{"internalType":"contract InterestRateModel","name":"","type":"address"}],"payable":false,"stateMutability":"view","type":"function"},{"constant":true,"inputs":[],"name":"isTToken","outputs":[{"internalType":"bool","name":"","type":"bool"}],"payable":false,"stateMutability":"view","type":"function"},{"constant":false,"inputs":[{"internalType":"address","name":"borrower","type":"address"},{"internalType":"uint256","name":"repayAmount","type":"uint256"},{"internalType":"contract TTokenInterface","name":"tTokenCollateral","type":"address"}],"name":"liquidateBorrow","outputs":[{"internalType":"uint256","name":"","type":"uint256"}],"payable":false,"stateMutability":"nonpayable","type":"function"},{"constant":false,"inputs":[{"internalType":"uint256","name":"mintAmount","type":"uint256"}],"name":"mint","outputs":[{"internalType":"uint256","name":"","type":"uint256"}],"payable":false,"stateMutability":"nonpayable","type":"function"},{"constant":true,"inputs":[],"name":"name","outputs":[{"internalType":"string","name":"","type":"string"}],"payable":false,"stateMutability":"view","type":"function"},{"constant":true,"inputs":[],"name":"pendingAdmin","outputs":[{"internalType":"address payable","name":"","type":"address"}],"payable":false,"stateMutability":"view","type":"function"},{"constant":true,"inputs":[],"name":"protocolSeizeShareMantissa","outputs":[{"internalType":"uint256","name":"","type":"uint256"}],"payable":false,"stateMutability":"view","type":"function"},{"constant":false,"inputs":[{"internalType":"uint256","name":"redeemTokens","type":"uint256"}],"name":"redeem","outputs":[{"internalType":"uint256","name":"","type":"uint256"}],"payable":false,"stateMutability":"nonpayable","type":"function"},{"constant":false,"inputs":[{"internalType":"uint256","name":"redeemAmount","type":"uint256"}],"name":"redeemUnderlying","outputs":[{"internalType":"uint256","name":"","type":"uint256"}],"payable":false,"stateMutability":"nonpayable","type":"function"},{"constant":false,"inputs":[{"internalType":"uint256","name":"repayAmount","type":"uint256"}],"name":"repayBorrow","outputs":[{"internalType":"uint256","name":"","type":"uint256"}],"payable":false,"stateMutability":"nonpayable","type":"function"},{"constant":false,"inputs":[{"internalType":"address","name":"borrower","type":"address"},{"internalType":"uint256","name":"repayAmount","type":"uint256"}],"name":"repayBorrowBehalf","outputs":[{"internalType":"uint256","name":"","type":"uint256"}],"payable":false,"stateMutability":"nonpayable","type":"function"},{"constant":true,"inputs":[],"name":"reserveFactorMantissa","outputs":[{"internalType":"uint256","name":"","type":"uint256"}],"payable":false,"stateMutability":"view","type":"function"},{"constant":false,"inputs":[{"internalType":"address","name":"liquidator","type":"address"},{"internalType":"address","name":"borrower","type":"address"},{"internalType":"uint256","name":"seizeTokens","type":"uint256"}],"name":"seize","outputs":[{"internalType":"uint256","name":"","type":"uint256"}],"payable":false,"stateMutability":"nonpayable","type":"function"},{"constant":true,"inputs":[],"name":"supplyRatePerBlock","outputs":[{"internalType":"uint256","name":"","type":"uint256"}],"payable":false,"stateMutability":"view","type":"function"},{"constant":false,"inputs":[{"internalType":"contract EIP20NonStandardInterface","name":"token","type":"address"}],"name":"sweepToken","outputs":[],"payable":false,"stateMutability":"nonpayable","type":"function"},{"constant":true,"inputs":[],"name":"symbol","outputs":[{"internalType":"string","name":"","type":"string"}],"payable":false,"stateMutability":"view","type":"function"},{"constant":true,"inputs":[],"name":"tectonicCore","outputs":[{"internalType":"contract TectonicCoreInterface","name":"","type":"address"}],"payable":false,"stateMutability":"view","type":"function"},{"constant":true,"inputs":[],"name":"totalBorrows","outputs":[{"internalType":"uint256","name":"","type":"uint256"}],"payable":false,"stateMutability":"view","type":"function"},{"constant":false,"inputs":[],"name":"totalBorrowsCurrent","outputs":[{"internalType":"uint256","name":"","type":"uint256"}],"payable":false,"stateMutability":"nonpayable","type":"function"},{"constant":true,"inputs":[],"name":"totalReserves","outputs":[{"internalType":"uint256","name":"","type":"uint256"}],"payable":false,"stateMutability":"view","type":"function"},{"constant":true,"inputs":[],"name":"totalSupply","outputs":[{"internalType":"uint256","name":"","type":"uint256"}],"payable":false,"stateMutability":"view","type":"function"},{"constant":false,"inputs":[{"internalType":"address","name":"dst","type":"address"},{"internalType":"uint256","name":"amount","type":"uint256"}],"name":"transfer","outputs":[{"internalType":"bool","name":"","type":"bool"}],"payable":false,"stateMutability":"nonpayable","type":"function"},{"constant":false,"inputs":[{"internalType":"address","name":"src","type":"address"},{"internalType":"address","name":"dst","type":"address"},{"internalType":"uint256","name":"amount","type":"uint256"}],"name":"transferFrom","outputs":[{"internalType":"bool","name":"","type":"bool"}],"payable":false,"stateMutability":"nonpayable","type":"function"},{"constant":true,"inputs":[],"name":"underlying","outputs":[{"internalType":"address","name":"","type":"address"}],"payable":false,"stateMutability":"view","type":"function"}],"evm":{"bytecode":{"linkReferences":{},"object":"608060405234801561001057600080fd5b50615550806100206000396000f3fe608060405234801561001057600080fd5b50600436106103275760003560e01c8063852a12e3116101b8578063b79b3c8a11610104578063e9c714f2116100a2578063f5e3c4621161007c578063f5e3c46214610b68578063f851a44014610b9e578063f8f9da2814610ba6578063fca7820b14610bae57610327565b8063e9c714f214610b32578063f2b3abbd14610b3a578063f3fdb15a14610b6057610327565b8063c37f68e2116100de578063c37f68e214610a7e578063c5ebeaec14610aca578063db006a7514610ae7578063dd62ed3e14610b0457610327565b8063b79b3c8a14610a48578063bd6d894d14610a6e578063c16a61ec14610a7657610327565b8063a0712d6811610171578063aa5af0fd1161014b578063aa5af0fd146109dc578063ae9d70b0146109e4578063b2a02ff1146109ec578063b71d1a0c14610a2257610327565b8063a0712d681461098b578063a6afed95146109a8578063a9059cbb146109b057610327565b8063852a12e3146107e25780638f840ddd146107ff57806395d89b411461080757806395dd91931461080f57806399d8c1b414610835578063a0097b581461098357610327565b8063313ce567116102775780635c60da1b116102305780636c540baf1161020a5780636c540baf146107a45780636f307dc3146107ac57806370a08231146107b457806373acee98146107da57610327565b80635c60da1b14610777578063601a0bf11461077f5780636752e7021461079c57610327565b8063313ce567146106625780633af9e669146106805780633b1d21a2146106a65780633e941010146106ae57806347bd3718146106cb57806356e67728146106d357610327565b806318160ddd116102e45780631be19560116102be5780631be19560146105b657806323b872dd146105dc5780632608f81814610612578063267822471461063e57610327565b806318160ddd14610450578063182df0f5146104585780631a31d4651461046057610327565b806306fdde031461032c578063095ea7b3146103a95780630e752702146103e9578063153ab50514610418578063173b99041461042257806317bfdfbc1461042a575b600080fd5b610334610bcb565b6040805160208082528351818301528351919283929083019185019080838360005b8381101561036e578181015183820152602001610356565b50505050905090810190601f16801561039b5780820380516001836020036101000a031916815260200191505b509250505060405180910390f35b6103d5600480360360408110156103bf57600080fd5b506001600160a01b038135169060200135610c58565b604080519115158252519081900360200190f35b610406600480360360208110156103ff57600080fd5b5035610cc5565b60408051918252519081900360200190f35b610420610cdb565b005b610406610d2b565b6104066004803603602081101561044057600080fd5b50356001600160a01b0316610d31565b610406610df1565b610406610df7565b610420600480360360e081101561047657600080fd5b6001600160a01b03823581169260208101358216926040820135909216916060820135919081019060a081016080820135600160201b8111156104b857600080fd5b8201836020820111156104ca57600080fd5b803590602001918460018302840111600160201b831117156104eb57600080fd5b91908080601f0160208091040260200160405190810160405280939291908181526020018383808284376000920191909152509295949360208101935035915050600160201b81111561053d57600080fd5b82018360208201111561054f57600080fd5b803590602001918460018302840111600160201b8311171561057057600080fd5b91908080601f0160208091040260200160405190810160405280939291908181526020018383808284376000920191909152509295505050903560ff169150610e5a9050565b610420600480360360208110156105cc57600080fd5b50356001600160a01b0316610ef9565b6103d5600480360360608110156105f257600080fd5b506001600160a01b03813581169160208101359091169060400135611083565b6104066004803603604081101561062857600080fd5b506001600160a01b0381351690602001356110f5565b61064661110b565b604080516001600160a01b039092168252519081900360200190f35b61066a61111a565b6040805160ff9092168252519081900360200190f35b6104066004803603602081101561069657600080fd5b50356001600160a01b0316611123565b6104066111d9565b610406600480360360208110156106c457600080fd5b50356111e8565b6104066111f3565b610420600480360360208110156106e957600080fd5b810190602081018135600160201b81111561070357600080fd5b82018360208201111561071557600080fd5b803590602001918460018302840111600160201b8311171561073657600080fd5b91908080601f0160208091040260200160405190810160405280939291908181526020018383808284376000920191909152509295506111f9945050505050565b61064661124a565b6104066004803603602081101561079557600080fd5b5035611259565b6104066112f4565b6104066112ff565b610646611305565b610406600480360360208110156107ca57600080fd5b50356001600160a01b0316611314565b61040661132f565b610406600480360360208110156107f857600080fd5b50356113e5565b6104066113f0565b6103346113f6565b6104066004803603602081101561082557600080fd5b50356001600160a01b031661144e565b610420600480360360c081101561084b57600080fd5b6001600160a01b03823581169260208101359091169160408201359190810190608081016060820135600160201b81111561088557600080fd5b82018360208201111561089757600080fd5b803590602001918460018302840111600160201b831117156108b857600080fd5b91908080601f0160208091040260200160405190810160405280939291908181526020018383808284376000920191909152509295949360208101935035915050600160201b81111561090a57600080fd5b82018360208201111561091c57600080fd5b803590602001918460018302840111600160201b8311171561093d57600080fd5b91908080601f0160208091040260200160405190810160405280939291908181526020018383808284376000920191909152509295505050903560ff1691506114b29050565b6103d5611699565b610406600480360360208110156109a157600080fd5b503561169e565b6104066116aa565b6103d5600480360360408110156109c657600080fd5b506001600160a01b038135169060200135611a02565b610406611a73565b610406611a79565b61040660048036036060811015610a0257600080fd5b506001600160a01b03813581169160208101359091169060400135611b18565b61040660048036036020811015610a3857600080fd5b50356001600160a01b0316611b89565b61040660048036036020811015610a5e57600080fd5b50356001600160a01b0316611c1e565b610406611d6b565b610646611e27565b610aa460048036036020811015610a9457600080fd5b50356001600160a01b0316611e36565b604080519485526020850193909352838301919091526060830152519081900360800190f35b61040660048036036020811015610ae057600080fd5b5035611ecb565b61040660048036036020811015610afd57600080fd5b5035611ed6565b61040660048036036040811015610b1a57600080fd5b506001600160a01b0381358116916020013516611ee1565b610406611f0c565b61040660048036036020811015610b5057600080fd5b50356001600160a01b031661200f565b610646612049565b61040660048036036060811015610b7e57600080fd5b506001600160a01b03813581169160208101359160409091013516612058565b610646612070565b610406612084565b61040660048036036020811015610bc457600080fd5b50356120e8565b60018054604080516020600284861615610100026000190190941693909304601f81018490048402820184019092528181529291830182828015610c505780601f10610c2557610100808354040283529160200191610c50565b820191906000526020600020905b815481529060010190602001808311610c3357829003601f168201915b505050505081565b336000818152600f602090815260408083206001600160a01b03871680855290835281842086905581518681529151939493909284927f8c5be1e5ebec7d5bd14f71427d1e84f3dd0314c0f7b2291e5b200ac8c7c3b925929081900390910190a360019150505b92915050565b600080610cd183612166565b509150505b919050565b60035461010090046001600160a01b03163314610d295760405162461bcd60e51b815260040180806020018281038252602d81526020018061528a602d913960400191505060405180910390fd5b565b60085481565b6000805460ff16610d76576040805162461bcd60e51b815260206004820152600a6024820152691c994b595b9d195c995960b21b604482015290519081900360640190fd5b6000805460ff19168155610d886116aa565b14610dd3576040805162461bcd60e51b81526020600482015260166024820152751858d8dc9d59481a5b9d195c995cdd0819985a5b195960521b604482015290519081900360640190fd5b610ddc8261144e565b90505b6000805460ff19166001179055919050565b600d5481565b6000806000610e0461220f565b90925090506000826003811115610e1757fe5b14610e535760405162461bcd60e51b81526004018080602001828103825260358152602001806154086035913960400191505060405180910390fd5b9150505b90565b610e688686868686866114b2565b601180546001600160a01b0319166001600160a01b038981169190911791829055604080516318160ddd60e01b8152905192909116916318160ddd91600480820192602092909190829003018186803b158015610ec457600080fd5b505afa158015610ed8573d6000803e3d6000fd5b505050506040513d6020811015610eee57600080fd5b505050505050505050565b60035461010090046001600160a01b03163314610f475760405162461bcd60e51b815260040180806020018281038252602f815260200180615317602f913960400191505060405180910390fd5b6011546001600160a01b0382811691161415610f945760405162461bcd60e51b81526004018080602001828103825260328152602001806154656032913960400191505060405180910390fd5b604080516370a0823160e01b815230600482015290516000916001600160a01b038416916370a0823191602480820192602092909190829003018186803b158015610fde57600080fd5b505afa158015610ff2573d6000803e3d6000fd5b505050506040513d602081101561100857600080fd5b50516003546040805163a9059cbb60e01b81526101009092046001600160a01b03908116600484015260248301849052905192935084169163a9059cbb9160448082019260009290919082900301818387803b15801561106757600080fd5b505af115801561107b573d6000803e3d6000fd5b505050505050565b6000805460ff166110c8576040805162461bcd60e51b815260206004820152600a6024820152691c994b595b9d195c995960b21b604482015290519081900360640190fd5b6000805460ff191681556110de338686866122be565b1490506000805460ff191660011790559392505050565b600080611102848461254a565b50949350505050565b6004546001600160a01b031681565b60035460ff1681565b600061112d61504b565b6040518060200160405280611140611d6b565b90526001600160a01b0384166000908152600e602052604081205491925090819061116c9084906125f5565b9092509050600082600381111561117f57fe5b146111d1576040805162461bcd60e51b815260206004820152601f60248201527f62616c616e636520636f756c64206e6f742062652063616c63756c6174656400604482015290519081900360640190fd5b949350505050565b60006111e3612649565b905090565b6000610cbf826126c9565b600b5481565b60035461010090046001600160a01b031633146112475760405162461bcd60e51b815260040180806020018281038252602d8152602001806154ef602d913960400191505060405180910390fd5b50565b6012546001600160a01b031681565b6000805460ff1661129e576040805162461bcd60e51b815260206004820152600a6024820152691c994b595b9d195c995960b21b604482015290519081900360640190fd5b6000805460ff191681556112b06116aa565b905080156112d6576112ce8160108111156112c757fe5b603061275d565b915050610ddf565b6112df836127c3565b9150506000805460ff19166001179055919050565b666379da05b6000081565b60095481565b6011546001600160a01b031681565b6001600160a01b03166000908152600e602052604090205490565b6000805460ff16611374576040805162461bcd60e51b815260206004820152600a6024820152691c994b595b9d195c995960b21b604482015290519081900360640190fd5b6000805460ff191681556113866116aa565b146113d1576040805162461bcd60e51b81526020600482015260166024820152751858d8dc9d59481a5b9d195c995cdd0819985a5b195960521b604482015290519081900360640190fd5b50600b546000805460ff1916600117905590565b6000610cbf826128f6565b600c5481565b6002805460408051602060018416156101000260001901909316849004601f81018490048402820184019092528181529291830182828015610c505780601f10610c2557610100808354040283529160200191610c50565b600080600061145c84612977565b9092509050600082600381111561146f57fe5b146114ab5760405162461bcd60e51b81526004018080602001828103825260378152602001806153466037913960400191505060405180910390fd5b9392505050565b60035461010090046001600160a01b031633146115005760405162461bcd60e51b81526004018080602001828103825260248152602001806151f16024913960400191505060405180910390fd5b6009541580156115105750600a54155b61154b5760405162461bcd60e51b81526004018080602001828103825260238152602001806152156023913960400191505060405180910390fd5b60078490558361158c5760405162461bcd60e51b81526004018080602001828103825260308152602001806152386030913960400191505060405180910390fd5b600061159787611c1e565b905080156115ec576040805162461bcd60e51b815260206004820152601b60248201527f73657474696e6720746563746f6e6963436f7265206661696c65640000000000604482015290519081900360640190fd5b6115f4612a2b565b600955670de0b6b3a7640000600a5561160c86612a2f565b9050801561164b5760405162461bcd60e51b81526004018080602001828103825260228152602001806152686022913960400191505060405180910390fd5b835161165e90600190602087019061505e565b50825161167290600290602086019061505e565b50506003805460ff90921660ff199283161790556000805490911660011790555050505050565b600181565b600080610cd183612ba4565b6000806116b5612a2b565b600954909150808214156116ce57600092505050610e57565b60006116d8612649565b600b54600c54600a54600654604080516315f2405360e01b815260048101879052602481018690526044810185905290519596509394929391926000926001600160a01b03909216916315f24053916064808301926020929190829003018186803b15801561174657600080fd5b505afa15801561175a573d6000803e3d6000fd5b505050506040513d602081101561177057600080fd5b5051905065048c273950008111156117cf576040805162461bcd60e51b815260206004820152601c60248201527f626f72726f772072617465206973206162737572646c79206869676800000000604482015290519081900360640190fd5b6000806117dc8989612c25565b909250905060008260038111156117ef57fe5b14611841576040805162461bcd60e51b815260206004820152601f60248201527f636f756c64206e6f742063616c63756c61746520626c6f636b2064656c746100604482015290519081900360640190fd5b61184961504b565b60008060008061186760405180602001604052808a81525087612c48565b9097509450600087600381111561187a57fe5b146118ac576118976009600689600381111561189257fe5b612cb0565b9e505050505050505050505050505050610e57565b6118b6858c6125f5565b909750935060008760038111156118c957fe5b146118e1576118976009600189600381111561189257fe5b6118eb848c612d16565b909750925060008760038111156118fe57fe5b14611916576118976009600489600381111561189257fe5b6119316040518060200160405280600854815250858c612d3c565b9097509150600087600381111561194457fe5b1461195c576118976009600589600381111561189257fe5b611967858a8b612d3c565b9097509050600087600381111561197a57fe5b14611992576118976009600389600381111561189257fe5b60098e9055600a819055600b839055600c829055604080518d8152602081018690528082018390526060810185905290517f4dec04e750ca11537cabcd8a9eab06494de08da3735bc8871cd41250e190bc049181900360800190a160009e50505050505050505050505050505090565b6000805460ff16611a47576040805162461bcd60e51b815260206004820152600a6024820152691c994b595b9d195c995960b21b604482015290519081900360640190fd5b6000805460ff19168155611a5d333386866122be565b1490506000805460ff1916600117905592915050565b600a5481565b6006546000906001600160a01b031663b8168816611a95612649565b600b54600c546008546040518563ffffffff1660e01b81526004018085815260200184815260200183815260200182815260200194505050505060206040518083038186803b158015611ae757600080fd5b505afa158015611afb573d6000803e3d6000fd5b505050506040513d6020811015611b1157600080fd5b5051905090565b6000805460ff16611b5d576040805162461bcd60e51b815260206004820152600a6024820152691c994b595b9d195c995960b21b604482015290519081900360640190fd5b6000805460ff19169055611b7333858585612d98565b90506000805460ff191660011790559392505050565b60035460009061010090046001600160a01b03163314611bb657611baf6001604561275d565b9050610cd6565b600480546001600160a01b038481166001600160a01b0319831681179093556040805191909216808252602082019390935281517fca4f2f25d0898edd99413412fb94012f9e54ec8142f9b093e7720646a95b16a9929181900390910190a160009392505050565b60035460009061010090046001600160a01b03163314611c4457611baf6001603f61275d565b6005546040805163a6df963f60e01b815290516001600160a01b039283169285169163a6df963f916004808301926020929190829003018186803b158015611c8b57600080fd5b505afa158015611c9f573d6000803e3d6000fd5b505050506040513d6020811015611cb557600080fd5b5051611d08576040805162461bcd60e51b815260206004820152601c60248201527f6d61726b6572206d6574686f642072657475726e65642066616c736500000000604482015290519081900360640190fd5b600580546001600160a01b0319166001600160a01b03858116918217909255604080519284168352602083019190915280517f85513d662157b8df3369b7deaa0a6afaff4e5de063a40b4bd2d130cb1c49382d9281900390910190a160006114ab565b6000805460ff16611db0576040805162461bcd60e51b815260206004820152600a6024820152691c994b595b9d195c995960b21b604482015290519081900360640190fd5b6000805460ff19168155611dc26116aa565b14611e0d576040805162461bcd60e51b81526020600482015260166024820152751858d8dc9d59481a5b9d195c995cdd0819985a5b195960521b604482015290519081900360640190fd5b611e15610df7565b90506000805460ff1916600117905590565b6005546001600160a01b031681565b6001600160a01b0381166000908152600e6020526040812054819081908190818080611e6189612977565b935090506000816003811115611e7357fe5b14611e915760095b975060009650869550859450611ec49350505050565b611e9961220f565b925090506000816003811115611eab57fe5b14611eb7576009611e7b565b5060009650919450925090505b9193509193565b6000610cbf82613172565b6000610cbf826131f1565b6001600160a01b039182166000908152600f6020908152604080832093909416825291909152205490565b6004546000906001600160a01b031633141580611f27575033155b15611f3f57611f386001600061275d565b9050610e57565b60038054600480546001600160a01b03818116610100818102610100600160a81b0319871617968790556001600160a01b031990931690935560408051948390048216808652929095041660208401528351909391927ff9ffabca9c8276e99321725bcb43fb076a6c66a54b7f21c4e8146d8519b417dc92908290030190a1600454604080516001600160a01b038085168252909216602083015280517fca4f2f25d0898edd99413412fb94012f9e54ec8142f9b093e7720646a95b16a99281900390910190a160009250505090565b60008061201a6116aa565b905080156120405761203881601081111561203157fe5b604061275d565b915050610cd6565b6114ab83612a2f565b6006546001600160a01b031681565b60008061206685858561326b565b5095945050505050565b60035461010090046001600160a01b031681565b6006546000906001600160a01b03166315f240536120a0612649565b600b54600c546040518463ffffffff1660e01b815260040180848152602001838152602001828152602001935050505060206040518083038186803b158015611ae757600080fd5b6000805460ff1661212d576040805162461bcd60e51b815260206004820152600a6024820152691c994b595b9d195c995960b21b604482015290519081900360640190fd5b6000805460ff1916815561213f6116aa565b9050801561215d576112ce81601081111561215657fe5b604661275d565b6112df8361339d565b60008054819060ff166121ad576040805162461bcd60e51b815260206004820152600a6024820152691c994b595b9d195c995960b21b604482015290519081900360640190fd5b6000805460ff191681556121bf6116aa565b905080156121ea576121dd8160108111156121d657fe5b603661275d565b9250600091506121fb9050565b6121f5333386613445565b92509250505b6000805460ff191660011790559092909150565b600d5460009081908061222a575050600754600091506122ba565b6000612234612649565b9050600061224061504b565b600061225184600b54600c54613793565b93509050600081600381111561226357fe5b14612278579550600094506122ba9350505050565b61228283866137d1565b92509050600081600381111561229457fe5b146122a9579550600094506122ba9350505050565b50516000955093506122ba92505050565b9091565b600554604080516317b9b84b60e31b81523060048201526001600160a01b03868116602483015285811660448301526064820185905291516000938493169163bdcdc25891608480830192602092919082900301818787803b15801561232357600080fd5b505af1158015612337573d6000803e3d6000fd5b505050506040513d602081101561234d57600080fd5b50519050801561236c576123646003604a83612cb0565b9150506111d1565b836001600160a01b0316856001600160a01b03161415612392576123646002604b61275d565b60006001600160a01b0387811690871614156123b157506000196123d9565b506001600160a01b038086166000908152600f60209081526040808320938a16835292905220545b6000806000806123e98589612c25565b909450925060008460038111156123fc57fe5b1461241a5761240d6009604b61275d565b96505050505050506111d1565b6001600160a01b038a166000908152600e602052604090205461243d9089612c25565b9094509150600084600381111561245057fe5b146124615761240d6009604c61275d565b6001600160a01b0389166000908152600e60205260409020546124849089612d16565b9094509050600084600381111561249757fe5b146124a85761240d6009604d61275d565b6001600160a01b03808b166000908152600e6020526040808220859055918b168152208190556000198514612500576001600160a01b03808b166000908152600f60209081526040808320938f168352929052208390555b886001600160a01b03168a6001600160a01b03166000805160206153b78339815191528a6040518082815260200191505060405180910390a35060009a9950505050505050505050565b60008054819060ff16612591576040805162461bcd60e51b815260206004820152600a6024820152691c994b595b9d195c995960b21b604482015290519081900360640190fd5b6000805460ff191681556125a36116aa565b905080156125ce576125c18160108111156125ba57fe5b603561275d565b9250600091506125df9050565b6125d9338686613445565b92509250505b6000805460ff1916600117905590939092509050565b600080600061260261504b565b61260c8686612c48565b9092509050600082600381111561261f57fe5b146126305750915060009050612642565b600061263b82613881565b9350935050505b9250929050565b601154604080516370a0823160e01b815230600482015290516000926001600160a01b03169182916370a0823191602480820192602092909190829003018186803b15801561269757600080fd5b505afa1580156126ab573d6000803e3d6000fd5b505050506040513d60208110156126c157600080fd5b505191505090565b6000805460ff1661270e576040805162461bcd60e51b815260206004820152600a6024820152691c994b595b9d195c995960b21b604482015290519081900360640190fd5b6000805460ff191681556127206116aa565b9050801561273e576112ce81601081111561273757fe5b604e61275d565b61274783613890565b509150506000805460ff19166001179055919050565b60007f45b96fe442630264581b197e84bbada861235052c5a1aadfff9ea4e40a969aa083601081111561278c57fe5b83605081111561279857fe5b604080519283526020830191909152600082820152519081900360600190a18260108111156114ab57fe5b600354600090819061010090046001600160a01b031633146127eb576120386001603161275d565b6127f3612a2b565b6009541461280757612038600a603361275d565b82612810612649565b101561282257612038600e603261275d565b600c54831115612838576120386002603461275d565b50600c548281039081111561287e5760405162461bcd60e51b81526004018080602001828103825260248152602001806154cb6024913960400191505060405180910390fd5b600c81905560035461289e9061010090046001600160a01b031684613978565b600354604080516101009092046001600160a01b0316825260208201859052818101839052517f3bad0c59cf2f06e7314077049f48a93578cd16f5ef92329f1dab1420a99c177e916060908290030190a160006114ab565b6000805460ff1661293b576040805162461bcd60e51b815260206004820152600a6024820152691c994b595b9d195c995960b21b604482015290519081900360640190fd5b6000805460ff1916815561294d6116aa565b9050801561296b576112ce81601081111561296457fe5b602761275d565b6112df33600085613a73565b6001600160a01b0381166000908152601060205260408120805482918291829182916129ae575060009450849350612a2692505050565b6129be8160000154600a54613f3a565b909450925060008460038111156129d157fe5b146129e6575091935060009250612a26915050565b6129f4838260010154613f79565b90945091506000846003811115612a0757fe5b14612a1c575091935060009250612a26915050565b5060009450925050505b915091565b4390565b600354600090819061010090046001600160a01b03163314612a57576120386001604261275d565b612a5f612a2b565b60095414612a7357612038600a604161275d565b600660009054906101000a90046001600160a01b03169050826001600160a01b0316632191f92a6040518163ffffffff1660e01b815260040160206040518083038186803b158015612ac457600080fd5b505afa158015612ad8573d6000803e3d6000fd5b505050506040513d6020811015612aee57600080fd5b5051612b41576040805162461bcd60e51b815260206004820152601c60248201527f6d61726b6572206d6574686f642072657475726e65642066616c736500000000604482015290519081900360640190fd5b600680546001600160a01b0319166001600160a01b03858116918217909255604080519284168352602083019190915280517fedffc32e068c7c95dfd4bdfd5c4d939a084d6b11c4199eac8436ed234d72f9269281900390910190a160006114ab565b60008054819060ff16612beb576040805162461bcd60e51b815260206004820152600a6024820152691c994b595b9d195c995960b21b604482015290519081900360640190fd5b6000805460ff19168155612bfd6116aa565b90508015612c1b576121dd816010811115612c1457fe5b601e61275d565b6121f53385613fa4565b600080838311612c3c575060009050818303612642565b50600390506000612642565b6000612c5261504b565b600080612c63866000015186613f3a565b90925090506000826003811115612c7657fe5b14612c9557506040805160208101909152600081529092509050612642565b60408051602081019091529081526000969095509350505050565b60007f45b96fe442630264581b197e84bbada861235052c5a1aadfff9ea4e40a969aa0846010811115612cdf57fe5b846050811115612ceb57fe5b604080519283526020830191909152818101859052519081900360600190a18360108111156111d157fe5b600080838301848110612d2e57600092509050612642565b506002915060009050612642565b6000806000612d4961504b565b612d538787612c48565b90925090506000826003811115612d6657fe5b14612d775750915060009050612d90565b612d89612d8382613881565b86612d16565b9350935050505b935093915050565b6005546040805163d02f735160e01b81523060048201526001600160a01b038781166024830152868116604483015285811660648301526084820185905291516000938493169163d02f73519160a480830192602092919082900301818787803b158015612e0557600080fd5b505af1158015612e19573d6000803e3d6000fd5b505050506040513d6020811015612e2f57600080fd5b505190508015612e46576123646003601b83612cb0565b846001600160a01b0316846001600160a01b03161415612e6c576123646006601c61275d565b612e746150dc565b6001600160a01b0385166000908152600e6020526040902054612e979085612c25565b6020830181905282826003811115612eab57fe5b6003811115612eb657fe5b9052506000905081516003811115612eca57fe5b14612eef57612ee66009601a8360000151600381111561189257fe5b925050506111d1565b612f0e846040518060200160405280666379da05b60000815250614374565b60808201819052612f2090859061439c565b6060820152612f2d61220f565b60c0830181905282826003811115612f4157fe5b6003811115612f4c57fe5b9052506000905081516003811115612f6057fe5b14612fb2576040805162461bcd60e51b815260206004820152601860248201527f65786368616e67652072617465206d617468206572726f720000000000000000604482015290519081900360640190fd5b612fd260405180602001604052808360c0015181525082608001516143d6565b60a08201819052600c54612fe5916143f5565b60e0820152600d546080820151612ffc919061439c565b6101008201526001600160a01b0386166000908152600e6020526040902054606082015161302a9190612d16565b604083018190528282600381111561303e57fe5b600381111561304957fe5b905250600090508151600381111561305d57fe5b1461307957612ee6600960198360000151600381111561189257fe5b60e0810151600c55610100810151600d556020808201516001600160a01b038088166000818152600e855260408082209490945583860151928b168082529084902092909255606085015183519081529251919390926000805160206153b7833981519152929081900390910190a36080810151604080519182525130916001600160a01b038816916000805160206153b78339815191529181900360200190a360a081015160e082015160408051308152602081019390935282810191909152517fa91e67c5ea634cd43a12c5a482724b03de01e85ca68702a53d0c2f45cb7c1dc59181900360600190a16000979650505050505050565b6000805460ff166131b7576040805162461bcd60e51b815260206004820152600a6024820152691c994b595b9d195c995960b21b604482015290519081900360640190fd5b6000805460ff191681556131c96116aa565b905080156131e7576112ce8160108111156131e057fe5b600861275d565b6112df338461442b565b6000805460ff16613236576040805162461bcd60e51b815260206004820152600a6024820152691c994b595b9d195c995960b21b604482015290519081900360640190fd5b6000805460ff191681556132486116aa565b9050801561325f576112ce81601081111561296457fe5b6112df33846000613a73565b60008054819060ff166132b2576040805162461bcd60e51b815260206004820152600a6024820152691c994b595b9d195c995960b21b604482015290519081900360640190fd5b6000805460ff191681556132c46116aa565b905080156132ef576132e28160108111156132db57fe5b600f61275d565b9250600091506133869050565b836001600160a01b031663a6afed956040518163ffffffff1660e01b8152600401602060405180830381600087803b15801561332a57600080fd5b505af115801561333e573d6000803e3d6000fd5b505050506040513d602081101561335457600080fd5b505190508015613374576132e281601081111561336d57fe5b601061275d565b613380338787876146c7565b92509250505b6000805460ff191660011790559094909350915050565b60035460009061010090046001600160a01b031633146133c357611baf6001604761275d565b6133cb612a2b565b600954146133df57611baf600a604861275d565b670de0b6b3a76400008211156133fb57611baf6002604961275d565b6008805490839055604080518281526020810185905281517faaa68312e2ea9d50e16af5068410ab56e1a1fd06037b1a35664812c30f821460929181900390910190a160006114ab565b60055460408051631200453160e11b81523060048201526001600160a01b0386811660248301528581166044830152606482018590529151600093849384939116916324008a629160848082019260209290919082900301818787803b1580156134ae57600080fd5b505af11580156134c2573d6000803e3d6000fd5b505050506040513d60208110156134d857600080fd5b5051905080156134fc576134ef6003603883612cb0565b925060009150612d909050565b613504612a2b565b60095414613518576134ef600a603961275d565b613520615129565b6001600160a01b038616600090815260106020526040902060010154606082015261354a86612977565b608083018190526020830182600381111561356157fe5b600381111561356c57fe5b905250600090508160200151600381111561358357fe5b146135ad5761359f600960378360200151600381111561189257fe5b935060009250612d90915050565b6000198514156135c657608081015160408201526135ce565b604081018590525b6135dc878260400151614bb9565b60e0820181905260808201516135f191612c25565b60a083018190526020830182600381111561360857fe5b600381111561361357fe5b905250600090508160200151600381111561362a57fe5b146136665760405162461bcd60e51b815260040180806020018281038252603a81526020018061537d603a913960400191505060405180910390fd5b613676600b548260e00151612c25565b60c083018190526020830182600381111561368d57fe5b600381111561369857fe5b90525060009050816020015160038111156136af57fe5b146136eb5760405162461bcd60e51b81526004018080602001828103825260318152602001806153d76031913960400191505060405180910390fd5b60a080820180516001600160a01b03808a16600081815260106020908152604091829020948555600a5460019095019490945560c0870151600b81905560e088015195518251948f16855294840192909252828101949094526060820192909252608081019190915290517f1a2a22cb034d26d1854bdc6666a5b91fe25efbbb5dcad3b0355478d6f5c362a1929181900390910190a160e00151600097909650945050505050565b6000806000806137a38787612d16565b909250905060008260038111156137b657fe5b146137c75750915060009050612d90565b612d898186612c25565b60006137db61504b565b6000806137f086670de0b6b3a7640000613f3a565b9092509050600082600381111561380357fe5b1461382257506040805160208101909152600081529092509050612642565b60008061382f8388613f79565b9092509050600082600381111561384257fe5b1461386457506040805160208101909152600081529094509250612642915050565b604080516020810190915290815260009890975095505050505050565b51670de0b6b3a7640000900490565b60008060008061389e612a2b565b600954146138bd576138b2600a604f61275d565b93509150612a269050565b6138c73386614bb9565b905080600c54019150600c54821015613927576040805162461bcd60e51b815260206004820181905260248201527f61646420726573657276657320756e6578706563746564206f766572666c6f77604482015290519081900360640190fd5b600c829055604080513381526020810183905280820184905290517fa91e67c5ea634cd43a12c5a482724b03de01e85ca68702a53d0c2f45cb7c1dc59181900360600190a160009350915050915091565b6011546040805163a9059cbb60e01b81526001600160a01b0385811660048301526024820185905291519190921691829163a9059cbb9160448082019260009290919082900301818387803b1580156139d057600080fd5b505af11580156139e4573d6000803e3d6000fd5b5050505060003d60008114613a045760208114613a0e5760009150613a1a565b6000199150613a1a565b60206000803e60005191505b5080613a6d576040805162461bcd60e51b815260206004820152601960248201527f544f4b454e5f5452414e534645525f4f55545f4641494c454400000000000000604482015290519081900360640190fd5b50505050565b6000821580613a80575081155b613abb5760405162461bcd60e51b81526004018080602001828103825260348152602001806154976034913960400191505060405180910390fd5b613ac361516f565b613acb61220f565b6040830181905260208301826003811115613ae257fe5b6003811115613aed57fe5b9052506000905081602001516003811115613b0457fe5b14613b2857613b206009602b8360200151600381111561189257fe5b9150506114ab565b8315613ba9576060810184905260408051602081018252908201518152613b4f90856125f5565b6080830181905260208301826003811115613b6657fe5b6003811115613b7157fe5b9052506000905081602001516003811115613b8857fe5b14613ba457613b20600960298360200151600381111561189257fe5b613c22565b613bc58360405180602001604052808460400151815250614e07565b6060830181905260208301826003811115613bdc57fe5b6003811115613be757fe5b9052506000905081602001516003811115613bfe57fe5b14613c1a57613b206009602a8360200151600381111561189257fe5b608081018390525b60055460608201516040805163eabe7d9160e01b81523060048201526001600160a01b03898116602483015260448201939093529051600093929092169163eabe7d919160648082019260209290919082900301818787803b158015613c8757600080fd5b505af1158015613c9b573d6000803e3d6000fd5b505050506040513d6020811015613cb157600080fd5b505190508015613cd157613cc86003602883612cb0565b925050506114ab565b613cd9612a2b565b60095414613ced57613cc8600a602c61275d565b613cfd600d548360600151612c25565b60a0840181905260208401826003811115613d1457fe5b6003811115613d1f57fe5b9052506000905082602001516003811115613d3657fe5b14613d5257613cc86009602e8460200151600381111561189257fe5b6001600160a01b0386166000908152600e60205260409020546060830151613d7a9190612c25565b60c0840181905260208401826003811115613d9157fe5b6003811115613d9c57fe5b9052506000905082602001516003811115613db357fe5b14613dcf57613cc86009602d8460200151600381111561189257fe5b8160800151613ddc612649565b1015613dee57613cc8600e602f61275d565b613dfc868360800151613978565b60a0820151600d5560c08201516001600160a01b0387166000818152600e60209081526040918290209390935560608501518151908152905130936000805160206153b7833981519152928290030190a36080820151606080840151604080516001600160a01b038b168152602081019490945283810191909152517fe5b754fb1abb7f01b499791d0b820ae3b6af3424ac1c59768edb53f4ec31a9299281900390910190a160055460808301516060840151604080516351dff98960e01b81523060048201526001600160a01b038b81166024830152604482019490945260648101929092525191909216916351dff98991608480830192600092919082900301818387803b158015613f0f57600080fd5b505af1158015613f23573d6000803e3d6000fd5b5060009250613f30915050565b9695505050505050565b60008083613f4d57506000905080612642565b83830283858281613f5a57fe5b0414613f6e57506002915060009050612642565b600092509050612642565b60008082613f8d5750600190506000612642565b6000838581613f9857fe5b04915091509250929050565b60055460408051634ef4c3e160e01b81523060048201526001600160a01b03858116602483015260448201859052915160009384938493911691634ef4c3e19160648082019260209290919082900301818787803b15801561400557600080fd5b505af1158015614019573d6000803e3d6000fd5b505050506040513d602081101561402f57600080fd5b505190508015614053576140466003601f83612cb0565b9250600091506126429050565b61405b612a2b565b6009541461406f57614046600a602261275d565b61407761516f565b61407f61220f565b604083018190526020830182600381111561409657fe5b60038111156140a157fe5b90525060009050816020015160038111156140b857fe5b146140e2576140d4600960218360200151600381111561189257fe5b935060009250612642915050565b6140ec8686614bb9565b60c082018190526040805160208101825290830151815261410d9190614e07565b606083018190526020830182600381111561412457fe5b600381111561412f57fe5b905250600090508160200151600381111561414657fe5b14614198576040805162461bcd60e51b815260206004820181905260248201527f4d494e545f45584348414e47455f43414c43554c4154494f4e5f4641494c4544604482015290519081900360640190fd5b6141a8600d548260600151612d16565b60808301819052602083018260038111156141bf57fe5b60038111156141ca57fe5b90525060009050816020015160038111156141e157fe5b1461421d5760405162461bcd60e51b815260040180806020018281038252602881526020018061543d6028913960400191505060405180910390fd5b6001600160a01b0386166000908152600e602052604090205460608201516142459190612d16565b60a083018190526020830182600381111561425c57fe5b600381111561426757fe5b905250600090508160200151600381111561427e57fe5b146142ba5760405162461bcd60e51b815260040180806020018281038252602b8152602001806152ec602b913960400191505060405180910390fd5b6080810151600d5560a08101516001600160a01b0387166000818152600e60209081526040918290209390935560c084015160608086015183519485529484019190915282820193909352517f4c209b5fc8ad50758f13e2e1088ba56a560dff690a1c6fef26394f4c03821c4f929181900390910190a1606081015160408051918252516001600160a01b0388169130916000805160206153b78339815191529181900360200190a360c001516000969095509350505050565b6000670de0b6b3a764000061438d848460000151614e1e565b8161439457fe5b049392505050565b60006114ab8383604051806040016040528060158152602001747375627472616374696f6e20756e646572666c6f7760581b815250614e60565b60006143e061504b565b6143ea8484614ef7565b90506111d181613881565b60006114ab8383604051806040016040528060118152602001706164646974696f6e206f766572666c6f7760781b815250614f21565b6005546040805163368f515360e21b81523060048201526001600160a01b0385811660248301526044820185905291516000938493169163da3d454c91606480830192602092919082900301818787803b15801561448857600080fd5b505af115801561449c573d6000803e3d6000fd5b505050506040513d60208110156144b257600080fd5b5051905080156144d1576144c96003600e83612cb0565b915050610cbf565b6144d9612a2b565b600954146144ec576144c9600a8061275d565b826144f5612649565b1015614507576144c9600e600961275d565b61450f6151ad565b61451885612977565b602083018190528282600381111561452c57fe5b600381111561453757fe5b905250600090508151600381111561454b57fe5b1461457057614567600960078360000151600381111561189257fe5b92505050610cbf565b61457e816020015185612d16565b604083018190528282600381111561459257fe5b600381111561459d57fe5b90525060009050815160038111156145b157fe5b146145cd576145676009600c8360000151600381111561189257fe5b6145d9600b5485612d16565b60608301819052828260038111156145ed57fe5b60038111156145f857fe5b905250600090508151600381111561460c57fe5b14614628576145676009600b8360000151600381111561189257fe5b6040808201516001600160a01b0387166000908152601060205291909120908155600a546001909101556060810151600b556146648585613978565b60408082015160608084015183516001600160a01b038a16815260208101899052808501939093529082015290517f13ed6866d4e1ee6da46f845c46d7e54120883d75c5ea9a2dacc1c4ca8984ab809181900360800190a1600095945050505050565b60055460408051632fe3f38f60e11b81523060048201526001600160a01b0384811660248301528781166044830152868116606483015260848201869052915160009384938493911691635fc7e71e9160a48082019260209290919082900301818787803b15801561473857600080fd5b505af115801561474c573d6000803e3d6000fd5b505050506040513d602081101561476257600080fd5b505190508015614786576147796003601283612cb0565b925060009150614bb09050565b61478e612a2b565b600954146147a257614779600a601661275d565b6147aa612a2b565b846001600160a01b0316636c540baf6040518163ffffffff1660e01b815260040160206040518083038186803b1580156147e357600080fd5b505afa1580156147f7573d6000803e3d6000fd5b505050506040513d602081101561480d57600080fd5b50511461482057614779600a601161275d565b866001600160a01b0316866001600160a01b03161415614846576147796006601761275d565b84614857576147796007601561275d565b60001985141561486d576147796007601461275d565b60008061487b898989613445565b909250905081156148ab5761489c82601081111561489557fe5b601861275d565b945060009350614bb092505050565b6005546040805163c488847b60e01b81523060048201526001600160a01b038981166024830152604482018590528251600094859492169263c488847b926064808301939192829003018186803b15801561490557600080fd5b505afa158015614919573d6000803e3d6000fd5b505050506040513d604081101561492f57600080fd5b5080516020909101519092509050811561497a5760405162461bcd60e51b81526004018080602001828103825260358152602001806152b76035913960400191505060405180910390fd5b80886001600160a01b03166370a082318c6040518263ffffffff1660e01b815260040180826001600160a01b03166001600160a01b0316815260200191505060206040518083038186803b1580156149d157600080fd5b505afa1580156149e5573d6000803e3d6000fd5b505050506040513d60208110156149fb57600080fd5b50511015614a50576040805162461bcd60e51b815260206004820152601860248201527f4c49515549444154455f5345495a455f544f4f5f4d5543480000000000000000604482015290519081900360640190fd5b60006001600160a01b038916301415614a7657614a6f308d8d85612d98565b9050614b00565b6040805163b2a02ff160e01b81526001600160a01b038e811660048301528d81166024830152604482018590529151918b169163b2a02ff1916064808201926020929091908290030181600087803b158015614ad157600080fd5b505af1158015614ae5573d6000803e3d6000fd5b505050506040513d6020811015614afb57600080fd5b505190505b8015614b4a576040805162461bcd60e51b81526020600482015260146024820152731d1bdad95b881cd95a5e9d5c994819985a5b195960621b604482015290519081900360640190fd5b604080516001600160a01b03808f168252808e1660208301528183018790528b1660608201526080810184905290517f298637f684da70674f26509b10f07ec2fbc77a335ab1e7d6215a4b2484d8bb529181900360a00190a16000975092955050505050505b94509492505050565b601154604080516370a0823160e01b815230600482015290516000926001600160a01b031691839183916370a08231916024808301926020929190829003018186803b158015614c0857600080fd5b505afa158015614c1c573d6000803e3d6000fd5b505050506040513d6020811015614c3257600080fd5b5051604080516323b872dd60e01b81526001600160a01b038881166004830152306024830152604482018890529151929350908416916323b872dd9160648082019260009290919082900301818387803b158015614c8f57600080fd5b505af1158015614ca3573d6000803e3d6000fd5b5050505060003d60008114614cc35760208114614ccd5760009150614cd9565b6000199150614cd9565b60206000803e60005191505b5080614d2c576040805162461bcd60e51b815260206004820152601860248201527f544f4b454e5f5452414e534645525f494e5f4641494c45440000000000000000604482015290519081900360640190fd5b601154604080516370a0823160e01b815230600482015290516000926001600160a01b0316916370a08231916024808301926020929190829003018186803b158015614d7757600080fd5b505afa158015614d8b573d6000803e3d6000fd5b505050506040513d6020811015614da157600080fd5b5051905082811015614dfa576040805162461bcd60e51b815260206004820152601a60248201527f544f4b454e5f5452414e534645525f494e5f4f564552464c4f57000000000000604482015290519081900360640190fd5b9190910395945050505050565b6000806000614e1461504b565b61260c8686614f76565b60006114ab83836040518060400160405280601781526020017f6d756c7469706c69636174696f6e206f766572666c6f77000000000000000000815250614fd5565b60008184841115614eef5760405162461bcd60e51b81526004018080602001828103825283818151815260200191508051906020019080838360005b83811015614eb4578181015183820152602001614e9c565b50505050905090810190601f168015614ee15780820380516001836020036101000a031916815260200191505b509250505060405180910390fd5b505050900390565b614eff61504b565b6040518060200160405280614f18856000015185614e1e565b90529392505050565b600083830182858210156111025760405162461bcd60e51b8152602060048201818152835160248401528351909283926044909101919085019080838360008315614eb4578181015183820152602001614e9c565b6000614f8061504b565b600080614f95670de0b6b3a764000087613f3a565b90925090506000826003811115614fa857fe5b14614fc757506040805160208101909152600081529092509050612642565b61263b8186600001516137d1565b6000831580614fe2575082155b15614fef575060006114ab565b83830283858281614ffc57fe5b041483906111025760405162461bcd60e51b8152602060048201818152835160248401528351909283926044909101919085019080838360008315614eb4578181015183820152602001614e9c565b6040518060200160405280600081525090565b828054600181600116156101000203166002900490600052602060002090601f016020900481019282601f1061509f57805160ff19168380011785556150cc565b828001600101855582156150cc579182015b828111156150cc5782518255916020019190600101906150b1565b506150d89291506151d6565b5090565b604080516101208101909152806000815260200160008152602001600081526020016000815260200160008152602001600081526020016000815260200160008152602001600081525090565b6040805161010081019091528060008152602001600081526020016000815260200160008152602001600081526020016000815260200160008152602001600081525090565b6040805160e0810190915280600081526020016000815260200160008152602001600081526020016000815260200160008152602001600081525090565b604080516080810190915280600081526020016000815260200160008152602001600081525090565b610e5791905b808211156150d857600081556001016151dc56fe6f6e6c792061646d696e206d617920696e697469616c697a6520746865206d61726b65746d61726b6574206d6179206f6e6c7920626520696e697469616c697a6564206f6e6365696e697469616c2065786368616e67652072617465206d7573742062652067726561746572207468616e207a65726f2e73657474696e6720696e7465726573742072617465206d6f64656c206661696c65646f6e6c79207468652061646d696e206d61792063616c6c205f72657369676e496d706c656d656e746174696f6e4c49515549444154455f544543544f4e49435f434f52455f43414c43554c4154455f414d4f554e545f5345495a455f4641494c45444d494e545f4e45575f4143434f554e545f42414c414e43455f43414c43554c4154494f4e5f4641494c45445445726332303a3a7377656570546f6b656e3a206f6e6c792061646d696e2063616e20737765657020746f6b656e73626f72726f7742616c616e636553746f7265643a20626f72726f7742616c616e636553746f726564496e7465726e616c206661696c656452455041595f424f52524f575f4e45575f4143434f554e545f424f52524f575f42414c414e43455f43414c43554c4154494f4e5f4641494c4544ddf252ad1be2c89b69c2b068fc378daa952ba7f163c4a11628f55a4df523b3ef52455041595f424f52524f575f4e45575f544f54414c5f42414c414e43455f43414c43554c4154494f4e5f4641494c454465786368616e67655261746553746f7265643a2065786368616e67655261746553746f726564496e7465726e616c206661696c65644d494e545f4e45575f544f54414c5f535550504c595f43414c43554c4154494f4e5f4641494c45445445726332303a3a7377656570546f6b656e3a2063616e206e6f7420737765657020756e6465726c79696e6720746f6b656e6f6e65206f662072656465656d546f6b656e73496e206f722072656465656d416d6f756e74496e206d757374206265207a65726f72656475636520726573657276657320756e657870656374656420756e646572666c6f776f6e6c79207468652061646d696e206d61792063616c6c205f6265636f6d65496d706c656d656e746174696f6ea265627a7a723158204e6a11ab8dfcdc0affc19346c01fc8d3a87f9d12672100d7d338fd6e8b5720e264736f6c63430005100032","opcodes":"PUSH1 0x80 PUSH1 0x40 MSTORE CALLVALUE DUP1 ISZERO PUSH2 0x10 JUMPI PUSH1 0x0 DUP1 REVERT JUMPDEST POP PUSH2 0x5550 DUP1 PUSH2 0x20 PUSH1 0x0 CODECOPY PUSH1 0x0 RETURN INVALID PUSH1 0x80 PUSH1 0x40 MSTORE CALLVALUE DUP1 ISZERO PUSH2 0x10 JUMPI PUSH1 0x0 DUP1 REVERT JUMPDEST POP PUSH1 0x4 CALLDATASIZE LT PUSH2 0x327 JUMPI PUSH1 0x0 CALLDATALOAD PUSH1 0xE0 SHR DUP1 PUSH4 0x852A12E3 GT PUSH2 0x1B8 JUMPI DUP1 PUSH4 0xB79B3C8A GT PUSH2 0x104 JUMPI DUP1 PUSH4 0xE9C714F2 GT PUSH2 0xA2 JUMPI DUP1 PUSH4 0xF5E3C462 GT PUSH2 0x7C JUMPI DUP1 PUSH4 0xF5E3C462 EQ PUSH2 0xB68 JUMPI DUP1 PUSH4 0xF851A440 EQ PUSH2 0xB9E JUMPI DUP1 PUSH4 0xF8F9DA28 EQ PUSH2 0xBA6 JUMPI DUP1 PUSH4 0xFCA7820B EQ PUSH2 0xBAE JUMPI PUSH2 0x327 JUMP JUMPDEST DUP1 PUSH4 0xE9C714F2 EQ PUSH2 0xB32 JUMPI DUP1 PUSH4 0xF2B3ABBD EQ PUSH2 0xB3A JUMPI DUP1 PUSH4 0xF3FDB15A EQ PUSH2 0xB60 JUMPI PUSH2 0x327 JUMP JUMPDEST DUP1 PUSH4 0xC37F68E2 GT PUSH2 0xDE JUMPI DUP1 PUSH4 0xC37F68E2 EQ PUSH2 0xA7E JUMPI DUP1 PUSH4 0xC5EBEAEC EQ PUSH2 0xACA JUMPI DUP1 PUSH4 0xDB006A75 EQ PUSH2 0xAE7 JUMPI DUP1 PUSH4 0xDD62ED3E EQ PUSH2 0xB04 JUMPI PUSH2 0x327 JUMP JUMPDEST DUP1 PUSH4 0xB79B3C8A EQ PUSH2 0xA48 JUMPI DUP1 PUSH4 0xBD6D894D EQ PUSH2 0xA6E JUMPI DUP1 PUSH4 0xC16A61EC EQ PUSH2 0xA76 JUMPI PUSH2 0x327 JUMP JUMPDEST DUP1 PUSH4 0xA0712D68 GT PUSH2 0x171 JUMPI DUP1 PUSH4 0xAA5AF0FD GT PUSH2 0x14B JUMPI DUP1 PUSH4 0xAA5AF0FD EQ PUSH2 0x9DC JUMPI DUP1 PUSH4 0xAE9D70B0 EQ PUSH2 0x9E4 JUMPI DUP1 PUSH4 0xB2A02FF1 EQ PUSH2 0x9EC JUMPI DUP1 PUSH4 0xB71D1A0C EQ PUSH2 0xA22 JUMPI PUSH2 0x327 JUMP JUMPDEST DUP1 PUSH4 0xA0712D68 EQ PUSH2 0x98B JUMPI DUP1 PUSH4 0xA6AFED95 EQ PUSH2 0x9A8 JUMPI DUP1 PUSH4 0xA9059CBB EQ PUSH2 0x9B0 JUMPI PUSH2 0x327 JUMP JUMPDEST DUP1 PUSH4 0x852A12E3 EQ PUSH2 0x7E2 JUMPI DUP1 PUSH4 0x8F840DDD EQ PUSH2 0x7FF JUMPI DUP1 PUSH4 0x95D89B41 EQ PUSH2 0x807 JUMPI DUP1 PUSH4 0x95DD9193 EQ PUSH2 0x80F JUMPI DUP1 PUSH4 0x99D8C1B4 EQ PUSH2 0x835 JUMPI DUP1 PUSH4 0xA0097B58 EQ PUSH2 0x983 JUMPI PUSH2 0x327 JUMP JUMPDEST DUP1 PUSH4 0x313CE567 GT PUSH2 0x277 JUMPI DUP1 PUSH4 0x5C60DA1B GT PUSH2 0x230 JUMPI DUP1 PUSH4 0x6C540BAF GT PUSH2 0x20A JUMPI DUP1 PUSH4 0x6C540BAF EQ PUSH2 0x7A4 JUMPI DUP1 PUSH4 0x6F307DC3 EQ PUSH2 0x7AC JUMPI DUP1 PUSH4 0x70A08231 EQ PUSH2 0x7B4 JUMPI DUP1 PUSH4 0x73ACEE98 EQ PUSH2 0x7DA JUMPI PUSH2 0x327 JUMP JUMPDEST DUP1 PUSH4 0x5C60DA1B EQ PUSH2 0x777 JUMPI DUP1 PUSH4 0x601A0BF1 EQ PUSH2 0x77F JUMPI DUP1 PUSH4 0x6752E702 EQ PUSH2 0x79C JUMPI PUSH2 0x327 JUMP JUMPDEST DUP1 PUSH4 0x313CE567 EQ PUSH2 0x662 JUMPI DUP1 PUSH4 0x3AF9E669 EQ PUSH2 0x680 JUMPI DUP1 PUSH4 0x3B1D21A2 EQ PUSH2 0x6A6 JUMPI DUP1 PUSH4 0x3E941010 EQ PUSH2 0x6AE JUMPI DUP1 PUSH4 0x47BD3718 EQ PUSH2 0x6CB JUMPI DUP1 PUSH4 0x56E67728 EQ PUSH2 0x6D3 JUMPI PUSH2 0x327 JUMP JUMPDEST DUP1 PUSH4 0x18160DDD GT PUSH2 0x2E4 JUMPI DUP1 PUSH4 0x1BE19560 GT PUSH2 0x2BE JUMPI DUP1 PUSH4 0x1BE19560 EQ PUSH2 0x5B6 JUMPI DUP1 PUSH4 0x23B872DD EQ PUSH2 0x5DC JUMPI DUP1 PUSH4 0x2608F818 EQ PUSH2 0x612 JUMPI DUP1 PUSH4 0x26782247 EQ PUSH2 0x63E JUMPI PUSH2 0x327 JUMP JUMPDEST DUP1 PUSH4 0x18160DDD EQ PUSH2 0x450 JUMPI DUP1 PUSH4 0x182DF0F5 EQ PUSH2 0x458 JUMPI DUP1 PUSH4 0x1A31D465 EQ PUSH2 0x460 JUMPI PUSH2 0x327 JUMP JUMPDEST DUP1 PUSH4 0x6FDDE03 EQ PUSH2 0x32C JUMPI DUP1 PUSH4 0x95EA7B3 EQ PUSH2 0x3A9 JUMPI DUP1 PUSH4 0xE752702 EQ PUSH2 0x3E9 JUMPI DUP1 PUSH4 0x153AB505 EQ PUSH2 0x418 JUMPI DUP1 PUSH4 0x173B9904 EQ PUSH2 0x422 JUMPI DUP1 PUSH4 0x17BFDFBC EQ PUSH2 0x42A JUMPI JUMPDEST PUSH1 0x0 DUP1 REVERT JUMPDEST PUSH2 0x334 PUSH2 0xBCB JUMP JUMPDEST PUSH1 0x40 DUP1 MLOAD PUSH1 0x20 DUP1 DUP3 MSTORE DUP4 MLOAD DUP2 DUP4 ADD MSTORE DUP4 MLOAD SWAP2 SWAP3 DUP4 SWAP3 SWAP1 DUP4 ADD SWAP2 DUP6 ADD SWAP1 DUP1 DUP4 DUP4 PUSH1 0x0 JUMPDEST DUP4 DUP2 LT ISZERO PUSH2 0x36E JUMPI DUP2 DUP2 ADD MLOAD DUP4 DUP3 ADD MSTORE PUSH1 0x20 ADD PUSH2 0x356 JUMP JUMPDEST POP POP POP POP SWAP1 POP SWAP1 DUP2 ADD SWAP1 PUSH1 0x1F AND DUP1 ISZERO PUSH2 0x39B JUMPI DUP1 DUP3 SUB DUP1 MLOAD PUSH1 0x1 DUP4 PUSH1 0x20 SUB PUSH2 0x100 EXP SUB NOT AND DUP2 MSTORE PUSH1 0x20 ADD SWAP2 POP JUMPDEST POP SWAP3 POP POP POP PUSH1 0x40 MLOAD DUP1 SWAP2 SUB SWAP1 RETURN JUMPDEST PUSH2 0x3D5 PUSH1 0x4 DUP1 CALLDATASIZE SUB PUSH1 0x40 DUP2 LT ISZERO PUSH2 0x3BF JUMPI PUSH1 0x0 DUP1 REVERT JUMPDEST POP PUSH1 0x1 PUSH1 0x1 PUSH1 0xA0 SHL SUB DUP2 CALLDATALOAD AND SWAP1 PUSH1 0x20 ADD CALLDATALOAD PUSH2 0xC58 JUMP JUMPDEST PUSH1 0x40 DUP1 MLOAD SWAP2 ISZERO ISZERO DUP3 MSTORE MLOAD SWAP1 DUP2 SWAP1 SUB PUSH1 0x20 ADD SWAP1 RETURN JUMPDEST PUSH2 0x406 PUSH1 0x4 DUP1 CALLDATASIZE SUB PUSH1 0x20 DUP2 LT ISZERO PUSH2 0x3FF JUMPI PUSH1 0x0 DUP1 REVERT JUMPDEST POP CALLDATALOAD PUSH2 0xCC5 JUMP JUMPDEST PUSH1 0x40 DUP1 MLOAD SWAP2 DUP3 MSTORE MLOAD SWAP1 DUP2 SWAP1 SUB PUSH1 0x20 ADD SWAP1 RETURN JUMPDEST PUSH2 0x420 PUSH2 0xCDB JUMP JUMPDEST STOP JUMPDEST PUSH2 0x406 PUSH2 0xD2B JUMP JUMPDEST PUSH2 0x406 PUSH1 0x4 DUP1 CALLDATASIZE SUB PUSH1 0x20 DUP2 LT ISZERO PUSH2 0x440 JUMPI PUSH1 0x0 DUP1 REVERT JUMPDEST POP CALLDATALOAD PUSH1 0x1 PUSH1 0x1 PUSH1 0xA0 SHL SUB AND PUSH2 0xD31 JUMP JUMPDEST PUSH2 0x406 PUSH2 0xDF1 JUMP JUMPDEST PUSH2 0x406 PUSH2 0xDF7 JUMP JUMPDEST PUSH2 0x420 PUSH1 0x4 DUP1 CALLDATASIZE SUB PUSH1 0xE0 DUP2 LT ISZERO PUSH2 0x476 JUMPI PUSH1 0x0 DUP1 REVERT JUMPDEST PUSH1 0x1 PUSH1 0x1 PUSH1 0xA0 SHL SUB DUP3 CALLDATALOAD DUP2 AND SWAP3 PUSH1 0x20 DUP2 ADD CALLDATALOAD DUP3 AND SWAP3 PUSH1 0x40 DUP3 ADD CALLDATALOAD SWAP1 SWAP3 AND SWAP2 PUSH1 0x60 DUP3 ADD CALLDATALOAD SWAP2 SWAP1 DUP2 ADD SWAP1 PUSH1 0xA0 DUP2 ADD PUSH1 0x80 DUP3 ADD CALLDATALOAD PUSH1 0x1 PUSH1 0x20 SHL DUP2 GT ISZERO PUSH2 0x4B8 JUMPI PUSH1 0x0 DUP1 REVERT JUMPDEST DUP3 ADD DUP4 PUSH1 0x20 DUP3 ADD GT ISZERO PUSH2 0x4CA JUMPI PUSH1 0x0 DUP1 REVERT JUMPDEST DUP1 CALLDATALOAD SWAP1 PUSH1 0x20 ADD SWAP2 DUP5 PUSH1 0x1 DUP4 MUL DUP5 ADD GT PUSH1 0x1 PUSH1 0x20 SHL DUP4 GT OR ISZERO PUSH2 0x4EB JUMPI PUSH1 0x0 DUP1 REVERT JUMPDEST SWAP2 SWAP1 DUP1 DUP1 PUSH1 0x1F ADD PUSH1 0x20 DUP1 SWAP2 DIV MUL PUSH1 0x20 ADD PUSH1 0x40 MLOAD SWAP1 DUP2 ADD PUSH1 0x40 MSTORE DUP1 SWAP4 SWAP3 SWAP2 SWAP1 DUP2 DUP2 MSTORE PUSH1 0x20 ADD DUP4 DUP4 DUP1 DUP3 DUP5 CALLDATACOPY PUSH1 0x0 SWAP3 ADD SWAP2 SWAP1 SWAP2 MSTORE POP SWAP3 SWAP6 SWAP5 SWAP4 PUSH1 0x20 DUP2 ADD SWAP4 POP CALLDATALOAD SWAP2 POP POP PUSH1 0x1 PUSH1 0x20 SHL DUP2 GT ISZERO PUSH2 0x53D JUMPI PUSH1 0x0 DUP1 REVERT JUMPDEST DUP3 ADD DUP4 PUSH1 0x20 DUP3 ADD GT ISZERO PUSH2 0x54F JUMPI PUSH1 0x0 DUP1 REVERT JUMPDEST DUP1 CALLDATALOAD SWAP1 PUSH1 0x20 ADD SWAP2 DUP5 PUSH1 0x1 DUP4 MUL DUP5 ADD GT PUSH1 0x1 PUSH1 0x20 SHL DUP4 GT OR ISZERO PUSH2 0x570 JUMPI PUSH1 0x0 DUP1 REVERT JUMPDEST SWAP2 SWAP1 DUP1 DUP1 PUSH1 0x1F ADD PUSH1 0x20 DUP1 SWAP2 DIV MUL PUSH1 0x20 ADD PUSH1 0x40 MLOAD SWAP1 DUP2 ADD PUSH1 0x40 MSTORE DUP1 SWAP4 SWAP3 SWAP2 SWAP1 DUP2 DUP2 MSTORE PUSH1 0x20 ADD DUP4 DUP4 DUP1 DUP3 DUP5 CALLDATACOPY PUSH1 0x0 SWAP3 ADD SWAP2 SWAP1 SWAP2 MSTORE POP SWAP3 SWAP6 POP POP POP SWAP1 CALLDATALOAD PUSH1 0xFF AND SWAP2 POP PUSH2 0xE5A SWAP1 POP JUMP JUMPDEST PUSH2 0x420 PUSH1 0x4 DUP1 CALLDATASIZE SUB PUSH1 0x20 DUP2 LT ISZERO PUSH2 0x5CC JUMPI PUSH1 0x0 DUP1 REVERT JUMPDEST POP CALLDATALOAD PUSH1 0x1 PUSH1 0x1 PUSH1 0xA0 SHL SUB AND PUSH2 0xEF9 JUMP JUMPDEST PUSH2 0x3D5 PUSH1 0x4 DUP1 CALLDATASIZE SUB PUSH1 0x60 DUP2 LT ISZERO PUSH2 0x5F2 JUMPI PUSH1 0x0 DUP1 REVERT JUMPDEST POP PUSH1 0x1 PUSH1 0x1 PUSH1 0xA0 SHL SUB DUP2 CALLDATALOAD DUP2 AND SWAP2 PUSH1 0x20 DUP2 ADD CALLDATALOAD SWAP1 SWAP2 AND SWAP1 PUSH1 0x40 ADD CALLDATALOAD PUSH2 0x1083 JUMP JUMPDEST PUSH2 0x406 PUSH1 0x4 DUP1 CALLDATASIZE SUB PUSH1 0x40 DUP2 LT ISZERO PUSH2 0x628 JUMPI PUSH1 0x0 DUP1 REVERT JUMPDEST POP PUSH1 0x1 PUSH1 0x1 PUSH1 0xA0 SHL SUB DUP2 CALLDATALOAD AND SWAP1 PUSH1 0x20 ADD CALLDATALOAD PUSH2 0x10F5 JUMP JUMPDEST PUSH2 0x646 PUSH2 0x110B JUMP JUMPDEST PUSH1 0x40 DUP1 MLOAD PUSH1 0x1 PUSH1 0x1 PUSH1 0xA0 SHL SUB SWAP1 SWAP3 AND DUP3 MSTORE MLOAD SWAP1 DUP2 SWAP1 SUB PUSH1 0x20 ADD SWAP1 RETURN JUMPDEST PUSH2 0x66A PUSH2 0x111A JUMP JUMPDEST PUSH1 0x40 DUP1 MLOAD PUSH1 0xFF SWAP1 SWAP3 AND DUP3 MSTORE MLOAD SWAP1 DUP2 SWAP1 SUB PUSH1 0x20 ADD SWAP1 RETURN JUMPDEST PUSH2 0x406 PUSH1 0x4 DUP1 CALLDATASIZE SUB PUSH1 0x20 DUP2 LT ISZERO PUSH2 0x696 JUMPI PUSH1 0x0 DUP1 REVERT JUMPDEST POP CALLDATALOAD PUSH1 0x1 PUSH1 0x1 PUSH1 0xA0 SHL SUB AND PUSH2 0x1123 JUMP JUMPDEST PUSH2 0x406 PUSH2 0x11D9 JUMP JUMPDEST PUSH2 0x406 PUSH1 0x4 DUP1 CALLDATASIZE SUB PUSH1 0x20 DUP2 LT ISZERO PUSH2 0x6C4 JUMPI PUSH1 0x0 DUP1 REVERT JUMPDEST POP CALLDATALOAD PUSH2 0x11E8 JUMP JUMPDEST PUSH2 0x406 PUSH2 0x11F3 JUMP JUMPDEST PUSH2 0x420 PUSH1 0x4 DUP1 CALLDATASIZE SUB PUSH1 0x20 DUP2 LT ISZERO PUSH2 0x6E9 JUMPI PUSH1 0x0 DUP1 REVERT JUMPDEST DUP2 ADD SWAP1 PUSH1 0x20 DUP2 ADD DUP2 CALLDATALOAD PUSH1 0x1 PUSH1 0x20 SHL DUP2 GT ISZERO PUSH2 0x703 JUMPI PUSH1 0x0 DUP1 REVERT JUMPDEST DUP3 ADD DUP4 PUSH1 0x20 DUP3 ADD GT ISZERO PUSH2 0x715 JUMPI PUSH1 0x0 DUP1 REVERT JUMPDEST DUP1 CALLDATALOAD SWAP1 PUSH1 0x20 ADD SWAP2 DUP5 PUSH1 0x1 DUP4 MUL DUP5 ADD GT PUSH1 0x1 PUSH1 0x20 SHL DUP4 GT OR ISZERO PUSH2 0x736 JUMPI PUSH1 0x0 DUP1 REVERT JUMPDEST SWAP2 SWAP1 DUP1 DUP1 PUSH1 0x1F ADD PUSH1 0x20 DUP1 SWAP2 DIV MUL PUSH1 0x20 ADD PUSH1 0x40 MLOAD SWAP1 DUP2 ADD PUSH1 0x40 MSTORE DUP1 SWAP4 SWAP3 SWAP2 SWAP1 DUP2 DUP2 MSTORE PUSH1 0x20 ADD DUP4 DUP4 DUP1 DUP3 DUP5 CALLDATACOPY PUSH1 0x0 SWAP3 ADD SWAP2 SWAP1 SWAP2 MSTORE POP SWAP3 SWAP6 POP PUSH2 0x11F9 SWAP5 POP POP POP POP POP JUMP JUMPDEST PUSH2 0x646 PUSH2 0x124A JUMP JUMPDEST PUSH2 0x406 PUSH1 0x4 DUP1 CALLDATASIZE SUB PUSH1 0x20 DUP2 LT ISZERO PUSH2 0x795 JUMPI PUSH1 0x0 DUP1 REVERT JUMPDEST POP CALLDATALOAD PUSH2 0x1259 JUMP JUMPDEST PUSH2 0x406 PUSH2 0x12F4 JUMP JUMPDEST PUSH2 0x406 PUSH2 0x12FF JUMP JUMPDEST PUSH2 0x646 PUSH2 0x1305 JUMP JUMPDEST PUSH2 0x406 PUSH1 0x4 DUP1 CALLDATASIZE SUB PUSH1 0x20 DUP2 LT ISZERO PUSH2 0x7CA JUMPI PUSH1 0x0 DUP1 REVERT JUMPDEST POP CALLDATALOAD PUSH1 0x1 PUSH1 0x1 PUSH1 0xA0 SHL SUB AND PUSH2 0x1314 JUMP JUMPDEST PUSH2 0x406 PUSH2 0x132F JUMP JUMPDEST PUSH2 0x406 PUSH1 0x4 DUP1 CALLDATASIZE SUB PUSH1 0x20 DUP2 LT ISZERO PUSH2 0x7F8 JUMPI PUSH1 0x0 DUP1 REVERT JUMPDEST POP CALLDATALOAD PUSH2 0x13E5 JUMP JUMPDEST PUSH2 0x406 PUSH2 0x13F0 JUMP JUMPDEST PUSH2 0x334 PUSH2 0x13F6 JUMP JUMPDEST PUSH2 0x406 PUSH1 0x4 DUP1 CALLDATASIZE SUB PUSH1 0x20 DUP2 LT ISZERO PUSH2 0x825 JUMPI PUSH1 0x0 DUP1 REVERT JUMPDEST POP CALLDATALOAD PUSH1 0x1 PUSH1 0x1 PUSH1 0xA0 SHL SUB AND PUSH2 0x144E JUMP JUMPDEST PUSH2 0x420 PUSH1 0x4 DUP1 CALLDATASIZE SUB PUSH1 0xC0 DUP2 LT ISZERO PUSH2 0x84B JUMPI PUSH1 0x0 DUP1 REVERT JUMPDEST PUSH1 0x1 PUSH1 0x1 PUSH1 0xA0 SHL SUB DUP3 CALLDATALOAD DUP2 AND SWAP3 PUSH1 0x20 DUP2 ADD CALLDATALOAD SWAP1 SWAP2 AND SWAP2 PUSH1 0x40 DUP3 ADD CALLDATALOAD SWAP2 SWAP1 DUP2 ADD SWAP1 PUSH1 0x80 DUP2 ADD PUSH1 0x60 DUP3 ADD CALLDATALOAD PUSH1 0x1 PUSH1 0x20 SHL DUP2 GT ISZERO PUSH2 0x885 JUMPI PUSH1 0x0 DUP1 REVERT JUMPDEST DUP3 ADD DUP4 PUSH1 0x20 DUP3 ADD GT ISZERO PUSH2 0x897 JUMPI PUSH1 0x0 DUP1 REVERT JUMPDEST DUP1 CALLDATALOAD SWAP1 PUSH1 0x20 ADD SWAP2 DUP5 PUSH1 0x1 DUP4 MUL DUP5 ADD GT PUSH1 0x1 PUSH1 0x20 SHL DUP4 GT OR ISZERO PUSH2 0x8B8 JUMPI PUSH1 0x0 DUP1 REVERT JUMPDEST SWAP2 SWAP1 DUP1 DUP1 PUSH1 0x1F ADD PUSH1 0x20 DUP1 SWAP2 DIV MUL PUSH1 0x20 ADD PUSH1 0x40 MLOAD SWAP1 DUP2 ADD PUSH1 0x40 MSTORE DUP1 SWAP4 SWAP3 SWAP2 SWAP1 DUP2 DUP2 MSTORE PUSH1 0x20 ADD DUP4 DUP4 DUP1 DUP3 DUP5 CALLDATACOPY PUSH1 0x0 SWAP3 ADD SWAP2 SWAP1 SWAP2 MSTORE POP SWAP3 SWAP6 SWAP5 SWAP4 PUSH1 0x20 DUP2 ADD SWAP4 POP CALLDATALOAD SWAP2 POP POP PUSH1 0x1 PUSH1 0x20 SHL DUP2 GT ISZERO PUSH2 0x90A JUMPI PUSH1 0x0 DUP1 REVERT JUMPDEST DUP3 ADD DUP4 PUSH1 0x20 DUP3 ADD GT ISZERO PUSH2 0x91C JUMPI PUSH1 0x0 DUP1 REVERT JUMPDEST DUP1 CALLDATALOAD SWAP1 PUSH1 0x20 ADD SWAP2 DUP5 PUSH1 0x1 DUP4 MUL DUP5 ADD GT PUSH1 0x1 PUSH1 0x20 SHL DUP4 GT OR ISZERO PUSH2 0x93D JUMPI PUSH1 0x0 DUP1 REVERT JUMPDEST SWAP2 SWAP1 DUP1 DUP1 PUSH1 0x1F ADD PUSH1 0x20 DUP1 SWAP2 DIV MUL PUSH1 0x20 ADD PUSH1 0x40 MLOAD SWAP1 DUP2 ADD PUSH1 0x40 MSTORE DUP1 SWAP4 SWAP3 SWAP2 SWAP1 DUP2 DUP2 MSTORE PUSH1 0x20 ADD DUP4 DUP4 DUP1 DUP3 DUP5 CALLDATACOPY PUSH1 0x0 SWAP3 ADD SWAP2 SWAP1 SWAP2 MSTORE POP SWAP3 SWAP6 POP POP POP SWAP1 CALLDATALOAD PUSH1 0xFF AND SWAP2 POP PUSH2 0x14B2 SWAP1 POP JUMP JUMPDEST PUSH2 0x3D5 PUSH2 0x1699 JUMP JUMPDEST PUSH2 0x406 PUSH1 0x4 DUP1 CALLDATASIZE SUB PUSH1 0x20 DUP2 LT ISZERO PUSH2 0x9A1 JUMPI PUSH1 0x0 DUP1 REVERT JUMPDEST POP CALLDATALOAD PUSH2 0x169E JUMP JUMPDEST PUSH2 0x406 PUSH2 0x16AA JUMP JUMPDEST PUSH2 0x3D5 PUSH1 0x4 DUP1 CALLDATASIZE SUB PUSH1 0x40 DUP2 LT ISZERO PUSH2 0x9C6 JUMPI PUSH1 0x0 DUP1 REVERT JUMPDEST POP PUSH1 0x1 PUSH1 0x1 PUSH1 0xA0 SHL SUB DUP2 CALLDATALOAD AND SWAP1 PUSH1 0x20 ADD CALLDATALOAD PUSH2 0x1A02 JUMP JUMPDEST PUSH2 0x406 PUSH2 0x1A73 JUMP JUMPDEST PUSH2 0x406 PUSH2 0x1A79 JUMP JUMPDEST PUSH2 0x406 PUSH1 0x4 DUP1 CALLDATASIZE SUB PUSH1 0x60 DUP2 LT ISZERO PUSH2 0xA02 JUMPI PUSH1 0x0 DUP1 REVERT JUMPDEST POP PUSH1 0x1 PUSH1 0x1 PUSH1 0xA0 SHL SUB DUP2 CALLDATALOAD DUP2 AND SWAP2 PUSH1 0x20 DUP2 ADD CALLDATALOAD SWAP1 SWAP2 AND SWAP1 PUSH1 0x40 ADD CALLDATALOAD PUSH2 0x1B18 JUMP JUMPDEST PUSH2 0x406 PUSH1 0x4 DUP1 CALLDATASIZE SUB PUSH1 0x20 DUP2 LT ISZERO PUSH2 0xA38 JUMPI PUSH1 0x0 DUP1 REVERT JUMPDEST POP CALLDATALOAD PUSH1 0x1 PUSH1 0x1 PUSH1 0xA0 SHL SUB AND PUSH2 0x1B89 JUMP JUMPDEST PUSH2 0x406 PUSH1 0x4 DUP1 CALLDATASIZE SUB PUSH1 0x20 DUP2 LT ISZERO PUSH2 0xA5E JUMPI PUSH1 0x0 DUP1 REVERT JUMPDEST POP CALLDATALOAD PUSH1 0x1 PUSH1 0x1 PUSH1 0xA0 SHL SUB AND PUSH2 0x1C1E JUMP JUMPDEST PUSH2 0x406 PUSH2 0x1D6B JUMP JUMPDEST PUSH2 0x646 PUSH2 0x1E27 JUMP JUMPDEST PUSH2 0xAA4 PUSH1 0x4 DUP1 CALLDATASIZE SUB PUSH1 0x20 DUP2 LT ISZERO PUSH2 0xA94 JUMPI PUSH1 0x0 DUP1 REVERT JUMPDEST POP CALLDATALOAD PUSH1 0x1 PUSH1 0x1 PUSH1 0xA0 SHL SUB AND PUSH2 0x1E36 JUMP JUMPDEST PUSH1 0x40 DUP1 MLOAD SWAP5 DUP6 MSTORE PUSH1 0x20 DUP6 ADD SWAP4 SWAP1 SWAP4 MSTORE DUP4 DUP4 ADD SWAP2 SWAP1 SWAP2 MSTORE PUSH1 0x60 DUP4 ADD MSTORE MLOAD SWAP1 DUP2 SWAP1 SUB PUSH1 0x80 ADD SWAP1 RETURN JUMPDEST PUSH2 0x406 PUSH1 0x4 DUP1 CALLDATASIZE SUB PUSH1 0x20 DUP2 LT ISZERO PUSH2 0xAE0 JUMPI PUSH1 0x0 DUP1 REVERT JUMPDEST POP CALLDATALOAD PUSH2 0x1ECB JUMP JUMPDEST PUSH2 0x406 PUSH1 0x4 DUP1 CALLDATASIZE SUB PUSH1 0x20 DUP2 LT ISZERO PUSH2 0xAFD JUMPI PUSH1 0x0 DUP1 REVERT JUMPDEST POP CALLDATALOAD PUSH2 0x1ED6 JUMP JUMPDEST PUSH2 0x406 PUSH1 0x4 DUP1 CALLDATASIZE SUB PUSH1 0x40 DUP2 LT ISZERO PUSH2 0xB1A JUMPI PUSH1 0x0 DUP1 REVERT JUMPDEST POP PUSH1 0x1 PUSH1 0x1 PUSH1 0xA0 SHL SUB DUP2 CALLDATALOAD DUP2 AND SWAP2 PUSH1 0x20 ADD CALLDATALOAD AND PUSH2 0x1EE1 JUMP JUMPDEST PUSH2 0x406 PUSH2 0x1F0C JUMP JUMPDEST PUSH2 0x406 PUSH1 0x4 DUP1 CALLDATASIZE SUB PUSH1 0x20 DUP2 LT ISZERO PUSH2 0xB50 JUMPI PUSH1 0x0 DUP1 REVERT JUMPDEST POP CALLDATALOAD PUSH1 0x1 PUSH1 0x1 PUSH1 0xA0 SHL SUB AND PUSH2 0x200F JUMP JUMPDEST PUSH2 0x646 PUSH2 0x2049 JUMP JUMPDEST PUSH2 0x406 PUSH1 0x4 DUP1 CALLDATASIZE SUB PUSH1 0x60 DUP2 LT ISZERO PUSH2 0xB7E JUMPI PUSH1 0x0 DUP1 REVERT JUMPDEST POP PUSH1 0x1 PUSH1 0x1 PUSH1 0xA0 SHL SUB DUP2 CALLDATALOAD DUP2 AND SWAP2 PUSH1 0x20 DUP2 ADD CALLDATALOAD SWAP2 PUSH1 0x40 SWAP1 SWAP2 ADD CALLDATALOAD AND PUSH2 0x2058 JUMP JUMPDEST PUSH2 0x646 PUSH2 0x2070 JUMP JUMPDEST PUSH2 0x406 PUSH2 0x2084 JUMP JUMPDEST PUSH2 0x406 PUSH1 0x4 DUP1 CALLDATASIZE SUB PUSH1 0x20 DUP2 LT ISZERO PUSH2 0xBC4 JUMPI PUSH1 0x0 DUP1 REVERT JUMPDEST POP CALLDATALOAD PUSH2 0x20E8 JUMP JUMPDEST PUSH1 0x1 DUP1 SLOAD PUSH1 0x40 DUP1 MLOAD PUSH1 0x20 PUSH1 0x2 DUP5 DUP7 AND ISZERO PUSH2 0x100 MUL PUSH1 0x0 NOT ADD SWAP1 SWAP5 AND SWAP4 SWAP1 SWAP4 DIV PUSH1 0x1F DUP2 ADD DUP5 SWAP1 DIV DUP5 MUL DUP3 ADD DUP5 ADD SWAP1 SWAP3 MSTORE DUP2 DUP2 MSTORE SWAP3 SWAP2 DUP4 ADD DUP3 DUP3 DUP1 ISZERO PUSH2 0xC50 JUMPI DUP1 PUSH1 0x1F LT PUSH2 0xC25 JUMPI PUSH2 0x100 DUP1 DUP4 SLOAD DIV MUL DUP4 MSTORE SWAP2 PUSH1 0x20 ADD SWAP2 PUSH2 0xC50 JUMP JUMPDEST DUP3 ADD SWAP2 SWAP1 PUSH1 0x0 MSTORE PUSH1 0x20 PUSH1 0x0 KECCAK256 SWAP1 JUMPDEST DUP2 SLOAD DUP2 MSTORE SWAP1 PUSH1 0x1 ADD SWAP1 PUSH1 0x20 ADD DUP1 DUP4 GT PUSH2 0xC33 JUMPI DUP3 SWAP1 SUB PUSH1 0x1F AND DUP3 ADD SWAP2 JUMPDEST POP POP POP POP POP DUP2 JUMP JUMPDEST CALLER PUSH1 0x0 DUP2 DUP2 MSTORE PUSH1 0xF PUSH1 0x20 SWAP1 DUP2 MSTORE PUSH1 0x40 DUP1 DUP4 KECCAK256 PUSH1 0x1 PUSH1 0x1 PUSH1 0xA0 SHL SUB DUP8 AND DUP1 DUP6 MSTORE SWAP1 DUP4 MSTORE DUP2 DUP5 KECCAK256 DUP7 SWAP1 SSTORE DUP2 MLOAD DUP7 DUP2 MSTORE SWAP2 MLOAD SWAP4 SWAP5 SWAP4 SWAP1 SWAP3 DUP5 SWAP3 PUSH32 0x8C5BE1E5EBEC7D5BD14F71427D1E84F3DD0314C0F7B2291E5B200AC8C7C3B925 SWAP3 SWAP1 DUP2 SWAP1 SUB SWAP1 SWAP2 ADD SWAP1 LOG3 PUSH1 0x1 SWAP2 POP POP JUMPDEST SWAP3 SWAP2 POP POP JUMP JUMPDEST PUSH1 0x0 DUP1 PUSH2 0xCD1 DUP4 PUSH2 0x2166 JUMP JUMPDEST POP SWAP2 POP POP JUMPDEST SWAP2 SWAP1 POP JUMP JUMPDEST PUSH1 0x3 SLOAD PUSH2 0x100 SWAP1 DIV PUSH1 0x1 PUSH1 0x1 PUSH1 0xA0 SHL SUB AND CALLER EQ PUSH2 0xD29 JUMPI PUSH1 0x40 MLOAD PUSH3 0x461BCD PUSH1 0xE5 SHL DUP2 MSTORE PUSH1 0x4 ADD DUP1 DUP1 PUSH1 0x20 ADD DUP3 DUP2 SUB DUP3 MSTORE PUSH1 0x2D DUP2 MSTORE PUSH1 0x20 ADD DUP1 PUSH2 0x528A PUSH1 0x2D SWAP2 CODECOPY PUSH1 0x40 ADD SWAP2 POP POP PUSH1 0x40 MLOAD DUP1 SWAP2 SUB SWAP1 REVERT JUMPDEST JUMP JUMPDEST PUSH1 0x8 SLOAD DUP2 JUMP JUMPDEST PUSH1 0x0 DUP1 SLOAD PUSH1 0xFF AND PUSH2 0xD76 JUMPI PUSH1 0x40 DUP1 MLOAD PUSH3 0x461BCD PUSH1 0xE5 SHL DUP2 MSTORE PUSH1 0x20 PUSH1 0x4 DUP3 ADD MSTORE PUSH1 0xA PUSH1 0x24 DUP3 ADD MSTORE PUSH10 0x1C994B595B9D195C9959 PUSH1 0xB2 SHL PUSH1 0x44 DUP3 ADD MSTORE SWAP1 MLOAD SWAP1 DUP2 SWAP1 SUB PUSH1 0x64 ADD SWAP1 REVERT JUMPDEST PUSH1 0x0 DUP1 SLOAD PUSH1 0xFF NOT AND DUP2 SSTORE PUSH2 0xD88 PUSH2 0x16AA JUMP JUMPDEST EQ PUSH2 0xDD3 JUMPI PUSH1 0x40 DUP1 MLOAD PUSH3 0x461BCD PUSH1 0xE5 SHL DUP2 MSTORE PUSH1 0x20 PUSH1 0x4 DUP3 ADD MSTORE PUSH1 0x16 PUSH1 0x24 DUP3 ADD MSTORE PUSH22 0x1858D8DC9D59481A5B9D195C995CDD0819985A5B1959 PUSH1 0x52 SHL PUSH1 0x44 DUP3 ADD MSTORE SWAP1 MLOAD SWAP1 DUP2 SWAP1 SUB PUSH1 0x64 ADD SWAP1 REVERT JUMPDEST PUSH2 0xDDC DUP3 PUSH2 0x144E JUMP JUMPDEST SWAP1 POP JUMPDEST PUSH1 0x0 DUP1 SLOAD PUSH1 0xFF NOT AND PUSH1 0x1 OR SWAP1 SSTORE SWAP2 SWAP1 POP JUMP JUMPDEST PUSH1 0xD SLOAD DUP2 JUMP JUMPDEST PUSH1 0x0 DUP1 PUSH1 0x0 PUSH2 0xE04 PUSH2 0x220F JUMP JUMPDEST SWAP1 SWAP3 POP SWAP1 POP PUSH1 0x0 DUP3 PUSH1 0x3 DUP2 GT ISZERO PUSH2 0xE17 JUMPI INVALID JUMPDEST EQ PUSH2 0xE53 JUMPI PUSH1 0x40 MLOAD PUSH3 0x461BCD PUSH1 0xE5 SHL DUP2 MSTORE PUSH1 0x4 ADD DUP1 DUP1 PUSH1 0x20 ADD DUP3 DUP2 SUB DUP3 MSTORE PUSH1 0x35 DUP2 MSTORE PUSH1 0x20 ADD DUP1 PUSH2 0x5408 PUSH1 0x35 SWAP2 CODECOPY PUSH1 0x40 ADD SWAP2 POP POP PUSH1 0x40 MLOAD DUP1 SWAP2 SUB SWAP1 REVERT JUMPDEST SWAP2 POP POP JUMPDEST SWAP1 JUMP JUMPDEST PUSH2 0xE68 DUP7 DUP7 DUP7 DUP7 DUP7 DUP7 PUSH2 0x14B2 JUMP JUMPDEST PUSH1 0x11 DUP1 SLOAD PUSH1 0x1 PUSH1 0x1 PUSH1 0xA0 SHL SUB NOT AND PUSH1 0x1 PUSH1 0x1 PUSH1 0xA0 SHL SUB DUP10 DUP2 AND SWAP2 SWAP1 SWAP2 OR SWAP2 DUP3 SWAP1 SSTORE PUSH1 0x40 DUP1 MLOAD PUSH4 0x18160DDD PUSH1 0xE0 SHL DUP2 MSTORE SWAP1 MLOAD SWAP3 SWAP1 SWAP2 AND SWAP2 PUSH4 0x18160DDD SWAP2 PUSH1 0x4 DUP1 DUP3 ADD SWAP3 PUSH1 0x20 SWAP3 SWAP1 SWAP2 SWAP1 DUP3 SWAP1 SUB ADD DUP2 DUP7 DUP1 EXTCODESIZE ISZERO DUP1 ISZERO PUSH2 0xEC4 JUMPI PUSH1 0x0 DUP1 REVERT JUMPDEST POP GAS STATICCALL ISZERO DUP1 ISZERO PUSH2 0xED8 JUMPI RETURNDATASIZE PUSH1 0x0 DUP1 RETURNDATACOPY RETURNDATASIZE PUSH1 0x0 REVERT JUMPDEST POP POP POP POP PUSH1 0x40 MLOAD RETURNDATASIZE PUSH1 0x20 DUP2 LT ISZERO PUSH2 0xEEE JUMPI PUSH1 0x0 DUP1 REVERT JUMPDEST POP POP POP POP POP POP POP POP POP JUMP JUMPDEST PUSH1 0x3 SLOAD PUSH2 0x100 SWAP1 DIV PUSH1 0x1 PUSH1 0x1 PUSH1 0xA0 SHL SUB AND CALLER EQ PUSH2 0xF47 JUMPI PUSH1 0x40 MLOAD PUSH3 0x461BCD PUSH1 0xE5 SHL DUP2 MSTORE PUSH1 0x4 ADD DUP1 DUP1 PUSH1 0x20 ADD DUP3 DUP2 SUB DUP3 MSTORE PUSH1 0x2F DUP2 MSTORE PUSH1 0x20 ADD DUP1 PUSH2 0x5317 PUSH1 0x2F SWAP2 CODECOPY PUSH1 0x40 ADD SWAP2 POP POP PUSH1 0x40 MLOAD DUP1 SWAP2 SUB SWAP1 REVERT JUMPDEST PUSH1 0x11 SLOAD PUSH1 0x1 PUSH1 0x1 PUSH1 0xA0 SHL SUB DUP3 DUP2 AND SWAP2 AND EQ ISZERO PUSH2 0xF94 JUMPI PUSH1 0x40 MLOAD PUSH3 0x461BCD PUSH1 0xE5 SHL DUP2 MSTORE PUSH1 0x4 ADD DUP1 DUP1 PUSH1 0x20 ADD DUP3 DUP2 SUB DUP3 MSTORE PUSH1 0x32 DUP2 MSTORE PUSH1 0x20 ADD DUP1 PUSH2 0x5465 PUSH1 0x32 SWAP2 CODECOPY PUSH1 0x40 ADD SWAP2 POP POP PUSH1 0x40 MLOAD DUP1 SWAP2 SUB SWAP1 REVERT JUMPDEST PUSH1 0x40 DUP1 MLOAD PUSH4 0x70A08231 PUSH1 0xE0 SHL DUP2 MSTORE ADDRESS PUSH1 0x4 DUP3 ADD MSTORE SWAP1 MLOAD PUSH1 0x0 SWAP2 PUSH1 0x1 PUSH1 0x1 PUSH1 0xA0 SHL SUB DUP5 AND SWAP2 PUSH4 0x70A08231 SWAP2 PUSH1 0x24 DUP1 DUP3 ADD SWAP3 PUSH1 0x20 SWAP3 SWAP1 SWAP2 SWAP1 DUP3 SWAP1 SUB ADD DUP2 DUP7 DUP1 EXTCODESIZE ISZERO DUP1 ISZERO PUSH2 0xFDE JUMPI PUSH1 0x0 DUP1 REVERT JUMPDEST POP GAS STATICCALL ISZERO DUP1 ISZERO PUSH2 0xFF2 JUMPI RETURNDATASIZE PUSH1 0x0 DUP1 RETURNDATACOPY RETURNDATASIZE PUSH1 0x0 REVERT JUMPDEST POP POP POP POP PUSH1 0x40 MLOAD RETURNDATASIZE PUSH1 0x20 DUP2 LT ISZERO PUSH2 0x1008 JUMPI PUSH1 0x0 DUP1 REVERT JUMPDEST POP MLOAD PUSH1 0x3 SLOAD PUSH1 0x40 DUP1 MLOAD PUSH4 0xA9059CBB PUSH1 0xE0 SHL DUP2 MSTORE PUSH2 0x100 SWAP1 SWAP3 DIV PUSH1 0x1 PUSH1 0x1 PUSH1 0xA0 SHL SUB SWAP1 DUP2 AND PUSH1 0x4 DUP5 ADD MSTORE PUSH1 0x24 DUP4 ADD DUP5 SWAP1 MSTORE SWAP1 MLOAD SWAP3 SWAP4 POP DUP5 AND SWAP2 PUSH4 0xA9059CBB SWAP2 PUSH1 0x44 DUP1 DUP3 ADD SWAP3 PUSH1 0x0 SWAP3 SWAP1 SWAP2 SWAP1 DUP3 SWAP1 SUB ADD DUP2 DUP4 DUP8 DUP1 EXTCODESIZE ISZERO DUP1 ISZERO PUSH2 0x1067 JUMPI PUSH1 0x0 DUP1 REVERT JUMPDEST POP GAS CALL ISZERO DUP1 ISZERO PUSH2 0x107B JUMPI RETURNDATASIZE PUSH1 0x0 DUP1 RETURNDATACOPY RETURNDATASIZE PUSH1 0x0 REVERT JUMPDEST POP POP POP POP POP POP JUMP JUMPDEST PUSH1 0x0 DUP1 SLOAD PUSH1 0xFF AND PUSH2 0x10C8 JUMPI PUSH1 0x40 DUP1 MLOAD PUSH3 0x461BCD PUSH1 0xE5 SHL DUP2 MSTORE PUSH1 0x20 PUSH1 0x4 DUP3 ADD MSTORE PUSH1 0xA PUSH1 0x24 DUP3 ADD MSTORE PUSH10 0x1C994B595B9D195C9959 PUSH1 0xB2 SHL PUSH1 0x44 DUP3 ADD MSTORE SWAP1 MLOAD SWAP1 DUP2 SWAP1 SUB PUSH1 0x64 ADD SWAP1 REVERT JUMPDEST PUSH1 0x0 DUP1 SLOAD PUSH1 0xFF NOT AND DUP2 SSTORE PUSH2 0x10DE CALLER DUP7 DUP7 DUP7 PUSH2 0x22BE JUMP JUMPDEST EQ SWAP1 POP PUSH1 0x0 DUP1 SLOAD PUSH1 0xFF NOT AND PUSH1 0x1 OR SWAP1 SSTORE SWAP4 SWAP3 POP POP POP JUMP JUMPDEST PUSH1 0x0 DUP1 PUSH2 0x1102 DUP5 DUP5 PUSH2 0x254A JUMP JUMPDEST POP SWAP5 SWAP4 POP POP POP POP JUMP JUMPDEST PUSH1 0x4 SLOAD PUSH1 0x1 PUSH1 0x1 PUSH1 0xA0 SHL SUB AND DUP2 JUMP JUMPDEST PUSH1 0x3 SLOAD PUSH1 0xFF AND DUP2 JUMP JUMPDEST PUSH1 0x0 PUSH2 0x112D PUSH2 0x504B JUMP JUMPDEST PUSH1 0x40 MLOAD DUP1 PUSH1 0x20 ADD PUSH1 0x40 MSTORE DUP1 PUSH2 0x1140 PUSH2 0x1D6B JUMP JUMPDEST SWAP1 MSTORE PUSH1 0x1 PUSH1 0x1 PUSH1 0xA0 SHL SUB DUP5 AND PUSH1 0x0 SWAP1 DUP2 MSTORE PUSH1 0xE PUSH1 0x20 MSTORE PUSH1 0x40 DUP2 KECCAK256 SLOAD SWAP2 SWAP3 POP SWAP1 DUP2 SWAP1 PUSH2 0x116C SWAP1 DUP5 SWAP1 PUSH2 0x25F5 JUMP JUMPDEST SWAP1 SWAP3 POP SWAP1 POP PUSH1 0x0 DUP3 PUSH1 0x3 DUP2 GT ISZERO PUSH2 0x117F JUMPI INVALID JUMPDEST EQ PUSH2 0x11D1 JUMPI PUSH1 0x40 DUP1 MLOAD PUSH3 0x461BCD PUSH1 0xE5 SHL DUP2 MSTORE PUSH1 0x20 PUSH1 0x4 DUP3 ADD MSTORE PUSH1 0x1F PUSH1 0x24 DUP3 ADD MSTORE PUSH32 0x62616C616E636520636F756C64206E6F742062652063616C63756C6174656400 PUSH1 0x44 DUP3 ADD MSTORE SWAP1 MLOAD SWAP1 DUP2 SWAP1 SUB PUSH1 0x64 ADD SWAP1 REVERT JUMPDEST SWAP5 SWAP4 POP POP POP POP JUMP JUMPDEST PUSH1 0x0 PUSH2 0x11E3 PUSH2 0x2649 JUMP JUMPDEST SWAP1 POP SWAP1 JUMP JUMPDEST PUSH1 0x0 PUSH2 0xCBF DUP3 PUSH2 0x26C9 JUMP JUMPDEST PUSH1 0xB SLOAD DUP2 JUMP JUMPDEST PUSH1 0x3 SLOAD PUSH2 0x100 SWAP1 DIV PUSH1 0x1 PUSH1 0x1 PUSH1 0xA0 SHL SUB AND CALLER EQ PUSH2 0x1247 JUMPI PUSH1 0x40 MLOAD PUSH3 0x461BCD PUSH1 0xE5 SHL DUP2 MSTORE PUSH1 0x4 ADD DUP1 DUP1 PUSH1 0x20 ADD DUP3 DUP2 SUB DUP3 MSTORE PUSH1 0x2D DUP2 MSTORE PUSH1 0x20 ADD DUP1 PUSH2 0x54EF PUSH1 0x2D SWAP2 CODECOPY PUSH1 0x40 ADD SWAP2 POP POP PUSH1 0x40 MLOAD DUP1 SWAP2 SUB SWAP1 REVERT JUMPDEST POP JUMP JUMPDEST PUSH1 0x12 SLOAD PUSH1 0x1 PUSH1 0x1 PUSH1 0xA0 SHL SUB AND DUP2 JUMP JUMPDEST PUSH1 0x0 DUP1 SLOAD PUSH1 0xFF AND PUSH2 0x129E JUMPI PUSH1 0x40 DUP1 MLOAD PUSH3 0x461BCD PUSH1 0xE5 SHL DUP2 MSTORE PUSH1 0x20 PUSH1 0x4 DUP3 ADD MSTORE PUSH1 0xA PUSH1 0x24 DUP3 ADD MSTORE PUSH10 0x1C994B595B9D195C9959 PUSH1 0xB2 SHL PUSH1 0x44 DUP3 ADD MSTORE SWAP1 MLOAD SWAP1 DUP2 SWAP1 SUB PUSH1 0x64 ADD SWAP1 REVERT JUMPDEST PUSH1 0x0 DUP1 SLOAD PUSH1 0xFF NOT AND DUP2 SSTORE PUSH2 0x12B0 PUSH2 0x16AA JUMP JUMPDEST SWAP1 POP DUP1 ISZERO PUSH2 0x12D6 JUMPI PUSH2 0x12CE DUP2 PUSH1 0x10 DUP2 GT ISZERO PUSH2 0x12C7 JUMPI INVALID JUMPDEST PUSH1 0x30 PUSH2 0x275D JUMP JUMPDEST SWAP2 POP POP PUSH2 0xDDF JUMP JUMPDEST PUSH2 0x12DF DUP4 PUSH2 0x27C3 JUMP JUMPDEST SWAP2 POP POP PUSH1 0x0 DUP1 SLOAD PUSH1 0xFF NOT AND PUSH1 0x1 OR SWAP1 SSTORE SWAP2 SWAP1 POP JUMP JUMPDEST PUSH7 0x6379DA05B60000 DUP2 JUMP JUMPDEST PUSH1 0x9 SLOAD DUP2 JUMP JUMPDEST PUSH1 0x11 SLOAD PUSH1 0x1 PUSH1 0x1 PUSH1 0xA0 SHL SUB AND DUP2 JUMP JUMPDEST PUSH1 0x1 PUSH1 0x1 PUSH1 0xA0 SHL SUB AND PUSH1 0x0 SWAP1 DUP2 MSTORE PUSH1 0xE PUSH1 0x20 MSTORE PUSH1 0x40 SWAP1 KECCAK256 SLOAD SWAP1 JUMP JUMPDEST PUSH1 0x0 DUP1 SLOAD PUSH1 0xFF AND PUSH2 0x1374 JUMPI PUSH1 0x40 DUP1 MLOAD PUSH3 0x461BCD PUSH1 0xE5 SHL DUP2 MSTORE PUSH1 0x20 PUSH1 0x4 DUP3 ADD MSTORE PUSH1 0xA PUSH1 0x24 DUP3 ADD MSTORE PUSH10 0x1C994B595B9D195C9959 PUSH1 0xB2 SHL PUSH1 0x44 DUP3 ADD MSTORE SWAP1 MLOAD SWAP1 DUP2 SWAP1 SUB PUSH1 0x64 ADD SWAP1 REVERT JUMPDEST PUSH1 0x0 DUP1 SLOAD PUSH1 0xFF NOT AND DUP2 SSTORE PUSH2 0x1386 PUSH2 0x16AA JUMP JUMPDEST EQ PUSH2 0x13D1 JUMPI PUSH1 0x40 DUP1 MLOAD PUSH3 0x461BCD PUSH1 0xE5 SHL DUP2 MSTORE PUSH1 0x20 PUSH1 0x4 DUP3 ADD MSTORE PUSH1 0x16 PUSH1 0x24 DUP3 ADD MSTORE PUSH22 0x1858D8DC9D59481A5B9D195C995CDD0819985A5B1959 PUSH1 0x52 SHL PUSH1 0x44 DUP3 ADD MSTORE SWAP1 MLOAD SWAP1 DUP2 SWAP1 SUB PUSH1 0x64 ADD SWAP1 REVERT JUMPDEST POP PUSH1 0xB SLOAD PUSH1 0x0 DUP1 SLOAD PUSH1 0xFF NOT AND PUSH1 0x1 OR SWAP1 SSTORE SWAP1 JUMP JUMPDEST PUSH1 0x0 PUSH2 0xCBF DUP3 PUSH2 0x28F6 JUMP JUMPDEST PUSH1 0xC SLOAD DUP2 JUMP JUMPDEST PUSH1 0x2 DUP1 SLOAD PUSH1 0x40 DUP1 MLOAD PUSH1 0x20 PUSH1 0x1 DUP5 AND ISZERO PUSH2 0x100 MUL PUSH1 0x0 NOT ADD SWAP1 SWAP4 AND DUP5 SWAP1 DIV PUSH1 0x1F DUP2 ADD DUP5 SWAP1 DIV DUP5 MUL DUP3 ADD DUP5 ADD SWAP1 SWAP3 MSTORE DUP2 DUP2 MSTORE SWAP3 SWAP2 DUP4 ADD DUP3 DUP3 DUP1 ISZERO PUSH2 0xC50 JUMPI DUP1 PUSH1 0x1F LT PUSH2 0xC25 JUMPI PUSH2 0x100 DUP1 DUP4 SLOAD DIV MUL DUP4 MSTORE SWAP2 PUSH1 0x20 ADD SWAP2 PUSH2 0xC50 JUMP JUMPDEST PUSH1 0x0 DUP1 PUSH1 0x0 PUSH2 0x145C DUP5 PUSH2 0x2977 JUMP JUMPDEST SWAP1 SWAP3 POP SWAP1 POP PUSH1 0x0 DUP3 PUSH1 0x3 DUP2 GT ISZERO PUSH2 0x146F JUMPI INVALID JUMPDEST EQ PUSH2 0x14AB JUMPI PUSH1 0x40 MLOAD PUSH3 0x461BCD PUSH1 0xE5 SHL DUP2 MSTORE PUSH1 0x4 ADD DUP1 DUP1 PUSH1 0x20 ADD DUP3 DUP2 SUB DUP3 MSTORE PUSH1 0x37 DUP2 MSTORE PUSH1 0x20 ADD DUP1 PUSH2 0x5346 PUSH1 0x37 SWAP2 CODECOPY PUSH1 0x40 ADD SWAP2 POP POP PUSH1 0x40 MLOAD DUP1 SWAP2 SUB SWAP1 REVERT JUMPDEST SWAP4 SWAP3 POP POP POP JUMP JUMPDEST PUSH1 0x3 SLOAD PUSH2 0x100 SWAP1 DIV PUSH1 0x1 PUSH1 0x1 PUSH1 0xA0 SHL SUB AND CALLER EQ PUSH2 0x1500 JUMPI PUSH1 0x40 MLOAD PUSH3 0x461BCD PUSH1 0xE5 SHL DUP2 MSTORE PUSH1 0x4 ADD DUP1 DUP1 PUSH1 0x20 ADD DUP3 DUP2 SUB DUP3 MSTORE PUSH1 0x24 DUP2 MSTORE PUSH1 0x20 ADD DUP1 PUSH2 0x51F1 PUSH1 0x24 SWAP2 CODECOPY PUSH1 0x40 ADD SWAP2 POP POP PUSH1 0x40 MLOAD DUP1 SWAP2 SUB SWAP1 REVERT JUMPDEST PUSH1 0x9 SLOAD ISZERO DUP1 ISZERO PUSH2 0x1510 JUMPI POP PUSH1 0xA SLOAD ISZERO JUMPDEST PUSH2 0x154B JUMPI PUSH1 0x40 MLOAD PUSH3 0x461BCD PUSH1 0xE5 SHL DUP2 MSTORE PUSH1 0x4 ADD DUP1 DUP1 PUSH1 0x20 ADD DUP3 DUP2 SUB DUP3 MSTORE PUSH1 0x23 DUP2 MSTORE PUSH1 0x20 ADD DUP1 PUSH2 0x5215 PUSH1 0x23 SWAP2 CODECOPY PUSH1 0x40 ADD SWAP2 POP POP PUSH1 0x40 MLOAD DUP1 SWAP2 SUB SWAP1 REVERT JUMPDEST PUSH1 0x7 DUP5 SWAP1 SSTORE DUP4 PUSH2 0x158C JUMPI PUSH1 0x40 MLOAD PUSH3 0x461BCD PUSH1 0xE5 SHL DUP2 MSTORE PUSH1 0x4 ADD DUP1 DUP1 PUSH1 0x20 ADD DUP3 DUP2 SUB DUP3 MSTORE PUSH1 0x30 DUP2 MSTORE PUSH1 0x20 ADD DUP1 PUSH2 0x5238 PUSH1 0x30 SWAP2 CODECOPY PUSH1 0x40 ADD SWAP2 POP POP PUSH1 0x40 MLOAD DUP1 SWAP2 SUB SWAP1 REVERT JUMPDEST PUSH1 0x0 PUSH2 0x1597 DUP8 PUSH2 0x1C1E JUMP JUMPDEST SWAP1 POP DUP1 ISZERO PUSH2 0x15EC JUMPI PUSH1 0x40 DUP1 MLOAD PUSH3 0x461BCD PUSH1 0xE5 SHL DUP2 MSTORE PUSH1 0x20 PUSH1 0x4 DUP3 ADD MSTORE PUSH1 0x1B PUSH1 0x24 DUP3 ADD MSTORE PUSH32 0x73657474696E6720746563746F6E6963436F7265206661696C65640000000000 PUSH1 0x44 DUP3 ADD MSTORE SWAP1 MLOAD SWAP1 DUP2 SWAP1 SUB PUSH1 0x64 ADD SWAP1 REVERT JUMPDEST PUSH2 0x15F4 PUSH2 0x2A2B JUMP JUMPDEST PUSH1 0x9 SSTORE PUSH8 0xDE0B6B3A7640000 PUSH1 0xA SSTORE PUSH2 0x160C DUP7 PUSH2 0x2A2F JUMP JUMPDEST SWAP1 POP DUP1 ISZERO PUSH2 0x164B JUMPI PUSH1 0x40 MLOAD PUSH3 0x461BCD PUSH1 0xE5 SHL DUP2 MSTORE PUSH1 0x4 ADD DUP1 DUP1 PUSH1 0x20 ADD DUP3 DUP2 SUB DUP3 MSTORE PUSH1 0x22 DUP2 MSTORE PUSH1 0x20 ADD DUP1 PUSH2 0x5268 PUSH1 0x22 SWAP2 CODECOPY PUSH1 0x40 ADD SWAP2 POP POP PUSH1 0x40 MLOAD DUP1 SWAP2 SUB SWAP1 REVERT JUMPDEST DUP4 MLOAD PUSH2 0x165E SWAP1 PUSH1 0x1 SWAP1 PUSH1 0x20 DUP8 ADD SWAP1 PUSH2 0x505E JUMP JUMPDEST POP DUP3 MLOAD PUSH2 0x1672 SWAP1 PUSH1 0x2 SWAP1 PUSH1 0x20 DUP7 ADD SWAP1 PUSH2 0x505E JUMP JUMPDEST POP POP PUSH1 0x3 DUP1 SLOAD PUSH1 0xFF SWAP1 SWAP3 AND PUSH1 0xFF NOT SWAP3 DUP4 AND OR SWAP1 SSTORE PUSH1 0x0 DUP1 SLOAD SWAP1 SWAP2 AND PUSH1 0x1 OR SWAP1 SSTORE POP POP POP POP POP JUMP JUMPDEST PUSH1 0x1 DUP2 JUMP JUMPDEST PUSH1 0x0 DUP1 PUSH2 0xCD1 DUP4 PUSH2 0x2BA4 JUMP JUMPDEST PUSH1 0x0 DUP1 PUSH2 0x16B5 PUSH2 0x2A2B JUMP JUMPDEST PUSH1 0x9 SLOAD SWAP1 SWAP2 POP DUP1 DUP3 EQ ISZERO PUSH2 0x16CE JUMPI PUSH1 0x0 SWAP3 POP POP POP PUSH2 0xE57 JUMP JUMPDEST PUSH1 0x0 PUSH2 0x16D8 PUSH2 0x2649 JUMP JUMPDEST PUSH1 0xB SLOAD PUSH1 0xC SLOAD PUSH1 0xA SLOAD PUSH1 0x6 SLOAD PUSH1 0x40 DUP1 MLOAD PUSH4 0x15F24053 PUSH1 0xE0 SHL DUP2 MSTORE PUSH1 0x4 DUP2 ADD DUP8 SWAP1 MSTORE PUSH1 0x24 DUP2 ADD DUP7 SWAP1 MSTORE PUSH1 0x44 DUP2 ADD DUP6 SWAP1 MSTORE SWAP1 MLOAD SWAP6 SWAP7 POP SWAP4 SWAP5 SWAP3 SWAP4 SWAP2 SWAP3 PUSH1 0x0 SWAP3 PUSH1 0x1 PUSH1 0x1 PUSH1 0xA0 SHL SUB SWAP1 SWAP3 AND SWAP2 PUSH4 0x15F24053 SWAP2 PUSH1 0x64 DUP1 DUP4 ADD SWAP3 PUSH1 0x20 SWAP3 SWAP2 SWAP1 DUP3 SWAP1 SUB ADD DUP2 DUP7 DUP1 EXTCODESIZE ISZERO DUP1 ISZERO PUSH2 0x1746 JUMPI PUSH1 0x0 DUP1 REVERT JUMPDEST POP GAS STATICCALL ISZERO DUP1 ISZERO PUSH2 0x175A JUMPI RETURNDATASIZE PUSH1 0x0 DUP1 RETURNDATACOPY RETURNDATASIZE PUSH1 0x0 REVERT JUMPDEST POP POP POP POP PUSH1 0x40 MLOAD RETURNDATASIZE PUSH1 0x20 DUP2 LT ISZERO PUSH2 0x1770 JUMPI PUSH1 0x0 DUP1 REVERT JUMPDEST POP MLOAD SWAP1 POP PUSH6 0x48C27395000 DUP2 GT ISZERO PUSH2 0x17CF JUMPI PUSH1 0x40 DUP1 MLOAD PUSH3 0x461BCD PUSH1 0xE5 SHL DUP2 MSTORE PUSH1 0x20 PUSH1 0x4 DUP3 ADD MSTORE PUSH1 0x1C PUSH1 0x24 DUP3 ADD MSTORE PUSH32 0x626F72726F772072617465206973206162737572646C79206869676800000000 PUSH1 0x44 DUP3 ADD MSTORE SWAP1 MLOAD SWAP1 DUP2 SWAP1 SUB PUSH1 0x64 ADD SWAP1 REVERT JUMPDEST PUSH1 0x0 DUP1 PUSH2 0x17DC DUP10 DUP10 PUSH2 0x2C25 JUMP JUMPDEST SWAP1 SWAP3 POP SWAP1 POP PUSH1 0x0 DUP3 PUSH1 0x3 DUP2 GT ISZERO PUSH2 0x17EF JUMPI INVALID JUMPDEST EQ PUSH2 0x1841 JUMPI PUSH1 0x40 DUP1 MLOAD PUSH3 0x461BCD PUSH1 0xE5 SHL DUP2 MSTORE PUSH1 0x20 PUSH1 0x4 DUP3 ADD MSTORE PUSH1 0x1F PUSH1 0x24 DUP3 ADD MSTORE PUSH32 0x636F756C64206E6F742063616C63756C61746520626C6F636B2064656C746100 PUSH1 0x44 DUP3 ADD MSTORE SWAP1 MLOAD SWAP1 DUP2 SWAP1 SUB PUSH1 0x64 ADD SWAP1 REVERT JUMPDEST PUSH2 0x1849 PUSH2 0x504B JUMP JUMPDEST PUSH1 0x0 DUP1 PUSH1 0x0 DUP1 PUSH2 0x1867 PUSH1 0x40 MLOAD DUP1 PUSH1 0x20 ADD PUSH1 0x40 MSTORE DUP1 DUP11 DUP2 MSTORE POP DUP8 PUSH2 0x2C48 JUMP JUMPDEST SWAP1 SWAP8 POP SWAP5 POP PUSH1 0x0 DUP8 PUSH1 0x3 DUP2 GT ISZERO PUSH2 0x187A JUMPI INVALID JUMPDEST EQ PUSH2 0x18AC JUMPI PUSH2 0x1897 PUSH1 0x9 PUSH1 0x6 DUP10 PUSH1 0x3 DUP2 GT ISZERO PUSH2 0x1892 JUMPI INVALID JUMPDEST PUSH2 0x2CB0 JUMP JUMPDEST SWAP15 POP POP POP POP POP POP POP POP POP POP POP POP POP POP POP PUSH2 0xE57 JUMP JUMPDEST PUSH2 0x18B6 DUP6 DUP13 PUSH2 0x25F5 JUMP JUMPDEST SWAP1 SWAP8 POP SWAP4 POP PUSH1 0x0 DUP8 PUSH1 0x3 DUP2 GT ISZERO PUSH2 0x18C9 JUMPI INVALID JUMPDEST EQ PUSH2 0x18E1 JUMPI PUSH2 0x1897 PUSH1 0x9 PUSH1 0x1 DUP10 PUSH1 0x3 DUP2 GT ISZERO PUSH2 0x1892 JUMPI INVALID JUMPDEST PUSH2 0x18EB DUP5 DUP13 PUSH2 0x2D16 JUMP JUMPDEST SWAP1 SWAP8 POP SWAP3 POP PUSH1 0x0 DUP8 PUSH1 0x3 DUP2 GT ISZERO PUSH2 0x18FE JUMPI INVALID JUMPDEST EQ PUSH2 0x1916 JUMPI PUSH2 0x1897 PUSH1 0x9 PUSH1 0x4 DUP10 PUSH1 0x3 DUP2 GT ISZERO PUSH2 0x1892 JUMPI INVALID JUMPDEST PUSH2 0x1931 PUSH1 0x40 MLOAD DUP1 PUSH1 0x20 ADD PUSH1 0x40 MSTORE DUP1 PUSH1 0x8 SLOAD DUP2 MSTORE POP DUP6 DUP13 PUSH2 0x2D3C JUMP JUMPDEST SWAP1 SWAP8 POP SWAP2 POP PUSH1 0x0 DUP8 PUSH1 0x3 DUP2 GT ISZERO PUSH2 0x1944 JUMPI INVALID JUMPDEST EQ PUSH2 0x195C JUMPI PUSH2 0x1897 PUSH1 0x9 PUSH1 0x5 DUP10 PUSH1 0x3 DUP2 GT ISZERO PUSH2 0x1892 JUMPI INVALID JUMPDEST PUSH2 0x1967 DUP6 DUP11 DUP12 PUSH2 0x2D3C JUMP JUMPDEST SWAP1 SWAP8 POP SWAP1 POP PUSH1 0x0 DUP8 PUSH1 0x3 DUP2 GT ISZERO PUSH2 0x197A JUMPI INVALID JUMPDEST EQ PUSH2 0x1992 JUMPI PUSH2 0x1897 PUSH1 0x9 PUSH1 0x3 DUP10 PUSH1 0x3 DUP2 GT ISZERO PUSH2 0x1892 JUMPI INVALID JUMPDEST PUSH1 0x9 DUP15 SWAP1 SSTORE PUSH1 0xA DUP2 SWAP1 SSTORE PUSH1 0xB DUP4 SWAP1 SSTORE PUSH1 0xC DUP3 SWAP1 SSTORE PUSH1 0x40 DUP1 MLOAD DUP14 DUP2 MSTORE PUSH1 0x20 DUP2 ADD DUP7 SWAP1 MSTORE DUP1 DUP3 ADD DUP4 SWAP1 MSTORE PUSH1 0x60 DUP2 ADD DUP6 SWAP1 MSTORE SWAP1 MLOAD PUSH32 0x4DEC04E750CA11537CABCD8A9EAB06494DE08DA3735BC8871CD41250E190BC04 SWAP2 DUP2 SWAP1 SUB PUSH1 0x80 ADD SWAP1 LOG1 PUSH1 0x0 SWAP15 POP POP POP POP POP POP POP POP POP POP POP POP POP POP POP SWAP1 JUMP JUMPDEST PUSH1 0x0 DUP1 SLOAD PUSH1 0xFF AND PUSH2 0x1A47 JUMPI PUSH1 0x40 DUP1 MLOAD PUSH3 0x461BCD PUSH1 0xE5 SHL DUP2 MSTORE PUSH1 0x20 PUSH1 0x4 DUP3 ADD MSTORE PUSH1 0xA PUSH1 0x24 DUP3 ADD MSTORE PUSH10 0x1C994B595B9D195C9959 PUSH1 0xB2 SHL PUSH1 0x44 DUP3 ADD MSTORE SWAP1 MLOAD SWAP1 DUP2 SWAP1 SUB PUSH1 0x64 ADD SWAP1 REVERT JUMPDEST PUSH1 0x0 DUP1 SLOAD PUSH1 0xFF NOT AND DUP2 SSTORE PUSH2 0x1A5D CALLER CALLER DUP7 DUP7 PUSH2 0x22BE JUMP JUMPDEST EQ SWAP1 POP PUSH1 0x0 DUP1 SLOAD PUSH1 0xFF NOT AND PUSH1 0x1 OR SWAP1 SSTORE SWAP3 SWAP2 POP POP JUMP JUMPDEST PUSH1 0xA SLOAD DUP2 JUMP JUMPDEST PUSH1 0x6 SLOAD PUSH1 0x0 SWAP1 PUSH1 0x1 PUSH1 0x1 PUSH1 0xA0 SHL SUB AND PUSH4 0xB8168816 PUSH2 0x1A95 PUSH2 0x2649 JUMP JUMPDEST PUSH1 0xB SLOAD PUSH1 0xC SLOAD PUSH1 0x8 SLOAD PUSH1 0x40 MLOAD DUP6 PUSH4 0xFFFFFFFF AND PUSH1 0xE0 SHL DUP2 MSTORE PUSH1 0x4 ADD DUP1 DUP6 DUP2 MSTORE PUSH1 0x20 ADD DUP5 DUP2 MSTORE PUSH1 0x20 ADD DUP4 DUP2 MSTORE PUSH1 0x20 ADD DUP3 DUP2 MSTORE PUSH1 0x20 ADD SWAP5 POP POP POP POP POP PUSH1 0x20 PUSH1 0x40 MLOAD DUP1 DUP4 SUB DUP2 DUP7 DUP1 EXTCODESIZE ISZERO DUP1 ISZERO PUSH2 0x1AE7 JUMPI PUSH1 0x0 DUP1 REVERT JUMPDEST POP GAS STATICCALL ISZERO DUP1 ISZERO PUSH2 0x1AFB JUMPI RETURNDATASIZE PUSH1 0x0 DUP1 RETURNDATACOPY RETURNDATASIZE PUSH1 0x0 REVERT JUMPDEST POP POP POP POP PUSH1 0x40 MLOAD RETURNDATASIZE PUSH1 0x20 DUP2 LT ISZERO PUSH2 0x1B11 JUMPI PUSH1 0x0 DUP1 REVERT JUMPDEST POP MLOAD SWAP1 POP SWAP1 JUMP JUMPDEST PUSH1 0x0 DUP1 SLOAD PUSH1 0xFF AND PUSH2 0x1B5D JUMPI PUSH1 0x40 DUP1 MLOAD PUSH3 0x461BCD PUSH1 0xE5 SHL DUP2 MSTORE PUSH1 0x20 PUSH1 0x4 DUP3 ADD MSTORE PUSH1 0xA PUSH1 0x24 DUP3 ADD MSTORE PUSH10 0x1C994B595B9D195C9959 PUSH1 0xB2 SHL PUSH1 0x44 DUP3 ADD MSTORE SWAP1 MLOAD SWAP1 DUP2 SWAP1 SUB PUSH1 0x64 ADD SWAP1 REVERT JUMPDEST PUSH1 0x0 DUP1 SLOAD PUSH1 0xFF NOT AND SWAP1 SSTORE PUSH2 0x1B73 CALLER DUP6 DUP6 DUP6 PUSH2 0x2D98 JUMP JUMPDEST SWAP1 POP PUSH1 0x0 DUP1 SLOAD PUSH1 0xFF NOT AND PUSH1 0x1 OR SWAP1 SSTORE SWAP4 SWAP3 POP POP POP JUMP JUMPDEST PUSH1 0x3 SLOAD PUSH1 0x0 SWAP1 PUSH2 0x100 SWAP1 DIV PUSH1 0x1 PUSH1 0x1 PUSH1 0xA0 SHL SUB AND CALLER EQ PUSH2 0x1BB6 JUMPI PUSH2 0x1BAF PUSH1 0x1 PUSH1 0x45 PUSH2 0x275D JUMP JUMPDEST SWAP1 POP PUSH2 0xCD6 JUMP JUMPDEST PUSH1 0x4 DUP1 SLOAD PUSH1 0x1 PUSH1 0x1 PUSH1 0xA0 SHL SUB DUP5 DUP2 AND PUSH1 0x1 PUSH1 0x1 PUSH1 0xA0 SHL SUB NOT DUP4 AND DUP2 OR SWAP1 SWAP4 SSTORE PUSH1 0x40 DUP1 MLOAD SWAP2 SWAP1 SWAP3 AND DUP1 DUP3 MSTORE PUSH1 0x20 DUP3 ADD SWAP4 SWAP1 SWAP4 MSTORE DUP2 MLOAD PUSH32 0xCA4F2F25D0898EDD99413412FB94012F9E54EC8142F9B093E7720646A95B16A9 SWAP3 SWAP2 DUP2 SWAP1 SUB SWAP1 SWAP2 ADD SWAP1 LOG1 PUSH1 0x0 SWAP4 SWAP3 POP POP POP JUMP JUMPDEST PUSH1 0x3 SLOAD PUSH1 0x0 SWAP1 PUSH2 0x100 SWAP1 DIV PUSH1 0x1 PUSH1 0x1 PUSH1 0xA0 SHL SUB AND CALLER EQ PUSH2 0x1C44 JUMPI PUSH2 0x1BAF PUSH1 0x1 PUSH1 0x3F PUSH2 0x275D JUMP JUMPDEST PUSH1 0x5 SLOAD PUSH1 0x40 DUP1 MLOAD PUSH4 0xA6DF963F PUSH1 0xE0 SHL DUP2 MSTORE SWAP1 MLOAD PUSH1 0x1 PUSH1 0x1 PUSH1 0xA0 SHL SUB SWAP3 DUP4 AND SWAP3 DUP6 AND SWAP2 PUSH4 0xA6DF963F SWAP2 PUSH1 0x4 DUP1 DUP4 ADD SWAP3 PUSH1 0x20 SWAP3 SWAP2 SWAP1 DUP3 SWAP1 SUB ADD DUP2 DUP7 DUP1 EXTCODESIZE ISZERO DUP1 ISZERO PUSH2 0x1C8B JUMPI PUSH1 0x0 DUP1 REVERT JUMPDEST POP GAS STATICCALL ISZERO DUP1 ISZERO PUSH2 0x1C9F JUMPI RETURNDATASIZE PUSH1 0x0 DUP1 RETURNDATACOPY RETURNDATASIZE PUSH1 0x0 REVERT JUMPDEST POP POP POP POP PUSH1 0x40 MLOAD RETURNDATASIZE PUSH1 0x20 DUP2 LT ISZERO PUSH2 0x1CB5 JUMPI PUSH1 0x0 DUP1 REVERT JUMPDEST POP MLOAD PUSH2 0x1D08 JUMPI PUSH1 0x40 DUP1 MLOAD PUSH3 0x461BCD PUSH1 0xE5 SHL DUP2 MSTORE PUSH1 0x20 PUSH1 0x4 DUP3 ADD MSTORE PUSH1 0x1C PUSH1 0x24 DUP3 ADD MSTORE PUSH32 0x6D61726B6572206D6574686F642072657475726E65642066616C736500000000 PUSH1 0x44 DUP3 ADD MSTORE SWAP1 MLOAD SWAP1 DUP2 SWAP1 SUB PUSH1 0x64 ADD SWAP1 REVERT JUMPDEST PUSH1 0x5 DUP1 SLOAD PUSH1 0x1 PUSH1 0x1 PUSH1 0xA0 SHL SUB NOT AND PUSH1 0x1 PUSH1 0x1 PUSH1 0xA0 SHL SUB DUP6 DUP2 AND SWAP2 DUP3 OR SWAP1 SWAP3 SSTORE PUSH1 0x40 DUP1 MLOAD SWAP3 DUP5 AND DUP4 MSTORE PUSH1 0x20 DUP4 ADD SWAP2 SWAP1 SWAP2 MSTORE DUP1 MLOAD PUSH32 0x85513D662157B8DF3369B7DEAA0A6AFAFF4E5DE063A40B4BD2D130CB1C49382D SWAP3 DUP2 SWAP1 SUB SWAP1 SWAP2 ADD SWAP1 LOG1 PUSH1 0x0 PUSH2 0x14AB JUMP JUMPDEST PUSH1 0x0 DUP1 SLOAD PUSH1 0xFF AND PUSH2 0x1DB0 JUMPI PUSH1 0x40 DUP1 MLOAD PUSH3 0x461BCD PUSH1 0xE5 SHL DUP2 MSTORE PUSH1 0x20 PUSH1 0x4 DUP3 ADD MSTORE PUSH1 0xA PUSH1 0x24 DUP3 ADD MSTORE PUSH10 0x1C994B595B9D195C9959 PUSH1 0xB2 SHL PUSH1 0x44 DUP3 ADD MSTORE SWAP1 MLOAD SWAP1 DUP2 SWAP1 SUB PUSH1 0x64 ADD SWAP1 REVERT JUMPDEST PUSH1 0x0 DUP1 SLOAD PUSH1 0xFF NOT AND DUP2 SSTORE PUSH2 0x1DC2 PUSH2 0x16AA JUMP JUMPDEST EQ PUSH2 0x1E0D JUMPI PUSH1 0x40 DUP1 MLOAD PUSH3 0x461BCD PUSH1 0xE5 SHL DUP2 MSTORE PUSH1 0x20 PUSH1 0x4 DUP3 ADD MSTORE PUSH1 0x16 PUSH1 0x24 DUP3 ADD MSTORE PUSH22 0x1858D8DC9D59481A5B9D195C995CDD0819985A5B1959 PUSH1 0x52 SHL PUSH1 0x44 DUP3 ADD MSTORE SWAP1 MLOAD SWAP1 DUP2 SWAP1 SUB PUSH1 0x64 ADD SWAP1 REVERT JUMPDEST PUSH2 0x1E15 PUSH2 0xDF7 JUMP JUMPDEST SWAP1 POP PUSH1 0x0 DUP1 SLOAD PUSH1 0xFF NOT AND PUSH1 0x1 OR SWAP1 SSTORE SWAP1 JUMP JUMPDEST PUSH1 0x5 SLOAD PUSH1 0x1 PUSH1 0x1 PUSH1 0xA0 SHL SUB AND DUP2 JUMP JUMPDEST PUSH1 0x1 PUSH1 0x1 PUSH1 0xA0 SHL SUB DUP2 AND PUSH1 0x0 SWAP1 DUP2 MSTORE PUSH1 0xE PUSH1 0x20 MSTORE PUSH1 0x40 DUP2 KECCAK256 SLOAD DUP2 SWAP1 DUP2 SWAP1 DUP2 SWAP1 DUP2 DUP1 DUP1 PUSH2 0x1E61 DUP10 PUSH2 0x2977 JUMP JUMPDEST SWAP4 POP SWAP1 POP PUSH1 0x0 DUP2 PUSH1 0x3 DUP2 GT ISZERO PUSH2 0x1E73 JUMPI INVALID JUMPDEST EQ PUSH2 0x1E91 JUMPI PUSH1 0x9 JUMPDEST SWAP8 POP PUSH1 0x0 SWAP7 POP DUP7 SWAP6 POP DUP6 SWAP5 POP PUSH2 0x1EC4 SWAP4 POP POP POP POP JUMP JUMPDEST PUSH2 0x1E99 PUSH2 0x220F JUMP JUMPDEST SWAP3 POP SWAP1 POP PUSH1 0x0 DUP2 PUSH1 0x3 DUP2 GT ISZERO PUSH2 0x1EAB JUMPI INVALID JUMPDEST EQ PUSH2 0x1EB7 JUMPI PUSH1 0x9 PUSH2 0x1E7B JUMP JUMPDEST POP PUSH1 0x0 SWAP7 POP SWAP2 SWAP5 POP SWAP3 POP SWAP1 POP JUMPDEST SWAP2 SWAP4 POP SWAP2 SWAP4 JUMP JUMPDEST PUSH1 0x0 PUSH2 0xCBF DUP3 PUSH2 0x3172 JUMP JUMPDEST PUSH1 0x0 PUSH2 0xCBF DUP3 PUSH2 0x31F1 JUMP JUMPDEST PUSH1 0x1 PUSH1 0x1 PUSH1 0xA0 SHL SUB SWAP2 DUP3 AND PUSH1 0x0 SWAP1 DUP2 MSTORE PUSH1 0xF PUSH1 0x20 SWAP1 DUP2 MSTORE PUSH1 0x40 DUP1 DUP4 KECCAK256 SWAP4 SWAP1 SWAP5 AND DUP3 MSTORE SWAP2 SWAP1 SWAP2 MSTORE KECCAK256 SLOAD SWAP1 JUMP JUMPDEST PUSH1 0x4 SLOAD PUSH1 0x0 SWAP1 PUSH1 0x1 PUSH1 0x1 PUSH1 0xA0 SHL SUB AND CALLER EQ ISZERO DUP1 PUSH2 0x1F27 JUMPI POP CALLER ISZERO JUMPDEST ISZERO PUSH2 0x1F3F JUMPI PUSH2 0x1F38 PUSH1 0x1 PUSH1 0x0 PUSH2 0x275D JUMP JUMPDEST SWAP1 POP PUSH2 0xE57 JUMP JUMPDEST PUSH1 0x3 DUP1 SLOAD PUSH1 0x4 DUP1 SLOAD PUSH1 0x1 PUSH1 0x1 PUSH1 0xA0 SHL SUB DUP2 DUP2 AND PUSH2 0x100 DUP2 DUP2 MUL PUSH2 0x100 PUSH1 0x1 PUSH1 0xA8 SHL SUB NOT DUP8 AND OR SWAP7 DUP8 SWAP1 SSTORE PUSH1 0x1 PUSH1 0x1 PUSH1 0xA0 SHL SUB NOT SWAP1 SWAP4 AND SWAP1 SWAP4 SSTORE PUSH1 0x40 DUP1 MLOAD SWAP5 DUP4 SWAP1 DIV DUP3 AND DUP1 DUP7 MSTORE SWAP3 SWAP1 SWAP6 DIV AND PUSH1 0x20 DUP5 ADD MSTORE DUP4 MLOAD SWAP1 SWAP4 SWAP2 SWAP3 PUSH32 0xF9FFABCA9C8276E99321725BCB43FB076A6C66A54B7F21C4E8146D8519B417DC SWAP3 SWAP1 DUP3 SWAP1 SUB ADD SWAP1 LOG1 PUSH1 0x4 SLOAD PUSH1 0x40 DUP1 MLOAD PUSH1 0x1 PUSH1 0x1 PUSH1 0xA0 SHL SUB DUP1 DUP6 AND DUP3 MSTORE SWAP1 SWAP3 AND PUSH1 0x20 DUP4 ADD MSTORE DUP1 MLOAD PUSH32 0xCA4F2F25D0898EDD99413412FB94012F9E54EC8142F9B093E7720646A95B16A9 SWAP3 DUP2 SWAP1 SUB SWAP1 SWAP2 ADD SWAP1 LOG1 PUSH1 0x0 SWAP3 POP POP POP SWAP1 JUMP JUMPDEST PUSH1 0x0 DUP1 PUSH2 0x201A PUSH2 0x16AA JUMP JUMPDEST SWAP1 POP DUP1 ISZERO PUSH2 0x2040 JUMPI PUSH2 0x2038 DUP2 PUSH1 0x10 DUP2 GT ISZERO PUSH2 0x2031 JUMPI INVALID JUMPDEST PUSH1 0x40 PUSH2 0x275D JUMP JUMPDEST SWAP2 POP POP PUSH2 0xCD6 JUMP JUMPDEST PUSH2 0x14AB DUP4 PUSH2 0x2A2F JUMP JUMPDEST PUSH1 0x6 SLOAD PUSH1 0x1 PUSH1 0x1 PUSH1 0xA0 SHL SUB AND DUP2 JUMP JUMPDEST PUSH1 0x0 DUP1 PUSH2 0x2066 DUP6 DUP6 DUP6 PUSH2 0x326B JUMP JUMPDEST POP SWAP6 SWAP5 POP POP POP POP POP JUMP JUMPDEST PUSH1 0x3 SLOAD PUSH2 0x100 SWAP1 DIV PUSH1 0x1 PUSH1 0x1 PUSH1 0xA0 SHL SUB AND DUP2 JUMP JUMPDEST PUSH1 0x6 SLOAD PUSH1 0x0 SWAP1 PUSH1 0x1 PUSH1 0x1 PUSH1 0xA0 SHL SUB AND PUSH4 0x15F24053 PUSH2 0x20A0 PUSH2 0x2649 JUMP JUMPDEST PUSH1 0xB SLOAD PUSH1 0xC SLOAD PUSH1 0x40 MLOAD DUP5 PUSH4 0xFFFFFFFF AND PUSH1 0xE0 SHL DUP2 MSTORE PUSH1 0x4 ADD DUP1 DUP5 DUP2 MSTORE PUSH1 0x20 ADD DUP4 DUP2 MSTORE PUSH1 0x20 ADD DUP3 DUP2 MSTORE PUSH1 0x20 ADD SWAP4 POP POP POP POP PUSH1 0x20 PUSH1 0x40 MLOAD DUP1 DUP4 SUB DUP2 DUP7 DUP1 EXTCODESIZE ISZERO DUP1 ISZERO PUSH2 0x1AE7 JUMPI PUSH1 0x0 DUP1 REVERT JUMPDEST PUSH1 0x0 DUP1 SLOAD PUSH1 0xFF AND PUSH2 0x212D JUMPI PUSH1 0x40 DUP1 MLOAD PUSH3 0x461BCD PUSH1 0xE5 SHL DUP2 MSTORE PUSH1 0x20 PUSH1 0x4 DUP3 ADD MSTORE PUSH1 0xA PUSH1 0x24 DUP3 ADD MSTORE PUSH10 0x1C994B595B9D195C9959 PUSH1 0xB2 SHL PUSH1 0x44 DUP3 ADD MSTORE SWAP1 MLOAD SWAP1 DUP2 SWAP1 SUB PUSH1 0x64 ADD SWAP1 REVERT JUMPDEST PUSH1 0x0 DUP1 SLOAD PUSH1 0xFF NOT AND DUP2 SSTORE PUSH2 0x213F PUSH2 0x16AA JUMP JUMPDEST SWAP1 POP DUP1 ISZERO PUSH2 0x215D JUMPI PUSH2 0x12CE DUP2 PUSH1 0x10 DUP2 GT ISZERO PUSH2 0x2156 JUMPI INVALID JUMPDEST PUSH1 0x46 PUSH2 0x275D JUMP JUMPDEST PUSH2 0x12DF DUP4 PUSH2 0x339D JUMP JUMPDEST PUSH1 0x0 DUP1 SLOAD DUP2 SWAP1 PUSH1 0xFF AND PUSH2 0x21AD JUMPI PUSH1 0x40 DUP1 MLOAD PUSH3 0x461BCD PUSH1 0xE5 SHL DUP2 MSTORE PUSH1 0x20 PUSH1 0x4 DUP3 ADD MSTORE PUSH1 0xA PUSH1 0x24 DUP3 ADD MSTORE PUSH10 0x1C994B595B9D195C9959 PUSH1 0xB2 SHL PUSH1 0x44 DUP3 ADD MSTORE SWAP1 MLOAD SWAP1 DUP2 SWAP1 SUB PUSH1 0x64 ADD SWAP1 REVERT JUMPDEST PUSH1 0x0 DUP1 SLOAD PUSH1 0xFF NOT AND DUP2 SSTORE PUSH2 0x21BF PUSH2 0x16AA JUMP JUMPDEST SWAP1 POP DUP1 ISZERO PUSH2 0x21EA JUMPI PUSH2 0x21DD DUP2 PUSH1 0x10 DUP2 GT ISZERO PUSH2 0x21D6 JUMPI INVALID JUMPDEST PUSH1 0x36 PUSH2 0x275D JUMP JUMPDEST SWAP3 POP PUSH1 0x0 SWAP2 POP PUSH2 0x21FB SWAP1 POP JUMP JUMPDEST PUSH2 0x21F5 CALLER CALLER DUP7 PUSH2 0x3445 JUMP JUMPDEST SWAP3 POP SWAP3 POP POP JUMPDEST PUSH1 0x0 DUP1 SLOAD PUSH1 0xFF NOT AND PUSH1 0x1 OR SWAP1 SSTORE SWAP1 SWAP3 SWAP1 SWAP2 POP JUMP JUMPDEST PUSH1 0xD SLOAD PUSH1 0x0 SWAP1 DUP2 SWAP1 DUP1 PUSH2 0x222A JUMPI POP POP PUSH1 0x7 SLOAD PUSH1 0x0 SWAP2 POP PUSH2 0x22BA JUMP JUMPDEST PUSH1 0x0 PUSH2 0x2234 PUSH2 0x2649 JUMP JUMPDEST SWAP1 POP PUSH1 0x0 PUSH2 0x2240 PUSH2 0x504B JUMP JUMPDEST PUSH1 0x0 PUSH2 0x2251 DUP5 PUSH1 0xB SLOAD PUSH1 0xC SLOAD PUSH2 0x3793 JUMP JUMPDEST SWAP4 POP SWAP1 POP PUSH1 0x0 DUP2 PUSH1 0x3 DUP2 GT ISZERO PUSH2 0x2263 JUMPI INVALID JUMPDEST EQ PUSH2 0x2278 JUMPI SWAP6 POP PUSH1 0x0 SWAP5 POP PUSH2 0x22BA SWAP4 POP POP POP POP JUMP JUMPDEST PUSH2 0x2282 DUP4 DUP7 PUSH2 0x37D1 JUMP JUMPDEST SWAP3 POP SWAP1 POP PUSH1 0x0 DUP2 PUSH1 0x3 DUP2 GT ISZERO PUSH2 0x2294 JUMPI INVALID JUMPDEST EQ PUSH2 0x22A9 JUMPI SWAP6 POP PUSH1 0x0 SWAP5 POP PUSH2 0x22BA SWAP4 POP POP POP POP JUMP JUMPDEST POP MLOAD PUSH1 0x0 SWAP6 POP SWAP4 POP PUSH2 0x22BA SWAP3 POP POP POP JUMP JUMPDEST SWAP1 SWAP2 JUMP JUMPDEST PUSH1 0x5 SLOAD PUSH1 0x40 DUP1 MLOAD PUSH4 0x17B9B84B PUSH1 0xE3 SHL DUP2 MSTORE ADDRESS PUSH1 0x4 DUP3 ADD MSTORE PUSH1 0x1 PUSH1 0x1 PUSH1 0xA0 SHL SUB DUP7 DUP2 AND PUSH1 0x24 DUP4 ADD MSTORE DUP6 DUP2 AND PUSH1 0x44 DUP4 ADD MSTORE PUSH1 0x64 DUP3 ADD DUP6 SWAP1 MSTORE SWAP2 MLOAD PUSH1 0x0 SWAP4 DUP5 SWAP4 AND SWAP2 PUSH4 0xBDCDC258 SWAP2 PUSH1 0x84 DUP1 DUP4 ADD SWAP3 PUSH1 0x20 SWAP3 SWAP2 SWAP1 DUP3 SWAP1 SUB ADD DUP2 DUP8 DUP8 DUP1 EXTCODESIZE ISZERO DUP1 ISZERO PUSH2 0x2323 JUMPI PUSH1 0x0 DUP1 REVERT JUMPDEST POP GAS CALL ISZERO DUP1 ISZERO PUSH2 0x2337 JUMPI RETURNDATASIZE PUSH1 0x0 DUP1 RETURNDATACOPY RETURNDATASIZE PUSH1 0x0 REVERT JUMPDEST POP POP POP POP PUSH1 0x40 MLOAD RETURNDATASIZE PUSH1 0x20 DUP2 LT ISZERO PUSH2 0x234D JUMPI PUSH1 0x0 DUP1 REVERT JUMPDEST POP MLOAD SWAP1 POP DUP1 ISZERO PUSH2 0x236C JUMPI PUSH2 0x2364 PUSH1 0x3 PUSH1 0x4A DUP4 PUSH2 0x2CB0 JUMP JUMPDEST SWAP2 POP POP PUSH2 0x11D1 JUMP JUMPDEST DUP4 PUSH1 0x1 PUSH1 0x1 PUSH1 0xA0 SHL SUB AND DUP6 PUSH1 0x1 PUSH1 0x1 PUSH1 0xA0 SHL SUB AND EQ ISZERO PUSH2 0x2392 JUMPI PUSH2 0x2364 PUSH1 0x2 PUSH1 0x4B PUSH2 0x275D JUMP JUMPDEST PUSH1 0x0 PUSH1 0x1 PUSH1 0x1 PUSH1 0xA0 SHL SUB DUP8 DUP2 AND SWAP1 DUP8 AND EQ ISZERO PUSH2 0x23B1 JUMPI POP PUSH1 0x0 NOT PUSH2 0x23D9 JUMP JUMPDEST POP PUSH1 0x1 PUSH1 0x1 PUSH1 0xA0 SHL SUB DUP1 DUP7 AND PUSH1 0x0 SWAP1 DUP2 MSTORE PUSH1 0xF PUSH1 0x20 SWAP1 DUP2 MSTORE PUSH1 0x40 DUP1 DUP4 KECCAK256 SWAP4 DUP11 AND DUP4 MSTORE SWAP3 SWAP1 MSTORE KECCAK256 SLOAD JUMPDEST PUSH1 0x0 DUP1 PUSH1 0x0 DUP1 PUSH2 0x23E9 DUP6 DUP10 PUSH2 0x2C25 JUMP JUMPDEST SWAP1 SWAP5 POP SWAP3 POP PUSH1 0x0 DUP5 PUSH1 0x3 DUP2 GT ISZERO PUSH2 0x23FC JUMPI INVALID JUMPDEST EQ PUSH2 0x241A JUMPI PUSH2 0x240D PUSH1 0x9 PUSH1 0x4B PUSH2 0x275D JUMP JUMPDEST SWAP7 POP POP POP POP POP POP POP PUSH2 0x11D1 JUMP JUMPDEST PUSH1 0x1 PUSH1 0x1 PUSH1 0xA0 SHL SUB DUP11 AND PUSH1 0x0 SWAP1 DUP2 MSTORE PUSH1 0xE PUSH1 0x20 MSTORE PUSH1 0x40 SWAP1 KECCAK256 SLOAD PUSH2 0x243D SWAP1 DUP10 PUSH2 0x2C25 JUMP JUMPDEST SWAP1 SWAP5 POP SWAP2 POP PUSH1 0x0 DUP5 PUSH1 0x3 DUP2 GT ISZERO PUSH2 0x2450 JUMPI INVALID JUMPDEST EQ PUSH2 0x2461 JUMPI PUSH2 0x240D PUSH1 0x9 PUSH1 0x4C PUSH2 0x275D JUMP JUMPDEST PUSH1 0x1 PUSH1 0x1 PUSH1 0xA0 SHL SUB DUP10 AND PUSH1 0x0 SWAP1 DUP2 MSTORE PUSH1 0xE PUSH1 0x20 MSTORE PUSH1 0x40 SWAP1 KECCAK256 SLOAD PUSH2 0x2484 SWAP1 DUP10 PUSH2 0x2D16 JUMP JUMPDEST SWAP1 SWAP5 POP SWAP1 POP PUSH1 0x0 DUP5 PUSH1 0x3 DUP2 GT ISZERO PUSH2 0x2497 JUMPI INVALID JUMPDEST EQ PUSH2 0x24A8 JUMPI PUSH2 0x240D PUSH1 0x9 PUSH1 0x4D PUSH2 0x275D JUMP JUMPDEST PUSH1 0x1 PUSH1 0x1 PUSH1 0xA0 SHL SUB DUP1 DUP12 AND PUSH1 0x0 SWAP1 DUP2 MSTORE PUSH1 0xE PUSH1 0x20 MSTORE PUSH1 0x40 DUP1 DUP3 KECCAK256 DUP6 SWAP1 SSTORE SWAP2 DUP12 AND DUP2 MSTORE KECCAK256 DUP2 SWAP1 SSTORE PUSH1 0x0 NOT DUP6 EQ PUSH2 0x2500 JUMPI PUSH1 0x1 PUSH1 0x1 PUSH1 0xA0 SHL SUB DUP1 DUP12 AND PUSH1 0x0 SWAP1 DUP2 MSTORE PUSH1 0xF PUSH1 0x20 SWAP1 DUP2 MSTORE PUSH1 0x40 DUP1 DUP4 KECCAK256 SWAP4 DUP16 AND DUP4 MSTORE SWAP3 SWAP1 MSTORE KECCAK256 DUP4 SWAP1 SSTORE JUMPDEST DUP9 PUSH1 0x1 PUSH1 0x1 PUSH1 0xA0 SHL SUB AND DUP11 PUSH1 0x1 PUSH1 0x1 PUSH1 0xA0 SHL SUB AND PUSH1 0x0 DUP1 MLOAD PUSH1 0x20 PUSH2 0x53B7 DUP4 CODECOPY DUP2 MLOAD SWAP2 MSTORE DUP11 PUSH1 0x40 MLOAD DUP1 DUP3 DUP2 MSTORE PUSH1 0x20 ADD SWAP2 POP POP PUSH1 0x40 MLOAD DUP1 SWAP2 SUB SWAP1 LOG3 POP PUSH1 0x0 SWAP11 SWAP10 POP POP POP POP POP POP POP POP POP POP JUMP JUMPDEST PUSH1 0x0 DUP1 SLOAD DUP2 SWAP1 PUSH1 0xFF AND PUSH2 0x2591 JUMPI PUSH1 0x40 DUP1 MLOAD PUSH3 0x461BCD PUSH1 0xE5 SHL DUP2 MSTORE PUSH1 0x20 PUSH1 0x4 DUP3 ADD MSTORE PUSH1 0xA PUSH1 0x24 DUP3 ADD MSTORE PUSH10 0x1C994B595B9D195C9959 PUSH1 0xB2 SHL PUSH1 0x44 DUP3 ADD MSTORE SWAP1 MLOAD SWAP1 DUP2 SWAP1 SUB PUSH1 0x64 ADD SWAP1 REVERT JUMPDEST PUSH1 0x0 DUP1 SLOAD PUSH1 0xFF NOT AND DUP2 SSTORE PUSH2 0x25A3 PUSH2 0x16AA JUMP JUMPDEST SWAP1 POP DUP1 ISZERO PUSH2 0x25CE JUMPI PUSH2 0x25C1 DUP2 PUSH1 0x10 DUP2 GT ISZERO PUSH2 0x25BA JUMPI INVALID JUMPDEST PUSH1 0x35 PUSH2 0x275D JUMP JUMPDEST SWAP3 POP PUSH1 0x0 SWAP2 POP PUSH2 0x25DF SWAP1 POP JUMP JUMPDEST PUSH2 0x25D9 CALLER DUP7 DUP7 PUSH2 0x3445 JUMP JUMPDEST SWAP3 POP SWAP3 POP POP JUMPDEST PUSH1 0x0 DUP1 SLOAD PUSH1 0xFF NOT AND PUSH1 0x1 OR SWAP1 SSTORE SWAP1 SWAP4 SWAP1 SWAP3 POP SWAP1 POP JUMP JUMPDEST PUSH1 0x0 DUP1 PUSH1 0x0 PUSH2 0x2602 PUSH2 0x504B JUMP JUMPDEST PUSH2 0x260C DUP7 DUP7 PUSH2 0x2C48 JUMP JUMPDEST SWAP1 SWAP3 POP SWAP1 POP PUSH1 0x0 DUP3 PUSH1 0x3 DUP2 GT ISZERO PUSH2 0x261F JUMPI INVALID JUMPDEST EQ PUSH2 0x2630 JUMPI POP SWAP2 POP PUSH1 0x0 SWAP1 POP PUSH2 0x2642 JUMP JUMPDEST PUSH1 0x0 PUSH2 0x263B DUP3 PUSH2 0x3881 JUMP JUMPDEST SWAP4 POP SWAP4 POP POP POP JUMPDEST SWAP3 POP SWAP3 SWAP1 POP JUMP JUMPDEST PUSH1 0x11 SLOAD PUSH1 0x40 DUP1 MLOAD PUSH4 0x70A08231 PUSH1 0xE0 SHL DUP2 MSTORE ADDRESS PUSH1 0x4 DUP3 ADD MSTORE SWAP1 MLOAD PUSH1 0x0 SWAP3 PUSH1 0x1 PUSH1 0x1 PUSH1 0xA0 SHL SUB AND SWAP2 DUP3 SWAP2 PUSH4 0x70A08231 SWAP2 PUSH1 0x24 DUP1 DUP3 ADD SWAP3 PUSH1 0x20 SWAP3 SWAP1 SWAP2 SWAP1 DUP3 SWAP1 SUB ADD DUP2 DUP7 DUP1 EXTCODESIZE ISZERO DUP1 ISZERO PUSH2 0x2697 JUMPI PUSH1 0x0 DUP1 REVERT JUMPDEST POP GAS STATICCALL ISZERO DUP1 ISZERO PUSH2 0x26AB JUMPI RETURNDATASIZE PUSH1 0x0 DUP1 RETURNDATACOPY RETURNDATASIZE PUSH1 0x0 REVERT JUMPDEST POP POP POP POP PUSH1 0x40 MLOAD RETURNDATASIZE PUSH1 0x20 DUP2 LT ISZERO PUSH2 0x26C1 JUMPI PUSH1 0x0 DUP1 REVERT JUMPDEST POP MLOAD SWAP2 POP POP SWAP1 JUMP JUMPDEST PUSH1 0x0 DUP1 SLOAD PUSH1 0xFF AND PUSH2 0x270E JUMPI PUSH1 0x40 DUP1 MLOAD PUSH3 0x461BCD PUSH1 0xE5 SHL DUP2 MSTORE PUSH1 0x20 PUSH1 0x4 DUP3 ADD MSTORE PUSH1 0xA PUSH1 0x24 DUP3 ADD MSTORE PUSH10 0x1C994B595B9D195C9959 PUSH1 0xB2 SHL PUSH1 0x44 DUP3 ADD MSTORE SWAP1 MLOAD SWAP1 DUP2 SWAP1 SUB PUSH1 0x64 ADD SWAP1 REVERT JUMPDEST PUSH1 0x0 DUP1 SLOAD PUSH1 0xFF NOT AND DUP2 SSTORE PUSH2 0x2720 PUSH2 0x16AA JUMP JUMPDEST SWAP1 POP DUP1 ISZERO PUSH2 0x273E JUMPI PUSH2 0x12CE DUP2 PUSH1 0x10 DUP2 GT ISZERO PUSH2 0x2737 JUMPI INVALID JUMPDEST PUSH1 0x4E PUSH2 0x275D JUMP JUMPDEST PUSH2 0x2747 DUP4 PUSH2 0x3890 JUMP JUMPDEST POP SWAP2 POP POP PUSH1 0x0 DUP1 SLOAD PUSH1 0xFF NOT AND PUSH1 0x1 OR SWAP1 SSTORE SWAP2 SWAP1 POP JUMP JUMPDEST PUSH1 0x0 PUSH32 0x45B96FE442630264581B197E84BBADA861235052C5A1AADFFF9EA4E40A969AA0 DUP4 PUSH1 0x10 DUP2 GT ISZERO PUSH2 0x278C JUMPI INVALID JUMPDEST DUP4 PUSH1 0x50 DUP2 GT ISZERO PUSH2 0x2798 JUMPI INVALID JUMPDEST PUSH1 0x40 DUP1 MLOAD SWAP3 DUP4 MSTORE PUSH1 0x20 DUP4 ADD SWAP2 SWAP1 SWAP2 MSTORE PUSH1 0x0 DUP3 DUP3 ADD MSTORE MLOAD SWAP1 DUP2 SWAP1 SUB PUSH1 0x60 ADD SWAP1 LOG1 DUP3 PUSH1 0x10 DUP2 GT ISZERO PUSH2 0x14AB JUMPI INVALID JUMPDEST PUSH1 0x3 SLOAD PUSH1 0x0 SWAP1 DUP2 SWAP1 PUSH2 0x100 SWAP1 DIV PUSH1 0x1 PUSH1 0x1 PUSH1 0xA0 SHL SUB AND CALLER EQ PUSH2 0x27EB JUMPI PUSH2 0x2038 PUSH1 0x1 PUSH1 0x31 PUSH2 0x275D JUMP JUMPDEST PUSH2 0x27F3 PUSH2 0x2A2B JUMP JUMPDEST PUSH1 0x9 SLOAD EQ PUSH2 0x2807 JUMPI PUSH2 0x2038 PUSH1 0xA PUSH1 0x33 PUSH2 0x275D JUMP JUMPDEST DUP3 PUSH2 0x2810 PUSH2 0x2649 JUMP JUMPDEST LT ISZERO PUSH2 0x2822 JUMPI PUSH2 0x2038 PUSH1 0xE PUSH1 0x32 PUSH2 0x275D JUMP JUMPDEST PUSH1 0xC SLOAD DUP4 GT ISZERO PUSH2 0x2838 JUMPI PUSH2 0x2038 PUSH1 0x2 PUSH1 0x34 PUSH2 0x275D JUMP JUMPDEST POP PUSH1 0xC SLOAD DUP3 DUP2 SUB SWAP1 DUP2 GT ISZERO PUSH2 0x287E JUMPI PUSH1 0x40 MLOAD PUSH3 0x461BCD PUSH1 0xE5 SHL DUP2 MSTORE PUSH1 0x4 ADD DUP1 DUP1 PUSH1 0x20 ADD DUP3 DUP2 SUB DUP3 MSTORE PUSH1 0x24 DUP2 MSTORE PUSH1 0x20 ADD DUP1 PUSH2 0x54CB PUSH1 0x24 SWAP2 CODECOPY PUSH1 0x40 ADD SWAP2 POP POP PUSH1 0x40 MLOAD DUP1 SWAP2 SUB SWAP1 REVERT JUMPDEST PUSH1 0xC DUP2 SWAP1 SSTORE PUSH1 0x3 SLOAD PUSH2 0x289E SWAP1 PUSH2 0x100 SWAP1 DIV PUSH1 0x1 PUSH1 0x1 PUSH1 0xA0 SHL SUB AND DUP5 PUSH2 0x3978 JUMP JUMPDEST PUSH1 0x3 SLOAD PUSH1 0x40 DUP1 MLOAD PUSH2 0x100 SWAP1 SWAP3 DIV PUSH1 0x1 PUSH1 0x1 PUSH1 0xA0 SHL SUB AND DUP3 MSTORE PUSH1 0x20 DUP3 ADD DUP6 SWAP1 MSTORE DUP2 DUP2 ADD DUP4 SWAP1 MSTORE MLOAD PUSH32 0x3BAD0C59CF2F06E7314077049F48A93578CD16F5EF92329F1DAB1420A99C177E SWAP2 PUSH1 0x60 SWAP1 DUP3 SWAP1 SUB ADD SWAP1 LOG1 PUSH1 0x0 PUSH2 0x14AB JUMP JUMPDEST PUSH1 0x0 DUP1 SLOAD PUSH1 0xFF AND PUSH2 0x293B JUMPI PUSH1 0x40 DUP1 MLOAD PUSH3 0x461BCD PUSH1 0xE5 SHL DUP2 MSTORE PUSH1 0x20 PUSH1 0x4 DUP3 ADD MSTORE PUSH1 0xA PUSH1 0x24 DUP3 ADD MSTORE PUSH10 0x1C994B595B9D195C9959 PUSH1 0xB2 SHL PUSH1 0x44 DUP3 ADD MSTORE SWAP1 MLOAD SWAP1 DUP2 SWAP1 SUB PUSH1 0x64 ADD SWAP1 REVERT JUMPDEST PUSH1 0x0 DUP1 SLOAD PUSH1 0xFF NOT AND DUP2 SSTORE PUSH2 0x294D PUSH2 0x16AA JUMP JUMPDEST SWAP1 POP DUP1 ISZERO PUSH2 0x296B JUMPI PUSH2 0x12CE DUP2 PUSH1 0x10 DUP2 GT ISZERO PUSH2 0x2964 JUMPI INVALID JUMPDEST PUSH1 0x27 PUSH2 0x275D JUMP JUMPDEST PUSH2 0x12DF CALLER PUSH1 0x0 DUP6 PUSH2 0x3A73 JUMP JUMPDEST PUSH1 0x1 PUSH1 0x1 PUSH1 0xA0 SHL SUB DUP2 AND PUSH1 0x0 SWAP1 DUP2 MSTORE PUSH1 0x10 PUSH1 0x20 MSTORE PUSH1 0x40 DUP2 KECCAK256 DUP1 SLOAD DUP3 SWAP2 DUP3 SWAP2 DUP3 SWAP2 DUP3 SWAP2 PUSH2 0x29AE JUMPI POP PUSH1 0x0 SWAP5 POP DUP5 SWAP4 POP PUSH2 0x2A26 SWAP3 POP POP POP JUMP JUMPDEST PUSH2 0x29BE DUP2 PUSH1 0x0 ADD SLOAD PUSH1 0xA SLOAD PUSH2 0x3F3A JUMP JUMPDEST SWAP1 SWAP5 POP SWAP3 POP PUSH1 0x0 DUP5 PUSH1 0x3 DUP2 GT ISZERO PUSH2 0x29D1 JUMPI INVALID JUMPDEST EQ PUSH2 0x29E6 JUMPI POP SWAP2 SWAP4 POP PUSH1 0x0 SWAP3 POP PUSH2 0x2A26 SWAP2 POP POP JUMP JUMPDEST PUSH2 0x29F4 DUP4 DUP3 PUSH1 0x1 ADD SLOAD PUSH2 0x3F79 JUMP JUMPDEST SWAP1 SWAP5 POP SWAP2 POP PUSH1 0x0 DUP5 PUSH1 0x3 DUP2 GT ISZERO PUSH2 0x2A07 JUMPI INVALID JUMPDEST EQ PUSH2 0x2A1C JUMPI POP SWAP2 SWAP4 POP PUSH1 0x0 SWAP3 POP PUSH2 0x2A26 SWAP2 POP POP JUMP JUMPDEST POP PUSH1 0x0 SWAP5 POP SWAP3 POP POP POP JUMPDEST SWAP2 POP SWAP2 JUMP JUMPDEST NUMBER SWAP1 JUMP JUMPDEST PUSH1 0x3 SLOAD PUSH1 0x0 SWAP1 DUP2 SWAP1 PUSH2 0x100 SWAP1 DIV PUSH1 0x1 PUSH1 0x1 PUSH1 0xA0 SHL SUB AND CALLER EQ PUSH2 0x2A57 JUMPI PUSH2 0x2038 PUSH1 0x1 PUSH1 0x42 PUSH2 0x275D JUMP JUMPDEST PUSH2 0x2A5F PUSH2 0x2A2B JUMP JUMPDEST PUSH1 0x9 SLOAD EQ PUSH2 0x2A73 JUMPI PUSH2 0x2038 PUSH1 0xA PUSH1 0x41 PUSH2 0x275D JUMP JUMPDEST PUSH1 0x6 PUSH1 0x0 SWAP1 SLOAD SWAP1 PUSH2 0x100 EXP SWAP1 DIV PUSH1 0x1 PUSH1 0x1 PUSH1 0xA0 SHL SUB AND SWAP1 POP DUP3 PUSH1 0x1 PUSH1 0x1 PUSH1 0xA0 SHL SUB AND PUSH4 0x2191F92A PUSH1 0x40 MLOAD DUP2 PUSH4 0xFFFFFFFF AND PUSH1 0xE0 SHL DUP2 MSTORE PUSH1 0x4 ADD PUSH1 0x20 PUSH1 0x40 MLOAD DUP1 DUP4 SUB DUP2 DUP7 DUP1 EXTCODESIZE ISZERO DUP1 ISZERO PUSH2 0x2AC4 JUMPI PUSH1 0x0 DUP1 REVERT JUMPDEST POP GAS STATICCALL ISZERO DUP1 ISZERO PUSH2 0x2AD8 JUMPI RETURNDATASIZE PUSH1 0x0 DUP1 RETURNDATACOPY RETURNDATASIZE PUSH1 0x0 REVERT JUMPDEST POP POP POP POP PUSH1 0x40 MLOAD RETURNDATASIZE PUSH1 0x20 DUP2 LT ISZERO PUSH2 0x2AEE JUMPI PUSH1 0x0 DUP1 REVERT JUMPDEST POP MLOAD PUSH2 0x2B41 JUMPI PUSH1 0x40 DUP1 MLOAD PUSH3 0x461BCD PUSH1 0xE5 SHL DUP2 MSTORE PUSH1 0x20 PUSH1 0x4 DUP3 ADD MSTORE PUSH1 0x1C PUSH1 0x24 DUP3 ADD MSTORE PUSH32 0x6D61726B6572206D6574686F642072657475726E65642066616C736500000000 PUSH1 0x44 DUP3 ADD MSTORE SWAP1 MLOAD SWAP1 DUP2 SWAP1 SUB PUSH1 0x64 ADD SWAP1 REVERT JUMPDEST PUSH1 0x6 DUP1 SLOAD PUSH1 0x1 PUSH1 0x1 PUSH1 0xA0 SHL SUB NOT AND PUSH1 0x1 PUSH1 0x1 PUSH1 0xA0 SHL SUB DUP6 DUP2 AND SWAP2 DUP3 OR SWAP1 SWAP3 SSTORE PUSH1 0x40 DUP1 MLOAD SWAP3 DUP5 AND DUP4 MSTORE PUSH1 0x20 DUP4 ADD SWAP2 SWAP1 SWAP2 MSTORE DUP1 MLOAD PUSH32 0xEDFFC32E068C7C95DFD4BDFD5C4D939A084D6B11C4199EAC8436ED234D72F926 SWAP3 DUP2 SWAP1 SUB SWAP1 SWAP2 ADD SWAP1 LOG1 PUSH1 0x0 PUSH2 0x14AB JUMP JUMPDEST PUSH1 0x0 DUP1 SLOAD DUP2 SWAP1 PUSH1 0xFF AND PUSH2 0x2BEB JUMPI PUSH1 0x40 DUP1 MLOAD PUSH3 0x461BCD PUSH1 0xE5 SHL DUP2 MSTORE PUSH1 0x20 PUSH1 0x4 DUP3 ADD MSTORE PUSH1 0xA PUSH1 0x24 DUP3 ADD MSTORE PUSH10 0x1C994B595B9D195C9959 PUSH1 0xB2 SHL PUSH1 0x44 DUP3 ADD MSTORE SWAP1 MLOAD SWAP1 DUP2 SWAP1 SUB PUSH1 0x64 ADD SWAP1 REVERT JUMPDEST PUSH1 0x0 DUP1 SLOAD PUSH1 0xFF NOT AND DUP2 SSTORE PUSH2 0x2BFD PUSH2 0x16AA JUMP JUMPDEST SWAP1 POP DUP1 ISZERO PUSH2 0x2C1B JUMPI PUSH2 0x21DD DUP2 PUSH1 0x10 DUP2 GT ISZERO PUSH2 0x2C14 JUMPI INVALID JUMPDEST PUSH1 0x1E PUSH2 0x275D JUMP JUMPDEST PUSH2 0x21F5 CALLER DUP6 PUSH2 0x3FA4 JUMP JUMPDEST PUSH1 0x0 DUP1 DUP4 DUP4 GT PUSH2 0x2C3C JUMPI POP PUSH1 0x0 SWAP1 POP DUP2 DUP4 SUB PUSH2 0x2642 JUMP JUMPDEST POP PUSH1 0x3 SWAP1 POP PUSH1 0x0 PUSH2 0x2642 JUMP JUMPDEST PUSH1 0x0 PUSH2 0x2C52 PUSH2 0x504B JUMP JUMPDEST PUSH1 0x0 DUP1 PUSH2 0x2C63 DUP7 PUSH1 0x0 ADD MLOAD DUP7 PUSH2 0x3F3A JUMP JUMPDEST SWAP1 SWAP3 POP SWAP1 POP PUSH1 0x0 DUP3 PUSH1 0x3 DUP2 GT ISZERO PUSH2 0x2C76 JUMPI INVALID JUMPDEST EQ PUSH2 0x2C95 JUMPI POP PUSH1 0x40 DUP1 MLOAD PUSH1 0x20 DUP2 ADD SWAP1 SWAP2 MSTORE PUSH1 0x0 DUP2 MSTORE SWAP1 SWAP3 POP SWAP1 POP PUSH2 0x2642 JUMP JUMPDEST PUSH1 0x40 DUP1 MLOAD PUSH1 0x20 DUP2 ADD SWAP1 SWAP2 MSTORE SWAP1 DUP2 MSTORE PUSH1 0x0 SWAP7 SWAP1 SWAP6 POP SWAP4 POP POP POP POP JUMP JUMPDEST PUSH1 0x0 PUSH32 0x45B96FE442630264581B197E84BBADA861235052C5A1AADFFF9EA4E40A969AA0 DUP5 PUSH1 0x10 DUP2 GT ISZERO PUSH2 0x2CDF JUMPI INVALID JUMPDEST DUP5 PUSH1 0x50 DUP2 GT ISZERO PUSH2 0x2CEB JUMPI INVALID JUMPDEST PUSH1 0x40 DUP1 MLOAD SWAP3 DUP4 MSTORE PUSH1 0x20 DUP4 ADD SWAP2 SWAP1 SWAP2 MSTORE DUP2 DUP2 ADD DUP6 SWAP1 MSTORE MLOAD SWAP1 DUP2 SWAP1 SUB PUSH1 0x60 ADD SWAP1 LOG1 DUP4 PUSH1 0x10 DUP2 GT ISZERO PUSH2 0x11D1 JUMPI INVALID JUMPDEST PUSH1 0x0 DUP1 DUP4 DUP4 ADD DUP5 DUP2 LT PUSH2 0x2D2E JUMPI PUSH1 0x0 SWAP3 POP SWAP1 POP PUSH2 0x2642 JUMP JUMPDEST POP PUSH1 0x2 SWAP2 POP PUSH1 0x0 SWAP1 POP PUSH2 0x2642 JUMP JUMPDEST PUSH1 0x0 DUP1 PUSH1 0x0 PUSH2 0x2D49 PUSH2 0x504B JUMP JUMPDEST PUSH2 0x2D53 DUP8 DUP8 PUSH2 0x2C48 JUMP JUMPDEST SWAP1 SWAP3 POP SWAP1 POP PUSH1 0x0 DUP3 PUSH1 0x3 DUP2 GT ISZERO PUSH2 0x2D66 JUMPI INVALID JUMPDEST EQ PUSH2 0x2D77 JUMPI POP SWAP2 POP PUSH1 0x0 SWAP1 POP PUSH2 0x2D90 JUMP JUMPDEST PUSH2 0x2D89 PUSH2 0x2D83 DUP3 PUSH2 0x3881 JUMP JUMPDEST DUP7 PUSH2 0x2D16 JUMP JUMPDEST SWAP4 POP SWAP4 POP POP POP JUMPDEST SWAP4 POP SWAP4 SWAP2 POP POP JUMP JUMPDEST PUSH1 0x5 SLOAD PUSH1 0x40 DUP1 MLOAD PUSH4 0xD02F7351 PUSH1 0xE0 SHL DUP2 MSTORE ADDRESS PUSH1 0x4 DUP3 ADD MSTORE PUSH1 0x1 PUSH1 0x1 PUSH1 0xA0 SHL SUB DUP8 DUP2 AND PUSH1 0x24 DUP4 ADD MSTORE DUP7 DUP2 AND PUSH1 0x44 DUP4 ADD MSTORE DUP6 DUP2 AND PUSH1 0x64 DUP4 ADD MSTORE PUSH1 0x84 DUP3 ADD DUP6 SWAP1 MSTORE SWAP2 MLOAD PUSH1 0x0 SWAP4 DUP5 SWAP4 AND SWAP2 PUSH4 0xD02F7351 SWAP2 PUSH1 0xA4 DUP1 DUP4 ADD SWAP3 PUSH1 0x20 SWAP3 SWAP2 SWAP1 DUP3 SWAP1 SUB ADD DUP2 DUP8 DUP8 DUP1 EXTCODESIZE ISZERO DUP1 ISZERO PUSH2 0x2E05 JUMPI PUSH1 0x0 DUP1 REVERT JUMPDEST POP GAS CALL ISZERO DUP1 ISZERO PUSH2 0x2E19 JUMPI RETURNDATASIZE PUSH1 0x0 DUP1 RETURNDATACOPY RETURNDATASIZE PUSH1 0x0 REVERT JUMPDEST POP POP POP POP PUSH1 0x40 MLOAD RETURNDATASIZE PUSH1 0x20 DUP2 LT ISZERO PUSH2 0x2E2F JUMPI PUSH1 0x0 DUP1 REVERT JUMPDEST POP MLOAD SWAP1 POP DUP1 ISZERO PUSH2 0x2E46 JUMPI PUSH2 0x2364 PUSH1 0x3 PUSH1 0x1B DUP4 PUSH2 0x2CB0 JUMP JUMPDEST DUP5 PUSH1 0x1 PUSH1 0x1 PUSH1 0xA0 SHL SUB AND DUP5 PUSH1 0x1 PUSH1 0x1 PUSH1 0xA0 SHL SUB AND EQ ISZERO PUSH2 0x2E6C JUMPI PUSH2 0x2364 PUSH1 0x6 PUSH1 0x1C PUSH2 0x275D JUMP JUMPDEST PUSH2 0x2E74 PUSH2 0x50DC JUMP JUMPDEST PUSH1 0x1 PUSH1 0x1 PUSH1 0xA0 SHL SUB DUP6 AND PUSH1 0x0 SWAP1 DUP2 MSTORE PUSH1 0xE PUSH1 0x20 MSTORE PUSH1 0x40 SWAP1 KECCAK256 SLOAD PUSH2 0x2E97 SWAP1 DUP6 PUSH2 0x2C25 JUMP JUMPDEST PUSH1 0x20 DUP4 ADD DUP2 SWAP1 MSTORE DUP3 DUP3 PUSH1 0x3 DUP2 GT ISZERO PUSH2 0x2EAB JUMPI INVALID JUMPDEST PUSH1 0x3 DUP2 GT ISZERO PUSH2 0x2EB6 JUMPI INVALID JUMPDEST SWAP1 MSTORE POP PUSH1 0x0 SWAP1 POP DUP2 MLOAD PUSH1 0x3 DUP2 GT ISZERO PUSH2 0x2ECA JUMPI INVALID JUMPDEST EQ PUSH2 0x2EEF JUMPI PUSH2 0x2EE6 PUSH1 0x9 PUSH1 0x1A DUP4 PUSH1 0x0 ADD MLOAD PUSH1 0x3 DUP2 GT ISZERO PUSH2 0x1892 JUMPI INVALID JUMPDEST SWAP3 POP POP POP PUSH2 0x11D1 JUMP JUMPDEST PUSH2 0x2F0E DUP5 PUSH1 0x40 MLOAD DUP1 PUSH1 0x20 ADD PUSH1 0x40 MSTORE DUP1 PUSH7 0x6379DA05B60000 DUP2 MSTORE POP PUSH2 0x4374 JUMP JUMPDEST PUSH1 0x80 DUP3 ADD DUP2 SWAP1 MSTORE PUSH2 0x2F20 SWAP1 DUP6 SWAP1 PUSH2 0x439C JUMP JUMPDEST PUSH1 0x60 DUP3 ADD MSTORE PUSH2 0x2F2D PUSH2 0x220F JUMP JUMPDEST PUSH1 0xC0 DUP4 ADD DUP2 SWAP1 MSTORE DUP3 DUP3 PUSH1 0x3 DUP2 GT ISZERO PUSH2 0x2F41 JUMPI INVALID JUMPDEST PUSH1 0x3 DUP2 GT ISZERO PUSH2 0x2F4C JUMPI INVALID JUMPDEST SWAP1 MSTORE POP PUSH1 0x0 SWAP1 POP DUP2 MLOAD PUSH1 0x3 DUP2 GT ISZERO PUSH2 0x2F60 JUMPI INVALID JUMPDEST EQ PUSH2 0x2FB2 JUMPI PUSH1 0x40 DUP1 MLOAD PUSH3 0x461BCD PUSH1 0xE5 SHL DUP2 MSTORE PUSH1 0x20 PUSH1 0x4 DUP3 ADD MSTORE PUSH1 0x18 PUSH1 0x24 DUP3 ADD MSTORE PUSH32 0x65786368616E67652072617465206D617468206572726F720000000000000000 PUSH1 0x44 DUP3 ADD MSTORE SWAP1 MLOAD SWAP1 DUP2 SWAP1 SUB PUSH1 0x64 ADD SWAP1 REVERT JUMPDEST PUSH2 0x2FD2 PUSH1 0x40 MLOAD DUP1 PUSH1 0x20 ADD PUSH1 0x40 MSTORE DUP1 DUP4 PUSH1 0xC0 ADD MLOAD DUP2 MSTORE POP DUP3 PUSH1 0x80 ADD MLOAD PUSH2 0x43D6 JUMP JUMPDEST PUSH1 0xA0 DUP3 ADD DUP2 SWAP1 MSTORE PUSH1 0xC SLOAD PUSH2 0x2FE5 SWAP2 PUSH2 0x43F5 JUMP JUMPDEST PUSH1 0xE0 DUP3 ADD MSTORE PUSH1 0xD SLOAD PUSH1 0x80 DUP3 ADD MLOAD PUSH2 0x2FFC SWAP2 SWAP1 PUSH2 0x439C JUMP JUMPDEST PUSH2 0x100 DUP3 ADD MSTORE PUSH1 0x1 PUSH1 0x1 PUSH1 0xA0 SHL SUB DUP7 AND PUSH1 0x0 SWAP1 DUP2 MSTORE PUSH1 0xE PUSH1 0x20 MSTORE PUSH1 0x40 SWAP1 KECCAK256 SLOAD PUSH1 0x60 DUP3 ADD MLOAD PUSH2 0x302A SWAP2 SWAP1 PUSH2 0x2D16 JUMP JUMPDEST PUSH1 0x40 DUP4 ADD DUP2 SWAP1 MSTORE DUP3 DUP3 PUSH1 0x3 DUP2 GT ISZERO PUSH2 0x303E JUMPI INVALID JUMPDEST PUSH1 0x3 DUP2 GT ISZERO PUSH2 0x3049 JUMPI INVALID JUMPDEST SWAP1 MSTORE POP PUSH1 0x0 SWAP1 POP DUP2 MLOAD PUSH1 0x3 DUP2 GT ISZERO PUSH2 0x305D JUMPI INVALID JUMPDEST EQ PUSH2 0x3079 JUMPI PUSH2 0x2EE6 PUSH1 0x9 PUSH1 0x19 DUP4 PUSH1 0x0 ADD MLOAD PUSH1 0x3 DUP2 GT ISZERO PUSH2 0x1892 JUMPI INVALID JUMPDEST PUSH1 0xE0 DUP2 ADD MLOAD PUSH1 0xC SSTORE PUSH2 0x100 DUP2 ADD MLOAD PUSH1 0xD SSTORE PUSH1 0x20 DUP1 DUP3 ADD MLOAD PUSH1 0x1 PUSH1 0x1 PUSH1 0xA0 SHL SUB DUP1 DUP9 AND PUSH1 0x0 DUP2 DUP2 MSTORE PUSH1 0xE DUP6 MSTORE PUSH1 0x40 DUP1 DUP3 KECCAK256 SWAP5 SWAP1 SWAP5 SSTORE DUP4 DUP7 ADD MLOAD SWAP3 DUP12 AND DUP1 DUP3 MSTORE SWAP1 DUP5 SWAP1 KECCAK256 SWAP3 SWAP1 SWAP3 SSTORE PUSH1 0x60 DUP6 ADD MLOAD DUP4 MLOAD SWAP1 DUP2 MSTORE SWAP3 MLOAD SWAP2 SWAP4 SWAP1 SWAP3 PUSH1 0x0 DUP1 MLOAD PUSH1 0x20 PUSH2 0x53B7 DUP4 CODECOPY DUP2 MLOAD SWAP2 MSTORE SWAP3 SWAP1 DUP2 SWAP1 SUB SWAP1 SWAP2 ADD SWAP1 LOG3 PUSH1 0x80 DUP2 ADD MLOAD PUSH1 0x40 DUP1 MLOAD SWAP2 DUP3 MSTORE MLOAD ADDRESS SWAP2 PUSH1 0x1 PUSH1 0x1 PUSH1 0xA0 SHL SUB DUP9 AND SWAP2 PUSH1 0x0 DUP1 MLOAD PUSH1 0x20 PUSH2 0x53B7 DUP4 CODECOPY DUP2 MLOAD SWAP2 MSTORE SWAP2 DUP2 SWAP1 SUB PUSH1 0x20 ADD SWAP1 LOG3 PUSH1 0xA0 DUP2 ADD MLOAD PUSH1 0xE0 DUP3 ADD MLOAD PUSH1 0x40 DUP1 MLOAD ADDRESS DUP2 MSTORE PUSH1 0x20 DUP2 ADD SWAP4 SWAP1 SWAP4 MSTORE DUP3 DUP2 ADD SWAP2 SWAP1 SWAP2 MSTORE MLOAD PUSH32 0xA91E67C5EA634CD43A12C5A482724B03DE01E85CA68702A53D0C2F45CB7C1DC5 SWAP2 DUP2 SWAP1 SUB PUSH1 0x60 ADD SWAP1 LOG1 PUSH1 0x0 SWAP8 SWAP7 POP POP POP POP POP POP POP JUMP JUMPDEST PUSH1 0x0 DUP1 SLOAD PUSH1 0xFF AND PUSH2 0x31B7 JUMPI PUSH1 0x40 DUP1 MLOAD PUSH3 0x461BCD PUSH1 0xE5 SHL DUP2 MSTORE PUSH1 0x20 PUSH1 0x4 DUP3 ADD MSTORE PUSH1 0xA PUSH1 0x24 DUP3 ADD MSTORE PUSH10 0x1C994B595B9D195C9959 PUSH1 0xB2 SHL PUSH1 0x44 DUP3 ADD MSTORE SWAP1 MLOAD SWAP1 DUP2 SWAP1 SUB PUSH1 0x64 ADD SWAP1 REVERT JUMPDEST PUSH1 0x0 DUP1 SLOAD PUSH1 0xFF NOT AND DUP2 SSTORE PUSH2 0x31C9 PUSH2 0x16AA JUMP JUMPDEST SWAP1 POP DUP1 ISZERO PUSH2 0x31E7 JUMPI PUSH2 0x12CE DUP2 PUSH1 0x10 DUP2 GT ISZERO PUSH2 0x31E0 JUMPI INVALID JUMPDEST PUSH1 0x8 PUSH2 0x275D JUMP JUMPDEST PUSH2 0x12DF CALLER DUP5 PUSH2 0x442B JUMP JUMPDEST PUSH1 0x0 DUP1 SLOAD PUSH1 0xFF AND PUSH2 0x3236 JUMPI PUSH1 0x40 DUP1 MLOAD PUSH3 0x461BCD PUSH1 0xE5 SHL DUP2 MSTORE PUSH1 0x20 PUSH1 0x4 DUP3 ADD MSTORE PUSH1 0xA PUSH1 0x24 DUP3 ADD MSTORE PUSH10 0x1C994B595B9D195C9959 PUSH1 0xB2 SHL PUSH1 0x44 DUP3 ADD MSTORE SWAP1 MLOAD SWAP1 DUP2 SWAP1 SUB PUSH1 0x64 ADD SWAP1 REVERT JUMPDEST PUSH1 0x0 DUP1 SLOAD PUSH1 0xFF NOT AND DUP2 SSTORE PUSH2 0x3248 PUSH2 0x16AA JUMP JUMPDEST SWAP1 POP DUP1 ISZERO PUSH2 0x325F JUMPI PUSH2 0x12CE DUP2 PUSH1 0x10 DUP2 GT ISZERO PUSH2 0x2964 JUMPI INVALID JUMPDEST PUSH2 0x12DF CALLER DUP5 PUSH1 0x0 PUSH2 0x3A73 JUMP JUMPDEST PUSH1 0x0 DUP1 SLOAD DUP2 SWAP1 PUSH1 0xFF AND PUSH2 0x32B2 JUMPI PUSH1 0x40 DUP1 MLOAD PUSH3 0x461BCD PUSH1 0xE5 SHL DUP2 MSTORE PUSH1 0x20 PUSH1 0x4 DUP3 ADD MSTORE PUSH1 0xA PUSH1 0x24 DUP3 ADD MSTORE PUSH10 0x1C994B595B9D195C9959 PUSH1 0xB2 SHL PUSH1 0x44 DUP3 ADD MSTORE SWAP1 MLOAD SWAP1 DUP2 SWAP1 SUB PUSH1 0x64 ADD SWAP1 REVERT JUMPDEST PUSH1 0x0 DUP1 SLOAD PUSH1 0xFF NOT AND DUP2 SSTORE PUSH2 0x32C4 PUSH2 0x16AA JUMP JUMPDEST SWAP1 POP DUP1 ISZERO PUSH2 0x32EF JUMPI PUSH2 0x32E2 DUP2 PUSH1 0x10 DUP2 GT ISZERO PUSH2 0x32DB JUMPI INVALID JUMPDEST PUSH1 0xF PUSH2 0x275D JUMP JUMPDEST SWAP3 POP PUSH1 0x0 SWAP2 POP PUSH2 0x3386 SWAP1 POP JUMP JUMPDEST DUP4 PUSH1 0x1 PUSH1 0x1 PUSH1 0xA0 SHL SUB AND PUSH4 0xA6AFED95 PUSH1 0x40 MLOAD DUP2 PUSH4 0xFFFFFFFF AND PUSH1 0xE0 SHL DUP2 MSTORE PUSH1 0x4 ADD PUSH1 0x20 PUSH1 0x40 MLOAD DUP1 DUP4 SUB DUP2 PUSH1 0x0 DUP8 DUP1 EXTCODESIZE ISZERO DUP1 ISZERO PUSH2 0x332A JUMPI PUSH1 0x0 DUP1 REVERT JUMPDEST POP GAS CALL ISZERO DUP1 ISZERO PUSH2 0x333E JUMPI RETURNDATASIZE PUSH1 0x0 DUP1 RETURNDATACOPY RETURNDATASIZE PUSH1 0x0 REVERT JUMPDEST POP POP POP POP PUSH1 0x40 MLOAD RETURNDATASIZE PUSH1 0x20 DUP2 LT ISZERO PUSH2 0x3354 JUMPI PUSH1 0x0 DUP1 REVERT JUMPDEST POP MLOAD SWAP1 POP DUP1 ISZERO PUSH2 0x3374 JUMPI PUSH2 0x32E2 DUP2 PUSH1 0x10 DUP2 GT ISZERO PUSH2 0x336D JUMPI INVALID JUMPDEST PUSH1 0x10 PUSH2 0x275D JUMP JUMPDEST PUSH2 0x3380 CALLER DUP8 DUP8 DUP8 PUSH2 0x46C7 JUMP JUMPDEST SWAP3 POP SWAP3 POP POP JUMPDEST PUSH1 0x0 DUP1 SLOAD PUSH1 0xFF NOT AND PUSH1 0x1 OR SWAP1 SSTORE SWAP1 SWAP5 SWAP1 SWAP4 POP SWAP2 POP POP JUMP JUMPDEST PUSH1 0x3 SLOAD PUSH1 0x0 SWAP1 PUSH2 0x100 SWAP1 DIV PUSH1 0x1 PUSH1 0x1 PUSH1 0xA0 SHL SUB AND CALLER EQ PUSH2 0x33C3 JUMPI PUSH2 0x1BAF PUSH1 0x1 PUSH1 0x47 PUSH2 0x275D JUMP JUMPDEST PUSH2 0x33CB PUSH2 0x2A2B JUMP JUMPDEST PUSH1 0x9 SLOAD EQ PUSH2 0x33DF JUMPI PUSH2 0x1BAF PUSH1 0xA PUSH1 0x48 PUSH2 0x275D JUMP JUMPDEST PUSH8 0xDE0B6B3A7640000 DUP3 GT ISZERO PUSH2 0x33FB JUMPI PUSH2 0x1BAF PUSH1 0x2 PUSH1 0x49 PUSH2 0x275D JUMP JUMPDEST PUSH1 0x8 DUP1 SLOAD SWAP1 DUP4 SWAP1 SSTORE PUSH1 0x40 DUP1 MLOAD DUP3 DUP2 MSTORE PUSH1 0x20 DUP2 ADD DUP6 SWAP1 MSTORE DUP2 MLOAD PUSH32 0xAAA68312E2EA9D50E16AF5068410AB56E1A1FD06037B1A35664812C30F821460 SWAP3 SWAP2 DUP2 SWAP1 SUB SWAP1 SWAP2 ADD SWAP1 LOG1 PUSH1 0x0 PUSH2 0x14AB JUMP JUMPDEST PUSH1 0x5 SLOAD PUSH1 0x40 DUP1 MLOAD PUSH4 0x12004531 PUSH1 0xE1 SHL DUP2 MSTORE ADDRESS PUSH1 0x4 DUP3 ADD MSTORE PUSH1 0x1 PUSH1 0x1 PUSH1 0xA0 SHL SUB DUP7 DUP2 AND PUSH1 0x24 DUP4 ADD MSTORE DUP6 DUP2 AND PUSH1 0x44 DUP4 ADD MSTORE PUSH1 0x64 DUP3 ADD DUP6 SWAP1 MSTORE SWAP2 MLOAD PUSH1 0x0 SWAP4 DUP5 SWAP4 DUP5 SWAP4 SWAP2 AND SWAP2 PUSH4 0x24008A62 SWAP2 PUSH1 0x84 DUP1 DUP3 ADD SWAP3 PUSH1 0x20 SWAP3 SWAP1 SWAP2 SWAP1 DUP3 SWAP1 SUB ADD DUP2 DUP8 DUP8 DUP1 EXTCODESIZE ISZERO DUP1 ISZERO PUSH2 0x34AE JUMPI PUSH1 0x0 DUP1 REVERT JUMPDEST POP GAS CALL ISZERO DUP1 ISZERO PUSH2 0x34C2 JUMPI RETURNDATASIZE PUSH1 0x0 DUP1 RETURNDATACOPY RETURNDATASIZE PUSH1 0x0 REVERT JUMPDEST POP POP POP POP PUSH1 0x40 MLOAD RETURNDATASIZE PUSH1 0x20 DUP2 LT ISZERO PUSH2 0x34D8 JUMPI PUSH1 0x0 DUP1 REVERT JUMPDEST POP MLOAD SWAP1 POP DUP1 ISZERO PUSH2 0x34FC JUMPI PUSH2 0x34EF PUSH1 0x3 PUSH1 0x38 DUP4 PUSH2 0x2CB0 JUMP JUMPDEST SWAP3 POP PUSH1 0x0 SWAP2 POP PUSH2 0x2D90 SWAP1 POP JUMP JUMPDEST PUSH2 0x3504 PUSH2 0x2A2B JUMP JUMPDEST PUSH1 0x9 SLOAD EQ PUSH2 0x3518 JUMPI PUSH2 0x34EF PUSH1 0xA PUSH1 0x39 PUSH2 0x275D JUMP JUMPDEST PUSH2 0x3520 PUSH2 0x5129 JUMP JUMPDEST PUSH1 0x1 PUSH1 0x1 PUSH1 0xA0 SHL SUB DUP7 AND PUSH1 0x0 SWAP1 DUP2 MSTORE PUSH1 0x10 PUSH1 0x20 MSTORE PUSH1 0x40 SWAP1 KECCAK256 PUSH1 0x1 ADD SLOAD PUSH1 0x60 DUP3 ADD MSTORE PUSH2 0x354A DUP7 PUSH2 0x2977 JUMP JUMPDEST PUSH1 0x80 DUP4 ADD DUP2 SWAP1 MSTORE PUSH1 0x20 DUP4 ADD DUP3 PUSH1 0x3 DUP2 GT ISZERO PUSH2 0x3561 JUMPI INVALID JUMPDEST PUSH1 0x3 DUP2 GT ISZERO PUSH2 0x356C JUMPI INVALID JUMPDEST SWAP1 MSTORE POP PUSH1 0x0 SWAP1 POP DUP2 PUSH1 0x20 ADD MLOAD PUSH1 0x3 DUP2 GT ISZERO PUSH2 0x3583 JUMPI INVALID JUMPDEST EQ PUSH2 0x35AD JUMPI PUSH2 0x359F PUSH1 0x9 PUSH1 0x37 DUP4 PUSH1 0x20 ADD MLOAD PUSH1 0x3 DUP2 GT ISZERO PUSH2 0x1892 JUMPI INVALID JUMPDEST SWAP4 POP PUSH1 0x0 SWAP3 POP PUSH2 0x2D90 SWAP2 POP POP JUMP JUMPDEST PUSH1 0x0 NOT DUP6 EQ ISZERO PUSH2 0x35C6 JUMPI PUSH1 0x80 DUP2 ADD MLOAD PUSH1 0x40 DUP3 ADD MSTORE PUSH2 0x35CE JUMP JUMPDEST PUSH1 0x40 DUP2 ADD DUP6 SWAP1 MSTORE JUMPDEST PUSH2 0x35DC DUP8 DUP3 PUSH1 0x40 ADD MLOAD PUSH2 0x4BB9 JUMP JUMPDEST PUSH1 0xE0 DUP3 ADD DUP2 SWAP1 MSTORE PUSH1 0x80 DUP3 ADD MLOAD PUSH2 0x35F1 SWAP2 PUSH2 0x2C25 JUMP JUMPDEST PUSH1 0xA0 DUP4 ADD DUP2 SWAP1 MSTORE PUSH1 0x20 DUP4 ADD DUP3 PUSH1 0x3 DUP2 GT ISZERO PUSH2 0x3608 JUMPI INVALID JUMPDEST PUSH1 0x3 DUP2 GT ISZERO PUSH2 0x3613 JUMPI INVALID JUMPDEST SWAP1 MSTORE POP PUSH1 0x0 SWAP1 POP DUP2 PUSH1 0x20 ADD MLOAD PUSH1 0x3 DUP2 GT ISZERO PUSH2 0x362A JUMPI INVALID JUMPDEST EQ PUSH2 0x3666 JUMPI PUSH1 0x40 MLOAD PUSH3 0x461BCD PUSH1 0xE5 SHL DUP2 MSTORE PUSH1 0x4 ADD DUP1 DUP1 PUSH1 0x20 ADD DUP3 DUP2 SUB DUP3 MSTORE PUSH1 0x3A DUP2 MSTORE PUSH1 0x20 ADD DUP1 PUSH2 0x537D PUSH1 0x3A SWAP2 CODECOPY PUSH1 0x40 ADD SWAP2 POP POP PUSH1 0x40 MLOAD DUP1 SWAP2 SUB SWAP1 REVERT JUMPDEST PUSH2 0x3676 PUSH1 0xB SLOAD DUP3 PUSH1 0xE0 ADD MLOAD PUSH2 0x2C25 JUMP JUMPDEST PUSH1 0xC0 DUP4 ADD DUP2 SWAP1 MSTORE PUSH1 0x20 DUP4 ADD DUP3 PUSH1 0x3 DUP2 GT ISZERO PUSH2 0x368D JUMPI INVALID JUMPDEST PUSH1 0x3 DUP2 GT ISZERO PUSH2 0x3698 JUMPI INVALID JUMPDEST SWAP1 MSTORE POP PUSH1 0x0 SWAP1 POP DUP2 PUSH1 0x20 ADD MLOAD PUSH1 0x3 DUP2 GT ISZERO PUSH2 0x36AF JUMPI INVALID JUMPDEST EQ PUSH2 0x36EB JUMPI PUSH1 0x40 MLOAD PUSH3 0x461BCD PUSH1 0xE5 SHL DUP2 MSTORE PUSH1 0x4 ADD DUP1 DUP1 PUSH1 0x20 ADD DUP3 DUP2 SUB DUP3 MSTORE PUSH1 0x31 DUP2 MSTORE PUSH1 0x20 ADD DUP1 PUSH2 0x53D7 PUSH1 0x31 SWAP2 CODECOPY PUSH1 0x40 ADD SWAP2 POP POP PUSH1 0x40 MLOAD DUP1 SWAP2 SUB SWAP1 REVERT JUMPDEST PUSH1 0xA0 DUP1 DUP3 ADD DUP1 MLOAD PUSH1 0x1 PUSH1 0x1 PUSH1 0xA0 SHL SUB DUP1 DUP11 AND PUSH1 0x0 DUP2 DUP2 MSTORE PUSH1 0x10 PUSH1 0x20 SWAP1 DUP2 MSTORE PUSH1 0x40 SWAP2 DUP3 SWAP1 KECCAK256 SWAP5 DUP6 SSTORE PUSH1 0xA SLOAD PUSH1 0x1 SWAP1 SWAP6 ADD SWAP5 SWAP1 SWAP5 SSTORE PUSH1 0xC0 DUP8 ADD MLOAD PUSH1 0xB DUP2 SWAP1 SSTORE PUSH1 0xE0 DUP9 ADD MLOAD SWAP6 MLOAD DUP3 MLOAD SWAP5 DUP16 AND DUP6 MSTORE SWAP5 DUP5 ADD SWAP3 SWAP1 SWAP3 MSTORE DUP3 DUP2 ADD SWAP5 SWAP1 SWAP5 MSTORE PUSH1 0x60 DUP3 ADD SWAP3 SWAP1 SWAP3 MSTORE PUSH1 0x80 DUP2 ADD SWAP2 SWAP1 SWAP2 MSTORE SWAP1 MLOAD PUSH32 0x1A2A22CB034D26D1854BDC6666A5B91FE25EFBBB5DCAD3B0355478D6F5C362A1 SWAP3 SWAP2 DUP2 SWAP1 SUB SWAP1 SWAP2 ADD SWAP1 LOG1 PUSH1 0xE0 ADD MLOAD PUSH1 0x0 SWAP8 SWAP1 SWAP7 POP SWAP5 POP POP POP POP POP JUMP JUMPDEST PUSH1 0x0 DUP1 PUSH1 0x0 DUP1 PUSH2 0x37A3 DUP8 DUP8 PUSH2 0x2D16 JUMP JUMPDEST SWAP1 SWAP3 POP SWAP1 POP PUSH1 0x0 DUP3 PUSH1 0x3 DUP2 GT ISZERO PUSH2 0x37B6 JUMPI INVALID JUMPDEST EQ PUSH2 0x37C7 JUMPI POP SWAP2 POP PUSH1 0x0 SWAP1 POP PUSH2 0x2D90 JUMP JUMPDEST PUSH2 0x2D89 DUP2 DUP7 PUSH2 0x2C25 JUMP JUMPDEST PUSH1 0x0 PUSH2 0x37DB PUSH2 0x504B JUMP JUMPDEST PUSH1 0x0 DUP1 PUSH2 0x37F0 DUP7 PUSH8 0xDE0B6B3A7640000 PUSH2 0x3F3A JUMP JUMPDEST SWAP1 SWAP3 POP SWAP1 POP PUSH1 0x0 DUP3 PUSH1 0x3 DUP2 GT ISZERO PUSH2 0x3803 JUMPI INVALID JUMPDEST EQ PUSH2 0x3822 JUMPI POP PUSH1 0x40 DUP1 MLOAD PUSH1 0x20 DUP2 ADD SWAP1 SWAP2 MSTORE PUSH1 0x0 DUP2 MSTORE SWAP1 SWAP3 POP SWAP1 POP PUSH2 0x2642 JUMP JUMPDEST PUSH1 0x0 DUP1 PUSH2 0x382F DUP4 DUP9 PUSH2 0x3F79 JUMP JUMPDEST SWAP1 SWAP3 POP SWAP1 POP PUSH1 0x0 DUP3 PUSH1 0x3 DUP2 GT ISZERO PUSH2 0x3842 JUMPI INVALID JUMPDEST EQ PUSH2 0x3864 JUMPI POP PUSH1 0x40 DUP1 MLOAD PUSH1 0x20 DUP2 ADD SWAP1 SWAP2 MSTORE PUSH1 0x0 DUP2 MSTORE SWAP1 SWAP5 POP SWAP3 POP PUSH2 0x2642 SWAP2 POP POP JUMP JUMPDEST PUSH1 0x40 DUP1 MLOAD PUSH1 0x20 DUP2 ADD SWAP1 SWAP2 MSTORE SWAP1 DUP2 MSTORE PUSH1 0x0 SWAP9 SWAP1 SWAP8 POP SWAP6 POP POP POP POP POP POP JUMP JUMPDEST MLOAD PUSH8 0xDE0B6B3A7640000 SWAP1 DIV SWAP1 JUMP JUMPDEST PUSH1 0x0 DUP1 PUSH1 0x0 DUP1 PUSH2 0x389E PUSH2 0x2A2B JUMP JUMPDEST PUSH1 0x9 SLOAD EQ PUSH2 0x38BD JUMPI PUSH2 0x38B2 PUSH1 0xA PUSH1 0x4F PUSH2 0x275D JUMP JUMPDEST SWAP4 POP SWAP2 POP PUSH2 0x2A26 SWAP1 POP JUMP JUMPDEST PUSH2 0x38C7 CALLER DUP7 PUSH2 0x4BB9 JUMP JUMPDEST SWAP1 POP DUP1 PUSH1 0xC SLOAD ADD SWAP2 POP PUSH1 0xC SLOAD DUP3 LT ISZERO PUSH2 0x3927 JUMPI PUSH1 0x40 DUP1 MLOAD PUSH3 0x461BCD PUSH1 0xE5 SHL DUP2 MSTORE PUSH1 0x20 PUSH1 0x4 DUP3 ADD DUP2 SWAP1 MSTORE PUSH1 0x24 DUP3 ADD MSTORE PUSH32 0x61646420726573657276657320756E6578706563746564206F766572666C6F77 PUSH1 0x44 DUP3 ADD MSTORE SWAP1 MLOAD SWAP1 DUP2 SWAP1 SUB PUSH1 0x64 ADD SWAP1 REVERT JUMPDEST PUSH1 0xC DUP3 SWAP1 SSTORE PUSH1 0x40 DUP1 MLOAD CALLER DUP2 MSTORE PUSH1 0x20 DUP2 ADD DUP4 SWAP1 MSTORE DUP1 DUP3 ADD DUP5 SWAP1 MSTORE SWAP1 MLOAD PUSH32 0xA91E67C5EA634CD43A12C5A482724B03DE01E85CA68702A53D0C2F45CB7C1DC5 SWAP2 DUP2 SWAP1 SUB PUSH1 0x60 ADD SWAP1 LOG1 PUSH1 0x0 SWAP4 POP SWAP2 POP POP SWAP2 POP SWAP2 JUMP JUMPDEST PUSH1 0x11 SLOAD PUSH1 0x40 DUP1 MLOAD PUSH4 0xA9059CBB PUSH1 0xE0 SHL DUP2 MSTORE PUSH1 0x1 PUSH1 0x1 PUSH1 0xA0 SHL SUB DUP6 DUP2 AND PUSH1 0x4 DUP4 ADD MSTORE PUSH1 0x24 DUP3 ADD DUP6 SWAP1 MSTORE SWAP2 MLOAD SWAP2 SWAP1 SWAP3 AND SWAP2 DUP3 SWAP2 PUSH4 0xA9059CBB SWAP2 PUSH1 0x44 DUP1 DUP3 ADD SWAP3 PUSH1 0x0 SWAP3 SWAP1 SWAP2 SWAP1 DUP3 SWAP1 SUB ADD DUP2 DUP4 DUP8 DUP1 EXTCODESIZE ISZERO DUP1 ISZERO PUSH2 0x39D0 JUMPI PUSH1 0x0 DUP1 REVERT JUMPDEST POP GAS CALL ISZERO DUP1 ISZERO PUSH2 0x39E4 JUMPI RETURNDATASIZE PUSH1 0x0 DUP1 RETURNDATACOPY RETURNDATASIZE PUSH1 0x0 REVERT JUMPDEST POP POP POP POP PUSH1 0x0 RETURNDATASIZE PUSH1 0x0 DUP2 EQ PUSH2 0x3A04 JUMPI PUSH1 0x20 DUP2 EQ PUSH2 0x3A0E JUMPI PUSH1 0x0 SWAP2 POP PUSH2 0x3A1A JUMP JUMPDEST PUSH1 0x0 NOT SWAP2 POP PUSH2 0x3A1A JUMP JUMPDEST PUSH1 0x20 PUSH1 0x0 DUP1 RETURNDATACOPY PUSH1 0x0 MLOAD SWAP2 POP JUMPDEST POP DUP1 PUSH2 0x3A6D JUMPI PUSH1 0x40 DUP1 MLOAD PUSH3 0x461BCD PUSH1 0xE5 SHL DUP2 MSTORE PUSH1 0x20 PUSH1 0x4 DUP3 ADD MSTORE PUSH1 0x19 PUSH1 0x24 DUP3 ADD MSTORE PUSH32 0x544F4B454E5F5452414E534645525F4F55545F4641494C454400000000000000 PUSH1 0x44 DUP3 ADD MSTORE SWAP1 MLOAD SWAP1 DUP2 SWAP1 SUB PUSH1 0x64 ADD SWAP1 REVERT JUMPDEST POP POP POP POP JUMP JUMPDEST PUSH1 0x0 DUP3 ISZERO DUP1 PUSH2 0x3A80 JUMPI POP DUP2 ISZERO JUMPDEST PUSH2 0x3ABB JUMPI PUSH1 0x40 MLOAD PUSH3 0x461BCD PUSH1 0xE5 SHL DUP2 MSTORE PUSH1 0x4 ADD DUP1 DUP1 PUSH1 0x20 ADD DUP3 DUP2 SUB DUP3 MSTORE PUSH1 0x34 DUP2 MSTORE PUSH1 0x20 ADD DUP1 PUSH2 0x5497 PUSH1 0x34 SWAP2 CODECOPY PUSH1 0x40 ADD SWAP2 POP POP PUSH1 0x40 MLOAD DUP1 SWAP2 SUB SWAP1 REVERT JUMPDEST PUSH2 0x3AC3 PUSH2 0x516F JUMP JUMPDEST PUSH2 0x3ACB PUSH2 0x220F JUMP JUMPDEST PUSH1 0x40 DUP4 ADD DUP2 SWAP1 MSTORE PUSH1 0x20 DUP4 ADD DUP3 PUSH1 0x3 DUP2 GT ISZERO PUSH2 0x3AE2 JUMPI INVALID JUMPDEST PUSH1 0x3 DUP2 GT ISZERO PUSH2 0x3AED JUMPI INVALID JUMPDEST SWAP1 MSTORE POP PUSH1 0x0 SWAP1 POP DUP2 PUSH1 0x20 ADD MLOAD PUSH1 0x3 DUP2 GT ISZERO PUSH2 0x3B04 JUMPI INVALID JUMPDEST EQ PUSH2 0x3B28 JUMPI PUSH2 0x3B20 PUSH1 0x9 PUSH1 0x2B DUP4 PUSH1 0x20 ADD MLOAD PUSH1 0x3 DUP2 GT ISZERO PUSH2 0x1892 JUMPI INVALID JUMPDEST SWAP2 POP POP PUSH2 0x14AB JUMP JUMPDEST DUP4 ISZERO PUSH2 0x3BA9 JUMPI PUSH1 0x60 DUP2 ADD DUP5 SWAP1 MSTORE PUSH1 0x40 DUP1 MLOAD PUSH1 0x20 DUP2 ADD DUP3 MSTORE SWAP1 DUP3 ADD MLOAD DUP2 MSTORE PUSH2 0x3B4F SWAP1 DUP6 PUSH2 0x25F5 JUMP JUMPDEST PUSH1 0x80 DUP4 ADD DUP2 SWAP1 MSTORE PUSH1 0x20 DUP4 ADD DUP3 PUSH1 0x3 DUP2 GT ISZERO PUSH2 0x3B66 JUMPI INVALID JUMPDEST PUSH1 0x3 DUP2 GT ISZERO PUSH2 0x3B71 JUMPI INVALID JUMPDEST SWAP1 MSTORE POP PUSH1 0x0 SWAP1 POP DUP2 PUSH1 0x20 ADD MLOAD PUSH1 0x3 DUP2 GT ISZERO PUSH2 0x3B88 JUMPI INVALID JUMPDEST EQ PUSH2 0x3BA4 JUMPI PUSH2 0x3B20 PUSH1 0x9 PUSH1 0x29 DUP4 PUSH1 0x20 ADD MLOAD PUSH1 0x3 DUP2 GT ISZERO PUSH2 0x1892 JUMPI INVALID JUMPDEST PUSH2 0x3C22 JUMP JUMPDEST PUSH2 0x3BC5 DUP4 PUSH1 0x40 MLOAD DUP1 PUSH1 0x20 ADD PUSH1 0x40 MSTORE DUP1 DUP5 PUSH1 0x40 ADD MLOAD DUP2 MSTORE POP PUSH2 0x4E07 JUMP JUMPDEST PUSH1 0x60 DUP4 ADD DUP2 SWAP1 MSTORE PUSH1 0x20 DUP4 ADD DUP3 PUSH1 0x3 DUP2 GT ISZERO PUSH2 0x3BDC JUMPI INVALID JUMPDEST PUSH1 0x3 DUP2 GT ISZERO PUSH2 0x3BE7 JUMPI INVALID JUMPDEST SWAP1 MSTORE POP PUSH1 0x0 SWAP1 POP DUP2 PUSH1 0x20 ADD MLOAD PUSH1 0x3 DUP2 GT ISZERO PUSH2 0x3BFE JUMPI INVALID JUMPDEST EQ PUSH2 0x3C1A JUMPI PUSH2 0x3B20 PUSH1 0x9 PUSH1 0x2A DUP4 PUSH1 0x20 ADD MLOAD PUSH1 0x3 DUP2 GT ISZERO PUSH2 0x1892 JUMPI INVALID JUMPDEST PUSH1 0x80 DUP2 ADD DUP4 SWAP1 MSTORE JUMPDEST PUSH1 0x5 SLOAD PUSH1 0x60 DUP3 ADD MLOAD PUSH1 0x40 DUP1 MLOAD PUSH4 0xEABE7D91 PUSH1 0xE0 SHL DUP2 MSTORE ADDRESS PUSH1 0x4 DUP3 ADD MSTORE PUSH1 0x1 PUSH1 0x1 PUSH1 0xA0 SHL SUB DUP10 DUP2 AND PUSH1 0x24 DUP4 ADD MSTORE PUSH1 0x44 DUP3 ADD SWAP4 SWAP1 SWAP4 MSTORE SWAP1 MLOAD PUSH1 0x0 SWAP4 SWAP3 SWAP1 SWAP3 AND SWAP2 PUSH4 0xEABE7D91 SWAP2 PUSH1 0x64 DUP1 DUP3 ADD SWAP3 PUSH1 0x20 SWAP3 SWAP1 SWAP2 SWAP1 DUP3 SWAP1 SUB ADD DUP2 DUP8 DUP8 DUP1 EXTCODESIZE ISZERO DUP1 ISZERO PUSH2 0x3C87 JUMPI PUSH1 0x0 DUP1 REVERT JUMPDEST POP GAS CALL ISZERO DUP1 ISZERO PUSH2 0x3C9B JUMPI RETURNDATASIZE PUSH1 0x0 DUP1 RETURNDATACOPY RETURNDATASIZE PUSH1 0x0 REVERT JUMPDEST POP POP POP POP PUSH1 0x40 MLOAD RETURNDATASIZE PUSH1 0x20 DUP2 LT ISZERO PUSH2 0x3CB1 JUMPI PUSH1 0x0 DUP1 REVERT JUMPDEST POP MLOAD SWAP1 POP DUP1 ISZERO PUSH2 0x3CD1 JUMPI PUSH2 0x3CC8 PUSH1 0x3 PUSH1 0x28 DUP4 PUSH2 0x2CB0 JUMP JUMPDEST SWAP3 POP POP POP PUSH2 0x14AB JUMP JUMPDEST PUSH2 0x3CD9 PUSH2 0x2A2B JUMP JUMPDEST PUSH1 0x9 SLOAD EQ PUSH2 0x3CED JUMPI PUSH2 0x3CC8 PUSH1 0xA PUSH1 0x2C PUSH2 0x275D JUMP JUMPDEST PUSH2 0x3CFD PUSH1 0xD SLOAD DUP4 PUSH1 0x60 ADD MLOAD PUSH2 0x2C25 JUMP JUMPDEST PUSH1 0xA0 DUP5 ADD DUP2 SWAP1 MSTORE PUSH1 0x20 DUP5 ADD DUP3 PUSH1 0x3 DUP2 GT ISZERO PUSH2 0x3D14 JUMPI INVALID JUMPDEST PUSH1 0x3 DUP2 GT ISZERO PUSH2 0x3D1F JUMPI INVALID JUMPDEST SWAP1 MSTORE POP PUSH1 0x0 SWAP1 POP DUP3 PUSH1 0x20 ADD MLOAD PUSH1 0x3 DUP2 GT ISZERO PUSH2 0x3D36 JUMPI INVALID JUMPDEST EQ PUSH2 0x3D52 JUMPI PUSH2 0x3CC8 PUSH1 0x9 PUSH1 0x2E DUP5 PUSH1 0x20 ADD MLOAD PUSH1 0x3 DUP2 GT ISZERO PUSH2 0x1892 JUMPI INVALID JUMPDEST PUSH1 0x1 PUSH1 0x1 PUSH1 0xA0 SHL SUB DUP7 AND PUSH1 0x0 SWAP1 DUP2 MSTORE PUSH1 0xE PUSH1 0x20 MSTORE PUSH1 0x40 SWAP1 KECCAK256 SLOAD PUSH1 0x60 DUP4 ADD MLOAD PUSH2 0x3D7A SWAP2 SWAP1 PUSH2 0x2C25 JUMP JUMPDEST PUSH1 0xC0 DUP5 ADD DUP2 SWAP1 MSTORE PUSH1 0x20 DUP5 ADD DUP3 PUSH1 0x3 DUP2 GT ISZERO PUSH2 0x3D91 JUMPI INVALID JUMPDEST PUSH1 0x3 DUP2 GT ISZERO PUSH2 0x3D9C JUMPI INVALID JUMPDEST SWAP1 MSTORE POP PUSH1 0x0 SWAP1 POP DUP3 PUSH1 0x20 ADD MLOAD PUSH1 0x3 DUP2 GT ISZERO PUSH2 0x3DB3 JUMPI INVALID JUMPDEST EQ PUSH2 0x3DCF JUMPI PUSH2 0x3CC8 PUSH1 0x9 PUSH1 0x2D DUP5 PUSH1 0x20 ADD MLOAD PUSH1 0x3 DUP2 GT ISZERO PUSH2 0x1892 JUMPI INVALID JUMPDEST DUP2 PUSH1 0x80 ADD MLOAD PUSH2 0x3DDC PUSH2 0x2649 JUMP JUMPDEST LT ISZERO PUSH2 0x3DEE JUMPI PUSH2 0x3CC8 PUSH1 0xE PUSH1 0x2F PUSH2 0x275D JUMP JUMPDEST PUSH2 0x3DFC DUP7 DUP4 PUSH1 0x80 ADD MLOAD PUSH2 0x3978 JUMP JUMPDEST PUSH1 0xA0 DUP3 ADD MLOAD PUSH1 0xD SSTORE PUSH1 0xC0 DUP3 ADD MLOAD PUSH1 0x1 PUSH1 0x1 PUSH1 0xA0 SHL SUB DUP8 AND PUSH1 0x0 DUP2 DUP2 MSTORE PUSH1 0xE PUSH1 0x20 SWAP1 DUP2 MSTORE PUSH1 0x40 SWAP2 DUP3 SWAP1 KECCAK256 SWAP4 SWAP1 SWAP4 SSTORE PUSH1 0x60 DUP6 ADD MLOAD DUP2 MLOAD SWAP1 DUP2 MSTORE SWAP1 MLOAD ADDRESS SWAP4 PUSH1 0x0 DUP1 MLOAD PUSH1 0x20 PUSH2 0x53B7 DUP4 CODECOPY DUP2 MLOAD SWAP2 MSTORE SWAP3 DUP3 SWAP1 SUB ADD SWAP1 LOG3 PUSH1 0x80 DUP3 ADD MLOAD PUSH1 0x60 DUP1 DUP5 ADD MLOAD PUSH1 0x40 DUP1 MLOAD PUSH1 0x1 PUSH1 0x1 PUSH1 0xA0 SHL SUB DUP12 AND DUP2 MSTORE PUSH1 0x20 DUP2 ADD SWAP5 SWAP1 SWAP5 MSTORE DUP4 DUP2 ADD SWAP2 SWAP1 SWAP2 MSTORE MLOAD PUSH32 0xE5B754FB1ABB7F01B499791D0B820AE3B6AF3424AC1C59768EDB53F4EC31A929 SWAP3 DUP2 SWAP1 SUB SWAP1 SWAP2 ADD SWAP1 LOG1 PUSH1 0x5 SLOAD PUSH1 0x80 DUP4 ADD MLOAD PUSH1 0x60 DUP5 ADD MLOAD PUSH1 0x40 DUP1 MLOAD PUSH4 0x51DFF989 PUSH1 0xE0 SHL DUP2 MSTORE ADDRESS PUSH1 0x4 DUP3 ADD MSTORE PUSH1 0x1 PUSH1 0x1 PUSH1 0xA0 SHL SUB DUP12 DUP2 AND PUSH1 0x24 DUP4 ADD MSTORE PUSH1 0x44 DUP3 ADD SWAP5 SWAP1 SWAP5 MSTORE PUSH1 0x64 DUP2 ADD SWAP3 SWAP1 SWAP3 MSTORE MLOAD SWAP2 SWAP1 SWAP3 AND SWAP2 PUSH4 0x51DFF989 SWAP2 PUSH1 0x84 DUP1 DUP4 ADD SWAP3 PUSH1 0x0 SWAP3 SWAP2 SWAP1 DUP3 SWAP1 SUB ADD DUP2 DUP4 DUP8 DUP1 EXTCODESIZE ISZERO DUP1 ISZERO PUSH2 0x3F0F JUMPI PUSH1 0x0 DUP1 REVERT JUMPDEST POP GAS CALL ISZERO DUP1 ISZERO PUSH2 0x3F23 JUMPI RETURNDATASIZE PUSH1 0x0 DUP1 RETURNDATACOPY RETURNDATASIZE PUSH1 0x0 REVERT JUMPDEST POP PUSH1 0x0 SWAP3 POP PUSH2 0x3F30 SWAP2 POP POP JUMP JUMPDEST SWAP7 SWAP6 POP POP POP POP POP POP JUMP JUMPDEST PUSH1 0x0 DUP1 DUP4 PUSH2 0x3F4D JUMPI POP PUSH1 0x0 SWAP1 POP DUP1 PUSH2 0x2642 JUMP JUMPDEST DUP4 DUP4 MUL DUP4 DUP6 DUP3 DUP2 PUSH2 0x3F5A JUMPI INVALID JUMPDEST DIV EQ PUSH2 0x3F6E JUMPI POP PUSH1 0x2 SWAP2 POP PUSH1 0x0 SWAP1 POP PUSH2 0x2642 JUMP JUMPDEST PUSH1 0x0 SWAP3 POP SWAP1 POP PUSH2 0x2642 JUMP JUMPDEST PUSH1 0x0 DUP1 DUP3 PUSH2 0x3F8D JUMPI POP PUSH1 0x1 SWAP1 POP PUSH1 0x0 PUSH2 0x2642 JUMP JUMPDEST PUSH1 0x0 DUP4 DUP6 DUP2 PUSH2 0x3F98 JUMPI INVALID JUMPDEST DIV SWAP2 POP SWAP2 POP SWAP3 POP SWAP3 SWAP1 POP JUMP JUMPDEST PUSH1 0x5 SLOAD PUSH1 0x40 DUP1 MLOAD PUSH4 0x4EF4C3E1 PUSH1 0xE0 SHL DUP2 MSTORE ADDRESS PUSH1 0x4 DUP3 ADD MSTORE PUSH1 0x1 PUSH1 0x1 PUSH1 0xA0 SHL SUB DUP6 DUP2 AND PUSH1 0x24 DUP4 ADD MSTORE PUSH1 0x44 DUP3 ADD DUP6 SWAP1 MSTORE SWAP2 MLOAD PUSH1 0x0 SWAP4 DUP5 SWAP4 DUP5 SWAP4 SWAP2 AND SWAP2 PUSH4 0x4EF4C3E1 SWAP2 PUSH1 0x64 DUP1 DUP3 ADD SWAP3 PUSH1 0x20 SWAP3 SWAP1 SWAP2 SWAP1 DUP3 SWAP1 SUB ADD DUP2 DUP8 DUP8 DUP1 EXTCODESIZE ISZERO DUP1 ISZERO PUSH2 0x4005 JUMPI PUSH1 0x0 DUP1 REVERT JUMPDEST POP GAS CALL ISZERO DUP1 ISZERO PUSH2 0x4019 JUMPI RETURNDATASIZE PUSH1 0x0 DUP1 RETURNDATACOPY RETURNDATASIZE PUSH1 0x0 REVERT JUMPDEST POP POP POP POP PUSH1 0x40 MLOAD RETURNDATASIZE PUSH1 0x20 DUP2 LT ISZERO PUSH2 0x402F JUMPI PUSH1 0x0 DUP1 REVERT JUMPDEST POP MLOAD SWAP1 POP DUP1 ISZERO PUSH2 0x4053 JUMPI PUSH2 0x4046 PUSH1 0x3 PUSH1 0x1F DUP4 PUSH2 0x2CB0 JUMP JUMPDEST SWAP3 POP PUSH1 0x0 SWAP2 POP PUSH2 0x2642 SWAP1 POP JUMP JUMPDEST PUSH2 0x405B PUSH2 0x2A2B JUMP JUMPDEST PUSH1 0x9 SLOAD EQ PUSH2 0x406F JUMPI PUSH2 0x4046 PUSH1 0xA PUSH1 0x22 PUSH2 0x275D JUMP JUMPDEST PUSH2 0x4077 PUSH2 0x516F JUMP JUMPDEST PUSH2 0x407F PUSH2 0x220F JUMP JUMPDEST PUSH1 0x40 DUP4 ADD DUP2 SWAP1 MSTORE PUSH1 0x20 DUP4 ADD DUP3 PUSH1 0x3 DUP2 GT ISZERO PUSH2 0x4096 JUMPI INVALID JUMPDEST PUSH1 0x3 DUP2 GT ISZERO PUSH2 0x40A1 JUMPI INVALID JUMPDEST SWAP1 MSTORE POP PUSH1 0x0 SWAP1 POP DUP2 PUSH1 0x20 ADD MLOAD PUSH1 0x3 DUP2 GT ISZERO PUSH2 0x40B8 JUMPI INVALID JUMPDEST EQ PUSH2 0x40E2 JUMPI PUSH2 0x40D4 PUSH1 0x9 PUSH1 0x21 DUP4 PUSH1 0x20 ADD MLOAD PUSH1 0x3 DUP2 GT ISZERO PUSH2 0x1892 JUMPI INVALID JUMPDEST SWAP4 POP PUSH1 0x0 SWAP3 POP PUSH2 0x2642 SWAP2 POP POP JUMP JUMPDEST PUSH2 0x40EC DUP7 DUP7 PUSH2 0x4BB9 JUMP JUMPDEST PUSH1 0xC0 DUP3 ADD DUP2 SWAP1 MSTORE PUSH1 0x40 DUP1 MLOAD PUSH1 0x20 DUP2 ADD DUP3 MSTORE SWAP1 DUP4 ADD MLOAD DUP2 MSTORE PUSH2 0x410D SWAP2 SWAP1 PUSH2 0x4E07 JUMP JUMPDEST PUSH1 0x60 DUP4 ADD DUP2 SWAP1 MSTORE PUSH1 0x20 DUP4 ADD DUP3 PUSH1 0x3 DUP2 GT ISZERO PUSH2 0x4124 JUMPI INVALID JUMPDEST PUSH1 0x3 DUP2 GT ISZERO PUSH2 0x412F JUMPI INVALID JUMPDEST SWAP1 MSTORE POP PUSH1 0x0 SWAP1 POP DUP2 PUSH1 0x20 ADD MLOAD PUSH1 0x3 DUP2 GT ISZERO PUSH2 0x4146 JUMPI INVALID JUMPDEST EQ PUSH2 0x4198 JUMPI PUSH1 0x40 DUP1 MLOAD PUSH3 0x461BCD PUSH1 0xE5 SHL DUP2 MSTORE PUSH1 0x20 PUSH1 0x4 DUP3 ADD DUP2 SWAP1 MSTORE PUSH1 0x24 DUP3 ADD MSTORE PUSH32 0x4D494E545F45584348414E47455F43414C43554C4154494F4E5F4641494C4544 PUSH1 0x44 DUP3 ADD MSTORE SWAP1 MLOAD SWAP1 DUP2 SWAP1 SUB PUSH1 0x64 ADD SWAP1 REVERT JUMPDEST PUSH2 0x41A8 PUSH1 0xD SLOAD DUP3 PUSH1 0x60 ADD MLOAD PUSH2 0x2D16 JUMP JUMPDEST PUSH1 0x80 DUP4 ADD DUP2 SWAP1 MSTORE PUSH1 0x20 DUP4 ADD DUP3 PUSH1 0x3 DUP2 GT ISZERO PUSH2 0x41BF JUMPI INVALID JUMPDEST PUSH1 0x3 DUP2 GT ISZERO PUSH2 0x41CA JUMPI INVALID JUMPDEST SWAP1 MSTORE POP PUSH1 0x0 SWAP1 POP DUP2 PUSH1 0x20 ADD MLOAD PUSH1 0x3 DUP2 GT ISZERO PUSH2 0x41E1 JUMPI INVALID JUMPDEST EQ PUSH2 0x421D JUMPI PUSH1 0x40 MLOAD PUSH3 0x461BCD PUSH1 0xE5 SHL DUP2 MSTORE PUSH1 0x4 ADD DUP1 DUP1 PUSH1 0x20 ADD DUP3 DUP2 SUB DUP3 MSTORE PUSH1 0x28 DUP2 MSTORE PUSH1 0x20 ADD DUP1 PUSH2 0x543D PUSH1 0x28 SWAP2 CODECOPY PUSH1 0x40 ADD SWAP2 POP POP PUSH1 0x40 MLOAD DUP1 SWAP2 SUB SWAP1 REVERT JUMPDEST PUSH1 0x1 PUSH1 0x1 PUSH1 0xA0 SHL SUB DUP7 AND PUSH1 0x0 SWAP1 DUP2 MSTORE PUSH1 0xE PUSH1 0x20 MSTORE PUSH1 0x40 SWAP1 KECCAK256 SLOAD PUSH1 0x60 DUP3 ADD MLOAD PUSH2 0x4245 SWAP2 SWAP1 PUSH2 0x2D16 JUMP JUMPDEST PUSH1 0xA0 DUP4 ADD DUP2 SWAP1 MSTORE PUSH1 0x20 DUP4 ADD DUP3 PUSH1 0x3 DUP2 GT ISZERO PUSH2 0x425C JUMPI INVALID JUMPDEST PUSH1 0x3 DUP2 GT ISZERO PUSH2 0x4267 JUMPI INVALID JUMPDEST SWAP1 MSTORE POP PUSH1 0x0 SWAP1 POP DUP2 PUSH1 0x20 ADD MLOAD PUSH1 0x3 DUP2 GT ISZERO PUSH2 0x427E JUMPI INVALID JUMPDEST EQ PUSH2 0x42BA JUMPI PUSH1 0x40 MLOAD PUSH3 0x461BCD PUSH1 0xE5 SHL DUP2 MSTORE PUSH1 0x4 ADD DUP1 DUP1 PUSH1 0x20 ADD DUP3 DUP2 SUB DUP3 MSTORE PUSH1 0x2B DUP2 MSTORE PUSH1 0x20 ADD DUP1 PUSH2 0x52EC PUSH1 0x2B SWAP2 CODECOPY PUSH1 0x40 ADD SWAP2 POP POP PUSH1 0x40 MLOAD DUP1 SWAP2 SUB SWAP1 REVERT JUMPDEST PUSH1 0x80 DUP2 ADD MLOAD PUSH1 0xD SSTORE PUSH1 0xA0 DUP2 ADD MLOAD PUSH1 0x1 PUSH1 0x1 PUSH1 0xA0 SHL SUB DUP8 AND PUSH1 0x0 DUP2 DUP2 MSTORE PUSH1 0xE PUSH1 0x20 SWAP1 DUP2 MSTORE PUSH1 0x40 SWAP2 DUP3 SWAP1 KECCAK256 SWAP4 SWAP1 SWAP4 SSTORE PUSH1 0xC0 DUP5 ADD MLOAD PUSH1 0x60 DUP1 DUP7 ADD MLOAD DUP4 MLOAD SWAP5 DUP6 MSTORE SWAP5 DUP5 ADD SWAP2 SWAP1 SWAP2 MSTORE DUP3 DUP3 ADD SWAP4 SWAP1 SWAP4 MSTORE MLOAD PUSH32 0x4C209B5FC8AD50758F13E2E1088BA56A560DFF690A1C6FEF26394F4C03821C4F SWAP3 SWAP2 DUP2 SWAP1 SUB SWAP1 SWAP2 ADD SWAP1 LOG1 PUSH1 0x60 DUP2 ADD MLOAD PUSH1 0x40 DUP1 MLOAD SWAP2 DUP3 MSTORE MLOAD PUSH1 0x1 PUSH1 0x1 PUSH1 0xA0 SHL SUB DUP9 AND SWAP2 ADDRESS SWAP2 PUSH1 0x0 DUP1 MLOAD PUSH1 0x20 PUSH2 0x53B7 DUP4 CODECOPY DUP2 MLOAD SWAP2 MSTORE SWAP2 DUP2 SWAP1 SUB PUSH1 0x20 ADD SWAP1 LOG3 PUSH1 0xC0 ADD MLOAD PUSH1 0x0 SWAP7 SWAP1 SWAP6 POP SWAP4 POP POP POP POP JUMP JUMPDEST PUSH1 0x0 PUSH8 0xDE0B6B3A7640000 PUSH2 0x438D DUP5 DUP5 PUSH1 0x0 ADD MLOAD PUSH2 0x4E1E JUMP JUMPDEST DUP2 PUSH2 0x4394 JUMPI INVALID JUMPDEST DIV SWAP4 SWAP3 POP POP POP JUMP JUMPDEST PUSH1 0x0 PUSH2 0x14AB DUP4 DUP4 PUSH1 0x40 MLOAD DUP1 PUSH1 0x40 ADD PUSH1 0x40 MSTORE DUP1 PUSH1 0x15 DUP2 MSTORE PUSH1 0x20 ADD PUSH21 0x7375627472616374696F6E20756E646572666C6F77 PUSH1 0x58 SHL DUP2 MSTORE POP PUSH2 0x4E60 JUMP JUMPDEST PUSH1 0x0 PUSH2 0x43E0 PUSH2 0x504B JUMP JUMPDEST PUSH2 0x43EA DUP5 DUP5 PUSH2 0x4EF7 JUMP JUMPDEST SWAP1 POP PUSH2 0x11D1 DUP2 PUSH2 0x3881 JUMP JUMPDEST PUSH1 0x0 PUSH2 0x14AB DUP4 DUP4 PUSH1 0x40 MLOAD DUP1 PUSH1 0x40 ADD PUSH1 0x40 MSTORE DUP1 PUSH1 0x11 DUP2 MSTORE PUSH1 0x20 ADD PUSH17 0x6164646974696F6E206F766572666C6F77 PUSH1 0x78 SHL DUP2 MSTORE POP PUSH2 0x4F21 JUMP JUMPDEST PUSH1 0x5 SLOAD PUSH1 0x40 DUP1 MLOAD PUSH4 0x368F5153 PUSH1 0xE2 SHL DUP2 MSTORE ADDRESS PUSH1 0x4 DUP3 ADD MSTORE PUSH1 0x1 PUSH1 0x1 PUSH1 0xA0 SHL SUB DUP6 DUP2 AND PUSH1 0x24 DUP4 ADD MSTORE PUSH1 0x44 DUP3 ADD DUP6 SWAP1 MSTORE SWAP2 MLOAD PUSH1 0x0 SWAP4 DUP5 SWAP4 AND SWAP2 PUSH4 0xDA3D454C SWAP2 PUSH1 0x64 DUP1 DUP4 ADD SWAP3 PUSH1 0x20 SWAP3 SWAP2 SWAP1 DUP3 SWAP1 SUB ADD DUP2 DUP8 DUP8 DUP1 EXTCODESIZE ISZERO DUP1 ISZERO PUSH2 0x4488 JUMPI PUSH1 0x0 DUP1 REVERT JUMPDEST POP GAS CALL ISZERO DUP1 ISZERO PUSH2 0x449C JUMPI RETURNDATASIZE PUSH1 0x0 DUP1 RETURNDATACOPY RETURNDATASIZE PUSH1 0x0 REVERT JUMPDEST POP POP POP POP PUSH1 0x40 MLOAD RETURNDATASIZE PUSH1 0x20 DUP2 LT ISZERO PUSH2 0x44B2 JUMPI PUSH1 0x0 DUP1 REVERT JUMPDEST POP MLOAD SWAP1 POP DUP1 ISZERO PUSH2 0x44D1 JUMPI PUSH2 0x44C9 PUSH1 0x3 PUSH1 0xE DUP4 PUSH2 0x2CB0 JUMP JUMPDEST SWAP2 POP POP PUSH2 0xCBF JUMP JUMPDEST PUSH2 0x44D9 PUSH2 0x2A2B JUMP JUMPDEST PUSH1 0x9 SLOAD EQ PUSH2 0x44EC JUMPI PUSH2 0x44C9 PUSH1 0xA DUP1 PUSH2 0x275D JUMP JUMPDEST DUP3 PUSH2 0x44F5 PUSH2 0x2649 JUMP JUMPDEST LT ISZERO PUSH2 0x4507 JUMPI PUSH2 0x44C9 PUSH1 0xE PUSH1 0x9 PUSH2 0x275D JUMP JUMPDEST PUSH2 0x450F PUSH2 0x51AD JUMP JUMPDEST PUSH2 0x4518 DUP6 PUSH2 0x2977 JUMP JUMPDEST PUSH1 0x20 DUP4 ADD DUP2 SWAP1 MSTORE DUP3 DUP3 PUSH1 0x3 DUP2 GT ISZERO PUSH2 0x452C JUMPI INVALID JUMPDEST PUSH1 0x3 DUP2 GT ISZERO PUSH2 0x4537 JUMPI INVALID JUMPDEST SWAP1 MSTORE POP PUSH1 0x0 SWAP1 POP DUP2 MLOAD PUSH1 0x3 DUP2 GT ISZERO PUSH2 0x454B JUMPI INVALID JUMPDEST EQ PUSH2 0x4570 JUMPI PUSH2 0x4567 PUSH1 0x9 PUSH1 0x7 DUP4 PUSH1 0x0 ADD MLOAD PUSH1 0x3 DUP2 GT ISZERO PUSH2 0x1892 JUMPI INVALID JUMPDEST SWAP3 POP POP POP PUSH2 0xCBF JUMP JUMPDEST PUSH2 0x457E DUP2 PUSH1 0x20 ADD MLOAD DUP6 PUSH2 0x2D16 JUMP JUMPDEST PUSH1 0x40 DUP4 ADD DUP2 SWAP1 MSTORE DUP3 DUP3 PUSH1 0x3 DUP2 GT ISZERO PUSH2 0x4592 JUMPI INVALID JUMPDEST PUSH1 0x3 DUP2 GT ISZERO PUSH2 0x459D JUMPI INVALID JUMPDEST SWAP1 MSTORE POP PUSH1 0x0 SWAP1 POP DUP2 MLOAD PUSH1 0x3 DUP2 GT ISZERO PUSH2 0x45B1 JUMPI INVALID JUMPDEST EQ PUSH2 0x45CD JUMPI PUSH2 0x4567 PUSH1 0x9 PUSH1 0xC DUP4 PUSH1 0x0 ADD MLOAD PUSH1 0x3 DUP2 GT ISZERO PUSH2 0x1892 JUMPI INVALID JUMPDEST PUSH2 0x45D9 PUSH1 0xB SLOAD DUP6 PUSH2 0x2D16 JUMP JUMPDEST PUSH1 0x60 DUP4 ADD DUP2 SWAP1 MSTORE DUP3 DUP3 PUSH1 0x3 DUP2 GT ISZERO PUSH2 0x45ED JUMPI INVALID JUMPDEST PUSH1 0x3 DUP2 GT ISZERO PUSH2 0x45F8 JUMPI INVALID JUMPDEST SWAP1 MSTORE POP PUSH1 0x0 SWAP1 POP DUP2 MLOAD PUSH1 0x3 DUP2 GT ISZERO PUSH2 0x460C JUMPI INVALID JUMPDEST EQ PUSH2 0x4628 JUMPI PUSH2 0x4567 PUSH1 0x9 PUSH1 0xB DUP4 PUSH1 0x0 ADD MLOAD PUSH1 0x3 DUP2 GT ISZERO PUSH2 0x1892 JUMPI INVALID JUMPDEST PUSH1 0x40 DUP1 DUP3 ADD MLOAD PUSH1 0x1 PUSH1 0x1 PUSH1 0xA0 SHL SUB DUP8 AND PUSH1 0x0 SWAP1 DUP2 MSTORE PUSH1 0x10 PUSH1 0x20 MSTORE SWAP2 SWAP1 SWAP2 KECCAK256 SWAP1 DUP2 SSTORE PUSH1 0xA SLOAD PUSH1 0x1 SWAP1 SWAP2 ADD SSTORE PUSH1 0x60 DUP2 ADD MLOAD PUSH1 0xB SSTORE PUSH2 0x4664 DUP6 DUP6 PUSH2 0x3978 JUMP JUMPDEST PUSH1 0x40 DUP1 DUP3 ADD MLOAD PUSH1 0x60 DUP1 DUP5 ADD MLOAD DUP4 MLOAD PUSH1 0x1 PUSH1 0x1 PUSH1 0xA0 SHL SUB DUP11 AND DUP2 MSTORE PUSH1 0x20 DUP2 ADD DUP10 SWAP1 MSTORE DUP1 DUP6 ADD SWAP4 SWAP1 SWAP4 MSTORE SWAP1 DUP3 ADD MSTORE SWAP1 MLOAD PUSH32 0x13ED6866D4E1EE6DA46F845C46D7E54120883D75C5EA9A2DACC1C4CA8984AB80 SWAP2 DUP2 SWAP1 SUB PUSH1 0x80 ADD SWAP1 LOG1 PUSH1 0x0 SWAP6 SWAP5 POP POP POP POP POP JUMP JUMPDEST PUSH1 0x5 SLOAD PUSH1 0x40 DUP1 MLOAD PUSH4 0x2FE3F38F PUSH1 0xE1 SHL DUP2 MSTORE ADDRESS PUSH1 0x4 DUP3 ADD MSTORE PUSH1 0x1 PUSH1 0x1 PUSH1 0xA0 SHL SUB DUP5 DUP2 AND PUSH1 0x24 DUP4 ADD MSTORE DUP8 DUP2 AND PUSH1 0x44 DUP4 ADD MSTORE DUP7 DUP2 AND PUSH1 0x64 DUP4 ADD MSTORE PUSH1 0x84 DUP3 ADD DUP7 SWAP1 MSTORE SWAP2 MLOAD PUSH1 0x0 SWAP4 DUP5 SWAP4 DUP5 SWAP4 SWAP2 AND SWAP2 PUSH4 0x5FC7E71E SWAP2 PUSH1 0xA4 DUP1 DUP3 ADD SWAP3 PUSH1 0x20 SWAP3 SWAP1 SWAP2 SWAP1 DUP3 SWAP1 SUB ADD DUP2 DUP8 DUP8 DUP1 EXTCODESIZE ISZERO DUP1 ISZERO PUSH2 0x4738 JUMPI PUSH1 0x0 DUP1 REVERT JUMPDEST POP GAS CALL ISZERO DUP1 ISZERO PUSH2 0x474C JUMPI RETURNDATASIZE PUSH1 0x0 DUP1 RETURNDATACOPY RETURNDATASIZE PUSH1 0x0 REVERT JUMPDEST POP POP POP POP PUSH1 0x40 MLOAD RETURNDATASIZE PUSH1 0x20 DUP2 LT ISZERO PUSH2 0x4762 JUMPI PUSH1 0x0 DUP1 REVERT JUMPDEST POP MLOAD SWAP1 POP DUP1 ISZERO PUSH2 0x4786 JUMPI PUSH2 0x4779 PUSH1 0x3 PUSH1 0x12 DUP4 PUSH2 0x2CB0 JUMP JUMPDEST SWAP3 POP PUSH1 0x0 SWAP2 POP PUSH2 0x4BB0 SWAP1 POP JUMP JUMPDEST PUSH2 0x478E PUSH2 0x2A2B JUMP JUMPDEST PUSH1 0x9 SLOAD EQ PUSH2 0x47A2 JUMPI PUSH2 0x4779 PUSH1 0xA PUSH1 0x16 PUSH2 0x275D JUMP JUMPDEST PUSH2 0x47AA PUSH2 0x2A2B JUMP JUMPDEST DUP5 PUSH1 0x1 PUSH1 0x1 PUSH1 0xA0 SHL SUB AND PUSH4 0x6C540BAF PUSH1 0x40 MLOAD DUP2 PUSH4 0xFFFFFFFF AND PUSH1 0xE0 SHL DUP2 MSTORE PUSH1 0x4 ADD PUSH1 0x20 PUSH1 0x40 MLOAD DUP1 DUP4 SUB DUP2 DUP7 DUP1 EXTCODESIZE ISZERO DUP1 ISZERO PUSH2 0x47E3 JUMPI PUSH1 0x0 DUP1 REVERT JUMPDEST POP GAS STATICCALL ISZERO DUP1 ISZERO PUSH2 0x47F7 JUMPI RETURNDATASIZE PUSH1 0x0 DUP1 RETURNDATACOPY RETURNDATASIZE PUSH1 0x0 REVERT JUMPDEST POP POP POP POP PUSH1 0x40 MLOAD RETURNDATASIZE PUSH1 0x20 DUP2 LT ISZERO PUSH2 0x480D JUMPI PUSH1 0x0 DUP1 REVERT JUMPDEST POP MLOAD EQ PUSH2 0x4820 JUMPI PUSH2 0x4779 PUSH1 0xA PUSH1 0x11 PUSH2 0x275D JUMP JUMPDEST DUP7 PUSH1 0x1 PUSH1 0x1 PUSH1 0xA0 SHL SUB AND DUP7 PUSH1 0x1 PUSH1 0x1 PUSH1 0xA0 SHL SUB AND EQ ISZERO PUSH2 0x4846 JUMPI PUSH2 0x4779 PUSH1 0x6 PUSH1 0x17 PUSH2 0x275D JUMP JUMPDEST DUP5 PUSH2 0x4857 JUMPI PUSH2 0x4779 PUSH1 0x7 PUSH1 0x15 PUSH2 0x275D JUMP JUMPDEST PUSH1 0x0 NOT DUP6 EQ ISZERO PUSH2 0x486D JUMPI PUSH2 0x4779 PUSH1 0x7 PUSH1 0x14 PUSH2 0x275D JUMP JUMPDEST PUSH1 0x0 DUP1 PUSH2 0x487B DUP10 DUP10 DUP10 PUSH2 0x3445 JUMP JUMPDEST SWAP1 SWAP3 POP SWAP1 POP DUP2 ISZERO PUSH2 0x48AB JUMPI PUSH2 0x489C DUP3 PUSH1 0x10 DUP2 GT ISZERO PUSH2 0x4895 JUMPI INVALID JUMPDEST PUSH1 0x18 PUSH2 0x275D JUMP JUMPDEST SWAP5 POP PUSH1 0x0 SWAP4 POP PUSH2 0x4BB0 SWAP3 POP POP POP JUMP JUMPDEST PUSH1 0x5 SLOAD PUSH1 0x40 DUP1 MLOAD PUSH4 0xC488847B PUSH1 0xE0 SHL DUP2 MSTORE ADDRESS PUSH1 0x4 DUP3 ADD MSTORE PUSH1 0x1 PUSH1 0x1 PUSH1 0xA0 SHL SUB DUP10 DUP2 AND PUSH1 0x24 DUP4 ADD MSTORE PUSH1 0x44 DUP3 ADD DUP6 SWAP1 MSTORE DUP3 MLOAD PUSH1 0x0 SWAP5 DUP6 SWAP5 SWAP3 AND SWAP3 PUSH4 0xC488847B SWAP3 PUSH1 0x64 DUP1 DUP4 ADD SWAP4 SWAP2 SWAP3 DUP3 SWAP1 SUB ADD DUP2 DUP7 DUP1 EXTCODESIZE ISZERO DUP1 ISZERO PUSH2 0x4905 JUMPI PUSH1 0x0 DUP1 REVERT JUMPDEST POP GAS STATICCALL ISZERO DUP1 ISZERO PUSH2 0x4919 JUMPI RETURNDATASIZE PUSH1 0x0 DUP1 RETURNDATACOPY RETURNDATASIZE PUSH1 0x0 REVERT JUMPDEST POP POP POP POP PUSH1 0x40 MLOAD RETURNDATASIZE PUSH1 0x40 DUP2 LT ISZERO PUSH2 0x492F JUMPI PUSH1 0x0 DUP1 REVERT JUMPDEST POP DUP1 MLOAD PUSH1 0x20 SWAP1 SWAP2 ADD MLOAD SWAP1 SWAP3 POP SWAP1 POP DUP2 ISZERO PUSH2 0x497A JUMPI PUSH1 0x40 MLOAD PUSH3 0x461BCD PUSH1 0xE5 SHL DUP2 MSTORE PUSH1 0x4 ADD DUP1 DUP1 PUSH1 0x20 ADD DUP3 DUP2 SUB DUP3 MSTORE PUSH1 0x35 DUP2 MSTORE PUSH1 0x20 ADD DUP1 PUSH2 0x52B7 PUSH1 0x35 SWAP2 CODECOPY PUSH1 0x40 ADD SWAP2 POP POP PUSH1 0x40 MLOAD DUP1 SWAP2 SUB SWAP1 REVERT JUMPDEST DUP1 DUP9 PUSH1 0x1 PUSH1 0x1 PUSH1 0xA0 SHL SUB AND PUSH4 0x70A08231 DUP13 PUSH1 0x40 MLOAD DUP3 PUSH4 0xFFFFFFFF AND PUSH1 0xE0 SHL DUP2 MSTORE PUSH1 0x4 ADD DUP1 DUP3 PUSH1 0x1 PUSH1 0x1 PUSH1 0xA0 SHL SUB AND PUSH1 0x1 PUSH1 0x1 PUSH1 0xA0 SHL SUB AND DUP2 MSTORE PUSH1 0x20 ADD SWAP2 POP POP PUSH1 0x20 PUSH1 0x40 MLOAD DUP1 DUP4 SUB DUP2 DUP7 DUP1 EXTCODESIZE ISZERO DUP1 ISZERO PUSH2 0x49D1 JUMPI PUSH1 0x0 DUP1 REVERT JUMPDEST POP GAS STATICCALL ISZERO DUP1 ISZERO PUSH2 0x49E5 JUMPI RETURNDATASIZE PUSH1 0x0 DUP1 RETURNDATACOPY RETURNDATASIZE PUSH1 0x0 REVERT JUMPDEST POP POP POP POP PUSH1 0x40 MLOAD RETURNDATASIZE PUSH1 0x20 DUP2 LT ISZERO PUSH2 0x49FB JUMPI PUSH1 0x0 DUP1 REVERT JUMPDEST POP MLOAD LT ISZERO PUSH2 0x4A50 JUMPI PUSH1 0x40 DUP1 MLOAD PUSH3 0x461BCD PUSH1 0xE5 SHL DUP2 MSTORE PUSH1 0x20 PUSH1 0x4 DUP3 ADD MSTORE PUSH1 0x18 PUSH1 0x24 DUP3 ADD MSTORE PUSH32 0x4C49515549444154455F5345495A455F544F4F5F4D5543480000000000000000 PUSH1 0x44 DUP3 ADD MSTORE SWAP1 MLOAD SWAP1 DUP2 SWAP1 SUB PUSH1 0x64 ADD SWAP1 REVERT JUMPDEST PUSH1 0x0 PUSH1 0x1 PUSH1 0x1 PUSH1 0xA0 SHL SUB DUP10 AND ADDRESS EQ ISZERO PUSH2 0x4A76 JUMPI PUSH2 0x4A6F ADDRESS DUP14 DUP14 DUP6 PUSH2 0x2D98 JUMP JUMPDEST SWAP1 POP PUSH2 0x4B00 JUMP JUMPDEST PUSH1 0x40 DUP1 MLOAD PUSH4 0xB2A02FF1 PUSH1 0xE0 SHL DUP2 MSTORE PUSH1 0x1 PUSH1 0x1 PUSH1 0xA0 SHL SUB DUP15 DUP2 AND PUSH1 0x4 DUP4 ADD MSTORE DUP14 DUP2 AND PUSH1 0x24 DUP4 ADD MSTORE PUSH1 0x44 DUP3 ADD DUP6 SWAP1 MSTORE SWAP2 MLOAD SWAP2 DUP12 AND SWAP2 PUSH4 0xB2A02FF1 SWAP2 PUSH1 0x64 DUP1 DUP3 ADD SWAP3 PUSH1 0x20 SWAP3 SWAP1 SWAP2 SWAP1 DUP3 SWAP1 SUB ADD DUP2 PUSH1 0x0 DUP8 DUP1 EXTCODESIZE ISZERO DUP1 ISZERO PUSH2 0x4AD1 JUMPI PUSH1 0x0 DUP1 REVERT JUMPDEST POP GAS CALL ISZERO DUP1 ISZERO PUSH2 0x4AE5 JUMPI RETURNDATASIZE PUSH1 0x0 DUP1 RETURNDATACOPY RETURNDATASIZE PUSH1 0x0 REVERT JUMPDEST POP POP POP POP PUSH1 0x40 MLOAD RETURNDATASIZE PUSH1 0x20 DUP2 LT ISZERO PUSH2 0x4AFB JUMPI PUSH1 0x0 DUP1 REVERT JUMPDEST POP MLOAD SWAP1 POP JUMPDEST DUP1 ISZERO PUSH2 0x4B4A JUMPI PUSH1 0x40 DUP1 MLOAD PUSH3 0x461BCD PUSH1 0xE5 SHL DUP2 MSTORE PUSH1 0x20 PUSH1 0x4 DUP3 ADD MSTORE PUSH1 0x14 PUSH1 0x24 DUP3 ADD MSTORE PUSH20 0x1D1BDAD95B881CD95A5E9D5C994819985A5B1959 PUSH1 0x62 SHL PUSH1 0x44 DUP3 ADD MSTORE SWAP1 MLOAD SWAP1 DUP2 SWAP1 SUB PUSH1 0x64 ADD SWAP1 REVERT JUMPDEST PUSH1 0x40 DUP1 MLOAD PUSH1 0x1 PUSH1 0x1 PUSH1 0xA0 SHL SUB DUP1 DUP16 AND DUP3 MSTORE DUP1 DUP15 AND PUSH1 0x20 DUP4 ADD MSTORE DUP2 DUP4 ADD DUP8 SWAP1 MSTORE DUP12 AND PUSH1 0x60 DUP3 ADD MSTORE PUSH1 0x80 DUP2 ADD DUP5 SWAP1 MSTORE SWAP1 MLOAD PUSH32 0x298637F684DA70674F26509B10F07EC2FBC77A335AB1E7D6215A4B2484D8BB52 SWAP2 DUP2 SWAP1 SUB PUSH1 0xA0 ADD SWAP1 LOG1 PUSH1 0x0 SWAP8 POP SWAP3 SWAP6 POP POP POP POP POP POP JUMPDEST SWAP5 POP SWAP5 SWAP3 POP POP POP JUMP JUMPDEST PUSH1 0x11 SLOAD PUSH1 0x40 DUP1 MLOAD PUSH4 0x70A08231 PUSH1 0xE0 SHL DUP2 MSTORE ADDRESS PUSH1 0x4 DUP3 ADD MSTORE SWAP1 MLOAD PUSH1 0x0 SWAP3 PUSH1 0x1 PUSH1 0x1 PUSH1 0xA0 SHL SUB AND SWAP2 DUP4 SWAP2 DUP4 SWAP2 PUSH4 0x70A08231 SWAP2 PUSH1 0x24 DUP1 DUP4 ADD SWAP3 PUSH1 0x20 SWAP3 SWAP2 SWAP1 DUP3 SWAP1 SUB ADD DUP2 DUP7 DUP1 EXTCODESIZE ISZERO DUP1 ISZERO PUSH2 0x4C08 JUMPI PUSH1 0x0 DUP1 REVERT JUMPDEST POP GAS STATICCALL ISZERO DUP1 ISZERO PUSH2 0x4C1C JUMPI RETURNDATASIZE PUSH1 0x0 DUP1 RETURNDATACOPY RETURNDATASIZE PUSH1 0x0 REVERT JUMPDEST POP POP POP POP PUSH1 0x40 MLOAD RETURNDATASIZE PUSH1 0x20 DUP2 LT ISZERO PUSH2 0x4C32 JUMPI PUSH1 0x0 DUP1 REVERT JUMPDEST POP MLOAD PUSH1 0x40 DUP1 MLOAD PUSH4 0x23B872DD PUSH1 0xE0 SHL DUP2 MSTORE PUSH1 0x1 PUSH1 0x1 PUSH1 0xA0 SHL SUB DUP9 DUP2 AND PUSH1 0x4 DUP4 ADD MSTORE ADDRESS PUSH1 0x24 DUP4 ADD MSTORE PUSH1 0x44 DUP3 ADD DUP9 SWAP1 MSTORE SWAP2 MLOAD SWAP3 SWAP4 POP SWAP1 DUP5 AND SWAP2 PUSH4 0x23B872DD SWAP2 PUSH1 0x64 DUP1 DUP3 ADD SWAP3 PUSH1 0x0 SWAP3 SWAP1 SWAP2 SWAP1 DUP3 SWAP1 SUB ADD DUP2 DUP4 DUP8 DUP1 EXTCODESIZE ISZERO DUP1 ISZERO PUSH2 0x4C8F JUMPI PUSH1 0x0 DUP1 REVERT JUMPDEST POP GAS CALL ISZERO DUP1 ISZERO PUSH2 0x4CA3 JUMPI RETURNDATASIZE PUSH1 0x0 DUP1 RETURNDATACOPY RETURNDATASIZE PUSH1 0x0 REVERT JUMPDEST POP POP POP POP PUSH1 0x0 RETURNDATASIZE PUSH1 0x0 DUP2 EQ PUSH2 0x4CC3 JUMPI PUSH1 0x20 DUP2 EQ PUSH2 0x4CCD JUMPI PUSH1 0x0 SWAP2 POP PUSH2 0x4CD9 JUMP JUMPDEST PUSH1 0x0 NOT SWAP2 POP PUSH2 0x4CD9 JUMP JUMPDEST PUSH1 0x20 PUSH1 0x0 DUP1 RETURNDATACOPY PUSH1 0x0 MLOAD SWAP2 POP JUMPDEST POP DUP1 PUSH2 0x4D2C JUMPI PUSH1 0x40 DUP1 MLOAD PUSH3 0x461BCD PUSH1 0xE5 SHL DUP2 MSTORE PUSH1 0x20 PUSH1 0x4 DUP3 ADD MSTORE PUSH1 0x18 PUSH1 0x24 DUP3 ADD MSTORE PUSH32 0x544F4B454E5F5452414E534645525F494E5F4641494C45440000000000000000 PUSH1 0x44 DUP3 ADD MSTORE SWAP1 MLOAD SWAP1 DUP2 SWAP1 SUB PUSH1 0x64 ADD SWAP1 REVERT JUMPDEST PUSH1 0x11 SLOAD PUSH1 0x40 DUP1 MLOAD PUSH4 0x70A08231 PUSH1 0xE0 SHL DUP2 MSTORE ADDRESS PUSH1 0x4 DUP3 ADD MSTORE SWAP1 MLOAD PUSH1 0x0 SWAP3 PUSH1 0x1 PUSH1 0x1 PUSH1 0xA0 SHL SUB AND SWAP2 PUSH4 0x70A08231 SWAP2 PUSH1 0x24 DUP1 DUP4 ADD SWAP3 PUSH1 0x20 SWAP3 SWAP2 SWAP1 DUP3 SWAP1 SUB ADD DUP2 DUP7 DUP1 EXTCODESIZE ISZERO DUP1 ISZERO PUSH2 0x4D77 JUMPI PUSH1 0x0 DUP1 REVERT JUMPDEST POP GAS STATICCALL ISZERO DUP1 ISZERO PUSH2 0x4D8B JUMPI RETURNDATASIZE PUSH1 0x0 DUP1 RETURNDATACOPY RETURNDATASIZE PUSH1 0x0 REVERT JUMPDEST POP POP POP POP PUSH1 0x40 MLOAD RETURNDATASIZE PUSH1 0x20 DUP2 LT ISZERO PUSH2 0x4DA1 JUMPI PUSH1 0x0 DUP1 REVERT JUMPDEST POP MLOAD SWAP1 POP DUP3 DUP2 LT ISZERO PUSH2 0x4DFA JUMPI PUSH1 0x40 DUP1 MLOAD PUSH3 0x461BCD PUSH1 0xE5 SHL DUP2 MSTORE PUSH1 0x20 PUSH1 0x4 DUP3 ADD MSTORE PUSH1 0x1A PUSH1 0x24 DUP3 ADD MSTORE PUSH32 0x544F4B454E5F5452414E534645525F494E5F4F564552464C4F57000000000000 PUSH1 0x44 DUP3 ADD MSTORE SWAP1 MLOAD SWAP1 DUP2 SWAP1 SUB PUSH1 0x64 ADD SWAP1 REVERT JUMPDEST SWAP2 SWAP1 SWAP2 SUB SWAP6 SWAP5 POP POP POP POP POP JUMP JUMPDEST PUSH1 0x0 DUP1 PUSH1 0x0 PUSH2 0x4E14 PUSH2 0x504B JUMP JUMPDEST PUSH2 0x260C DUP7 DUP7 PUSH2 0x4F76 JUMP JUMPDEST PUSH1 0x0 PUSH2 0x14AB DUP4 DUP4 PUSH1 0x40 MLOAD DUP1 PUSH1 0x40 ADD PUSH1 0x40 MSTORE DUP1 PUSH1 0x17 DUP2 MSTORE PUSH1 0x20 ADD PUSH32 0x6D756C7469706C69636174696F6E206F766572666C6F77000000000000000000 DUP2 MSTORE POP PUSH2 0x4FD5 JUMP JUMPDEST PUSH1 0x0 DUP2 DUP5 DUP5 GT ISZERO PUSH2 0x4EEF JUMPI PUSH1 0x40 MLOAD PUSH3 0x461BCD PUSH1 0xE5 SHL DUP2 MSTORE PUSH1 0x4 ADD DUP1 DUP1 PUSH1 0x20 ADD DUP3 DUP2 SUB DUP3 MSTORE DUP4 DUP2 DUP2 MLOAD DUP2 MSTORE PUSH1 0x20 ADD SWAP2 POP DUP1 MLOAD SWAP1 PUSH1 0x20 ADD SWAP1 DUP1 DUP4 DUP4 PUSH1 0x0 JUMPDEST DUP4 DUP2 LT ISZERO PUSH2 0x4EB4 JUMPI DUP2 DUP2 ADD MLOAD DUP4 DUP3 ADD MSTORE PUSH1 0x20 ADD PUSH2 0x4E9C JUMP JUMPDEST POP POP POP POP SWAP1 POP SWAP1 DUP2 ADD SWAP1 PUSH1 0x1F AND DUP1 ISZERO PUSH2 0x4EE1 JUMPI DUP1 DUP3 SUB DUP1 MLOAD PUSH1 0x1 DUP4 PUSH1 0x20 SUB PUSH2 0x100 EXP SUB NOT AND DUP2 MSTORE PUSH1 0x20 ADD SWAP2 POP JUMPDEST POP SWAP3 POP POP POP PUSH1 0x40 MLOAD DUP1 SWAP2 SUB SWAP1 REVERT JUMPDEST POP POP POP SWAP1 SUB SWAP1 JUMP JUMPDEST PUSH2 0x4EFF PUSH2 0x504B JUMP JUMPDEST PUSH1 0x40 MLOAD DUP1 PUSH1 0x20 ADD PUSH1 0x40 MSTORE DUP1 PUSH2 0x4F18 DUP6 PUSH1 0x0 ADD MLOAD DUP6 PUSH2 0x4E1E JUMP JUMPDEST SWAP1 MSTORE SWAP4 SWAP3 POP POP POP JUMP JUMPDEST PUSH1 0x0 DUP4 DUP4 ADD DUP3 DUP6 DUP3 LT ISZERO PUSH2 0x1102 JUMPI PUSH1 0x40 MLOAD PUSH3 0x461BCD PUSH1 0xE5 SHL DUP2 MSTORE PUSH1 0x20 PUSH1 0x4 DUP3 ADD DUP2 DUP2 MSTORE DUP4 MLOAD PUSH1 0x24 DUP5 ADD MSTORE DUP4 MLOAD SWAP1 SWAP3 DUP4 SWAP3 PUSH1 0x44 SWAP1 SWAP2 ADD SWAP2 SWAP1 DUP6 ADD SWAP1 DUP1 DUP4 DUP4 PUSH1 0x0 DUP4 ISZERO PUSH2 0x4EB4 JUMPI DUP2 DUP2 ADD MLOAD DUP4 DUP3 ADD MSTORE PUSH1 0x20 ADD PUSH2 0x4E9C JUMP JUMPDEST PUSH1 0x0 PUSH2 0x4F80 PUSH2 0x504B JUMP JUMPDEST PUSH1 0x0 DUP1 PUSH2 0x4F95 PUSH8 0xDE0B6B3A7640000 DUP8 PUSH2 0x3F3A JUMP JUMPDEST SWAP1 SWAP3 POP SWAP1 POP PUSH1 0x0 DUP3 PUSH1 0x3 DUP2 GT ISZERO PUSH2 0x4FA8 JUMPI INVALID JUMPDEST EQ PUSH2 0x4FC7 JUMPI POP PUSH1 0x40 DUP1 MLOAD PUSH1 0x20 DUP2 ADD SWAP1 SWAP2 MSTORE PUSH1 0x0 DUP2 MSTORE SWAP1 SWAP3 POP SWAP1 POP PUSH2 0x2642 JUMP JUMPDEST PUSH2 0x263B DUP2 DUP7 PUSH1 0x0 ADD MLOAD PUSH2 0x37D1 JUMP JUMPDEST PUSH1 0x0 DUP4 ISZERO DUP1 PUSH2 0x4FE2 JUMPI POP DUP3 ISZERO JUMPDEST ISZERO PUSH2 0x4FEF JUMPI POP PUSH1 0x0 PUSH2 0x14AB JUMP JUMPDEST DUP4 DUP4 MUL DUP4 DUP6 DUP3 DUP2 PUSH2 0x4FFC JUMPI INVALID JUMPDEST DIV EQ DUP4 SWAP1 PUSH2 0x1102 JUMPI PUSH1 0x40 MLOAD PUSH3 0x461BCD PUSH1 0xE5 SHL DUP2 MSTORE PUSH1 0x20 PUSH1 0x4 DUP3 ADD DUP2 DUP2 MSTORE DUP4 MLOAD PUSH1 0x24 DUP5 ADD MSTORE DUP4 MLOAD SWAP1 SWAP3 DUP4 SWAP3 PUSH1 0x44 SWAP1 SWAP2 ADD SWAP2 SWAP1 DUP6 ADD SWAP1 DUP1 DUP4 DUP4 PUSH1 0x0 DUP4 ISZERO PUSH2 0x4EB4 JUMPI DUP2 DUP2 ADD MLOAD DUP4 DUP3 ADD MSTORE PUSH1 0x20 ADD PUSH2 0x4E9C JUMP JUMPDEST PUSH1 0x40 MLOAD DUP1 PUSH1 0x20 ADD PUSH1 0x40 MSTORE DUP1 PUSH1 0x0 DUP2 MSTORE POP SWAP1 JUMP JUMPDEST DUP3 DUP1 SLOAD PUSH1 0x1 DUP2 PUSH1 0x1 AND ISZERO PUSH2 0x100 MUL SUB AND PUSH1 0x2 SWAP1 DIV SWAP1 PUSH1 0x0 MSTORE PUSH1 0x20 PUSH1 0x0 KECCAK256 SWAP1 PUSH1 0x1F ADD PUSH1 0x20 SWAP1 DIV DUP2 ADD SWAP3 DUP3 PUSH1 0x1F LT PUSH2 0x509F JUMPI DUP1 MLOAD PUSH1 0xFF NOT AND DUP4 DUP1 ADD OR DUP6 SSTORE PUSH2 0x50CC JUMP JUMPDEST DUP3 DUP1 ADD PUSH1 0x1 ADD DUP6 SSTORE DUP3 ISZERO PUSH2 0x50CC JUMPI SWAP2 DUP3 ADD JUMPDEST DUP3 DUP2 GT ISZERO PUSH2 0x50CC JUMPI DUP3 MLOAD DUP3 SSTORE SWAP2 PUSH1 0x20 ADD SWAP2 SWAP1 PUSH1 0x1 ADD SWAP1 PUSH2 0x50B1 JUMP JUMPDEST POP PUSH2 0x50D8 SWAP3 SWAP2 POP PUSH2 0x51D6 JUMP JUMPDEST POP SWAP1 JUMP JUMPDEST PUSH1 0x40 DUP1 MLOAD PUSH2 0x120 DUP2 ADD SWAP1 SWAP2 MSTORE DUP1 PUSH1 0x0 DUP2 MSTORE PUSH1 0x20 ADD PUSH1 0x0 DUP2 MSTORE PUSH1 0x20 ADD PUSH1 0x0 DUP2 MSTORE PUSH1 0x20 ADD PUSH1 0x0 DUP2 MSTORE PUSH1 0x20 ADD PUSH1 0x0 DUP2 MSTORE PUSH1 0x20 ADD PUSH1 0x0 DUP2 MSTORE PUSH1 0x20 ADD PUSH1 0x0 DUP2 MSTORE PUSH1 0x20 ADD PUSH1 0x0 DUP2 MSTORE PUSH1 0x20 ADD PUSH1 0x0 DUP2 MSTORE POP SWAP1 JUMP JUMPDEST PUSH1 0x40 DUP1 MLOAD PUSH2 0x100 DUP2 ADD SWAP1 SWAP2 MSTORE DUP1 PUSH1 0x0 DUP2 MSTORE PUSH1 0x20 ADD PUSH1 0x0 DUP2 MSTORE PUSH1 0x20 ADD PUSH1 0x0 DUP2 MSTORE PUSH1 0x20 ADD PUSH1 0x0 DUP2 MSTORE PUSH1 0x20 ADD PUSH1 0x0 DUP2 MSTORE PUSH1 0x20 ADD PUSH1 0x0 DUP2 MSTORE PUSH1 0x20 ADD PUSH1 0x0 DUP2 MSTORE PUSH1 0x20 ADD PUSH1 0x0 DUP2 MSTORE POP SWAP1 JUMP JUMPDEST PUSH1 0x40 DUP1 MLOAD PUSH1 0xE0 DUP2 ADD SWAP1 SWAP2 MSTORE DUP1 PUSH1 0x0 DUP2 MSTORE PUSH1 0x20 ADD PUSH1 0x0 DUP2 MSTORE PUSH1 0x20 ADD PUSH1 0x0 DUP2 MSTORE PUSH1 0x20 ADD PUSH1 0x0 DUP2 MSTORE PUSH1 0x20 ADD PUSH1 0x0 DUP2 MSTORE PUSH1 0x20 ADD PUSH1 0x0 DUP2 MSTORE PUSH1 0x20 ADD PUSH1 0x0 DUP2 MSTORE POP SWAP1 JUMP JUMPDEST PUSH1 0x40 DUP1 MLOAD PUSH1 0x80 DUP2 ADD SWAP1 SWAP2 MSTORE DUP1 PUSH1 0x0 DUP2 MSTORE PUSH1 0x20 ADD PUSH1 0x0 DUP2 MSTORE PUSH1 0x20 ADD PUSH1 0x0 DUP2 MSTORE PUSH1 0x20 ADD PUSH1 0x0 DUP2 MSTORE POP SWAP1 JUMP JUMPDEST PUSH2 0xE57 SWAP2 SWAP1 JUMPDEST DUP1 DUP3 GT ISZERO PUSH2 0x50D8 JUMPI PUSH1 0x0 DUP2 SSTORE PUSH1 0x1 ADD PUSH2 0x51DC JUMP INVALID PUSH16 0x6E6C792061646D696E206D617920696E PUSH10 0x7469616C697A65207468 PUSH6 0x206D61726B65 PUSH21 0x6D61726B6574206D6179206F6E6C7920626520696E PUSH10 0x7469616C697A6564206F PUSH15 0x6365696E697469616C206578636861 PUSH15 0x67652072617465206D757374206265 KECCAK256 PUSH8 0x7265617465722074 PUSH9 0x616E207A65726F2E73 PUSH6 0x7474696E6720 PUSH10 0x6E746572657374207261 PUSH21 0x65206D6F64656C206661696C65646F6E6C79207468 PUSH6 0x2061646D696E KECCAK256 PUSH14 0x61792063616C6C205F7265736967 PUSH15 0x496D706C656D656E746174696F6E4C 0x49 MLOAD SSTORE 0x49 DIFFICULTY COINBASE SLOAD GASLIMIT 0x5F SLOAD GASLIMIT NUMBER SLOAD 0x4F 0x4E 0x49 NUMBER 0x5F NUMBER 0x4F MSTORE GASLIMIT 0x5F NUMBER COINBASE 0x4C NUMBER SSTORE 0x4C COINBASE SLOAD GASLIMIT 0x5F COINBASE 0x4D 0x4F SSTORE 0x4E SLOAD 0x5F MSTORE8 GASLIMIT 0x49 GAS GASLIMIT 0x5F CHAINID COINBASE 0x49 0x4C GASLIMIT DIFFICULTY 0x4D 0x49 0x4E SLOAD 0x5F 0x4E GASLIMIT JUMPI 0x5F COINBASE NUMBER NUMBER 0x4F SSTORE 0x4E SLOAD 0x5F TIMESTAMP COINBASE 0x4C COINBASE 0x4E NUMBER GASLIMIT 0x5F NUMBER COINBASE 0x4C NUMBER SSTORE 0x4C COINBASE SLOAD 0x49 0x4F 0x4E 0x5F CHAINID COINBASE 0x49 0x4C GASLIMIT DIFFICULTY SLOAD GASLIMIT PUSH19 0x6332303A3A7377656570546F6B656E3A206F6E PUSH13 0x792061646D696E2063616E2073 PUSH24 0x65657020746F6B656E73626F72726F7742616C616E636553 PUSH21 0x6F7265643A20626F72726F7742616C616E63655374 PUSH16 0x726564496E7465726E616C206661696C PUSH6 0x645245504159 0x5F TIMESTAMP 0x4F MSTORE MSTORE 0x4F JUMPI 0x5F 0x4E GASLIMIT JUMPI 0x5F COINBASE NUMBER NUMBER 0x4F SSTORE 0x4E SLOAD 0x5F TIMESTAMP 0x4F MSTORE MSTORE 0x4F JUMPI 0x5F TIMESTAMP COINBASE 0x4C COINBASE 0x4E NUMBER GASLIMIT 0x5F NUMBER COINBASE 0x4C NUMBER SSTORE 0x4C COINBASE SLOAD 0x49 0x4F 0x4E 0x5F CHAINID COINBASE 0x49 0x4C GASLIMIT DIFFICULTY 0xDD CALLCODE MSTORE 0xAD SHL 0xE2 0xC8 SWAP12 PUSH10 0xC2B068FC378DAA952BA7 CALL PUSH4 0xC4A11628 CREATE2 GAS 0x4D CREATE2 0x23 0xB3 0xEF MSTORE GASLIMIT POP COINBASE MSIZE 0x5F TIMESTAMP 0x4F MSTORE MSTORE 0x4F JUMPI 0x5F 0x4E GASLIMIT JUMPI 0x5F SLOAD 0x4F SLOAD COINBASE 0x4C 0x5F TIMESTAMP COINBASE 0x4C COINBASE 0x4E NUMBER GASLIMIT 0x5F NUMBER COINBASE 0x4C NUMBER SSTORE 0x4C COINBASE SLOAD 0x49 0x4F 0x4E 0x5F CHAINID COINBASE 0x49 0x4C GASLIMIT DIFFICULTY PUSH6 0x786368616E67 PUSH6 0x526174655374 PUSH16 0x7265643A2065786368616E6765526174 PUSH6 0x53746F726564 0x49 PUSH15 0x7465726E616C206661696C65644D49 0x4E SLOAD 0x5F 0x4E GASLIMIT JUMPI 0x5F SLOAD 0x4F SLOAD COINBASE 0x4C 0x5F MSTORE8 SSTORE POP POP 0x4C MSIZE 0x5F NUMBER COINBASE 0x4C NUMBER SSTORE 0x4C COINBASE SLOAD 0x49 0x4F 0x4E 0x5F CHAINID COINBASE 0x49 0x4C GASLIMIT DIFFICULTY SLOAD GASLIMIT PUSH19 0x6332303A3A7377656570546F6B656E3A206361 PUSH15 0x206E6F7420737765657020756E6465 PUSH19 0x6C79696E6720746F6B656E6F6E65206F662072 PUSH6 0x6465656D546F PUSH12 0x656E73496E206F7220726564 PUSH6 0x656D416D6F75 PUSH15 0x74496E206D757374206265207A6572 PUSH16 0x72656475636520726573657276657320 PUSH22 0x6E657870656374656420756E646572666C6F776F6E6C PUSH26 0x207468652061646D696E206D61792063616C6C205F6265636F6D PUSH6 0x496D706C656D PUSH6 0x6E746174696F PUSH15 0xA265627A7A723158204E6A11AB8DFC 0xDC EXP SELFDESTRUCT 0xC1 SWAP4 CHAINID 0xC0 0x1F 0xC8 0xD3 0xA8 PUSH32 0x9D12672100D7D338FD6E8B5720E264736F6C6343000510003200000000000000 "},"methodIdentifiers":{"_acceptAdmin()":"e9c714f2","_addReserves(uint256)":"3e941010","_becomeImplementation(bytes)":"56e67728","_reduceReserves(uint256)":"601a0bf1","_resignImplementation()":"153ab505","_setInterestRateModel(address)":"f2b3abbd","_setPendingAdmin(address)":"b71d1a0c","_setReserveFactor(uint256)":"fca7820b","_setTectonicCore(address)":"b79b3c8a","accrualBlockNumber()":"6c540baf","accrueInterest()":"a6afed95","admin()":"f851a440","allowance(address,address)":"dd62ed3e","approve(address,uint256)":"095ea7b3","balanceOf(address)":"70a08231","balanceOfUnderlying(address)":"3af9e669","borrow(uint256)":"c5ebeaec","borrowBalanceCurrent(address)":"17bfdfbc","borrowBalanceStored(address)":"95dd9193","borrowIndex()":"aa5af0fd","borrowRatePerBlock()":"f8f9da28","decimals()":"313ce567","exchangeRateCurrent()":"bd6d894d","exchangeRateStored()":"182df0f5","getAccountSnapshot(address)":"c37f68e2","getCash()":"3b1d21a2","implementation()":"5c60da1b","initialize(address,address,address,uint256,string,string,uint8)":"1a31d465","initialize(address,address,uint256,string,string,uint8)":"99d8c1b4","interestRateModel()":"f3fdb15a","isTToken()":"a0097b58","liquidateBorrow(address,uint256,address)":"f5e3c462","mint(uint256)":"a0712d68","name()":"06fdde03","pendingAdmin()":"26782247","protocolSeizeShareMantissa()":"6752e702","redeem(uint256)":"db006a75","redeemUnderlying(uint256)":"852a12e3","repayBorrow(uint256)":"0e752702","repayBorrowBehalf(address,uint256)":"2608f818","reserveFactorMantissa()":"173b9904","seize(address,address,uint256)":"b2a02ff1","supplyRatePerBlock()":"ae9d70b0","sweepToken(address)":"1be19560","symbol()":"95d89b41","tectonicCore()":"c16a61ec","totalBorrows()":"47bd3718","totalBorrowsCurrent()":"73acee98","totalReserves()":"8f840ddd","totalSupply()":"18160ddd","transfer(address,uint256)":"a9059cbb","transferFrom(address,address,uint256)":"23b872dd","underlying()":"6f307dc3"}}}}}