{"contracts/tectonic/JumpRateModel.sol":{"JumpRateModel":{"abi":[{"inputs":[{"internalType":"uint256","name":"baseRatePerYear","type":"uint256"},{"internalType":"uint256","name":"multiplierPerYear","type":"uint256"},{"internalType":"uint256","name":"jumpMultiplierPerYear","type":"uint256"},{"internalType":"uint256","name":"kink_","type":"uint256"},{"internalType":"address","name":"owner_","type":"address"}],"payable":false,"stateMutability":"nonpayable","type":"constructor"},{"anonymous":false,"inputs":[{"indexed":false,"internalType":"uint256","name":"baseRatePerBlock","type":"uint256"},{"indexed":false,"internalType":"uint256","name":"multiplierPerBlock","type":"uint256"},{"indexed":false,"internalType":"uint256","name":"jumpMultiplierPerBlock","type":"uint256"},{"indexed":false,"internalType":"uint256","name":"kink","type":"uint256"}],"name":"NewInterestParams","type":"event"},{"constant":true,"inputs":[],"name":"baseRatePerBlock","outputs":[{"internalType":"uint256","name":"","type":"uint256"}],"payable":false,"stateMutability":"view","type":"function"},{"constant":true,"inputs":[],"name":"blocksPerYear","outputs":[{"internalType":"uint256","name":"","type":"uint256"}],"payable":false,"stateMutability":"view","type":"function"},{"constant":true,"inputs":[{"internalType":"uint256","name":"cash","type":"uint256"},{"internalType":"uint256","name":"borrows","type":"uint256"},{"internalType":"uint256","name":"reserves","type":"uint256"}],"name":"getBorrowRate","outputs":[{"internalType":"uint256","name":"","type":"uint256"}],"payable":false,"stateMutability":"view","type":"function"},{"constant":true,"inputs":[{"internalType":"uint256","name":"cash","type":"uint256"},{"internalType":"uint256","name":"borrows","type":"uint256"},{"internalType":"uint256","name":"reserves","type":"uint256"},{"internalType":"uint256","name":"reserveFactorMantissa","type":"uint256"}],"name":"getSupplyRate","outputs":[{"internalType":"uint256","name":"","type":"uint256"}],"payable":false,"stateMutability":"view","type":"function"},{"constant":true,"inputs":[],"name":"isInterestRateModel","outputs":[{"internalType":"bool","name":"","type":"bool"}],"payable":false,"stateMutability":"view","type":"function"},{"constant":true,"inputs":[],"name":"jumpMultiplierPerBlock","outputs":[{"internalType":"uint256","name":"","type":"uint256"}],"payable":false,"stateMutability":"view","type":"function"},{"constant":true,"inputs":[],"name":"kink","outputs":[{"internalType":"uint256","name":"","type":"uint256"}],"payable":false,"stateMutability":"view","type":"function"},{"constant":true,"inputs":[],"name":"multiplierPerBlock","outputs":[{"internalType":"uint256","name":"","type":"uint256"}],"payable":false,"stateMutability":"view","type":"function"},{"constant":true,"inputs":[],"name":"owner","outputs":[{"internalType":"address","name":"","type":"address"}],"payable":false,"stateMutability":"view","type":"function"},{"constant":false,"inputs":[{"internalType":"uint256","name":"baseRatePerYear","type":"uint256"},{"internalType":"uint256","name":"multiplierPerYear","type":"uint256"},{"internalType":"uint256","name":"jumpMultiplierPerYear","type":"uint256"},{"internalType":"uint256","name":"kink_","type":"uint256"}],"name":"updateJumpRateModel","outputs":[],"payable":false,"stateMutability":"nonpayable","type":"function"},{"constant":true,"inputs":[{"internalType":"uint256","name":"cash","type":"uint256"},{"internalType":"uint256","name":"borrows","type":"uint256"},{"internalType":"uint256","name":"reserves","type":"uint256"}],"name":"utilizationRate","outputs":[{"internalType":"uint256","name":"","type":"uint256"}],"payable":false,"stateMutability":"pure","type":"function"}],"evm":{"bytecode":{"linkReferences":{},"object":"608060405234801561001057600080fd5b50604051610a5d380380610a5d833981810160405260a081101561003357600080fd5b508051602082015160408301516060840151608090940151600080546001600160a01b0319166001600160a01b0383161790559293919290919061007985858585610083565b5050505050610316565b61009984622014806001600160e01b0361017016565b6002556100f86100ba84670de0b6b3a76400006001600160e01b036101b016565b6100ea6100d362201480856001600160e01b036101b016565b670de0b6b3a76400006001600160e01b0361017016565b6001600160e01b0361017016565b60015561011182622014806001600160e01b0361017016565b60038190556004829055600254600154604080519283526020830191909152818101929092526060810183905290517f6960ab234c7ef4b0c9197100f5393cfcde7c453ac910a27bd2000aa1dd4c068d9181900360800190a150505050565b60006101a983836040518060400160405280600e81526020016d646976696465206279207a65726f60901b8152506101f860201b60201c565b9392505050565b60006101a983836040518060400160405280601781526020017f6d756c7469706c69636174696f6e206f766572666c6f7700000000000000000081525061029760201b60201c565b600081836102845760405162461bcd60e51b81526004018080602001828103825283818151815260200191508051906020019080838360005b83811015610249578181015183820152602001610231565b50505050905090810190601f1680156102765780820380516001836020036101000a031916815260200191505b509250505060405180910390fd5b5082848161028e57fe5b04949350505050565b60008315806102a4575082155b156102b1575060006101a9565b838302838582816102be57fe5b0414839061030d5760405162461bcd60e51b8152602060048201818152835160248401528351909283926044909101919085019080838360008315610249578181015183820152602001610231565b50949350505050565b610738806103256000396000f3fe608060405234801561001057600080fd5b50600436106100a95760003560e01c80638da5cb5b116100715780638da5cb5b14610167578063a385fb961461018b578063b816881614610193578063b9f9850a146101c2578063f14039de146101ca578063fd2da339146101d2576100a9565b806315f24053146100ae5780632037f3e7146100e95780632191f92a1461011a5780636e71e2d8146101365780638726bb891461015f575b600080fd5b6100d7600480360360608110156100c457600080fd5b50803590602081013590604001356101da565b60408051918252519081900360200190f35b610118600480360360808110156100ff57600080fd5b50803590602081013590604081013590606001356101f1565b005b61012261024c565b604080519115158252519081900360200190f35b6100d76004803603606081101561014c57600080fd5b5080359060208101359060400135610251565b6100d761027c565b61016f610282565b604080516001600160a01b039092168252519081900360200190f35b6100d7610291565b6100d7600480360360808110156101a957600080fd5b5080359060208101359060408101359060600135610298565b6100d76102ec565b6100d76102f2565b6100d76102f8565b60006101e78484846102fe565b90505b9392505050565b6000546001600160a01b0316331461023a5760405162461bcd60e51b81526004018080602001828103825260258152602001806106df6025913960400191505060405180910390fd5b6102468484848461037a565b50505050565b600181565b600082610260575060006101ea565b6101e78361027786610272878761042c565b610466565b61049c565b60015481565b6000546001600160a01b031681565b6220148081565b6000806102ad670de0b6b3a76400008461042c565b905060006102bc8787876102fe565b905060006102ca82846104cf565b90506102e06102da898989610251565b826104cf565b98975050505050505050565b60035481565b60025481565b60045481565b60008061030c858585610251565b905060045481116103365761032e610326826001546104cf565b600254610466565b9150506101ea565b60006103496103266004546001546104cf565b905060006103598360045461042c565b905061037061036a826003546104cf565b83610466565b93505050506101ea565b610387846220148061049c565b6002556103bd61039f84670de0b6b3a76400006104cf565b6102776103af62201480856104cf565b670de0b6b3a764000061049c565b6001556103cd826220148061049c565b60038190556004829055600254600154604080519283526020830191909152818101929092526060810183905290517f6960ab234c7ef4b0c9197100f5393cfcde7c453ac910a27bd2000aa1dd4c068d9181900360800190a150505050565b60006101ea8383604051806040016040528060158152602001747375627472616374696f6e20756e646572666c6f7760581b815250610511565b60006101ea8383604051806040016040528060118152602001706164646974696f6e206f766572666c6f7760781b8152506105a8565b60006101ea83836040518060400160405280600e81526020016d646976696465206279207a65726f60901b815250610606565b60006101ea83836040518060400160405280601781526020017f6d756c7469706c69636174696f6e206f766572666c6f77000000000000000000815250610668565b600081848411156105a05760405162461bcd60e51b81526004018080602001828103825283818151815260200191508051906020019080838360005b8381101561056557818101518382015260200161054d565b50505050905090810190601f1680156105925780820380516001836020036101000a031916815260200191505b509250505060405180910390fd5b505050900390565b600083830182858210156105fd5760405162461bcd60e51b815260206004820181815283516024840152835190928392604490910191908501908083836000831561056557818101518382015260200161054d565b50949350505050565b600081836106555760405162461bcd60e51b815260206004820181815283516024840152835190928392604490910191908501908083836000831561056557818101518382015260200161054d565b5082848161065f57fe5b04949350505050565b6000831580610675575082155b15610682575060006101ea565b8383028385828161068f57fe5b041483906105fd5760405162461bcd60e51b815260206004820181815283516024840152835190928392604490910191908501908083836000831561056557818101518382015260200161054d56fe6f6e6c7920746865206f776e6572206d61792063616c6c20746869732066756e6374696f6ea265627a7a723158202852d6234213e1b955a559cf01dd7746706d7ea0cd5725cad69e188c4e6715da64736f6c63430005100032","opcodes":"PUSH1 0x80 PUSH1 0x40 MSTORE CALLVALUE DUP1 ISZERO PUSH2 0x10 JUMPI PUSH1 0x0 DUP1 REVERT JUMPDEST POP PUSH1 0x40 MLOAD PUSH2 0xA5D CODESIZE SUB DUP1 PUSH2 0xA5D DUP4 CODECOPY DUP2 DUP2 ADD PUSH1 0x40 MSTORE PUSH1 0xA0 DUP2 LT ISZERO PUSH2 0x33 JUMPI PUSH1 0x0 DUP1 REVERT JUMPDEST POP DUP1 MLOAD PUSH1 0x20 DUP3 ADD MLOAD PUSH1 0x40 DUP4 ADD MLOAD PUSH1 0x60 DUP5 ADD MLOAD PUSH1 0x80 SWAP1 SWAP5 ADD MLOAD PUSH1 0x0 DUP1 SLOAD PUSH1 0x1 PUSH1 0x1 PUSH1 0xA0 SHL SUB NOT AND PUSH1 0x1 PUSH1 0x1 PUSH1 0xA0 SHL SUB DUP4 AND OR SWAP1 SSTORE SWAP3 SWAP4 SWAP2 SWAP3 SWAP1 SWAP2 SWAP1 PUSH2 0x79 DUP6 DUP6 DUP6 DUP6 PUSH2 0x83 JUMP JUMPDEST POP POP POP POP POP PUSH2 0x316 JUMP JUMPDEST PUSH2 0x99 DUP5 PUSH3 0x201480 PUSH1 0x1 PUSH1 0x1 PUSH1 0xE0 SHL SUB PUSH2 0x170 AND JUMP JUMPDEST PUSH1 0x2 SSTORE PUSH2 0xF8 PUSH2 0xBA DUP5 PUSH8 0xDE0B6B3A7640000 PUSH1 0x1 PUSH1 0x1 PUSH1 0xE0 SHL SUB PUSH2 0x1B0 AND JUMP JUMPDEST PUSH2 0xEA PUSH2 0xD3 PUSH3 0x201480 DUP6 PUSH1 0x1 PUSH1 0x1 PUSH1 0xE0 SHL SUB PUSH2 0x1B0 AND JUMP JUMPDEST PUSH8 0xDE0B6B3A7640000 PUSH1 0x1 PUSH1 0x1 PUSH1 0xE0 SHL SUB PUSH2 0x170 AND JUMP JUMPDEST PUSH1 0x1 PUSH1 0x1 PUSH1 0xE0 SHL SUB PUSH2 0x170 AND JUMP JUMPDEST PUSH1 0x1 SSTORE PUSH2 0x111 DUP3 PUSH3 0x201480 PUSH1 0x1 PUSH1 0x1 PUSH1 0xE0 SHL SUB PUSH2 0x170 AND JUMP JUMPDEST PUSH1 0x3 DUP2 SWAP1 SSTORE PUSH1 0x4 DUP3 SWAP1 SSTORE PUSH1 0x2 SLOAD PUSH1 0x1 SLOAD PUSH1 0x40 DUP1 MLOAD SWAP3 DUP4 MSTORE PUSH1 0x20 DUP4 ADD SWAP2 SWAP1 SWAP2 MSTORE DUP2 DUP2 ADD SWAP3 SWAP1 SWAP3 MSTORE PUSH1 0x60 DUP2 ADD DUP4 SWAP1 MSTORE SWAP1 MLOAD PUSH32 0x6960AB234C7EF4B0C9197100F5393CFCDE7C453AC910A27BD2000AA1DD4C068D SWAP2 DUP2 SWAP1 SUB PUSH1 0x80 ADD SWAP1 LOG1 POP POP POP POP JUMP JUMPDEST PUSH1 0x0 PUSH2 0x1A9 DUP4 DUP4 PUSH1 0x40 MLOAD DUP1 PUSH1 0x40 ADD PUSH1 0x40 MSTORE DUP1 PUSH1 0xE DUP2 MSTORE PUSH1 0x20 ADD PUSH14 0x646976696465206279207A65726F PUSH1 0x90 SHL DUP2 MSTORE POP PUSH2 0x1F8 PUSH1 0x20 SHL PUSH1 0x20 SHR JUMP JUMPDEST SWAP4 SWAP3 POP POP POP JUMP JUMPDEST PUSH1 0x0 PUSH2 0x1A9 DUP4 DUP4 PUSH1 0x40 MLOAD DUP1 PUSH1 0x40 ADD PUSH1 0x40 MSTORE DUP1 PUSH1 0x17 DUP2 MSTORE PUSH1 0x20 ADD PUSH32 0x6D756C7469706C69636174696F6E206F766572666C6F77000000000000000000 DUP2 MSTORE POP PUSH2 0x297 PUSH1 0x20 SHL PUSH1 0x20 SHR JUMP JUMPDEST PUSH1 0x0 DUP2 DUP4 PUSH2 0x284 JUMPI PUSH1 0x40 MLOAD PUSH3 0x461BCD PUSH1 0xE5 SHL DUP2 MSTORE PUSH1 0x4 ADD DUP1 DUP1 PUSH1 0x20 ADD DUP3 DUP2 SUB DUP3 MSTORE DUP4 DUP2 DUP2 MLOAD DUP2 MSTORE PUSH1 0x20 ADD SWAP2 POP DUP1 MLOAD SWAP1 PUSH1 0x20 ADD SWAP1 DUP1 DUP4 DUP4 PUSH1 0x0 JUMPDEST DUP4 DUP2 LT ISZERO PUSH2 0x249 JUMPI DUP2 DUP2 ADD MLOAD DUP4 DUP3 ADD MSTORE PUSH1 0x20 ADD PUSH2 0x231 JUMP JUMPDEST POP POP POP POP SWAP1 POP SWAP1 DUP2 ADD SWAP1 PUSH1 0x1F AND DUP1 ISZERO PUSH2 0x276 JUMPI DUP1 DUP3 SUB DUP1 MLOAD PUSH1 0x1 DUP4 PUSH1 0x20 SUB PUSH2 0x100 EXP SUB NOT AND DUP2 MSTORE PUSH1 0x20 ADD SWAP2 POP JUMPDEST POP SWAP3 POP POP POP PUSH1 0x40 MLOAD DUP1 SWAP2 SUB SWAP1 REVERT JUMPDEST POP DUP3 DUP5 DUP2 PUSH2 0x28E JUMPI INVALID JUMPDEST DIV SWAP5 SWAP4 POP POP POP POP JUMP JUMPDEST PUSH1 0x0 DUP4 ISZERO DUP1 PUSH2 0x2A4 JUMPI POP DUP3 ISZERO JUMPDEST ISZERO PUSH2 0x2B1 JUMPI POP PUSH1 0x0 PUSH2 0x1A9 JUMP JUMPDEST DUP4 DUP4 MUL DUP4 DUP6 DUP3 DUP2 PUSH2 0x2BE JUMPI INVALID JUMPDEST DIV EQ DUP4 SWAP1 PUSH2 0x30D JUMPI PUSH1 0x40 MLOAD PUSH3 0x461BCD PUSH1 0xE5 SHL DUP2 MSTORE PUSH1 0x20 PUSH1 0x4 DUP3 ADD DUP2 DUP2 MSTORE DUP4 MLOAD PUSH1 0x24 DUP5 ADD MSTORE DUP4 MLOAD SWAP1 SWAP3 DUP4 SWAP3 PUSH1 0x44 SWAP1 SWAP2 ADD SWAP2 SWAP1 DUP6 ADD SWAP1 DUP1 DUP4 DUP4 PUSH1 0x0 DUP4 ISZERO PUSH2 0x249 JUMPI DUP2 DUP2 ADD MLOAD DUP4 DUP3 ADD MSTORE PUSH1 0x20 ADD PUSH2 0x231 JUMP JUMPDEST POP SWAP5 SWAP4 POP POP POP POP JUMP JUMPDEST PUSH2 0x738 DUP1 PUSH2 0x325 PUSH1 0x0 CODECOPY PUSH1 0x0 RETURN INVALID PUSH1 0x80 PUSH1 0x40 MSTORE CALLVALUE DUP1 ISZERO PUSH2 0x10 JUMPI PUSH1 0x0 DUP1 REVERT JUMPDEST POP PUSH1 0x4 CALLDATASIZE LT PUSH2 0xA9 JUMPI PUSH1 0x0 CALLDATALOAD PUSH1 0xE0 SHR DUP1 PUSH4 0x8DA5CB5B GT PUSH2 0x71 JUMPI DUP1 PUSH4 0x8DA5CB5B EQ PUSH2 0x167 JUMPI DUP1 PUSH4 0xA385FB96 EQ PUSH2 0x18B JUMPI DUP1 PUSH4 0xB8168816 EQ PUSH2 0x193 JUMPI DUP1 PUSH4 0xB9F9850A EQ PUSH2 0x1C2 JUMPI DUP1 PUSH4 0xF14039DE EQ PUSH2 0x1CA JUMPI DUP1 PUSH4 0xFD2DA339 EQ PUSH2 0x1D2 JUMPI PUSH2 0xA9 JUMP JUMPDEST DUP1 PUSH4 0x15F24053 EQ PUSH2 0xAE JUMPI DUP1 PUSH4 0x2037F3E7 EQ PUSH2 0xE9 JUMPI DUP1 PUSH4 0x2191F92A EQ PUSH2 0x11A JUMPI DUP1 PUSH4 0x6E71E2D8 EQ PUSH2 0x136 JUMPI DUP1 PUSH4 0x8726BB89 EQ PUSH2 0x15F JUMPI JUMPDEST PUSH1 0x0 DUP1 REVERT JUMPDEST PUSH2 0xD7 PUSH1 0x4 DUP1 CALLDATASIZE SUB PUSH1 0x60 DUP2 LT ISZERO PUSH2 0xC4 JUMPI PUSH1 0x0 DUP1 REVERT JUMPDEST POP DUP1 CALLDATALOAD SWAP1 PUSH1 0x20 DUP2 ADD CALLDATALOAD SWAP1 PUSH1 0x40 ADD CALLDATALOAD PUSH2 0x1DA JUMP JUMPDEST PUSH1 0x40 DUP1 MLOAD SWAP2 DUP3 MSTORE MLOAD SWAP1 DUP2 SWAP1 SUB PUSH1 0x20 ADD SWAP1 RETURN JUMPDEST PUSH2 0x118 PUSH1 0x4 DUP1 CALLDATASIZE SUB PUSH1 0x80 DUP2 LT ISZERO PUSH2 0xFF JUMPI PUSH1 0x0 DUP1 REVERT JUMPDEST POP DUP1 CALLDATALOAD SWAP1 PUSH1 0x20 DUP2 ADD CALLDATALOAD SWAP1 PUSH1 0x40 DUP2 ADD CALLDATALOAD SWAP1 PUSH1 0x60 ADD CALLDATALOAD PUSH2 0x1F1 JUMP JUMPDEST STOP JUMPDEST PUSH2 0x122 PUSH2 0x24C JUMP JUMPDEST PUSH1 0x40 DUP1 MLOAD SWAP2 ISZERO ISZERO DUP3 MSTORE MLOAD SWAP1 DUP2 SWAP1 SUB PUSH1 0x20 ADD SWAP1 RETURN JUMPDEST PUSH2 0xD7 PUSH1 0x4 DUP1 CALLDATASIZE SUB PUSH1 0x60 DUP2 LT ISZERO PUSH2 0x14C JUMPI PUSH1 0x0 DUP1 REVERT JUMPDEST POP DUP1 CALLDATALOAD SWAP1 PUSH1 0x20 DUP2 ADD CALLDATALOAD SWAP1 PUSH1 0x40 ADD CALLDATALOAD PUSH2 0x251 JUMP JUMPDEST PUSH2 0xD7 PUSH2 0x27C JUMP JUMPDEST PUSH2 0x16F PUSH2 0x282 JUMP JUMPDEST PUSH1 0x40 DUP1 MLOAD PUSH1 0x1 PUSH1 0x1 PUSH1 0xA0 SHL SUB SWAP1 SWAP3 AND DUP3 MSTORE MLOAD SWAP1 DUP2 SWAP1 SUB PUSH1 0x20 ADD SWAP1 RETURN JUMPDEST PUSH2 0xD7 PUSH2 0x291 JUMP JUMPDEST PUSH2 0xD7 PUSH1 0x4 DUP1 CALLDATASIZE SUB PUSH1 0x80 DUP2 LT ISZERO PUSH2 0x1A9 JUMPI PUSH1 0x0 DUP1 REVERT JUMPDEST POP DUP1 CALLDATALOAD SWAP1 PUSH1 0x20 DUP2 ADD CALLDATALOAD SWAP1 PUSH1 0x40 DUP2 ADD CALLDATALOAD SWAP1 PUSH1 0x60 ADD CALLDATALOAD PUSH2 0x298 JUMP JUMPDEST PUSH2 0xD7 PUSH2 0x2EC JUMP JUMPDEST PUSH2 0xD7 PUSH2 0x2F2 JUMP JUMPDEST PUSH2 0xD7 PUSH2 0x2F8 JUMP JUMPDEST PUSH1 0x0 PUSH2 0x1E7 DUP5 DUP5 DUP5 PUSH2 0x2FE JUMP JUMPDEST SWAP1 POP JUMPDEST SWAP4 SWAP3 POP POP POP JUMP JUMPDEST PUSH1 0x0 SLOAD PUSH1 0x1 PUSH1 0x1 PUSH1 0xA0 SHL SUB AND CALLER EQ PUSH2 0x23A JUMPI PUSH1 0x40 MLOAD PUSH3 0x461BCD PUSH1 0xE5 SHL DUP2 MSTORE PUSH1 0x4 ADD DUP1 DUP1 PUSH1 0x20 ADD DUP3 DUP2 SUB DUP3 MSTORE PUSH1 0x25 DUP2 MSTORE PUSH1 0x20 ADD DUP1 PUSH2 0x6DF PUSH1 0x25 SWAP2 CODECOPY PUSH1 0x40 ADD SWAP2 POP POP PUSH1 0x40 MLOAD DUP1 SWAP2 SUB SWAP1 REVERT JUMPDEST PUSH2 0x246 DUP5 DUP5 DUP5 DUP5 PUSH2 0x37A JUMP JUMPDEST POP POP POP POP JUMP JUMPDEST PUSH1 0x1 DUP2 JUMP JUMPDEST PUSH1 0x0 DUP3 PUSH2 0x260 JUMPI POP PUSH1 0x0 PUSH2 0x1EA JUMP JUMPDEST PUSH2 0x1E7 DUP4 PUSH2 0x277 DUP7 PUSH2 0x272 DUP8 DUP8 PUSH2 0x42C JUMP JUMPDEST PUSH2 0x466 JUMP JUMPDEST PUSH2 0x49C JUMP JUMPDEST PUSH1 0x1 SLOAD DUP2 JUMP JUMPDEST PUSH1 0x0 SLOAD PUSH1 0x1 PUSH1 0x1 PUSH1 0xA0 SHL SUB AND DUP2 JUMP JUMPDEST PUSH3 0x201480 DUP2 JUMP JUMPDEST PUSH1 0x0 DUP1 PUSH2 0x2AD PUSH8 0xDE0B6B3A7640000 DUP5 PUSH2 0x42C JUMP JUMPDEST SWAP1 POP PUSH1 0x0 PUSH2 0x2BC DUP8 DUP8 DUP8 PUSH2 0x2FE JUMP JUMPDEST SWAP1 POP PUSH1 0x0 PUSH2 0x2CA DUP3 DUP5 PUSH2 0x4CF JUMP JUMPDEST SWAP1 POP PUSH2 0x2E0 PUSH2 0x2DA DUP10 DUP10 DUP10 PUSH2 0x251 JUMP JUMPDEST DUP3 PUSH2 0x4CF JUMP JUMPDEST SWAP9 SWAP8 POP POP POP POP POP POP POP POP JUMP JUMPDEST PUSH1 0x3 SLOAD DUP2 JUMP JUMPDEST PUSH1 0x2 SLOAD DUP2 JUMP JUMPDEST PUSH1 0x4 SLOAD DUP2 JUMP JUMPDEST PUSH1 0x0 DUP1 PUSH2 0x30C DUP6 DUP6 DUP6 PUSH2 0x251 JUMP JUMPDEST SWAP1 POP PUSH1 0x4 SLOAD DUP2 GT PUSH2 0x336 JUMPI PUSH2 0x32E PUSH2 0x326 DUP3 PUSH1 0x1 SLOAD PUSH2 0x4CF JUMP JUMPDEST PUSH1 0x2 SLOAD PUSH2 0x466 JUMP JUMPDEST SWAP2 POP POP PUSH2 0x1EA JUMP JUMPDEST PUSH1 0x0 PUSH2 0x349 PUSH2 0x326 PUSH1 0x4 SLOAD PUSH1 0x1 SLOAD PUSH2 0x4CF JUMP JUMPDEST SWAP1 POP PUSH1 0x0 PUSH2 0x359 DUP4 PUSH1 0x4 SLOAD PUSH2 0x42C JUMP JUMPDEST SWAP1 POP PUSH2 0x370 PUSH2 0x36A DUP3 PUSH1 0x3 SLOAD PUSH2 0x4CF JUMP JUMPDEST DUP4 PUSH2 0x466 JUMP JUMPDEST SWAP4 POP POP POP POP PUSH2 0x1EA JUMP JUMPDEST PUSH2 0x387 DUP5 PUSH3 0x201480 PUSH2 0x49C JUMP JUMPDEST PUSH1 0x2 SSTORE PUSH2 0x3BD PUSH2 0x39F DUP5 PUSH8 0xDE0B6B3A7640000 PUSH2 0x4CF JUMP JUMPDEST PUSH2 0x277 PUSH2 0x3AF PUSH3 0x201480 DUP6 PUSH2 0x4CF JUMP JUMPDEST PUSH8 0xDE0B6B3A7640000 PUSH2 0x49C JUMP JUMPDEST PUSH1 0x1 SSTORE PUSH2 0x3CD DUP3 PUSH3 0x201480 PUSH2 0x49C JUMP JUMPDEST PUSH1 0x3 DUP2 SWAP1 SSTORE PUSH1 0x4 DUP3 SWAP1 SSTORE PUSH1 0x2 SLOAD PUSH1 0x1 SLOAD PUSH1 0x40 DUP1 MLOAD SWAP3 DUP4 MSTORE PUSH1 0x20 DUP4 ADD SWAP2 SWAP1 SWAP2 MSTORE DUP2 DUP2 ADD SWAP3 SWAP1 SWAP3 MSTORE PUSH1 0x60 DUP2 ADD DUP4 SWAP1 MSTORE SWAP1 MLOAD PUSH32 0x6960AB234C7EF4B0C9197100F5393CFCDE7C453AC910A27BD2000AA1DD4C068D SWAP2 DUP2 SWAP1 SUB PUSH1 0x80 ADD SWAP1 LOG1 POP POP POP POP JUMP JUMPDEST PUSH1 0x0 PUSH2 0x1EA DUP4 DUP4 PUSH1 0x40 MLOAD DUP1 PUSH1 0x40 ADD PUSH1 0x40 MSTORE DUP1 PUSH1 0x15 DUP2 MSTORE PUSH1 0x20 ADD PUSH21 0x7375627472616374696F6E20756E646572666C6F77 PUSH1 0x58 SHL DUP2 MSTORE POP PUSH2 0x511 JUMP JUMPDEST PUSH1 0x0 PUSH2 0x1EA DUP4 DUP4 PUSH1 0x40 MLOAD DUP1 PUSH1 0x40 ADD PUSH1 0x40 MSTORE DUP1 PUSH1 0x11 DUP2 MSTORE PUSH1 0x20 ADD PUSH17 0x6164646974696F6E206F766572666C6F77 PUSH1 0x78 SHL DUP2 MSTORE POP PUSH2 0x5A8 JUMP JUMPDEST PUSH1 0x0 PUSH2 0x1EA DUP4 DUP4 PUSH1 0x40 MLOAD DUP1 PUSH1 0x40 ADD PUSH1 0x40 MSTORE DUP1 PUSH1 0xE DUP2 MSTORE PUSH1 0x20 ADD PUSH14 0x646976696465206279207A65726F PUSH1 0x90 SHL DUP2 MSTORE POP PUSH2 0x606 JUMP JUMPDEST PUSH1 0x0 PUSH2 0x1EA DUP4 DUP4 PUSH1 0x40 MLOAD DUP1 PUSH1 0x40 ADD PUSH1 0x40 MSTORE DUP1 PUSH1 0x17 DUP2 MSTORE PUSH1 0x20 ADD PUSH32 0x6D756C7469706C69636174696F6E206F766572666C6F77000000000000000000 DUP2 MSTORE POP PUSH2 0x668 JUMP JUMPDEST PUSH1 0x0 DUP2 DUP5 DUP5 GT ISZERO PUSH2 0x5A0 JUMPI PUSH1 0x40 MLOAD PUSH3 0x461BCD PUSH1 0xE5 SHL DUP2 MSTORE PUSH1 0x4 ADD DUP1 DUP1 PUSH1 0x20 ADD DUP3 DUP2 SUB DUP3 MSTORE DUP4 DUP2 DUP2 MLOAD DUP2 MSTORE PUSH1 0x20 ADD SWAP2 POP DUP1 MLOAD SWAP1 PUSH1 0x20 ADD SWAP1 DUP1 DUP4 DUP4 PUSH1 0x0 JUMPDEST DUP4 DUP2 LT ISZERO PUSH2 0x565 JUMPI DUP2 DUP2 ADD MLOAD DUP4 DUP3 ADD MSTORE PUSH1 0x20 ADD PUSH2 0x54D JUMP JUMPDEST POP POP POP POP SWAP1 POP SWAP1 DUP2 ADD SWAP1 PUSH1 0x1F AND DUP1 ISZERO PUSH2 0x592 JUMPI DUP1 DUP3 SUB DUP1 MLOAD PUSH1 0x1 DUP4 PUSH1 0x20 SUB PUSH2 0x100 EXP SUB NOT AND DUP2 MSTORE PUSH1 0x20 ADD SWAP2 POP JUMPDEST POP SWAP3 POP POP POP PUSH1 0x40 MLOAD DUP1 SWAP2 SUB SWAP1 REVERT JUMPDEST POP POP POP SWAP1 SUB SWAP1 JUMP JUMPDEST PUSH1 0x0 DUP4 DUP4 ADD DUP3 DUP6 DUP3 LT ISZERO PUSH2 0x5FD JUMPI PUSH1 0x40 MLOAD PUSH3 0x461BCD PUSH1 0xE5 SHL DUP2 MSTORE PUSH1 0x20 PUSH1 0x4 DUP3 ADD DUP2 DUP2 MSTORE DUP4 MLOAD PUSH1 0x24 DUP5 ADD MSTORE DUP4 MLOAD SWAP1 SWAP3 DUP4 SWAP3 PUSH1 0x44 SWAP1 SWAP2 ADD SWAP2 SWAP1 DUP6 ADD SWAP1 DUP1 DUP4 DUP4 PUSH1 0x0 DUP4 ISZERO PUSH2 0x565 JUMPI DUP2 DUP2 ADD MLOAD DUP4 DUP3 ADD MSTORE PUSH1 0x20 ADD PUSH2 0x54D JUMP JUMPDEST POP SWAP5 SWAP4 POP POP POP POP JUMP JUMPDEST PUSH1 0x0 DUP2 DUP4 PUSH2 0x655 JUMPI PUSH1 0x40 MLOAD PUSH3 0x461BCD PUSH1 0xE5 SHL DUP2 MSTORE PUSH1 0x20 PUSH1 0x4 DUP3 ADD DUP2 DUP2 MSTORE DUP4 MLOAD PUSH1 0x24 DUP5 ADD MSTORE DUP4 MLOAD SWAP1 SWAP3 DUP4 SWAP3 PUSH1 0x44 SWAP1 SWAP2 ADD SWAP2 SWAP1 DUP6 ADD SWAP1 DUP1 DUP4 DUP4 PUSH1 0x0 DUP4 ISZERO PUSH2 0x565 JUMPI DUP2 DUP2 ADD MLOAD DUP4 DUP3 ADD MSTORE PUSH1 0x20 ADD PUSH2 0x54D JUMP JUMPDEST POP DUP3 DUP5 DUP2 PUSH2 0x65F JUMPI INVALID JUMPDEST DIV SWAP5 SWAP4 POP POP POP POP JUMP JUMPDEST PUSH1 0x0 DUP4 ISZERO DUP1 PUSH2 0x675 JUMPI POP DUP3 ISZERO JUMPDEST ISZERO PUSH2 0x682 JUMPI POP PUSH1 0x0 PUSH2 0x1EA JUMP JUMPDEST DUP4 DUP4 MUL DUP4 DUP6 DUP3 DUP2 PUSH2 0x68F JUMPI INVALID JUMPDEST DIV EQ DUP4 SWAP1 PUSH2 0x5FD JUMPI PUSH1 0x40 MLOAD PUSH3 0x461BCD PUSH1 0xE5 SHL DUP2 MSTORE PUSH1 0x20 PUSH1 0x4 DUP3 ADD DUP2 DUP2 MSTORE DUP4 MLOAD PUSH1 0x24 DUP5 ADD MSTORE DUP4 MLOAD SWAP1 SWAP3 DUP4 SWAP3 PUSH1 0x44 SWAP1 SWAP2 ADD SWAP2 SWAP1 DUP6 ADD SWAP1 DUP1 DUP4 DUP4 PUSH1 0x0 DUP4 ISZERO PUSH2 0x565 JUMPI DUP2 DUP2 ADD MLOAD DUP4 DUP3 ADD MSTORE PUSH1 0x20 ADD PUSH2 0x54D JUMP INVALID PUSH16 0x6E6C7920746865206F776E6572206D61 PUSH26 0x2063616C6C20746869732066756E6374696F6EA265627A7A7231 PC KECCAK256 0x28 MSTORE 0xD6 0x23 TIMESTAMP SGT 0xE1 0xB9 SSTORE 0xA5 MSIZE 0xCF ADD 0xDD PUSH24 0x46706D7EA0CD5725CAD69E188C4E6715DA64736F6C634300 SDIV LT STOP ORIGIN "},"methodIdentifiers":{"baseRatePerBlock()":"f14039de","blocksPerYear()":"a385fb96","getBorrowRate(uint256,uint256,uint256)":"15f24053","getSupplyRate(uint256,uint256,uint256,uint256)":"b8168816","isInterestRateModel()":"2191f92a","jumpMultiplierPerBlock()":"b9f9850a","kink()":"fd2da339","multiplierPerBlock()":"8726bb89","owner()":"8da5cb5b","updateJumpRateModel(uint256,uint256,uint256,uint256)":"2037f3e7","utilizationRate(uint256,uint256,uint256)":"6e71e2d8"}}}}}