{"contracts/tectonic/TectonicCoreStorage.sol":{"TectonicSocketAdminStorage":{"abi":[{"constant":true,"inputs":[],"name":"admin","outputs":[{"internalType":"address","name":"","type":"address"}],"payable":false,"stateMutability":"view","type":"function"},{"constant":true,"inputs":[],"name":"pendingAdmin","outputs":[{"internalType":"address","name":"","type":"address"}],"payable":false,"stateMutability":"view","type":"function"},{"constant":true,"inputs":[],"name":"pendingTectonicCoreImplementation","outputs":[{"internalType":"address","name":"","type":"address"}],"payable":false,"stateMutability":"view","type":"function"},{"constant":true,"inputs":[],"name":"tectonicCoreImplementation","outputs":[{"internalType":"address","name":"","type":"address"}],"payable":false,"stateMutability":"view","type":"function"}],"evm":{"bytecode":{"linkReferences":{},"object":"608060405234801561001057600080fd5b5060f08061001f6000396000f3fe6080604052348015600f57600080fd5b506004361060465760003560e01c80630b2efed614604b5780632678224714606d5780637404e92c146073578063f851a440146079575b600080fd5b6051607f565b604080516001600160a01b039092168252519081900360200190f35b6051608e565b6051609d565b605160ac565b6003546001600160a01b031681565b6001546001600160a01b031681565b6002546001600160a01b031681565b6000546001600160a01b03168156fea265627a7a72315820f57748e09aa9f4a37fb4a504f0bbfe5c4112ac7bd27719f072e6974b310c746e64736f6c63430005100032","opcodes":"PUSH1 0x80 PUSH1 0x40 MSTORE CALLVALUE DUP1 ISZERO PUSH2 0x10 JUMPI PUSH1 0x0 DUP1 REVERT JUMPDEST POP PUSH1 0xF0 DUP1 PUSH2 0x1F PUSH1 0x0 CODECOPY PUSH1 0x0 RETURN INVALID PUSH1 0x80 PUSH1 0x40 MSTORE CALLVALUE DUP1 ISZERO PUSH1 0xF JUMPI PUSH1 0x0 DUP1 REVERT JUMPDEST POP PUSH1 0x4 CALLDATASIZE LT PUSH1 0x46 JUMPI PUSH1 0x0 CALLDATALOAD PUSH1 0xE0 SHR DUP1 PUSH4 0xB2EFED6 EQ PUSH1 0x4B JUMPI DUP1 PUSH4 0x26782247 EQ PUSH1 0x6D JUMPI DUP1 PUSH4 0x7404E92C EQ PUSH1 0x73 JUMPI DUP1 PUSH4 0xF851A440 EQ PUSH1 0x79 JUMPI JUMPDEST PUSH1 0x0 DUP1 REVERT JUMPDEST PUSH1 0x51 PUSH1 0x7F JUMP JUMPDEST PUSH1 0x40 DUP1 MLOAD PUSH1 0x1 PUSH1 0x1 PUSH1 0xA0 SHL SUB SWAP1 SWAP3 AND DUP3 MSTORE MLOAD SWAP1 DUP2 SWAP1 SUB PUSH1 0x20 ADD SWAP1 RETURN JUMPDEST PUSH1 0x51 PUSH1 0x8E JUMP JUMPDEST PUSH1 0x51 PUSH1 0x9D JUMP JUMPDEST PUSH1 0x51 PUSH1 0xAC JUMP JUMPDEST PUSH1 0x3 SLOAD PUSH1 0x1 PUSH1 0x1 PUSH1 0xA0 SHL SUB AND DUP2 JUMP JUMPDEST PUSH1 0x1 SLOAD PUSH1 0x1 PUSH1 0x1 PUSH1 0xA0 SHL SUB AND DUP2 JUMP JUMPDEST PUSH1 0x2 SLOAD PUSH1 0x1 PUSH1 0x1 PUSH1 0xA0 SHL SUB AND DUP2 JUMP JUMPDEST PUSH1 0x0 SLOAD PUSH1 0x1 PUSH1 0x1 PUSH1 0xA0 SHL SUB AND DUP2 JUMP INVALID LOG2 PUSH6 0x627A7A723158 KECCAK256 CREATE2 PUSH24 0x48E09AA9F4A37FB4A504F0BBFE5C4112AC7BD27719F072E6 SWAP8 0x4B BALANCE 0xC PUSH21 0x6E64736F6C63430005100032000000000000000000 "},"methodIdentifiers":{"admin()":"f851a440","pendingAdmin()":"26782247","pendingTectonicCoreImplementation()":"0b2efed6","tectonicCoreImplementation()":"7404e92c"}}}}}