{"contracts/tectonic/TectonicCore.sol":{"TectonicCoreImpl":{"abi":[{"anonymous":false,"inputs":[{"indexed":false,"internalType":"uint256","name":"error","type":"uint256"},{"indexed":false,"internalType":"uint256","name":"info","type":"uint256"},{"indexed":false,"internalType":"uint256","name":"detail","type":"uint256"}],"name":"Failure","type":"event"},{"constant":false,"inputs":[{"internalType":"address","name":"unitroller","type":"address"}],"name":"_become","outputs":[],"payable":false,"stateMutability":"nonpayable","type":"function"},{"constant":true,"inputs":[],"name":"_borrowGuardianPaused","outputs":[{"internalType":"bool","name":"","type":"bool"}],"payable":false,"stateMutability":"view","type":"function"},{"constant":false,"inputs":[{"internalType":"address","name":"recipient","type":"address"},{"internalType":"uint256","name":"amount","type":"uint256"}],"name":"_grantTonic","outputs":[],"payable":false,"stateMutability":"nonpayable","type":"function"},{"constant":true,"inputs":[],"name":"_mintGuardianPaused","outputs":[{"internalType":"bool","name":"","type":"bool"}],"payable":false,"stateMutability":"view","type":"function"},{"constant":false,"inputs":[{"internalType":"address","name":"tToken","type":"address"},{"internalType":"bool","name":"state","type":"bool"}],"name":"_setBorrowPaused","outputs":[{"internalType":"bool","name":"","type":"bool"}],"payable":false,"stateMutability":"nonpayable","type":"function"},{"constant":false,"inputs":[{"internalType":"uint256","name":"newCloseFactorMantissa","type":"uint256"}],"name":"_setCloseFactor","outputs":[{"internalType":"uint256","name":"","type":"uint256"}],"payable":false,"stateMutability":"nonpayable","type":"function"},{"constant":false,"inputs":[{"internalType":"address","name":"tToken","type":"address"},{"internalType":"uint256","name":"newCollateralFactorMantissa","type":"uint256"}],"name":"_setCollateralFactor","outputs":[{"internalType":"uint256","name":"","type":"uint256"}],"payable":false,"stateMutability":"nonpayable","type":"function"},{"constant":false,"inputs":[{"internalType":"address","name":"contributor","type":"address"},{"internalType":"uint256","name":"tonicSpeed","type":"uint256"}],"name":"_setContributorTonicSpeed","outputs":[],"payable":false,"stateMutability":"nonpayable","type":"function"},{"constant":false,"inputs":[{"internalType":"uint256","name":"newLiquidationIncentiveMantissa","type":"uint256"}],"name":"_setLiquidationIncentive","outputs":[{"internalType":"uint256","name":"","type":"uint256"}],"payable":false,"stateMutability":"nonpayable","type":"function"},{"constant":false,"inputs":[{"internalType":"address","name":"tToken","type":"address"},{"internalType":"bool","name":"state","type":"bool"}],"name":"_setMintPaused","outputs":[{"internalType":"bool","name":"","type":"bool"}],"payable":false,"stateMutability":"nonpayable","type":"function"},{"constant":false,"inputs":[{"internalType":"address","name":"newPauseGuardian","type":"address"}],"name":"_setPauseGuardian","outputs":[{"internalType":"uint256","name":"","type":"uint256"}],"payable":false,"stateMutability":"nonpayable","type":"function"},{"constant":false,"inputs":[{"internalType":"address","name":"newOracle","type":"address"}],"name":"_setPriceOracle","outputs":[{"internalType":"uint256","name":"","type":"uint256"}],"payable":false,"stateMutability":"nonpayable","type":"function"},{"constant":false,"inputs":[{"internalType":"bool","name":"state","type":"bool"}],"name":"_setSeizePaused","outputs":[{"internalType":"bool","name":"","type":"bool"}],"payable":false,"stateMutability":"nonpayable","type":"function"},{"constant":false,"inputs":[{"internalType":"address","name":"tToken","type":"address"},{"internalType":"uint256","name":"tonicSpeed","type":"uint256"}],"name":"_setTonicSpeed","outputs":[],"payable":false,"stateMutability":"nonpayable","type":"function"},{"constant":false,"inputs":[{"internalType":"bool","name":"state","type":"bool"}],"name":"_setTransferPaused","outputs":[{"internalType":"bool","name":"","type":"bool"}],"payable":false,"stateMutability":"nonpayable","type":"function"},{"constant":false,"inputs":[{"internalType":"bool","name":"whitelistStatus","type":"bool"}],"name":"_setWhitelistProtect","outputs":[],"payable":false,"stateMutability":"nonpayable","type":"function"},{"constant":false,"inputs":[{"internalType":"address","name":"tToken","type":"address"}],"name":"_supportMarket","outputs":[{"internalType":"uint256","name":"","type":"uint256"}],"payable":false,"stateMutability":"nonpayable","type":"function"},{"constant":true,"inputs":[{"internalType":"address","name":"","type":"address"},{"internalType":"uint256","name":"","type":"uint256"}],"name":"accountAssets","outputs":[{"internalType":"address","name":"","type":"address"}],"payable":false,"stateMutability":"view","type":"function"},{"constant":true,"inputs":[],"name":"admin","outputs":[{"internalType":"address","name":"","type":"address"}],"payable":false,"stateMutability":"view","type":"function"},{"constant":true,"inputs":[{"internalType":"uint256","name":"","type":"uint256"}],"name":"allMarkets","outputs":[{"internalType":"contract TToken","name":"","type":"address"}],"payable":false,"stateMutability":"view","type":"function"},{"constant":false,"inputs":[{"internalType":"address","name":"tToken","type":"address"},{"internalType":"address","name":"borrower","type":"address"},{"internalType":"uint256","name":"borrowAmount","type":"uint256"}],"name":"borrowAllowed","outputs":[{"internalType":"uint256","name":"","type":"uint256"}],"payable":false,"stateMutability":"nonpayable","type":"function"},{"constant":true,"inputs":[],"name":"borrowCapGuardian","outputs":[{"internalType":"address","name":"","type":"address"}],"payable":false,"stateMutability":"view","type":"function"},{"constant":true,"inputs":[{"internalType":"address","name":"","type":"address"}],"name":"borrowCaps","outputs":[{"internalType":"uint256","name":"","type":"uint256"}],"payable":false,"stateMutability":"view","type":"function"},{"constant":true,"inputs":[{"internalType":"address","name":"","type":"address"}],"name":"borrowGuardianPaused","outputs":[{"internalType":"bool","name":"","type":"bool"}],"payable":false,"stateMutability":"view","type":"function"},{"constant":false,"inputs":[{"internalType":"address","name":"tToken","type":"address"},{"internalType":"address","name":"borrower","type":"address"},{"internalType":"uint256","name":"borrowAmount","type":"uint256"}],"name":"borrowVerify","outputs":[],"payable":false,"stateMutability":"nonpayable","type":"function"},{"constant":true,"inputs":[{"internalType":"address","name":"account","type":"address"},{"internalType":"address","name":"tToken","type":"address"}],"name":"checkMembership","outputs":[{"internalType":"bool","name":"","type":"bool"}],"payable":false,"stateMutability":"view","type":"function"},{"constant":false,"inputs":[{"internalType":"address[]","name":"holders","type":"address[]"},{"internalType":"address[]","name":"tTokens","type":"address[]"},{"internalType":"bool","name":"borrowers","type":"bool"},{"internalType":"bool","name":"suppliers","type":"bool"}],"name":"claimTonic","outputs":[],"payable":false,"stateMutability":"nonpayable","type":"function"},{"constant":false,"inputs":[{"internalType":"address","name":"holder","type":"address"}],"name":"claimTonic","outputs":[],"payable":false,"stateMutability":"nonpayable","type":"function"},{"constant":false,"inputs":[{"internalType":"address","name":"holder","type":"address"},{"internalType":"address[]","name":"tTokens","type":"address[]"}],"name":"claimTonic","outputs":[],"payable":false,"stateMutability":"nonpayable","type":"function"},{"constant":true,"inputs":[],"name":"closeFactorMantissa","outputs":[{"internalType":"uint256","name":"","type":"uint256"}],"payable":false,"stateMutability":"view","type":"function"},{"constant":false,"inputs":[{"internalType":"address[]","name":"tTokens","type":"address[]"}],"name":"enterMarkets","outputs":[{"internalType":"uint256[]","name":"","type":"uint256[]"}],"payable":false,"stateMutability":"nonpayable","type":"function"},{"constant":false,"inputs":[{"internalType":"address","name":"tToken","type":"address"}],"name":"exitMarket","outputs":[{"internalType":"uint256","name":"","type":"uint256"}],"payable":false,"stateMutability":"nonpayable","type":"function"},{"constant":true,"inputs":[],"name":"getAllMarkets","outputs":[{"internalType":"address[]","name":"","type":"address[]"}],"payable":false,"stateMutability":"view","type":"function"},{"constant":true,"inputs":[{"internalType":"address","name":"account","type":"address"}],"name":"getAssetsIn","outputs":[{"internalType":"address[]","name":"","type":"address[]"}],"payable":false,"stateMutability":"view","type":"function"},{"constant":true,"inputs":[],"name":"getBlockNumber","outputs":[{"internalType":"uint256","name":"","type":"uint256"}],"payable":false,"stateMutability":"view","type":"function"},{"constant":true,"inputs":[],"name":"getTonicAddress","outputs":[{"internalType":"address","name":"","type":"address"}],"payable":false,"stateMutability":"view","type":"function"},{"constant":true,"inputs":[{"internalType":"address","name":"tToken","type":"address"}],"name":"isDeprecated","outputs":[{"internalType":"bool","name":"","type":"bool"}],"payable":false,"stateMutability":"view","type":"function"},{"constant":true,"inputs":[],"name":"isTectonicCore","outputs":[{"internalType":"bool","name":"","type":"bool"}],"payable":false,"stateMutability":"view","type":"function"},{"constant":true,"inputs":[{"internalType":"address","name":"","type":"address"}],"name":"lastContributorBlock","outputs":[{"internalType":"uint256","name":"","type":"uint256"}],"payable":false,"stateMutability":"view","type":"function"},{"constant":false,"inputs":[{"internalType":"address","name":"tTokenBorrowed","type":"address"},{"internalType":"address","name":"tTokenCollateral","type":"address"},{"internalType":"address","name":"liquidator","type":"address"},{"internalType":"address","name":"borrower","type":"address"},{"internalType":"uint256","name":"repayAmount","type":"uint256"}],"name":"liquidateBorrowAllowed","outputs":[{"internalType":"uint256","name":"","type":"uint256"}],"payable":false,"stateMutability":"nonpayable","type":"function"},{"constant":false,"inputs":[{"internalType":"address","name":"tTokenBorrowed","type":"address"},{"internalType":"address","name":"tTokenCollateral","type":"address"},{"internalType":"address","name":"liquidator","type":"address"},{"internalType":"address","name":"borrower","type":"address"},{"internalType":"uint256","name":"repayAmount","type":"uint256"},{"internalType":"uint256","name":"seizeTokens","type":"uint256"}],"name":"liquidateBorrowVerify","outputs":[],"payable":false,"stateMutability":"nonpayable","type":"function"},{"constant":true,"inputs":[{"internalType":"address","name":"tTokenBorrowed","type":"address"},{"internalType":"address","name":"tTokenCollateral","type":"address"},{"internalType":"uint256","name":"actualRepayAmount","type":"uint256"}],"name":"liquidateCalculateSeizeTokens","outputs":[{"internalType":"uint256","name":"","type":"uint256"},{"internalType":"uint256","name":"","type":"uint256"}],"payable":false,"stateMutability":"view","type":"function"},{"constant":true,"inputs":[],"name":"liquidationIncentiveMantissa","outputs":[{"internalType":"uint256","name":"","type":"uint256"}],"payable":false,"stateMutability":"view","type":"function"},{"constant":true,"inputs":[{"internalType":"address","name":"","type":"address"}],"name":"markets","outputs":[{"internalType":"bool","name":"isListed","type":"bool"},{"internalType":"uint256","name":"collateralFactorMantissa","type":"uint256"},{"internalType":"bool","name":"isTonicized","type":"bool"}],"payable":false,"stateMutability":"view","type":"function"},{"constant":true,"inputs":[],"name":"maxAssets","outputs":[{"internalType":"uint256","name":"","type":"uint256"}],"payable":false,"stateMutability":"view","type":"function"},{"constant":false,"inputs":[{"internalType":"address","name":"tToken","type":"address"},{"internalType":"address","name":"minter","type":"address"},{"internalType":"uint256","name":"mintAmount","type":"uint256"}],"name":"mintAllowed","outputs":[{"internalType":"uint256","name":"","type":"uint256"}],"payable":false,"stateMutability":"nonpayable","type":"function"},{"constant":true,"inputs":[{"internalType":"address","name":"","type":"address"}],"name":"mintGuardianPaused","outputs":[{"internalType":"bool","name":"","type":"bool"}],"payable":false,"stateMutability":"view","type":"function"},{"constant":false,"inputs":[{"internalType":"address","name":"tToken","type":"address"},{"internalType":"address","name":"minter","type":"address"},{"internalType":"uint256","name":"mintAmount","type":"uint256"},{"internalType":"uint256","name":"mintTokens","type":"uint256"}],"name":"mintVerify","outputs":[],"payable":false,"stateMutability":"nonpayable","type":"function"},{"constant":true,"inputs":[],"name":"oracle","outputs":[{"internalType":"contract PriceOracle","name":"","type":"address"}],"payable":false,"stateMutability":"view","type":"function"},{"constant":true,"inputs":[],"name":"pauseGuardian","outputs":[{"internalType":"address","name":"","type":"address"}],"payable":false,"stateMutability":"view","type":"function"},{"constant":true,"inputs":[],"name":"pendingAdmin","outputs":[{"internalType":"address","name":"","type":"address"}],"payable":false,"stateMutability":"view","type":"function"},{"constant":true,"inputs":[],"name":"pendingTectonicCoreImplementation","outputs":[{"internalType":"address","name":"","type":"address"}],"payable":false,"stateMutability":"view","type":"function"},{"constant":false,"inputs":[{"internalType":"address","name":"tToken","type":"address"},{"internalType":"address","name":"redeemer","type":"address"},{"internalType":"uint256","name":"redeemTokens","type":"uint256"}],"name":"redeemAllowed","outputs":[{"internalType":"uint256","name":"","type":"uint256"}],"payable":false,"stateMutability":"nonpayable","type":"function"},{"constant":false,"inputs":[{"internalType":"address","name":"tToken","type":"address"},{"internalType":"address","name":"redeemer","type":"address"},{"internalType":"uint256","name":"redeemAmount","type":"uint256"},{"internalType":"uint256","name":"redeemTokens","type":"uint256"}],"name":"redeemVerify","outputs":[],"payable":false,"stateMutability":"nonpayable","type":"function"},{"constant":false,"inputs":[{"internalType":"address","name":"tToken","type":"address"},{"internalType":"address","name":"payer","type":"address"},{"internalType":"address","name":"borrower","type":"address"},{"internalType":"uint256","name":"repayAmount","type":"uint256"}],"name":"repayBorrowAllowed","outputs":[{"internalType":"uint256","name":"","type":"uint256"}],"payable":false,"stateMutability":"nonpayable","type":"function"},{"constant":false,"inputs":[{"internalType":"address","name":"tToken","type":"address"},{"internalType":"address","name":"payer","type":"address"},{"internalType":"address","name":"borrower","type":"address"},{"internalType":"uint256","name":"repayAmount","type":"uint256"},{"internalType":"uint256","name":"borrowerIndex","type":"uint256"}],"name":"repayBorrowVerify","outputs":[],"payable":false,"stateMutability":"nonpayable","type":"function"},{"constant":false,"inputs":[{"internalType":"address","name":"tTokenCollateral","type":"address"},{"internalType":"address","name":"tTokenBorrowed","type":"address"},{"internalType":"address","name":"liquidator","type":"address"},{"internalType":"address","name":"borrower","type":"address"},{"internalType":"uint256","name":"seizeTokens","type":"uint256"}],"name":"seizeAllowed","outputs":[{"internalType":"uint256","name":"","type":"uint256"}],"payable":false,"stateMutability":"nonpayable","type":"function"},{"constant":true,"inputs":[],"name":"seizeGuardianPaused","outputs":[{"internalType":"bool","name":"","type":"bool"}],"payable":false,"stateMutability":"view","type":"function"},{"constant":false,"inputs":[{"internalType":"address","name":"tTokenCollateral","type":"address"},{"internalType":"address","name":"tTokenBorrowed","type":"address"},{"internalType":"address","name":"liquidator","type":"address"},{"internalType":"address","name":"borrower","type":"address"},{"internalType":"uint256","name":"seizeTokens","type":"uint256"}],"name":"seizeVerify","outputs":[],"payable":false,"stateMutability":"nonpayable","type":"function"},{"constant":false,"inputs":[{"internalType":"address","name":"_tonicAddress","type":"address"}],"name":"setTonicAddress","outputs":[],"payable":false,"stateMutability":"nonpayable","type":"function"},{"constant":true,"inputs":[],"name":"tectonicCoreImplementation","outputs":[{"internalType":"address","name":"","type":"address"}],"payable":false,"stateMutability":"view","type":"function"},{"constant":true,"inputs":[{"internalType":"address","name":"","type":"address"}],"name":"tokenToPerUserTvlProtectLimit","outputs":[{"internalType":"uint256","name":"","type":"uint256"}],"payable":false,"stateMutability":"view","type":"function"},{"constant":true,"inputs":[{"internalType":"address","name":"","type":"address"}],"name":"tonicAccrued","outputs":[{"internalType":"uint256","name":"","type":"uint256"}],"payable":false,"stateMutability":"view","type":"function"},{"constant":true,"inputs":[{"internalType":"address","name":"","type":"address"}],"name":"tonicBorrowState","outputs":[{"internalType":"uint224","name":"index","type":"uint224"},{"internalType":"uint32","name":"block","type":"uint32"}],"payable":false,"stateMutability":"view","type":"function"},{"constant":true,"inputs":[{"internalType":"address","name":"","type":"address"},{"internalType":"address","name":"","type":"address"}],"name":"tonicBorrowerIndex","outputs":[{"internalType":"uint256","name":"","type":"uint256"}],"payable":false,"stateMutability":"view","type":"function"},{"constant":true,"inputs":[{"internalType":"address","name":"","type":"address"}],"name":"tonicContributorSpeeds","outputs":[{"internalType":"uint256","name":"","type":"uint256"}],"payable":false,"stateMutability":"view","type":"function"},{"constant":true,"inputs":[],"name":"tonicRate","outputs":[{"internalType":"uint256","name":"","type":"uint256"}],"payable":false,"stateMutability":"view","type":"function"},{"constant":true,"inputs":[{"internalType":"address","name":"","type":"address"}],"name":"tonicSpeeds","outputs":[{"internalType":"uint256","name":"","type":"uint256"}],"payable":false,"stateMutability":"view","type":"function"},{"constant":true,"inputs":[{"internalType":"address","name":"","type":"address"},{"internalType":"address","name":"","type":"address"}],"name":"tonicSupplierIndex","outputs":[{"internalType":"uint256","name":"","type":"uint256"}],"payable":false,"stateMutability":"view","type":"function"},{"constant":true,"inputs":[{"internalType":"address","name":"","type":"address"}],"name":"tonicSupplyState","outputs":[{"internalType":"uint224","name":"index","type":"uint224"},{"internalType":"uint32","name":"block","type":"uint32"}],"payable":false,"stateMutability":"view","type":"function"},{"constant":false,"inputs":[{"internalType":"address","name":"tToken","type":"address"},{"internalType":"address","name":"src","type":"address"},{"internalType":"address","name":"dst","type":"address"},{"internalType":"uint256","name":"transferTokens","type":"uint256"}],"name":"transferAllowed","outputs":[{"internalType":"uint256","name":"","type":"uint256"}],"payable":false,"stateMutability":"nonpayable","type":"function"},{"constant":true,"inputs":[],"name":"transferGuardianPaused","outputs":[{"internalType":"bool","name":"","type":"bool"}],"payable":false,"stateMutability":"view","type":"function"},{"constant":false,"inputs":[{"internalType":"address","name":"tToken","type":"address"},{"internalType":"address","name":"src","type":"address"},{"internalType":"address","name":"dst","type":"address"},{"internalType":"uint256","name":"transferTokens","type":"uint256"}],"name":"transferVerify","outputs":[],"payable":false,"stateMutability":"nonpayable","type":"function"},{"constant":false,"inputs":[{"internalType":"address","name":"contributor","type":"address"}],"name":"updateContributorRewards","outputs":[],"payable":false,"stateMutability":"nonpayable","type":"function"},{"constant":true,"inputs":[{"internalType":"address","name":"","type":"address"},{"internalType":"address","name":"","type":"address"}],"name":"utilizedTvlAmount","outputs":[{"internalType":"uint256","name":"","type":"uint256"}],"payable":false,"stateMutability":"view","type":"function"},{"constant":true,"inputs":[],"name":"whitelistProtectEnabled","outputs":[{"internalType":"bool","name":"","type":"bool"}],"payable":false,"stateMutability":"view","type":"function"},{"constant":true,"inputs":[{"internalType":"address","name":"","type":"address"}],"name":"whitelistedAddresses","outputs":[{"internalType":"bool","name":"","type":"bool"}],"payable":false,"stateMutability":"view","type":"function"}],"evm":{"bytecode":{"linkReferences":{},"object":"608060405234801561001057600080fd5b5061130a806100206000396000f3fe608060405234801561001057600080fd5b506004361061045f5760003560e01c8063683b3f911161024c578063abfceffc11610146578063d02f7351116100c3578063e875544611610087578063e875544614610ef6578063eabe7d91146108ea578063ede4edd01461093d578063f851a44014610efe578063fe3be96014610f065761045f565b8063d02f735114610999578063da3d454c146108ea578063dce1544914610e96578063e4028eee14610ec2578063e6653f3d14610eee5761045f565b8063be493f1e1161010a578063be493f1e14610d5f578063bea6b8b814610d85578063c299823814610dab578063c488847b14610e19578063c7a6552a14610e685761045f565b8063abfceffc14610cab578063ac0b0bb714610d21578063af3fbb5814610d29578063b0772d0b14610d57578063bdcdc258146106e85761045f565b806387f76303116101d457806394b2294b1161019857806394b2294b14610c7557806398fc0f7b14610c7d578063a34dd66614610626578063a6df963f14610ca3578063a76b3fda1461093d5761045f565b806387f7630314610be15780638e8f294b14610be95780638ebf63641461074e578063929fe9a114610c3157806394543c1514610c5f5761045f565b80636d35bf911161021b5780636d35bf9114610b65578063731f0c2b14610bab5780637404e92c14610bd1578063741b2525146106525780637dc0d1d014610bd95761045f565b8063683b3f9114610a33578063693feb5b14610a525780636a56947e14610b035780636d154ea514610b3f5761045f565b80633cb9ea6c1161035d5780634fd42e17116102e55780635f5af1aa116102a95780635f5af1aa1461093d5780635fc7e71e1461099957806363eb0a4d1461065257806366dd2e32146109df57806367d556fb14610a055761045f565b80634fd42e171461076d57806351dff989146107de57806352d84d1e1461092057806355ee1fe11461093d5780635c778605146109635761045f565b8063454aafe01161032c578063454aafe01461082257806347ef3b3b146108705780634a584432146108bc5780634ada90af146108e25780634ef4c3e1146108ea5761045f565b80633cb9ea6c146107b857806340f2117c1461062657806341c728b9146107de57806342cbb15c1461081a5761045f565b806321af4569116103eb5780632d70db78116103af5780632d70db781461074e578063317b0b771461076d578063363c05be1461078a5780633bcf7ec1146105f85780633c94786f146107b05761045f565b806321af4569146106e057806324008a62146106e8578063248fb15c1461073657806324a3d6221461073e57806326782247146107465761045f565b806318c882a51161043257806318c882a5146105f85780631d2f6141146106265780631d504dc6146106525780631ededc91146106785780631f408a75146106ba5761045f565b806306c933d8146104645780630b2efed61461049e5780630b8851ee146104c257806313be693b146105f0575b600080fd5b61048a6004803603602081101561047a57600080fd5b50356001600160a01b0316610f0e565b604080519115158252519081900360200190f35b6104a6610f23565b604080516001600160a01b039092168252519081900360200190f35b6105ee600480360360808110156104d857600080fd5b810190602081018135600160201b8111156104f257600080fd5b82018360208201111561050457600080fd5b803590602001918460208302840111600160201b8311171561052557600080fd5b9190808060200260200160405190810160405280939291908181526020018383602002808284376000920191909152509295949360208101935035915050600160201b81111561057457600080fd5b82018360208201111561058657600080fd5b803590602001918460208302840111600160201b831117156105a757600080fd5b919080806020026020016040519081016040528093929190818152602001838360200280828437600092019190915250929550505050803515159150602001351515610f32565b005b6104a6610f38565b61048a6004803603604081101561060e57600080fd5b506001600160a01b0381351690602001351515610f47565b6105ee6004803603604081101561063c57600080fd5b506001600160a01b038135169060200135610f4c565b6105ee6004803603602081101561066857600080fd5b50356001600160a01b0316610f50565b6105ee600480360360a081101561068e57600080fd5b506001600160a01b03813581169160208101358216916040820135169060608101359060800135610f53565b6105ee600480360360208110156106d057600080fd5b50356001600160a01b0316610f5a565b6104a6610f7c565b610724600480360360808110156106fe57600080fd5b506001600160a01b03813581169160208101358216916040820135169060600135610f8b565b60408051918252519081900360200190f35b610724610f95565b6104a6610f9b565b6104a6610faa565b61048a6004803603602081101561076457600080fd5b50351515610fb9565b6107246004803603602081101561078357600080fd5b5035610fbc565b610724600480360360208110156107a057600080fd5b50356001600160a01b0316610fc2565b61048a610fd4565b610724600480360360208110156107ce57600080fd5b50356001600160a01b0316610fe4565b6105ee600480360360808110156107f457600080fd5b506001600160a01b03813581169160208101359091169060408101359060600135610f32565b610724610ff6565b6108486004803603602081101561083857600080fd5b50356001600160a01b0316610ffa565b604080516001600160e01b03909316835263ffffffff90911660208301528051918290030190f35b6105ee600480360360c081101561088657600080fd5b506001600160a01b0381358116916020810135821691604082013581169160608101359091169060808101359060a00135611024565b610724600480360360208110156108d257600080fd5b50356001600160a01b031661102c565b61072461103e565b6107246004803603606081101561090057600080fd5b506001600160a01b03813581169160208101359091169060400135611044565b6104a66004803603602081101561093657600080fd5b503561104d565b6107246004803603602081101561095357600080fd5b50356001600160a01b0316610fbc565b6105ee6004803603606081101561097957600080fd5b506001600160a01b03813581169160208101359091169060400135611074565b610724600480360360a08110156109af57600080fd5b506001600160a01b0381358116916020810135821691604082013581169160608101359091169060800135611079565b610724600480360360208110156109f557600080fd5b50356001600160a01b0316611084565b61072460048036036040811015610a1b57600080fd5b506001600160a01b0381358116916020013516611096565b6105ee60048036036020811015610a4957600080fd5b503515156110b3565b6105ee60048036036040811015610a6857600080fd5b6001600160a01b038235169190810190604081016020820135600160201b811115610a9257600080fd5b820183602082011115610aa457600080fd5b803590602001918460208302840111600160201b83111715610ac557600080fd5b919080806020026020016040519081016040528093929190818152602001838360200280828437600092019190915250929550610f4c945050505050565b6105ee60048036036080811015610b1957600080fd5b506001600160a01b03813581169160208101358216916040820135169060600135610f32565b61048a60048036036020811015610b5557600080fd5b50356001600160a01b03166110d1565b6105ee600480360360a0811015610b7b57600080fd5b506001600160a01b0381358116916020810135821691604082013581169160608101359091169060800135610f53565b61048a60048036036020811015610bc157600080fd5b50356001600160a01b03166110e6565b6104a66110fb565b6104a661110a565b61048a611119565b610c0f60048036036020811015610bff57600080fd5b50356001600160a01b0316611129565b6040805193151584526020840192909252151582820152519081900360600190f35b61048a60048036036040811015610c4757600080fd5b506001600160a01b038135811691602001351661114f565b61048a6004803603602081101561095357600080fd5b610724611157565b61072460048036036020811015610c9357600080fd5b50356001600160a01b031661115d565b61048a61116f565b610cd160048036036020811015610cc157600080fd5b50356001600160a01b0316611174565b60408051602080825283518183015283519192839290830191858101910280838360005b83811015610d0d578181015183820152602001610cf5565b505050509050019250505060405180910390f35b61048a611187565b61072460048036036040811015610d3f57600080fd5b506001600160a01b0381358116916020013516611197565b610cd16111b4565b61084860048036036020811015610d7557600080fd5b50356001600160a01b03166111c6565b61072460048036036020811015610d9b57600080fd5b50356001600160a01b03166111f0565b610cd160048036036020811015610dc157600080fd5b810190602081018135600160201b811115610ddb57600080fd5b820183602082011115610ded57600080fd5b803590602001918460208302840111600160201b83111715610e0e57600080fd5b509092509050611202565b610e4f60048036036060811015610e2f57600080fd5b506001600160a01b0381358116916020810135909116906040013561123b565b6040805192835260208301919091528051918290030190f35b61072460048036036040811015610e7e57600080fd5b506001600160a01b0381358116916020013516611246565b6104a660048036036040811015610eac57600080fd5b506001600160a01b038135169060200135611263565b61072460048036036040811015610ed857600080fd5b506001600160a01b038135169060200135611298565b61048a6112a0565b6107246112b0565b6104a66112b6565b61048a6112c5565b601a6020526000908152604090205460ff1681565b6003546001600160a01b031681565b50505050565b6019546001600160a01b031690565b919050565b5050565b50565b5050505050565b601980546001600160a01b0319166001600160a01b0392909216919091179055565b6015546001600160a01b031681565b6000949350505050565b600e5481565b600a546001600160a01b031681565b6001546001600160a01b031681565b90565b50600090565b60176020526000908152604090205481565b600a54600160a01b900460ff1681565b600f6020526000908152604090205481565b4390565b6011602052600090815260409020546001600160e01b03811690600160e01b900463ffffffff1682565b505050505050565b60166020526000908152604090205481565b60065481565b60009392505050565b600d818154811061105a57fe5b6000918252602090912001546001600160a01b0316905081565b505050565b600095945050505050565b60146020526000908152604090205481565b601c60209081526000928352604080842090915290825290205481565b60198054911515600160a01b0260ff60a01b19909216919091179055565b600c6020526000908152604090205460ff1681565b600b6020526000908152604090205460ff1681565b6002546001600160a01b031681565b6004546001600160a01b031681565b600a54600160b01b900460ff1681565b60096020526000908152604090208054600182015460039092015460ff91821692911683565b600192915050565b60075481565b601b6020526000908152604090205481565b600181565b5060408051600081526020810190915290565b600a54600160b81b900460ff1681565b601360209081526000928352604080842090915290825290205481565b60408051600081526020810190915290565b6010602052600090815260409020546001600160e01b03811690600160e01b900463ffffffff1682565b60186020526000908152604090205481565b60608083839050604051908082528060200260200182016040528015611232578160200160208202803883390190505b50949350505050565b600080935093915050565b601260209081526000928352604080842090915290825290205481565b6008602052816000526040600020818154811061127c57fe5b6000918252602090912001546001600160a01b03169150829050565b600092915050565b600a54600160a81b900460ff1681565b60055481565b6000546001600160a01b031681565b601954600160a01b900460ff168156fea265627a7a72315820100027867bf3324b7dcd1c22f3a21825dd426a4b5eb199e10450a7c926bcd5ee64736f6c63430005100032","opcodes":"PUSH1 0x80 PUSH1 0x40 MSTORE CALLVALUE DUP1 ISZERO PUSH2 0x10 JUMPI PUSH1 0x0 DUP1 REVERT JUMPDEST POP PUSH2 0x130A DUP1 PUSH2 0x20 PUSH1 0x0 CODECOPY PUSH1 0x0 RETURN INVALID PUSH1 0x80 PUSH1 0x40 MSTORE CALLVALUE DUP1 ISZERO PUSH2 0x10 JUMPI PUSH1 0x0 DUP1 REVERT JUMPDEST POP PUSH1 0x4 CALLDATASIZE LT PUSH2 0x45F JUMPI PUSH1 0x0 CALLDATALOAD PUSH1 0xE0 SHR DUP1 PUSH4 0x683B3F91 GT PUSH2 0x24C JUMPI DUP1 PUSH4 0xABFCEFFC GT PUSH2 0x146 JUMPI DUP1 PUSH4 0xD02F7351 GT PUSH2 0xC3 JUMPI DUP1 PUSH4 0xE8755446 GT PUSH2 0x87 JUMPI DUP1 PUSH4 0xE8755446 EQ PUSH2 0xEF6 JUMPI DUP1 PUSH4 0xEABE7D91 EQ PUSH2 0x8EA JUMPI DUP1 PUSH4 0xEDE4EDD0 EQ PUSH2 0x93D JUMPI DUP1 PUSH4 0xF851A440 EQ PUSH2 0xEFE JUMPI DUP1 PUSH4 0xFE3BE960 EQ PUSH2 0xF06 JUMPI PUSH2 0x45F JUMP JUMPDEST DUP1 PUSH4 0xD02F7351 EQ PUSH2 0x999 JUMPI DUP1 PUSH4 0xDA3D454C EQ PUSH2 0x8EA JUMPI DUP1 PUSH4 0xDCE15449 EQ PUSH2 0xE96 JUMPI DUP1 PUSH4 0xE4028EEE EQ PUSH2 0xEC2 JUMPI DUP1 PUSH4 0xE6653F3D EQ PUSH2 0xEEE JUMPI PUSH2 0x45F JUMP JUMPDEST DUP1 PUSH4 0xBE493F1E GT PUSH2 0x10A JUMPI DUP1 PUSH4 0xBE493F1E EQ PUSH2 0xD5F JUMPI DUP1 PUSH4 0xBEA6B8B8 EQ PUSH2 0xD85 JUMPI DUP1 PUSH4 0xC2998238 EQ PUSH2 0xDAB JUMPI DUP1 PUSH4 0xC488847B EQ PUSH2 0xE19 JUMPI DUP1 PUSH4 0xC7A6552A EQ PUSH2 0xE68 JUMPI PUSH2 0x45F JUMP JUMPDEST DUP1 PUSH4 0xABFCEFFC EQ PUSH2 0xCAB JUMPI DUP1 PUSH4 0xAC0B0BB7 EQ PUSH2 0xD21 JUMPI DUP1 PUSH4 0xAF3FBB58 EQ PUSH2 0xD29 JUMPI DUP1 PUSH4 0xB0772D0B EQ PUSH2 0xD57 JUMPI DUP1 PUSH4 0xBDCDC258 EQ PUSH2 0x6E8 JUMPI PUSH2 0x45F JUMP JUMPDEST DUP1 PUSH4 0x87F76303 GT PUSH2 0x1D4 JUMPI DUP1 PUSH4 0x94B2294B GT PUSH2 0x198 JUMPI DUP1 PUSH4 0x94B2294B EQ PUSH2 0xC75 JUMPI DUP1 PUSH4 0x98FC0F7B EQ PUSH2 0xC7D JUMPI DUP1 PUSH4 0xA34DD666 EQ PUSH2 0x626 JUMPI DUP1 PUSH4 0xA6DF963F EQ PUSH2 0xCA3 JUMPI DUP1 PUSH4 0xA76B3FDA EQ PUSH2 0x93D JUMPI PUSH2 0x45F JUMP JUMPDEST DUP1 PUSH4 0x87F76303 EQ PUSH2 0xBE1 JUMPI DUP1 PUSH4 0x8E8F294B EQ PUSH2 0xBE9 JUMPI DUP1 PUSH4 0x8EBF6364 EQ PUSH2 0x74E JUMPI DUP1 PUSH4 0x929FE9A1 EQ PUSH2 0xC31 JUMPI DUP1 PUSH4 0x94543C15 EQ PUSH2 0xC5F JUMPI PUSH2 0x45F JUMP JUMPDEST DUP1 PUSH4 0x6D35BF91 GT PUSH2 0x21B JUMPI DUP1 PUSH4 0x6D35BF91 EQ PUSH2 0xB65 JUMPI DUP1 PUSH4 0x731F0C2B EQ PUSH2 0xBAB JUMPI DUP1 PUSH4 0x7404E92C EQ PUSH2 0xBD1 JUMPI DUP1 PUSH4 0x741B2525 EQ PUSH2 0x652 JUMPI DUP1 PUSH4 0x7DC0D1D0 EQ PUSH2 0xBD9 JUMPI PUSH2 0x45F JUMP JUMPDEST DUP1 PUSH4 0x683B3F91 EQ PUSH2 0xA33 JUMPI DUP1 PUSH4 0x693FEB5B EQ PUSH2 0xA52 JUMPI DUP1 PUSH4 0x6A56947E EQ PUSH2 0xB03 JUMPI DUP1 PUSH4 0x6D154EA5 EQ PUSH2 0xB3F JUMPI PUSH2 0x45F JUMP JUMPDEST DUP1 PUSH4 0x3CB9EA6C GT PUSH2 0x35D JUMPI DUP1 PUSH4 0x4FD42E17 GT PUSH2 0x2E5 JUMPI DUP1 PUSH4 0x5F5AF1AA GT PUSH2 0x2A9 JUMPI DUP1 PUSH4 0x5F5AF1AA EQ PUSH2 0x93D JUMPI DUP1 PUSH4 0x5FC7E71E EQ PUSH2 0x999 JUMPI DUP1 PUSH4 0x63EB0A4D EQ PUSH2 0x652 JUMPI DUP1 PUSH4 0x66DD2E32 EQ PUSH2 0x9DF JUMPI DUP1 PUSH4 0x67D556FB EQ PUSH2 0xA05 JUMPI PUSH2 0x45F JUMP JUMPDEST DUP1 PUSH4 0x4FD42E17 EQ PUSH2 0x76D JUMPI DUP1 PUSH4 0x51DFF989 EQ PUSH2 0x7DE JUMPI DUP1 PUSH4 0x52D84D1E EQ PUSH2 0x920 JUMPI DUP1 PUSH4 0x55EE1FE1 EQ PUSH2 0x93D JUMPI DUP1 PUSH4 0x5C778605 EQ PUSH2 0x963 JUMPI PUSH2 0x45F JUMP JUMPDEST DUP1 PUSH4 0x454AAFE0 GT PUSH2 0x32C JUMPI DUP1 PUSH4 0x454AAFE0 EQ PUSH2 0x822 JUMPI DUP1 PUSH4 0x47EF3B3B EQ PUSH2 0x870 JUMPI DUP1 PUSH4 0x4A584432 EQ PUSH2 0x8BC JUMPI DUP1 PUSH4 0x4ADA90AF EQ PUSH2 0x8E2 JUMPI DUP1 PUSH4 0x4EF4C3E1 EQ PUSH2 0x8EA JUMPI PUSH2 0x45F JUMP JUMPDEST DUP1 PUSH4 0x3CB9EA6C EQ PUSH2 0x7B8 JUMPI DUP1 PUSH4 0x40F2117C EQ PUSH2 0x626 JUMPI DUP1 PUSH4 0x41C728B9 EQ PUSH2 0x7DE JUMPI DUP1 PUSH4 0x42CBB15C EQ PUSH2 0x81A JUMPI PUSH2 0x45F JUMP JUMPDEST DUP1 PUSH4 0x21AF4569 GT PUSH2 0x3EB JUMPI DUP1 PUSH4 0x2D70DB78 GT PUSH2 0x3AF JUMPI DUP1 PUSH4 0x2D70DB78 EQ PUSH2 0x74E JUMPI DUP1 PUSH4 0x317B0B77 EQ PUSH2 0x76D JUMPI DUP1 PUSH4 0x363C05BE EQ PUSH2 0x78A JUMPI DUP1 PUSH4 0x3BCF7EC1 EQ PUSH2 0x5F8 JUMPI DUP1 PUSH4 0x3C94786F EQ PUSH2 0x7B0 JUMPI PUSH2 0x45F JUMP JUMPDEST DUP1 PUSH4 0x21AF4569 EQ PUSH2 0x6E0 JUMPI DUP1 PUSH4 0x24008A62 EQ PUSH2 0x6E8 JUMPI DUP1 PUSH4 0x248FB15C EQ PUSH2 0x736 JUMPI DUP1 PUSH4 0x24A3D622 EQ PUSH2 0x73E JUMPI DUP1 PUSH4 0x26782247 EQ PUSH2 0x746 JUMPI PUSH2 0x45F JUMP JUMPDEST DUP1 PUSH4 0x18C882A5 GT PUSH2 0x432 JUMPI DUP1 PUSH4 0x18C882A5 EQ PUSH2 0x5F8 JUMPI DUP1 PUSH4 0x1D2F6141 EQ PUSH2 0x626 JUMPI DUP1 PUSH4 0x1D504DC6 EQ PUSH2 0x652 JUMPI DUP1 PUSH4 0x1EDEDC91 EQ PUSH2 0x678 JUMPI DUP1 PUSH4 0x1F408A75 EQ PUSH2 0x6BA JUMPI PUSH2 0x45F JUMP JUMPDEST DUP1 PUSH4 0x6C933D8 EQ PUSH2 0x464 JUMPI DUP1 PUSH4 0xB2EFED6 EQ PUSH2 0x49E JUMPI DUP1 PUSH4 0xB8851EE EQ PUSH2 0x4C2 JUMPI DUP1 PUSH4 0x13BE693B EQ PUSH2 0x5F0 JUMPI JUMPDEST PUSH1 0x0 DUP1 REVERT JUMPDEST PUSH2 0x48A PUSH1 0x4 DUP1 CALLDATASIZE SUB PUSH1 0x20 DUP2 LT ISZERO PUSH2 0x47A JUMPI PUSH1 0x0 DUP1 REVERT JUMPDEST POP CALLDATALOAD PUSH1 0x1 PUSH1 0x1 PUSH1 0xA0 SHL SUB AND PUSH2 0xF0E JUMP JUMPDEST PUSH1 0x40 DUP1 MLOAD SWAP2 ISZERO ISZERO DUP3 MSTORE MLOAD SWAP1 DUP2 SWAP1 SUB PUSH1 0x20 ADD SWAP1 RETURN JUMPDEST PUSH2 0x4A6 PUSH2 0xF23 JUMP JUMPDEST PUSH1 0x40 DUP1 MLOAD PUSH1 0x1 PUSH1 0x1 PUSH1 0xA0 SHL SUB SWAP1 SWAP3 AND DUP3 MSTORE MLOAD SWAP1 DUP2 SWAP1 SUB PUSH1 0x20 ADD SWAP1 RETURN JUMPDEST PUSH2 0x5EE PUSH1 0x4 DUP1 CALLDATASIZE SUB PUSH1 0x80 DUP2 LT ISZERO PUSH2 0x4D8 JUMPI PUSH1 0x0 DUP1 REVERT JUMPDEST DUP2 ADD SWAP1 PUSH1 0x20 DUP2 ADD DUP2 CALLDATALOAD PUSH1 0x1 PUSH1 0x20 SHL DUP2 GT ISZERO PUSH2 0x4F2 JUMPI PUSH1 0x0 DUP1 REVERT JUMPDEST DUP3 ADD DUP4 PUSH1 0x20 DUP3 ADD GT ISZERO PUSH2 0x504 JUMPI PUSH1 0x0 DUP1 REVERT JUMPDEST DUP1 CALLDATALOAD SWAP1 PUSH1 0x20 ADD SWAP2 DUP5 PUSH1 0x20 DUP4 MUL DUP5 ADD GT PUSH1 0x1 PUSH1 0x20 SHL DUP4 GT OR ISZERO PUSH2 0x525 JUMPI PUSH1 0x0 DUP1 REVERT JUMPDEST SWAP2 SWAP1 DUP1 DUP1 PUSH1 0x20 MUL PUSH1 0x20 ADD PUSH1 0x40 MLOAD SWAP1 DUP2 ADD PUSH1 0x40 MSTORE DUP1 SWAP4 SWAP3 SWAP2 SWAP1 DUP2 DUP2 MSTORE PUSH1 0x20 ADD DUP4 DUP4 PUSH1 0x20 MUL DUP1 DUP3 DUP5 CALLDATACOPY PUSH1 0x0 SWAP3 ADD SWAP2 SWAP1 SWAP2 MSTORE POP SWAP3 SWAP6 SWAP5 SWAP4 PUSH1 0x20 DUP2 ADD SWAP4 POP CALLDATALOAD SWAP2 POP POP PUSH1 0x1 PUSH1 0x20 SHL DUP2 GT ISZERO PUSH2 0x574 JUMPI PUSH1 0x0 DUP1 REVERT JUMPDEST DUP3 ADD DUP4 PUSH1 0x20 DUP3 ADD GT ISZERO PUSH2 0x586 JUMPI PUSH1 0x0 DUP1 REVERT JUMPDEST DUP1 CALLDATALOAD SWAP1 PUSH1 0x20 ADD SWAP2 DUP5 PUSH1 0x20 DUP4 MUL DUP5 ADD GT PUSH1 0x1 PUSH1 0x20 SHL DUP4 GT OR ISZERO PUSH2 0x5A7 JUMPI PUSH1 0x0 DUP1 REVERT JUMPDEST SWAP2 SWAP1 DUP1 DUP1 PUSH1 0x20 MUL PUSH1 0x20 ADD PUSH1 0x40 MLOAD SWAP1 DUP2 ADD PUSH1 0x40 MSTORE DUP1 SWAP4 SWAP3 SWAP2 SWAP1 DUP2 DUP2 MSTORE PUSH1 0x20 ADD DUP4 DUP4 PUSH1 0x20 MUL DUP1 DUP3 DUP5 CALLDATACOPY PUSH1 0x0 SWAP3 ADD SWAP2 SWAP1 SWAP2 MSTORE POP SWAP3 SWAP6 POP POP POP POP DUP1 CALLDATALOAD ISZERO ISZERO SWAP2 POP PUSH1 0x20 ADD CALLDATALOAD ISZERO ISZERO PUSH2 0xF32 JUMP JUMPDEST STOP JUMPDEST PUSH2 0x4A6 PUSH2 0xF38 JUMP JUMPDEST PUSH2 0x48A PUSH1 0x4 DUP1 CALLDATASIZE SUB PUSH1 0x40 DUP2 LT ISZERO PUSH2 0x60E JUMPI PUSH1 0x0 DUP1 REVERT JUMPDEST POP PUSH1 0x1 PUSH1 0x1 PUSH1 0xA0 SHL SUB DUP2 CALLDATALOAD AND SWAP1 PUSH1 0x20 ADD CALLDATALOAD ISZERO ISZERO PUSH2 0xF47 JUMP JUMPDEST PUSH2 0x5EE PUSH1 0x4 DUP1 CALLDATASIZE SUB PUSH1 0x40 DUP2 LT ISZERO PUSH2 0x63C JUMPI PUSH1 0x0 DUP1 REVERT JUMPDEST POP PUSH1 0x1 PUSH1 0x1 PUSH1 0xA0 SHL SUB DUP2 CALLDATALOAD AND SWAP1 PUSH1 0x20 ADD CALLDATALOAD PUSH2 0xF4C JUMP JUMPDEST PUSH2 0x5EE PUSH1 0x4 DUP1 CALLDATASIZE SUB PUSH1 0x20 DUP2 LT ISZERO PUSH2 0x668 JUMPI PUSH1 0x0 DUP1 REVERT JUMPDEST POP CALLDATALOAD PUSH1 0x1 PUSH1 0x1 PUSH1 0xA0 SHL SUB AND PUSH2 0xF50 JUMP JUMPDEST PUSH2 0x5EE PUSH1 0x4 DUP1 CALLDATASIZE SUB PUSH1 0xA0 DUP2 LT ISZERO PUSH2 0x68E JUMPI PUSH1 0x0 DUP1 REVERT JUMPDEST POP PUSH1 0x1 PUSH1 0x1 PUSH1 0xA0 SHL SUB DUP2 CALLDATALOAD DUP2 AND SWAP2 PUSH1 0x20 DUP2 ADD CALLDATALOAD DUP3 AND SWAP2 PUSH1 0x40 DUP3 ADD CALLDATALOAD AND SWAP1 PUSH1 0x60 DUP2 ADD CALLDATALOAD SWAP1 PUSH1 0x80 ADD CALLDATALOAD PUSH2 0xF53 JUMP JUMPDEST PUSH2 0x5EE PUSH1 0x4 DUP1 CALLDATASIZE SUB PUSH1 0x20 DUP2 LT ISZERO PUSH2 0x6D0 JUMPI PUSH1 0x0 DUP1 REVERT JUMPDEST POP CALLDATALOAD PUSH1 0x1 PUSH1 0x1 PUSH1 0xA0 SHL SUB AND PUSH2 0xF5A JUMP JUMPDEST PUSH2 0x4A6 PUSH2 0xF7C JUMP JUMPDEST PUSH2 0x724 PUSH1 0x4 DUP1 CALLDATASIZE SUB PUSH1 0x80 DUP2 LT ISZERO PUSH2 0x6FE JUMPI PUSH1 0x0 DUP1 REVERT JUMPDEST POP PUSH1 0x1 PUSH1 0x1 PUSH1 0xA0 SHL SUB DUP2 CALLDATALOAD DUP2 AND SWAP2 PUSH1 0x20 DUP2 ADD CALLDATALOAD DUP3 AND SWAP2 PUSH1 0x40 DUP3 ADD CALLDATALOAD AND SWAP1 PUSH1 0x60 ADD CALLDATALOAD PUSH2 0xF8B JUMP JUMPDEST PUSH1 0x40 DUP1 MLOAD SWAP2 DUP3 MSTORE MLOAD SWAP1 DUP2 SWAP1 SUB PUSH1 0x20 ADD SWAP1 RETURN JUMPDEST PUSH2 0x724 PUSH2 0xF95 JUMP JUMPDEST PUSH2 0x4A6 PUSH2 0xF9B JUMP JUMPDEST PUSH2 0x4A6 PUSH2 0xFAA JUMP JUMPDEST PUSH2 0x48A PUSH1 0x4 DUP1 CALLDATASIZE SUB PUSH1 0x20 DUP2 LT ISZERO PUSH2 0x764 JUMPI PUSH1 0x0 DUP1 REVERT JUMPDEST POP CALLDATALOAD ISZERO ISZERO PUSH2 0xFB9 JUMP JUMPDEST PUSH2 0x724 PUSH1 0x4 DUP1 CALLDATASIZE SUB PUSH1 0x20 DUP2 LT ISZERO PUSH2 0x783 JUMPI PUSH1 0x0 DUP1 REVERT JUMPDEST POP CALLDATALOAD PUSH2 0xFBC JUMP JUMPDEST PUSH2 0x724 PUSH1 0x4 DUP1 CALLDATASIZE SUB PUSH1 0x20 DUP2 LT ISZERO PUSH2 0x7A0 JUMPI PUSH1 0x0 DUP1 REVERT JUMPDEST POP CALLDATALOAD PUSH1 0x1 PUSH1 0x1 PUSH1 0xA0 SHL SUB AND PUSH2 0xFC2 JUMP JUMPDEST PUSH2 0x48A PUSH2 0xFD4 JUMP JUMPDEST PUSH2 0x724 PUSH1 0x4 DUP1 CALLDATASIZE SUB PUSH1 0x20 DUP2 LT ISZERO PUSH2 0x7CE JUMPI PUSH1 0x0 DUP1 REVERT JUMPDEST POP CALLDATALOAD PUSH1 0x1 PUSH1 0x1 PUSH1 0xA0 SHL SUB AND PUSH2 0xFE4 JUMP JUMPDEST PUSH2 0x5EE PUSH1 0x4 DUP1 CALLDATASIZE SUB PUSH1 0x80 DUP2 LT ISZERO PUSH2 0x7F4 JUMPI PUSH1 0x0 DUP1 REVERT JUMPDEST POP PUSH1 0x1 PUSH1 0x1 PUSH1 0xA0 SHL SUB DUP2 CALLDATALOAD DUP2 AND SWAP2 PUSH1 0x20 DUP2 ADD CALLDATALOAD SWAP1 SWAP2 AND SWAP1 PUSH1 0x40 DUP2 ADD CALLDATALOAD SWAP1 PUSH1 0x60 ADD CALLDATALOAD PUSH2 0xF32 JUMP JUMPDEST PUSH2 0x724 PUSH2 0xFF6 JUMP JUMPDEST PUSH2 0x848 PUSH1 0x4 DUP1 CALLDATASIZE SUB PUSH1 0x20 DUP2 LT ISZERO PUSH2 0x838 JUMPI PUSH1 0x0 DUP1 REVERT JUMPDEST POP CALLDATALOAD PUSH1 0x1 PUSH1 0x1 PUSH1 0xA0 SHL SUB AND PUSH2 0xFFA JUMP JUMPDEST PUSH1 0x40 DUP1 MLOAD PUSH1 0x1 PUSH1 0x1 PUSH1 0xE0 SHL SUB SWAP1 SWAP4 AND DUP4 MSTORE PUSH4 0xFFFFFFFF SWAP1 SWAP2 AND PUSH1 0x20 DUP4 ADD MSTORE DUP1 MLOAD SWAP2 DUP3 SWAP1 SUB ADD SWAP1 RETURN JUMPDEST PUSH2 0x5EE PUSH1 0x4 DUP1 CALLDATASIZE SUB PUSH1 0xC0 DUP2 LT ISZERO PUSH2 0x886 JUMPI PUSH1 0x0 DUP1 REVERT JUMPDEST POP PUSH1 0x1 PUSH1 0x1 PUSH1 0xA0 SHL SUB DUP2 CALLDATALOAD DUP2 AND SWAP2 PUSH1 0x20 DUP2 ADD CALLDATALOAD DUP3 AND SWAP2 PUSH1 0x40 DUP3 ADD CALLDATALOAD DUP2 AND SWAP2 PUSH1 0x60 DUP2 ADD CALLDATALOAD SWAP1 SWAP2 AND SWAP1 PUSH1 0x80 DUP2 ADD CALLDATALOAD SWAP1 PUSH1 0xA0 ADD CALLDATALOAD PUSH2 0x1024 JUMP JUMPDEST PUSH2 0x724 PUSH1 0x4 DUP1 CALLDATASIZE SUB PUSH1 0x20 DUP2 LT ISZERO PUSH2 0x8D2 JUMPI PUSH1 0x0 DUP1 REVERT JUMPDEST POP CALLDATALOAD PUSH1 0x1 PUSH1 0x1 PUSH1 0xA0 SHL SUB AND PUSH2 0x102C JUMP JUMPDEST PUSH2 0x724 PUSH2 0x103E JUMP JUMPDEST PUSH2 0x724 PUSH1 0x4 DUP1 CALLDATASIZE SUB PUSH1 0x60 DUP2 LT ISZERO PUSH2 0x900 JUMPI PUSH1 0x0 DUP1 REVERT JUMPDEST POP PUSH1 0x1 PUSH1 0x1 PUSH1 0xA0 SHL SUB DUP2 CALLDATALOAD DUP2 AND SWAP2 PUSH1 0x20 DUP2 ADD CALLDATALOAD SWAP1 SWAP2 AND SWAP1 PUSH1 0x40 ADD CALLDATALOAD PUSH2 0x1044 JUMP JUMPDEST PUSH2 0x4A6 PUSH1 0x4 DUP1 CALLDATASIZE SUB PUSH1 0x20 DUP2 LT ISZERO PUSH2 0x936 JUMPI PUSH1 0x0 DUP1 REVERT JUMPDEST POP CALLDATALOAD PUSH2 0x104D JUMP JUMPDEST PUSH2 0x724 PUSH1 0x4 DUP1 CALLDATASIZE SUB PUSH1 0x20 DUP2 LT ISZERO PUSH2 0x953 JUMPI PUSH1 0x0 DUP1 REVERT JUMPDEST POP CALLDATALOAD PUSH1 0x1 PUSH1 0x1 PUSH1 0xA0 SHL SUB AND PUSH2 0xFBC JUMP JUMPDEST PUSH2 0x5EE PUSH1 0x4 DUP1 CALLDATASIZE SUB PUSH1 0x60 DUP2 LT ISZERO PUSH2 0x979 JUMPI PUSH1 0x0 DUP1 REVERT JUMPDEST POP PUSH1 0x1 PUSH1 0x1 PUSH1 0xA0 SHL SUB DUP2 CALLDATALOAD DUP2 AND SWAP2 PUSH1 0x20 DUP2 ADD CALLDATALOAD SWAP1 SWAP2 AND SWAP1 PUSH1 0x40 ADD CALLDATALOAD PUSH2 0x1074 JUMP JUMPDEST PUSH2 0x724 PUSH1 0x4 DUP1 CALLDATASIZE SUB PUSH1 0xA0 DUP2 LT ISZERO PUSH2 0x9AF JUMPI PUSH1 0x0 DUP1 REVERT JUMPDEST POP PUSH1 0x1 PUSH1 0x1 PUSH1 0xA0 SHL SUB DUP2 CALLDATALOAD DUP2 AND SWAP2 PUSH1 0x20 DUP2 ADD CALLDATALOAD DUP3 AND SWAP2 PUSH1 0x40 DUP3 ADD CALLDATALOAD DUP2 AND SWAP2 PUSH1 0x60 DUP2 ADD CALLDATALOAD SWAP1 SWAP2 AND SWAP1 PUSH1 0x80 ADD CALLDATALOAD PUSH2 0x1079 JUMP JUMPDEST PUSH2 0x724 PUSH1 0x4 DUP1 CALLDATASIZE SUB PUSH1 0x20 DUP2 LT ISZERO PUSH2 0x9F5 JUMPI PUSH1 0x0 DUP1 REVERT JUMPDEST POP CALLDATALOAD PUSH1 0x1 PUSH1 0x1 PUSH1 0xA0 SHL SUB AND PUSH2 0x1084 JUMP JUMPDEST PUSH2 0x724 PUSH1 0x4 DUP1 CALLDATASIZE SUB PUSH1 0x40 DUP2 LT ISZERO PUSH2 0xA1B JUMPI PUSH1 0x0 DUP1 REVERT JUMPDEST POP PUSH1 0x1 PUSH1 0x1 PUSH1 0xA0 SHL SUB DUP2 CALLDATALOAD DUP2 AND SWAP2 PUSH1 0x20 ADD CALLDATALOAD AND PUSH2 0x1096 JUMP JUMPDEST PUSH2 0x5EE PUSH1 0x4 DUP1 CALLDATASIZE SUB PUSH1 0x20 DUP2 LT ISZERO PUSH2 0xA49 JUMPI PUSH1 0x0 DUP1 REVERT JUMPDEST POP CALLDATALOAD ISZERO ISZERO PUSH2 0x10B3 JUMP JUMPDEST PUSH2 0x5EE PUSH1 0x4 DUP1 CALLDATASIZE SUB PUSH1 0x40 DUP2 LT ISZERO PUSH2 0xA68 JUMPI PUSH1 0x0 DUP1 REVERT JUMPDEST PUSH1 0x1 PUSH1 0x1 PUSH1 0xA0 SHL SUB DUP3 CALLDATALOAD AND SWAP2 SWAP1 DUP2 ADD SWAP1 PUSH1 0x40 DUP2 ADD PUSH1 0x20 DUP3 ADD CALLDATALOAD PUSH1 0x1 PUSH1 0x20 SHL DUP2 GT ISZERO PUSH2 0xA92 JUMPI PUSH1 0x0 DUP1 REVERT JUMPDEST DUP3 ADD DUP4 PUSH1 0x20 DUP3 ADD GT ISZERO PUSH2 0xAA4 JUMPI PUSH1 0x0 DUP1 REVERT JUMPDEST DUP1 CALLDATALOAD SWAP1 PUSH1 0x20 ADD SWAP2 DUP5 PUSH1 0x20 DUP4 MUL DUP5 ADD GT PUSH1 0x1 PUSH1 0x20 SHL DUP4 GT OR ISZERO PUSH2 0xAC5 JUMPI PUSH1 0x0 DUP1 REVERT JUMPDEST SWAP2 SWAP1 DUP1 DUP1 PUSH1 0x20 MUL PUSH1 0x20 ADD PUSH1 0x40 MLOAD SWAP1 DUP2 ADD PUSH1 0x40 MSTORE DUP1 SWAP4 SWAP3 SWAP2 SWAP1 DUP2 DUP2 MSTORE PUSH1 0x20 ADD DUP4 DUP4 PUSH1 0x20 MUL DUP1 DUP3 DUP5 CALLDATACOPY PUSH1 0x0 SWAP3 ADD SWAP2 SWAP1 SWAP2 MSTORE POP SWAP3 SWAP6 POP PUSH2 0xF4C SWAP5 POP POP POP POP POP JUMP JUMPDEST PUSH2 0x5EE PUSH1 0x4 DUP1 CALLDATASIZE SUB PUSH1 0x80 DUP2 LT ISZERO PUSH2 0xB19 JUMPI PUSH1 0x0 DUP1 REVERT JUMPDEST POP PUSH1 0x1 PUSH1 0x1 PUSH1 0xA0 SHL SUB DUP2 CALLDATALOAD DUP2 AND SWAP2 PUSH1 0x20 DUP2 ADD CALLDATALOAD DUP3 AND SWAP2 PUSH1 0x40 DUP3 ADD CALLDATALOAD AND SWAP1 PUSH1 0x60 ADD CALLDATALOAD PUSH2 0xF32 JUMP JUMPDEST PUSH2 0x48A PUSH1 0x4 DUP1 CALLDATASIZE SUB PUSH1 0x20 DUP2 LT ISZERO PUSH2 0xB55 JUMPI PUSH1 0x0 DUP1 REVERT JUMPDEST POP CALLDATALOAD PUSH1 0x1 PUSH1 0x1 PUSH1 0xA0 SHL SUB AND PUSH2 0x10D1 JUMP JUMPDEST PUSH2 0x5EE PUSH1 0x4 DUP1 CALLDATASIZE SUB PUSH1 0xA0 DUP2 LT ISZERO PUSH2 0xB7B JUMPI PUSH1 0x0 DUP1 REVERT JUMPDEST POP PUSH1 0x1 PUSH1 0x1 PUSH1 0xA0 SHL SUB DUP2 CALLDATALOAD DUP2 AND SWAP2 PUSH1 0x20 DUP2 ADD CALLDATALOAD DUP3 AND SWAP2 PUSH1 0x40 DUP3 ADD CALLDATALOAD DUP2 AND SWAP2 PUSH1 0x60 DUP2 ADD CALLDATALOAD SWAP1 SWAP2 AND SWAP1 PUSH1 0x80 ADD CALLDATALOAD PUSH2 0xF53 JUMP JUMPDEST PUSH2 0x48A PUSH1 0x4 DUP1 CALLDATASIZE SUB PUSH1 0x20 DUP2 LT ISZERO PUSH2 0xBC1 JUMPI PUSH1 0x0 DUP1 REVERT JUMPDEST POP CALLDATALOAD PUSH1 0x1 PUSH1 0x1 PUSH1 0xA0 SHL SUB AND PUSH2 0x10E6 JUMP JUMPDEST PUSH2 0x4A6 PUSH2 0x10FB JUMP JUMPDEST PUSH2 0x4A6 PUSH2 0x110A JUMP JUMPDEST PUSH2 0x48A PUSH2 0x1119 JUMP JUMPDEST PUSH2 0xC0F PUSH1 0x4 DUP1 CALLDATASIZE SUB PUSH1 0x20 DUP2 LT ISZERO PUSH2 0xBFF JUMPI PUSH1 0x0 DUP1 REVERT JUMPDEST POP CALLDATALOAD PUSH1 0x1 PUSH1 0x1 PUSH1 0xA0 SHL SUB AND PUSH2 0x1129 JUMP JUMPDEST PUSH1 0x40 DUP1 MLOAD SWAP4 ISZERO ISZERO DUP5 MSTORE PUSH1 0x20 DUP5 ADD SWAP3 SWAP1 SWAP3 MSTORE ISZERO ISZERO DUP3 DUP3 ADD MSTORE MLOAD SWAP1 DUP2 SWAP1 SUB PUSH1 0x60 ADD SWAP1 RETURN JUMPDEST PUSH2 0x48A PUSH1 0x4 DUP1 CALLDATASIZE SUB PUSH1 0x40 DUP2 LT ISZERO PUSH2 0xC47 JUMPI PUSH1 0x0 DUP1 REVERT JUMPDEST POP PUSH1 0x1 PUSH1 0x1 PUSH1 0xA0 SHL SUB DUP2 CALLDATALOAD DUP2 AND SWAP2 PUSH1 0x20 ADD CALLDATALOAD AND PUSH2 0x114F JUMP JUMPDEST PUSH2 0x48A PUSH1 0x4 DUP1 CALLDATASIZE SUB PUSH1 0x20 DUP2 LT ISZERO PUSH2 0x953 JUMPI PUSH1 0x0 DUP1 REVERT JUMPDEST PUSH2 0x724 PUSH2 0x1157 JUMP JUMPDEST PUSH2 0x724 PUSH1 0x4 DUP1 CALLDATASIZE SUB PUSH1 0x20 DUP2 LT ISZERO PUSH2 0xC93 JUMPI PUSH1 0x0 DUP1 REVERT JUMPDEST POP CALLDATALOAD PUSH1 0x1 PUSH1 0x1 PUSH1 0xA0 SHL SUB AND PUSH2 0x115D JUMP JUMPDEST PUSH2 0x48A PUSH2 0x116F JUMP JUMPDEST PUSH2 0xCD1 PUSH1 0x4 DUP1 CALLDATASIZE SUB PUSH1 0x20 DUP2 LT ISZERO PUSH2 0xCC1 JUMPI PUSH1 0x0 DUP1 REVERT JUMPDEST POP CALLDATALOAD PUSH1 0x1 PUSH1 0x1 PUSH1 0xA0 SHL SUB AND PUSH2 0x1174 JUMP JUMPDEST PUSH1 0x40 DUP1 MLOAD PUSH1 0x20 DUP1 DUP3 MSTORE DUP4 MLOAD DUP2 DUP4 ADD MSTORE DUP4 MLOAD SWAP2 SWAP3 DUP4 SWAP3 SWAP1 DUP4 ADD SWAP2 DUP6 DUP2 ADD SWAP2 MUL DUP1 DUP4 DUP4 PUSH1 0x0 JUMPDEST DUP4 DUP2 LT ISZERO PUSH2 0xD0D JUMPI DUP2 DUP2 ADD MLOAD DUP4 DUP3 ADD MSTORE PUSH1 0x20 ADD PUSH2 0xCF5 JUMP JUMPDEST POP POP POP POP SWAP1 POP ADD SWAP3 POP POP POP PUSH1 0x40 MLOAD DUP1 SWAP2 SUB SWAP1 RETURN JUMPDEST PUSH2 0x48A PUSH2 0x1187 JUMP JUMPDEST PUSH2 0x724 PUSH1 0x4 DUP1 CALLDATASIZE SUB PUSH1 0x40 DUP2 LT ISZERO PUSH2 0xD3F JUMPI PUSH1 0x0 DUP1 REVERT JUMPDEST POP PUSH1 0x1 PUSH1 0x1 PUSH1 0xA0 SHL SUB DUP2 CALLDATALOAD DUP2 AND SWAP2 PUSH1 0x20 ADD CALLDATALOAD AND PUSH2 0x1197 JUMP JUMPDEST PUSH2 0xCD1 PUSH2 0x11B4 JUMP JUMPDEST PUSH2 0x848 PUSH1 0x4 DUP1 CALLDATASIZE SUB PUSH1 0x20 DUP2 LT ISZERO PUSH2 0xD75 JUMPI PUSH1 0x0 DUP1 REVERT JUMPDEST POP CALLDATALOAD PUSH1 0x1 PUSH1 0x1 PUSH1 0xA0 SHL SUB AND PUSH2 0x11C6 JUMP JUMPDEST PUSH2 0x724 PUSH1 0x4 DUP1 CALLDATASIZE SUB PUSH1 0x20 DUP2 LT ISZERO PUSH2 0xD9B JUMPI PUSH1 0x0 DUP1 REVERT JUMPDEST POP CALLDATALOAD PUSH1 0x1 PUSH1 0x1 PUSH1 0xA0 SHL SUB AND PUSH2 0x11F0 JUMP JUMPDEST PUSH2 0xCD1 PUSH1 0x4 DUP1 CALLDATASIZE SUB PUSH1 0x20 DUP2 LT ISZERO PUSH2 0xDC1 JUMPI PUSH1 0x0 DUP1 REVERT JUMPDEST DUP2 ADD SWAP1 PUSH1 0x20 DUP2 ADD DUP2 CALLDATALOAD PUSH1 0x1 PUSH1 0x20 SHL DUP2 GT ISZERO PUSH2 0xDDB JUMPI PUSH1 0x0 DUP1 REVERT JUMPDEST DUP3 ADD DUP4 PUSH1 0x20 DUP3 ADD GT ISZERO PUSH2 0xDED JUMPI PUSH1 0x0 DUP1 REVERT JUMPDEST DUP1 CALLDATALOAD SWAP1 PUSH1 0x20 ADD SWAP2 DUP5 PUSH1 0x20 DUP4 MUL DUP5 ADD GT PUSH1 0x1 PUSH1 0x20 SHL DUP4 GT OR ISZERO PUSH2 0xE0E JUMPI PUSH1 0x0 DUP1 REVERT JUMPDEST POP SWAP1 SWAP3 POP SWAP1 POP PUSH2 0x1202 JUMP JUMPDEST PUSH2 0xE4F PUSH1 0x4 DUP1 CALLDATASIZE SUB PUSH1 0x60 DUP2 LT ISZERO PUSH2 0xE2F JUMPI PUSH1 0x0 DUP1 REVERT JUMPDEST POP PUSH1 0x1 PUSH1 0x1 PUSH1 0xA0 SHL SUB DUP2 CALLDATALOAD DUP2 AND SWAP2 PUSH1 0x20 DUP2 ADD CALLDATALOAD SWAP1 SWAP2 AND SWAP1 PUSH1 0x40 ADD CALLDATALOAD PUSH2 0x123B JUMP JUMPDEST PUSH1 0x40 DUP1 MLOAD SWAP3 DUP4 MSTORE PUSH1 0x20 DUP4 ADD SWAP2 SWAP1 SWAP2 MSTORE DUP1 MLOAD SWAP2 DUP3 SWAP1 SUB ADD SWAP1 RETURN JUMPDEST PUSH2 0x724 PUSH1 0x4 DUP1 CALLDATASIZE SUB PUSH1 0x40 DUP2 LT ISZERO PUSH2 0xE7E JUMPI PUSH1 0x0 DUP1 REVERT JUMPDEST POP PUSH1 0x1 PUSH1 0x1 PUSH1 0xA0 SHL SUB DUP2 CALLDATALOAD DUP2 AND SWAP2 PUSH1 0x20 ADD CALLDATALOAD AND PUSH2 0x1246 JUMP JUMPDEST PUSH2 0x4A6 PUSH1 0x4 DUP1 CALLDATASIZE SUB PUSH1 0x40 DUP2 LT ISZERO PUSH2 0xEAC JUMPI PUSH1 0x0 DUP1 REVERT JUMPDEST POP PUSH1 0x1 PUSH1 0x1 PUSH1 0xA0 SHL SUB DUP2 CALLDATALOAD AND SWAP1 PUSH1 0x20 ADD CALLDATALOAD PUSH2 0x1263 JUMP JUMPDEST PUSH2 0x724 PUSH1 0x4 DUP1 CALLDATASIZE SUB PUSH1 0x40 DUP2 LT ISZERO PUSH2 0xED8 JUMPI PUSH1 0x0 DUP1 REVERT JUMPDEST POP PUSH1 0x1 PUSH1 0x1 PUSH1 0xA0 SHL SUB DUP2 CALLDATALOAD AND SWAP1 PUSH1 0x20 ADD CALLDATALOAD PUSH2 0x1298 JUMP JUMPDEST PUSH2 0x48A PUSH2 0x12A0 JUMP JUMPDEST PUSH2 0x724 PUSH2 0x12B0 JUMP JUMPDEST PUSH2 0x4A6 PUSH2 0x12B6 JUMP JUMPDEST PUSH2 0x48A PUSH2 0x12C5 JUMP JUMPDEST PUSH1 0x1A PUSH1 0x20 MSTORE PUSH1 0x0 SWAP1 DUP2 MSTORE PUSH1 0x40 SWAP1 KECCAK256 SLOAD PUSH1 0xFF AND DUP2 JUMP JUMPDEST PUSH1 0x3 SLOAD PUSH1 0x1 PUSH1 0x1 PUSH1 0xA0 SHL SUB AND DUP2 JUMP JUMPDEST POP POP POP POP JUMP JUMPDEST PUSH1 0x19 SLOAD PUSH1 0x1 PUSH1 0x1 PUSH1 0xA0 SHL SUB AND SWAP1 JUMP JUMPDEST SWAP2 SWAP1 POP JUMP JUMPDEST POP POP JUMP JUMPDEST POP JUMP JUMPDEST POP POP POP POP POP JUMP JUMPDEST PUSH1 0x19 DUP1 SLOAD PUSH1 0x1 PUSH1 0x1 PUSH1 0xA0 SHL SUB NOT AND PUSH1 0x1 PUSH1 0x1 PUSH1 0xA0 SHL SUB SWAP3 SWAP1 SWAP3 AND SWAP2 SWAP1 SWAP2 OR SWAP1 SSTORE JUMP JUMPDEST PUSH1 0x15 SLOAD PUSH1 0x1 PUSH1 0x1 PUSH1 0xA0 SHL SUB AND DUP2 JUMP JUMPDEST PUSH1 0x0 SWAP5 SWAP4 POP POP POP POP JUMP JUMPDEST PUSH1 0xE SLOAD DUP2 JUMP JUMPDEST PUSH1 0xA SLOAD PUSH1 0x1 PUSH1 0x1 PUSH1 0xA0 SHL SUB AND DUP2 JUMP JUMPDEST PUSH1 0x1 SLOAD PUSH1 0x1 PUSH1 0x1 PUSH1 0xA0 SHL SUB AND DUP2 JUMP JUMPDEST SWAP1 JUMP JUMPDEST POP PUSH1 0x0 SWAP1 JUMP JUMPDEST PUSH1 0x17 PUSH1 0x20 MSTORE PUSH1 0x0 SWAP1 DUP2 MSTORE PUSH1 0x40 SWAP1 KECCAK256 SLOAD DUP2 JUMP JUMPDEST PUSH1 0xA SLOAD PUSH1 0x1 PUSH1 0xA0 SHL SWAP1 DIV PUSH1 0xFF AND DUP2 JUMP JUMPDEST PUSH1 0xF PUSH1 0x20 MSTORE PUSH1 0x0 SWAP1 DUP2 MSTORE PUSH1 0x40 SWAP1 KECCAK256 SLOAD DUP2 JUMP JUMPDEST NUMBER SWAP1 JUMP JUMPDEST PUSH1 0x11 PUSH1 0x20 MSTORE PUSH1 0x0 SWAP1 DUP2 MSTORE PUSH1 0x40 SWAP1 KECCAK256 SLOAD PUSH1 0x1 PUSH1 0x1 PUSH1 0xE0 SHL SUB DUP2 AND SWAP1 PUSH1 0x1 PUSH1 0xE0 SHL SWAP1 DIV PUSH4 0xFFFFFFFF AND DUP3 JUMP JUMPDEST POP POP POP POP POP POP JUMP JUMPDEST PUSH1 0x16 PUSH1 0x20 MSTORE PUSH1 0x0 SWAP1 DUP2 MSTORE PUSH1 0x40 SWAP1 KECCAK256 SLOAD DUP2 JUMP JUMPDEST PUSH1 0x6 SLOAD DUP2 JUMP JUMPDEST PUSH1 0x0 SWAP4 SWAP3 POP POP POP JUMP JUMPDEST PUSH1 0xD DUP2 DUP2 SLOAD DUP2 LT PUSH2 0x105A JUMPI INVALID JUMPDEST PUSH1 0x0 SWAP2 DUP3 MSTORE PUSH1 0x20 SWAP1 SWAP2 KECCAK256 ADD SLOAD PUSH1 0x1 PUSH1 0x1 PUSH1 0xA0 SHL SUB AND SWAP1 POP DUP2 JUMP JUMPDEST POP POP POP JUMP JUMPDEST PUSH1 0x0 SWAP6 SWAP5 POP POP POP POP POP JUMP JUMPDEST PUSH1 0x14 PUSH1 0x20 MSTORE PUSH1 0x0 SWAP1 DUP2 MSTORE PUSH1 0x40 SWAP1 KECCAK256 SLOAD DUP2 JUMP JUMPDEST PUSH1 0x1C PUSH1 0x20 SWAP1 DUP2 MSTORE PUSH1 0x0 SWAP3 DUP4 MSTORE PUSH1 0x40 DUP1 DUP5 KECCAK256 SWAP1 SWAP2 MSTORE SWAP1 DUP3 MSTORE SWAP1 KECCAK256 SLOAD DUP2 JUMP JUMPDEST PUSH1 0x19 DUP1 SLOAD SWAP2 ISZERO ISZERO PUSH1 0x1 PUSH1 0xA0 SHL MUL PUSH1 0xFF PUSH1 0xA0 SHL NOT SWAP1 SWAP3 AND SWAP2 SWAP1 SWAP2 OR SWAP1 SSTORE JUMP JUMPDEST PUSH1 0xC PUSH1 0x20 MSTORE PUSH1 0x0 SWAP1 DUP2 MSTORE PUSH1 0x40 SWAP1 KECCAK256 SLOAD PUSH1 0xFF AND DUP2 JUMP JUMPDEST PUSH1 0xB PUSH1 0x20 MSTORE PUSH1 0x0 SWAP1 DUP2 MSTORE PUSH1 0x40 SWAP1 KECCAK256 SLOAD PUSH1 0xFF AND DUP2 JUMP JUMPDEST PUSH1 0x2 SLOAD PUSH1 0x1 PUSH1 0x1 PUSH1 0xA0 SHL SUB AND DUP2 JUMP JUMPDEST PUSH1 0x4 SLOAD PUSH1 0x1 PUSH1 0x1 PUSH1 0xA0 SHL SUB AND DUP2 JUMP JUMPDEST PUSH1 0xA SLOAD PUSH1 0x1 PUSH1 0xB0 SHL SWAP1 DIV PUSH1 0xFF AND DUP2 JUMP JUMPDEST PUSH1 0x9 PUSH1 0x20 MSTORE PUSH1 0x0 SWAP1 DUP2 MSTORE PUSH1 0x40 SWAP1 KECCAK256 DUP1 SLOAD PUSH1 0x1 DUP3 ADD SLOAD PUSH1 0x3 SWAP1 SWAP3 ADD SLOAD PUSH1 0xFF SWAP2 DUP3 AND SWAP3 SWAP2 AND DUP4 JUMP JUMPDEST PUSH1 0x1 SWAP3 SWAP2 POP POP JUMP JUMPDEST PUSH1 0x7 SLOAD DUP2 JUMP JUMPDEST PUSH1 0x1B PUSH1 0x20 MSTORE PUSH1 0x0 SWAP1 DUP2 MSTORE PUSH1 0x40 SWAP1 KECCAK256 SLOAD DUP2 JUMP JUMPDEST PUSH1 0x1 DUP2 JUMP JUMPDEST POP PUSH1 0x40 DUP1 MLOAD PUSH1 0x0 DUP2 MSTORE PUSH1 0x20 DUP2 ADD SWAP1 SWAP2 MSTORE SWAP1 JUMP JUMPDEST PUSH1 0xA SLOAD PUSH1 0x1 PUSH1 0xB8 SHL SWAP1 DIV PUSH1 0xFF AND DUP2 JUMP JUMPDEST PUSH1 0x13 PUSH1 0x20 SWAP1 DUP2 MSTORE PUSH1 0x0 SWAP3 DUP4 MSTORE PUSH1 0x40 DUP1 DUP5 KECCAK256 SWAP1 SWAP2 MSTORE SWAP1 DUP3 MSTORE SWAP1 KECCAK256 SLOAD DUP2 JUMP JUMPDEST PUSH1 0x40 DUP1 MLOAD PUSH1 0x0 DUP2 MSTORE PUSH1 0x20 DUP2 ADD SWAP1 SWAP2 MSTORE SWAP1 JUMP JUMPDEST PUSH1 0x10 PUSH1 0x20 MSTORE PUSH1 0x0 SWAP1 DUP2 MSTORE PUSH1 0x40 SWAP1 KECCAK256 SLOAD PUSH1 0x1 PUSH1 0x1 PUSH1 0xE0 SHL SUB DUP2 AND SWAP1 PUSH1 0x1 PUSH1 0xE0 SHL SWAP1 DIV PUSH4 0xFFFFFFFF AND DUP3 JUMP JUMPDEST PUSH1 0x18 PUSH1 0x20 MSTORE PUSH1 0x0 SWAP1 DUP2 MSTORE PUSH1 0x40 SWAP1 KECCAK256 SLOAD DUP2 JUMP JUMPDEST PUSH1 0x60 DUP1 DUP4 DUP4 SWAP1 POP PUSH1 0x40 MLOAD SWAP1 DUP1 DUP3 MSTORE DUP1 PUSH1 0x20 MUL PUSH1 0x20 ADD DUP3 ADD PUSH1 0x40 MSTORE DUP1 ISZERO PUSH2 0x1232 JUMPI DUP2 PUSH1 0x20 ADD PUSH1 0x20 DUP3 MUL DUP1 CODESIZE DUP4 CODECOPY ADD SWAP1 POP JUMPDEST POP SWAP5 SWAP4 POP POP POP POP JUMP JUMPDEST PUSH1 0x0 DUP1 SWAP4 POP SWAP4 SWAP2 POP POP JUMP JUMPDEST PUSH1 0x12 PUSH1 0x20 SWAP1 DUP2 MSTORE PUSH1 0x0 SWAP3 DUP4 MSTORE PUSH1 0x40 DUP1 DUP5 KECCAK256 SWAP1 SWAP2 MSTORE SWAP1 DUP3 MSTORE SWAP1 KECCAK256 SLOAD DUP2 JUMP JUMPDEST PUSH1 0x8 PUSH1 0x20 MSTORE DUP2 PUSH1 0x0 MSTORE PUSH1 0x40 PUSH1 0x0 KECCAK256 DUP2 DUP2 SLOAD DUP2 LT PUSH2 0x127C JUMPI INVALID JUMPDEST PUSH1 0x0 SWAP2 DUP3 MSTORE PUSH1 0x20 SWAP1 SWAP2 KECCAK256 ADD SLOAD PUSH1 0x1 PUSH1 0x1 PUSH1 0xA0 SHL SUB AND SWAP2 POP DUP3 SWAP1 POP JUMP JUMPDEST PUSH1 0x0 SWAP3 SWAP2 POP POP JUMP JUMPDEST PUSH1 0xA SLOAD PUSH1 0x1 PUSH1 0xA8 SHL SWAP1 DIV PUSH1 0xFF AND DUP2 JUMP JUMPDEST PUSH1 0x5 SLOAD DUP2 JUMP JUMPDEST PUSH1 0x0 SLOAD PUSH1 0x1 PUSH1 0x1 PUSH1 0xA0 SHL SUB AND DUP2 JUMP JUMPDEST PUSH1 0x19 SLOAD PUSH1 0x1 PUSH1 0xA0 SHL SWAP1 DIV PUSH1 0xFF AND DUP2 JUMP INVALID LOG2 PUSH6 0x627A7A723158 KECCAK256 LT STOP 0x27 DUP7 PUSH28 0xF3324B7DCD1C22F3A21825DD426A4B5EB199E10450A7C926BCD5EE64 PUSH20 0x6F6C634300051000320000000000000000000000 "},"methodIdentifiers":{"_become(address)":"1d504dc6","_borrowGuardianPaused()":"e6653f3d","_grantTonic(address,uint256)":"40f2117c","_mintGuardianPaused()":"3c94786f","_setBorrowPaused(address,bool)":"18c882a5","_setCloseFactor(uint256)":"317b0b77","_setCollateralFactor(address,uint256)":"e4028eee","_setContributorTonicSpeed(address,uint256)":"a34dd666","_setLiquidationIncentive(uint256)":"4fd42e17","_setMintPaused(address,bool)":"3bcf7ec1","_setPauseGuardian(address)":"5f5af1aa","_setPriceOracle(address)":"55ee1fe1","_setSeizePaused(bool)":"2d70db78","_setTonicSpeed(address,uint256)":"1d2f6141","_setTransferPaused(bool)":"8ebf6364","_setWhitelistProtect(bool)":"683b3f91","_supportMarket(address)":"a76b3fda","accountAssets(address,uint256)":"dce15449","admin()":"f851a440","allMarkets(uint256)":"52d84d1e","borrowAllowed(address,address,uint256)":"da3d454c","borrowCapGuardian()":"21af4569","borrowCaps(address)":"4a584432","borrowGuardianPaused(address)":"6d154ea5","borrowVerify(address,address,uint256)":"5c778605","checkMembership(address,address)":"929fe9a1","claimTonic(address)":"63eb0a4d","claimTonic(address,address[])":"693feb5b","claimTonic(address[],address[],bool,bool)":"0b8851ee","closeFactorMantissa()":"e8755446","enterMarkets(address[])":"c2998238","exitMarket(address)":"ede4edd0","getAllMarkets()":"b0772d0b","getAssetsIn(address)":"abfceffc","getBlockNumber()":"42cbb15c","getTonicAddress()":"13be693b","isDeprecated(address)":"94543c15","isTectonicCore()":"a6df963f","lastContributorBlock(address)":"bea6b8b8","liquidateBorrowAllowed(address,address,address,address,uint256)":"5fc7e71e","liquidateBorrowVerify(address,address,address,address,uint256,uint256)":"47ef3b3b","liquidateCalculateSeizeTokens(address,address,uint256)":"c488847b","liquidationIncentiveMantissa()":"4ada90af","markets(address)":"8e8f294b","maxAssets()":"94b2294b","mintAllowed(address,address,uint256)":"4ef4c3e1","mintGuardianPaused(address)":"731f0c2b","mintVerify(address,address,uint256,uint256)":"41c728b9","oracle()":"7dc0d1d0","pauseGuardian()":"24a3d622","pendingAdmin()":"26782247","pendingTectonicCoreImplementation()":"0b2efed6","redeemAllowed(address,address,uint256)":"eabe7d91","redeemVerify(address,address,uint256,uint256)":"51dff989","repayBorrowAllowed(address,address,address,uint256)":"24008a62","repayBorrowVerify(address,address,address,uint256,uint256)":"1ededc91","seizeAllowed(address,address,address,address,uint256)":"d02f7351","seizeGuardianPaused()":"ac0b0bb7","seizeVerify(address,address,address,address,uint256)":"6d35bf91","setTonicAddress(address)":"1f408a75","tectonicCoreImplementation()":"7404e92c","tokenToPerUserTvlProtectLimit(address)":"98fc0f7b","tonicAccrued(address)":"66dd2e32","tonicBorrowState(address)":"454aafe0","tonicBorrowerIndex(address,address)":"af3fbb58","tonicContributorSpeeds(address)":"363c05be","tonicRate()":"248fb15c","tonicSpeeds(address)":"3cb9ea6c","tonicSupplierIndex(address,address)":"c7a6552a","tonicSupplyState(address)":"be493f1e","transferAllowed(address,address,address,uint256)":"bdcdc258","transferGuardianPaused()":"87f76303","transferVerify(address,address,address,uint256)":"6a56947e","updateContributorRewards(address)":"741b2525","utilizedTvlAmount(address,address)":"67d556fb","whitelistProtectEnabled()":"fe3be960","whitelistedAddresses(address)":"06c933d8"}}}}}