{"contracts/tectonic/TectonicCoreStorage.sol":{"TectonicCoreV5Storage":{"abi":[{"constant":true,"inputs":[],"name":"_borrowGuardianPaused","outputs":[{"internalType":"bool","name":"","type":"bool"}],"payable":false,"stateMutability":"view","type":"function"},{"constant":true,"inputs":[],"name":"_mintGuardianPaused","outputs":[{"internalType":"bool","name":"","type":"bool"}],"payable":false,"stateMutability":"view","type":"function"},{"constant":true,"inputs":[{"internalType":"address","name":"","type":"address"},{"internalType":"uint256","name":"","type":"uint256"}],"name":"accountAssets","outputs":[{"internalType":"address","name":"","type":"address"}],"payable":false,"stateMutability":"view","type":"function"},{"constant":true,"inputs":[],"name":"admin","outputs":[{"internalType":"address","name":"","type":"address"}],"payable":false,"stateMutability":"view","type":"function"},{"constant":true,"inputs":[{"internalType":"uint256","name":"","type":"uint256"}],"name":"allMarkets","outputs":[{"internalType":"contract TToken","name":"","type":"address"}],"payable":false,"stateMutability":"view","type":"function"},{"constant":true,"inputs":[],"name":"borrowCapGuardian","outputs":[{"internalType":"address","name":"","type":"address"}],"payable":false,"stateMutability":"view","type":"function"},{"constant":true,"inputs":[{"internalType":"address","name":"","type":"address"}],"name":"borrowCaps","outputs":[{"internalType":"uint256","name":"","type":"uint256"}],"payable":false,"stateMutability":"view","type":"function"},{"constant":true,"inputs":[{"internalType":"address","name":"","type":"address"}],"name":"borrowGuardianPaused","outputs":[{"internalType":"bool","name":"","type":"bool"}],"payable":false,"stateMutability":"view","type":"function"},{"constant":true,"inputs":[],"name":"closeFactorMantissa","outputs":[{"internalType":"uint256","name":"","type":"uint256"}],"payable":false,"stateMutability":"view","type":"function"},{"constant":true,"inputs":[{"internalType":"address","name":"","type":"address"}],"name":"lastContributorBlock","outputs":[{"internalType":"uint256","name":"","type":"uint256"}],"payable":false,"stateMutability":"view","type":"function"},{"constant":true,"inputs":[],"name":"liquidationIncentiveMantissa","outputs":[{"internalType":"uint256","name":"","type":"uint256"}],"payable":false,"stateMutability":"view","type":"function"},{"constant":true,"inputs":[{"internalType":"address","name":"","type":"address"}],"name":"markets","outputs":[{"internalType":"bool","name":"isListed","type":"bool"},{"internalType":"uint256","name":"collateralFactorMantissa","type":"uint256"},{"internalType":"bool","name":"isTonicized","type":"bool"}],"payable":false,"stateMutability":"view","type":"function"},{"constant":true,"inputs":[],"name":"maxAssets","outputs":[{"internalType":"uint256","name":"","type":"uint256"}],"payable":false,"stateMutability":"view","type":"function"},{"constant":true,"inputs":[{"internalType":"address","name":"","type":"address"}],"name":"mintGuardianPaused","outputs":[{"internalType":"bool","name":"","type":"bool"}],"payable":false,"stateMutability":"view","type":"function"},{"constant":true,"inputs":[],"name":"oracle","outputs":[{"internalType":"contract PriceOracle","name":"","type":"address"}],"payable":false,"stateMutability":"view","type":"function"},{"constant":true,"inputs":[],"name":"pauseGuardian","outputs":[{"internalType":"address","name":"","type":"address"}],"payable":false,"stateMutability":"view","type":"function"},{"constant":true,"inputs":[],"name":"pendingAdmin","outputs":[{"internalType":"address","name":"","type":"address"}],"payable":false,"stateMutability":"view","type":"function"},{"constant":true,"inputs":[],"name":"pendingTectonicCoreImplementation","outputs":[{"internalType":"address","name":"","type":"address"}],"payable":false,"stateMutability":"view","type":"function"},{"constant":true,"inputs":[],"name":"seizeGuardianPaused","outputs":[{"internalType":"bool","name":"","type":"bool"}],"payable":false,"stateMutability":"view","type":"function"},{"constant":true,"inputs":[],"name":"tectonicCoreImplementation","outputs":[{"internalType":"address","name":"","type":"address"}],"payable":false,"stateMutability":"view","type":"function"},{"constant":true,"inputs":[{"internalType":"address","name":"","type":"address"}],"name":"tonicAccrued","outputs":[{"internalType":"uint256","name":"","type":"uint256"}],"payable":false,"stateMutability":"view","type":"function"},{"constant":true,"inputs":[{"internalType":"address","name":"","type":"address"}],"name":"tonicBorrowState","outputs":[{"internalType":"uint224","name":"index","type":"uint224"},{"internalType":"uint32","name":"block","type":"uint32"}],"payable":false,"stateMutability":"view","type":"function"},{"constant":true,"inputs":[{"internalType":"address","name":"","type":"address"},{"internalType":"address","name":"","type":"address"}],"name":"tonicBorrowerIndex","outputs":[{"internalType":"uint256","name":"","type":"uint256"}],"payable":false,"stateMutability":"view","type":"function"},{"constant":true,"inputs":[{"internalType":"address","name":"","type":"address"}],"name":"tonicContributorSpeeds","outputs":[{"internalType":"uint256","name":"","type":"uint256"}],"payable":false,"stateMutability":"view","type":"function"},{"constant":true,"inputs":[],"name":"tonicRate","outputs":[{"internalType":"uint256","name":"","type":"uint256"}],"payable":false,"stateMutability":"view","type":"function"},{"constant":true,"inputs":[{"internalType":"address","name":"","type":"address"}],"name":"tonicSpeeds","outputs":[{"internalType":"uint256","name":"","type":"uint256"}],"payable":false,"stateMutability":"view","type":"function"},{"constant":true,"inputs":[{"internalType":"address","name":"","type":"address"},{"internalType":"address","name":"","type":"address"}],"name":"tonicSupplierIndex","outputs":[{"internalType":"uint256","name":"","type":"uint256"}],"payable":false,"stateMutability":"view","type":"function"},{"constant":true,"inputs":[{"internalType":"address","name":"","type":"address"}],"name":"tonicSupplyState","outputs":[{"internalType":"uint224","name":"index","type":"uint224"},{"internalType":"uint32","name":"block","type":"uint32"}],"payable":false,"stateMutability":"view","type":"function"},{"constant":true,"inputs":[],"name":"transferGuardianPaused","outputs":[{"internalType":"bool","name":"","type":"bool"}],"payable":false,"stateMutability":"view","type":"function"}],"evm":{"bytecode":{"linkReferences":{},"object":"608060405234801561001057600080fd5b50610783806100206000396000f3fe608060405234801561001057600080fd5b50600436106101cf5760003560e01c8063731f0c2b11610104578063af3fbb58116100a2578063dce1544911610071578063dce15449146104b5578063e6653f3d146104e1578063e8755446146104e9578063f851a440146104f1576101cf565b8063af3fbb581461040d578063be493f1e1461043b578063bea6b8b814610461578063c7a6552a14610487576101cf565b806387f76303116100de57806387f76303146103ad5780638e8f294b146103b557806394b2294b146103fd578063ac0b0bb714610405576101cf565b8063731f0c2b146103775780637404e92c1461039d5780637dc0d1d0146103a5576101cf565b80633cb9ea6c116101715780634ada90af1161014b5780634ada90af1461030657806352d84d1e1461030e57806366dd2e321461032b5780636d154ea514610351576101cf565b80633cb9ea6c1461026c578063454aafe0146102925780634a584432146102e0576101cf565b806324a3d622116101ad57806324a3d6221461021a5780632678224714610222578063363c05be1461022a5780633c94786f14610250576101cf565b80630b2efed6146101d457806321af4569146101f8578063248fb15c14610200575b600080fd5b6101dc6104f9565b604080516001600160a01b039092168252519081900360200190f35b6101dc610508565b610208610517565b60408051918252519081900360200190f35b6101dc61051d565b6101dc61052c565b6102086004803603602081101561024057600080fd5b50356001600160a01b031661053b565b61025861054d565b604080519115158252519081900360200190f35b6102086004803603602081101561028257600080fd5b50356001600160a01b031661055d565b6102b8600480360360208110156102a857600080fd5b50356001600160a01b031661056f565b604080516001600160e01b03909316835263ffffffff90911660208301528051918290030190f35b610208600480360360208110156102f657600080fd5b50356001600160a01b0316610599565b6102086105ab565b6101dc6004803603602081101561032457600080fd5b50356105b1565b6102086004803603602081101561034157600080fd5b50356001600160a01b03166105d8565b6102586004803603602081101561036757600080fd5b50356001600160a01b03166105ea565b6102586004803603602081101561038d57600080fd5b50356001600160a01b03166105ff565b6101dc610614565b6101dc610623565b610258610632565b6103db600480360360208110156103cb57600080fd5b50356001600160a01b0316610642565b6040805193151584526020840192909252151582820152519081900360600190f35b610208610668565b61025861066e565b6102086004803603604081101561042357600080fd5b506001600160a01b038135811691602001351661067e565b6102b86004803603602081101561045157600080fd5b50356001600160a01b031661069b565b6102086004803603602081101561047757600080fd5b50356001600160a01b03166106c5565b6102086004803603604081101561049d57600080fd5b506001600160a01b03813581169160200135166106d7565b6101dc600480360360408110156104cb57600080fd5b506001600160a01b0381351690602001356106f4565b610258610729565b610208610739565b6101dc61073f565b6003546001600160a01b031681565b6015546001600160a01b031681565b600e5481565b600a546001600160a01b031681565b6001546001600160a01b031681565b60176020526000908152604090205481565b600a54600160a01b900460ff1681565b600f6020526000908152604090205481565b6011602052600090815260409020546001600160e01b03811690600160e01b900463ffffffff1682565b60166020526000908152604090205481565b60065481565b600d81815481106105be57fe5b6000918252602090912001546001600160a01b0316905081565b60146020526000908152604090205481565b600c6020526000908152604090205460ff1681565b600b6020526000908152604090205460ff1681565b6002546001600160a01b031681565b6004546001600160a01b031681565b600a54600160b01b900460ff1681565b60096020526000908152604090208054600182015460039092015460ff91821692911683565b60075481565b600a54600160b81b900460ff1681565b601360209081526000928352604080842090915290825290205481565b6010602052600090815260409020546001600160e01b03811690600160e01b900463ffffffff1682565b60186020526000908152604090205481565b601260209081526000928352604080842090915290825290205481565b6008602052816000526040600020818154811061070d57fe5b6000918252602090912001546001600160a01b03169150829050565b600a54600160a81b900460ff1681565b60055481565b6000546001600160a01b03168156fea265627a7a723158202581127a9b42f20c2f2c9b15e8eb8014d117c3048c393754bd3df6f8284cc21364736f6c63430005100032","opcodes":"PUSH1 0x80 PUSH1 0x40 MSTORE CALLVALUE DUP1 ISZERO PUSH2 0x10 JUMPI PUSH1 0x0 DUP1 REVERT JUMPDEST POP PUSH2 0x783 DUP1 PUSH2 0x20 PUSH1 0x0 CODECOPY PUSH1 0x0 RETURN INVALID PUSH1 0x80 PUSH1 0x40 MSTORE CALLVALUE DUP1 ISZERO PUSH2 0x10 JUMPI PUSH1 0x0 DUP1 REVERT JUMPDEST POP PUSH1 0x4 CALLDATASIZE LT PUSH2 0x1CF JUMPI PUSH1 0x0 CALLDATALOAD PUSH1 0xE0 SHR DUP1 PUSH4 0x731F0C2B GT PUSH2 0x104 JUMPI DUP1 PUSH4 0xAF3FBB58 GT PUSH2 0xA2 JUMPI DUP1 PUSH4 0xDCE15449 GT PUSH2 0x71 JUMPI DUP1 PUSH4 0xDCE15449 EQ PUSH2 0x4B5 JUMPI DUP1 PUSH4 0xE6653F3D EQ PUSH2 0x4E1 JUMPI DUP1 PUSH4 0xE8755446 EQ PUSH2 0x4E9 JUMPI DUP1 PUSH4 0xF851A440 EQ PUSH2 0x4F1 JUMPI PUSH2 0x1CF JUMP JUMPDEST DUP1 PUSH4 0xAF3FBB58 EQ PUSH2 0x40D JUMPI DUP1 PUSH4 0xBE493F1E EQ PUSH2 0x43B JUMPI DUP1 PUSH4 0xBEA6B8B8 EQ PUSH2 0x461 JUMPI DUP1 PUSH4 0xC7A6552A EQ PUSH2 0x487 JUMPI PUSH2 0x1CF JUMP JUMPDEST DUP1 PUSH4 0x87F76303 GT PUSH2 0xDE JUMPI DUP1 PUSH4 0x87F76303 EQ PUSH2 0x3AD JUMPI DUP1 PUSH4 0x8E8F294B EQ PUSH2 0x3B5 JUMPI DUP1 PUSH4 0x94B2294B EQ PUSH2 0x3FD JUMPI DUP1 PUSH4 0xAC0B0BB7 EQ PUSH2 0x405 JUMPI PUSH2 0x1CF JUMP JUMPDEST DUP1 PUSH4 0x731F0C2B EQ PUSH2 0x377 JUMPI DUP1 PUSH4 0x7404E92C EQ PUSH2 0x39D JUMPI DUP1 PUSH4 0x7DC0D1D0 EQ PUSH2 0x3A5 JUMPI PUSH2 0x1CF JUMP JUMPDEST DUP1 PUSH4 0x3CB9EA6C GT PUSH2 0x171 JUMPI DUP1 PUSH4 0x4ADA90AF GT PUSH2 0x14B JUMPI DUP1 PUSH4 0x4ADA90AF EQ PUSH2 0x306 JUMPI DUP1 PUSH4 0x52D84D1E EQ PUSH2 0x30E JUMPI DUP1 PUSH4 0x66DD2E32 EQ PUSH2 0x32B JUMPI DUP1 PUSH4 0x6D154EA5 EQ PUSH2 0x351 JUMPI PUSH2 0x1CF JUMP JUMPDEST DUP1 PUSH4 0x3CB9EA6C EQ PUSH2 0x26C JUMPI DUP1 PUSH4 0x454AAFE0 EQ PUSH2 0x292 JUMPI DUP1 PUSH4 0x4A584432 EQ PUSH2 0x2E0 JUMPI PUSH2 0x1CF JUMP JUMPDEST DUP1 PUSH4 0x24A3D622 GT PUSH2 0x1AD JUMPI DUP1 PUSH4 0x24A3D622 EQ PUSH2 0x21A JUMPI DUP1 PUSH4 0x26782247 EQ PUSH2 0x222 JUMPI DUP1 PUSH4 0x363C05BE EQ PUSH2 0x22A JUMPI DUP1 PUSH4 0x3C94786F EQ PUSH2 0x250 JUMPI PUSH2 0x1CF JUMP JUMPDEST DUP1 PUSH4 0xB2EFED6 EQ PUSH2 0x1D4 JUMPI DUP1 PUSH4 0x21AF4569 EQ PUSH2 0x1F8 JUMPI DUP1 PUSH4 0x248FB15C EQ PUSH2 0x200 JUMPI JUMPDEST PUSH1 0x0 DUP1 REVERT JUMPDEST PUSH2 0x1DC PUSH2 0x4F9 JUMP JUMPDEST PUSH1 0x40 DUP1 MLOAD PUSH1 0x1 PUSH1 0x1 PUSH1 0xA0 SHL SUB SWAP1 SWAP3 AND DUP3 MSTORE MLOAD SWAP1 DUP2 SWAP1 SUB PUSH1 0x20 ADD SWAP1 RETURN JUMPDEST PUSH2 0x1DC PUSH2 0x508 JUMP JUMPDEST PUSH2 0x208 PUSH2 0x517 JUMP JUMPDEST PUSH1 0x40 DUP1 MLOAD SWAP2 DUP3 MSTORE MLOAD SWAP1 DUP2 SWAP1 SUB PUSH1 0x20 ADD SWAP1 RETURN JUMPDEST PUSH2 0x1DC PUSH2 0x51D JUMP JUMPDEST PUSH2 0x1DC PUSH2 0x52C JUMP JUMPDEST PUSH2 0x208 PUSH1 0x4 DUP1 CALLDATASIZE SUB PUSH1 0x20 DUP2 LT ISZERO PUSH2 0x240 JUMPI PUSH1 0x0 DUP1 REVERT JUMPDEST POP CALLDATALOAD PUSH1 0x1 PUSH1 0x1 PUSH1 0xA0 SHL SUB AND PUSH2 0x53B JUMP JUMPDEST PUSH2 0x258 PUSH2 0x54D JUMP JUMPDEST PUSH1 0x40 DUP1 MLOAD SWAP2 ISZERO ISZERO DUP3 MSTORE MLOAD SWAP1 DUP2 SWAP1 SUB PUSH1 0x20 ADD SWAP1 RETURN JUMPDEST PUSH2 0x208 PUSH1 0x4 DUP1 CALLDATASIZE SUB PUSH1 0x20 DUP2 LT ISZERO PUSH2 0x282 JUMPI PUSH1 0x0 DUP1 REVERT JUMPDEST POP CALLDATALOAD PUSH1 0x1 PUSH1 0x1 PUSH1 0xA0 SHL SUB AND PUSH2 0x55D JUMP JUMPDEST PUSH2 0x2B8 PUSH1 0x4 DUP1 CALLDATASIZE SUB PUSH1 0x20 DUP2 LT ISZERO PUSH2 0x2A8 JUMPI PUSH1 0x0 DUP1 REVERT JUMPDEST POP CALLDATALOAD PUSH1 0x1 PUSH1 0x1 PUSH1 0xA0 SHL SUB AND PUSH2 0x56F JUMP JUMPDEST PUSH1 0x40 DUP1 MLOAD PUSH1 0x1 PUSH1 0x1 PUSH1 0xE0 SHL SUB SWAP1 SWAP4 AND DUP4 MSTORE PUSH4 0xFFFFFFFF SWAP1 SWAP2 AND PUSH1 0x20 DUP4 ADD MSTORE DUP1 MLOAD SWAP2 DUP3 SWAP1 SUB ADD SWAP1 RETURN JUMPDEST PUSH2 0x208 PUSH1 0x4 DUP1 CALLDATASIZE SUB PUSH1 0x20 DUP2 LT ISZERO PUSH2 0x2F6 JUMPI PUSH1 0x0 DUP1 REVERT JUMPDEST POP CALLDATALOAD PUSH1 0x1 PUSH1 0x1 PUSH1 0xA0 SHL SUB AND PUSH2 0x599 JUMP JUMPDEST PUSH2 0x208 PUSH2 0x5AB JUMP JUMPDEST PUSH2 0x1DC PUSH1 0x4 DUP1 CALLDATASIZE SUB PUSH1 0x20 DUP2 LT ISZERO PUSH2 0x324 JUMPI PUSH1 0x0 DUP1 REVERT JUMPDEST POP CALLDATALOAD PUSH2 0x5B1 JUMP JUMPDEST PUSH2 0x208 PUSH1 0x4 DUP1 CALLDATASIZE SUB PUSH1 0x20 DUP2 LT ISZERO PUSH2 0x341 JUMPI PUSH1 0x0 DUP1 REVERT JUMPDEST POP CALLDATALOAD PUSH1 0x1 PUSH1 0x1 PUSH1 0xA0 SHL SUB AND PUSH2 0x5D8 JUMP JUMPDEST PUSH2 0x258 PUSH1 0x4 DUP1 CALLDATASIZE SUB PUSH1 0x20 DUP2 LT ISZERO PUSH2 0x367 JUMPI PUSH1 0x0 DUP1 REVERT JUMPDEST POP CALLDATALOAD PUSH1 0x1 PUSH1 0x1 PUSH1 0xA0 SHL SUB AND PUSH2 0x5EA JUMP JUMPDEST PUSH2 0x258 PUSH1 0x4 DUP1 CALLDATASIZE SUB PUSH1 0x20 DUP2 LT ISZERO PUSH2 0x38D JUMPI PUSH1 0x0 DUP1 REVERT JUMPDEST POP CALLDATALOAD PUSH1 0x1 PUSH1 0x1 PUSH1 0xA0 SHL SUB AND PUSH2 0x5FF JUMP JUMPDEST PUSH2 0x1DC PUSH2 0x614 JUMP JUMPDEST PUSH2 0x1DC PUSH2 0x623 JUMP JUMPDEST PUSH2 0x258 PUSH2 0x632 JUMP JUMPDEST PUSH2 0x3DB PUSH1 0x4 DUP1 CALLDATASIZE SUB PUSH1 0x20 DUP2 LT ISZERO PUSH2 0x3CB JUMPI PUSH1 0x0 DUP1 REVERT JUMPDEST POP CALLDATALOAD PUSH1 0x1 PUSH1 0x1 PUSH1 0xA0 SHL SUB AND PUSH2 0x642 JUMP JUMPDEST PUSH1 0x40 DUP1 MLOAD SWAP4 ISZERO ISZERO DUP5 MSTORE PUSH1 0x20 DUP5 ADD SWAP3 SWAP1 SWAP3 MSTORE ISZERO ISZERO DUP3 DUP3 ADD MSTORE MLOAD SWAP1 DUP2 SWAP1 SUB PUSH1 0x60 ADD SWAP1 RETURN JUMPDEST PUSH2 0x208 PUSH2 0x668 JUMP JUMPDEST PUSH2 0x258 PUSH2 0x66E JUMP JUMPDEST PUSH2 0x208 PUSH1 0x4 DUP1 CALLDATASIZE SUB PUSH1 0x40 DUP2 LT ISZERO PUSH2 0x423 JUMPI PUSH1 0x0 DUP1 REVERT JUMPDEST POP PUSH1 0x1 PUSH1 0x1 PUSH1 0xA0 SHL SUB DUP2 CALLDATALOAD DUP2 AND SWAP2 PUSH1 0x20 ADD CALLDATALOAD AND PUSH2 0x67E JUMP JUMPDEST PUSH2 0x2B8 PUSH1 0x4 DUP1 CALLDATASIZE SUB PUSH1 0x20 DUP2 LT ISZERO PUSH2 0x451 JUMPI PUSH1 0x0 DUP1 REVERT JUMPDEST POP CALLDATALOAD PUSH1 0x1 PUSH1 0x1 PUSH1 0xA0 SHL SUB AND PUSH2 0x69B JUMP JUMPDEST PUSH2 0x208 PUSH1 0x4 DUP1 CALLDATASIZE SUB PUSH1 0x20 DUP2 LT ISZERO PUSH2 0x477 JUMPI PUSH1 0x0 DUP1 REVERT JUMPDEST POP CALLDATALOAD PUSH1 0x1 PUSH1 0x1 PUSH1 0xA0 SHL SUB AND PUSH2 0x6C5 JUMP JUMPDEST PUSH2 0x208 PUSH1 0x4 DUP1 CALLDATASIZE SUB PUSH1 0x40 DUP2 LT ISZERO PUSH2 0x49D JUMPI PUSH1 0x0 DUP1 REVERT JUMPDEST POP PUSH1 0x1 PUSH1 0x1 PUSH1 0xA0 SHL SUB DUP2 CALLDATALOAD DUP2 AND SWAP2 PUSH1 0x20 ADD CALLDATALOAD AND PUSH2 0x6D7 JUMP JUMPDEST PUSH2 0x1DC PUSH1 0x4 DUP1 CALLDATASIZE SUB PUSH1 0x40 DUP2 LT ISZERO PUSH2 0x4CB JUMPI PUSH1 0x0 DUP1 REVERT JUMPDEST POP PUSH1 0x1 PUSH1 0x1 PUSH1 0xA0 SHL SUB DUP2 CALLDATALOAD AND SWAP1 PUSH1 0x20 ADD CALLDATALOAD PUSH2 0x6F4 JUMP JUMPDEST PUSH2 0x258 PUSH2 0x729 JUMP JUMPDEST PUSH2 0x208 PUSH2 0x739 JUMP JUMPDEST PUSH2 0x1DC PUSH2 0x73F JUMP JUMPDEST PUSH1 0x3 SLOAD PUSH1 0x1 PUSH1 0x1 PUSH1 0xA0 SHL SUB AND DUP2 JUMP JUMPDEST PUSH1 0x15 SLOAD PUSH1 0x1 PUSH1 0x1 PUSH1 0xA0 SHL SUB AND DUP2 JUMP JUMPDEST PUSH1 0xE SLOAD DUP2 JUMP JUMPDEST PUSH1 0xA SLOAD PUSH1 0x1 PUSH1 0x1 PUSH1 0xA0 SHL SUB AND DUP2 JUMP JUMPDEST PUSH1 0x1 SLOAD PUSH1 0x1 PUSH1 0x1 PUSH1 0xA0 SHL SUB AND DUP2 JUMP JUMPDEST PUSH1 0x17 PUSH1 0x20 MSTORE PUSH1 0x0 SWAP1 DUP2 MSTORE PUSH1 0x40 SWAP1 KECCAK256 SLOAD DUP2 JUMP JUMPDEST PUSH1 0xA SLOAD PUSH1 0x1 PUSH1 0xA0 SHL SWAP1 DIV PUSH1 0xFF AND DUP2 JUMP JUMPDEST PUSH1 0xF PUSH1 0x20 MSTORE PUSH1 0x0 SWAP1 DUP2 MSTORE PUSH1 0x40 SWAP1 KECCAK256 SLOAD DUP2 JUMP JUMPDEST PUSH1 0x11 PUSH1 0x20 MSTORE PUSH1 0x0 SWAP1 DUP2 MSTORE PUSH1 0x40 SWAP1 KECCAK256 SLOAD PUSH1 0x1 PUSH1 0x1 PUSH1 0xE0 SHL SUB DUP2 AND SWAP1 PUSH1 0x1 PUSH1 0xE0 SHL SWAP1 DIV PUSH4 0xFFFFFFFF AND DUP3 JUMP JUMPDEST PUSH1 0x16 PUSH1 0x20 MSTORE PUSH1 0x0 SWAP1 DUP2 MSTORE PUSH1 0x40 SWAP1 KECCAK256 SLOAD DUP2 JUMP JUMPDEST PUSH1 0x6 SLOAD DUP2 JUMP JUMPDEST PUSH1 0xD DUP2 DUP2 SLOAD DUP2 LT PUSH2 0x5BE JUMPI INVALID JUMPDEST PUSH1 0x0 SWAP2 DUP3 MSTORE PUSH1 0x20 SWAP1 SWAP2 KECCAK256 ADD SLOAD PUSH1 0x1 PUSH1 0x1 PUSH1 0xA0 SHL SUB AND SWAP1 POP DUP2 JUMP JUMPDEST PUSH1 0x14 PUSH1 0x20 MSTORE PUSH1 0x0 SWAP1 DUP2 MSTORE PUSH1 0x40 SWAP1 KECCAK256 SLOAD DUP2 JUMP JUMPDEST PUSH1 0xC PUSH1 0x20 MSTORE PUSH1 0x0 SWAP1 DUP2 MSTORE PUSH1 0x40 SWAP1 KECCAK256 SLOAD PUSH1 0xFF AND DUP2 JUMP JUMPDEST PUSH1 0xB PUSH1 0x20 MSTORE PUSH1 0x0 SWAP1 DUP2 MSTORE PUSH1 0x40 SWAP1 KECCAK256 SLOAD PUSH1 0xFF AND DUP2 JUMP JUMPDEST PUSH1 0x2 SLOAD PUSH1 0x1 PUSH1 0x1 PUSH1 0xA0 SHL SUB AND DUP2 JUMP JUMPDEST PUSH1 0x4 SLOAD PUSH1 0x1 PUSH1 0x1 PUSH1 0xA0 SHL SUB AND DUP2 JUMP JUMPDEST PUSH1 0xA SLOAD PUSH1 0x1 PUSH1 0xB0 SHL SWAP1 DIV PUSH1 0xFF AND DUP2 JUMP JUMPDEST PUSH1 0x9 PUSH1 0x20 MSTORE PUSH1 0x0 SWAP1 DUP2 MSTORE PUSH1 0x40 SWAP1 KECCAK256 DUP1 SLOAD PUSH1 0x1 DUP3 ADD SLOAD PUSH1 0x3 SWAP1 SWAP3 ADD SLOAD PUSH1 0xFF SWAP2 DUP3 AND SWAP3 SWAP2 AND DUP4 JUMP JUMPDEST PUSH1 0x7 SLOAD DUP2 JUMP JUMPDEST PUSH1 0xA SLOAD PUSH1 0x1 PUSH1 0xB8 SHL SWAP1 DIV PUSH1 0xFF AND DUP2 JUMP JUMPDEST PUSH1 0x13 PUSH1 0x20 SWAP1 DUP2 MSTORE PUSH1 0x0 SWAP3 DUP4 MSTORE PUSH1 0x40 DUP1 DUP5 KECCAK256 SWAP1 SWAP2 MSTORE SWAP1 DUP3 MSTORE SWAP1 KECCAK256 SLOAD DUP2 JUMP JUMPDEST PUSH1 0x10 PUSH1 0x20 MSTORE PUSH1 0x0 SWAP1 DUP2 MSTORE PUSH1 0x40 SWAP1 KECCAK256 SLOAD PUSH1 0x1 PUSH1 0x1 PUSH1 0xE0 SHL SUB DUP2 AND SWAP1 PUSH1 0x1 PUSH1 0xE0 SHL SWAP1 DIV PUSH4 0xFFFFFFFF AND DUP3 JUMP JUMPDEST PUSH1 0x18 PUSH1 0x20 MSTORE PUSH1 0x0 SWAP1 DUP2 MSTORE PUSH1 0x40 SWAP1 KECCAK256 SLOAD DUP2 JUMP JUMPDEST PUSH1 0x12 PUSH1 0x20 SWAP1 DUP2 MSTORE PUSH1 0x0 SWAP3 DUP4 MSTORE PUSH1 0x40 DUP1 DUP5 KECCAK256 SWAP1 SWAP2 MSTORE SWAP1 DUP3 MSTORE SWAP1 KECCAK256 SLOAD DUP2 JUMP JUMPDEST PUSH1 0x8 PUSH1 0x20 MSTORE DUP2 PUSH1 0x0 MSTORE PUSH1 0x40 PUSH1 0x0 KECCAK256 DUP2 DUP2 SLOAD DUP2 LT PUSH2 0x70D JUMPI INVALID JUMPDEST PUSH1 0x0 SWAP2 DUP3 MSTORE PUSH1 0x20 SWAP1 SWAP2 KECCAK256 ADD SLOAD PUSH1 0x1 PUSH1 0x1 PUSH1 0xA0 SHL SUB AND SWAP2 POP DUP3 SWAP1 POP JUMP JUMPDEST PUSH1 0xA SLOAD PUSH1 0x1 PUSH1 0xA8 SHL SWAP1 DIV PUSH1 0xFF AND DUP2 JUMP JUMPDEST PUSH1 0x5 SLOAD DUP2 JUMP JUMPDEST PUSH1 0x0 SLOAD PUSH1 0x1 PUSH1 0x1 PUSH1 0xA0 SHL SUB AND DUP2 JUMP INVALID LOG2 PUSH6 0x627A7A723158 KECCAK256 0x25 DUP2 SLT PUSH27 0x9B42F20C2F2C9B15E8EB8014D117C3048C393754BD3DF6F8284CC2 SGT PUSH5 0x736F6C6343 STOP SDIV LT STOP ORIGIN "},"methodIdentifiers":{"_borrowGuardianPaused()":"e6653f3d","_mintGuardianPaused()":"3c94786f","accountAssets(address,uint256)":"dce15449","admin()":"f851a440","allMarkets(uint256)":"52d84d1e","borrowCapGuardian()":"21af4569","borrowCaps(address)":"4a584432","borrowGuardianPaused(address)":"6d154ea5","closeFactorMantissa()":"e8755446","lastContributorBlock(address)":"bea6b8b8","liquidationIncentiveMantissa()":"4ada90af","markets(address)":"8e8f294b","maxAssets()":"94b2294b","mintGuardianPaused(address)":"731f0c2b","oracle()":"7dc0d1d0","pauseGuardian()":"24a3d622","pendingAdmin()":"26782247","pendingTectonicCoreImplementation()":"0b2efed6","seizeGuardianPaused()":"ac0b0bb7","tectonicCoreImplementation()":"7404e92c","tonicAccrued(address)":"66dd2e32","tonicBorrowState(address)":"454aafe0","tonicBorrowerIndex(address,address)":"af3fbb58","tonicContributorSpeeds(address)":"363c05be","tonicRate()":"248fb15c","tonicSpeeds(address)":"3cb9ea6c","tonicSupplierIndex(address,address)":"c7a6552a","tonicSupplyState(address)":"be493f1e","transferGuardianPaused()":"87f76303"}}}}}