{"contracts/tectonic/MockInterestRateModel.sol":{"MockInterestRateModel":{"abi":[{"constant":true,"inputs":[{"internalType":"uint256","name":"cash","type":"uint256"},{"internalType":"uint256","name":"borrows","type":"uint256"},{"internalType":"uint256","name":"reserves","type":"uint256"}],"name":"getBorrowRate","outputs":[{"internalType":"uint256","name":"","type":"uint256"}],"payable":false,"stateMutability":"view","type":"function"},{"constant":true,"inputs":[{"internalType":"uint256","name":"cash","type":"uint256"},{"internalType":"uint256","name":"borrows","type":"uint256"},{"internalType":"uint256","name":"reserves","type":"uint256"},{"internalType":"uint256","name":"reserveFactorMantissa","type":"uint256"}],"name":"getSupplyRate","outputs":[{"internalType":"uint256","name":"","type":"uint256"}],"payable":false,"stateMutability":"view","type":"function"},{"constant":true,"inputs":[],"name":"isInterestRateModel","outputs":[{"internalType":"bool","name":"","type":"bool"}],"payable":false,"stateMutability":"view","type":"function"}],"evm":{"bytecode":{"linkReferences":{},"object":"608060405234801561001057600080fd5b5061010c806100206000396000f3fe6080604052348015600f57600080fd5b5060043610603c5760003560e01c806315f240531460415780632191f92a146079578063b8168816146093575b600080fd5b606760048036036060811015605557600080fd5b508035906020810135906040013560bf565b60408051918252519081900360200190f35b607f60c8565b604080519115158252519081900360200190f35b60676004803603608081101560a757600080fd5b508035906020810135906040810135906060013560cd565b60009392505050565b600181565b600094935050505056fea265627a7a72315820b2e6d4104878f0b13663a283eb817c50ede8957f3078e92bd7e74c7bb2898d8664736f6c63430005100032","opcodes":"PUSH1 0x80 PUSH1 0x40 MSTORE CALLVALUE DUP1 ISZERO PUSH2 0x10 JUMPI PUSH1 0x0 DUP1 REVERT JUMPDEST POP PUSH2 0x10C DUP1 PUSH2 0x20 PUSH1 0x0 CODECOPY PUSH1 0x0 RETURN INVALID PUSH1 0x80 PUSH1 0x40 MSTORE CALLVALUE DUP1 ISZERO PUSH1 0xF JUMPI PUSH1 0x0 DUP1 REVERT JUMPDEST POP PUSH1 0x4 CALLDATASIZE LT PUSH1 0x3C JUMPI PUSH1 0x0 CALLDATALOAD PUSH1 0xE0 SHR DUP1 PUSH4 0x15F24053 EQ PUSH1 0x41 JUMPI DUP1 PUSH4 0x2191F92A EQ PUSH1 0x79 JUMPI DUP1 PUSH4 0xB8168816 EQ PUSH1 0x93 JUMPI JUMPDEST PUSH1 0x0 DUP1 REVERT JUMPDEST PUSH1 0x67 PUSH1 0x4 DUP1 CALLDATASIZE SUB PUSH1 0x60 DUP2 LT ISZERO PUSH1 0x55 JUMPI PUSH1 0x0 DUP1 REVERT JUMPDEST POP DUP1 CALLDATALOAD SWAP1 PUSH1 0x20 DUP2 ADD CALLDATALOAD SWAP1 PUSH1 0x40 ADD CALLDATALOAD PUSH1 0xBF JUMP JUMPDEST PUSH1 0x40 DUP1 MLOAD SWAP2 DUP3 MSTORE MLOAD SWAP1 DUP2 SWAP1 SUB PUSH1 0x20 ADD SWAP1 RETURN JUMPDEST PUSH1 0x7F PUSH1 0xC8 JUMP JUMPDEST PUSH1 0x40 DUP1 MLOAD SWAP2 ISZERO ISZERO DUP3 MSTORE MLOAD SWAP1 DUP2 SWAP1 SUB PUSH1 0x20 ADD SWAP1 RETURN JUMPDEST PUSH1 0x67 PUSH1 0x4 DUP1 CALLDATASIZE SUB PUSH1 0x80 DUP2 LT ISZERO PUSH1 0xA7 JUMPI PUSH1 0x0 DUP1 REVERT JUMPDEST POP DUP1 CALLDATALOAD SWAP1 PUSH1 0x20 DUP2 ADD CALLDATALOAD SWAP1 PUSH1 0x40 DUP2 ADD CALLDATALOAD SWAP1 PUSH1 0x60 ADD CALLDATALOAD PUSH1 0xCD JUMP JUMPDEST PUSH1 0x0 SWAP4 SWAP3 POP POP POP JUMP JUMPDEST PUSH1 0x1 DUP2 JUMP JUMPDEST PUSH1 0x0 SWAP5 SWAP4 POP POP POP POP JUMP INVALID LOG2 PUSH6 0x627A7A723158 KECCAK256 0xB2 0xE6 0xD4 LT 0x48 PUSH25 0xF0B13663A283EB817C50EDE8957F3078E92BD7E74C7BB2898D DUP7 PUSH5 0x736F6C6343 STOP SDIV LT STOP ORIGIN "},"methodIdentifiers":{"getBorrowRate(uint256,uint256,uint256)":"15f24053","getSupplyRate(uint256,uint256,uint256,uint256)":"b8168816","isInterestRateModel()":"2191f92a"}}}}}